{
  "contractName": "BlockMiner",
  "abi": [
    {
      "inputs": [],
      "stateMutability": "nonpayable",
      "type": "constructor"
    },
    {
      "inputs": [],
      "name": "blocksMined",
      "outputs": [
        {
          "internalType": "uint256",
          "name": "",
          "type": "uint256"
        }
      ],
      "stateMutability": "view",
      "type": "function"
    },
    {
      "inputs": [],
      "name": "mine",
      "outputs": [],
      "stateMutability": "nonpayable",
      "type": "function"
    },
    {
      "inputs": [],
      "name": "blockTime",
      "outputs": [
        {
          "internalType": "uint256",
          "name": "",
          "type": "uint256"
        }
      ],
      "stateMutability": "view",
      "type": "function"
    }
  ],
  "bytecode": "0x608060405234801561001057600080fd5b506000805560b2806100236000396000f3fe6080604052348015600f57600080fd5b5060043610603c5760003560e01c806348b151661460415780638c4afaf614605957806399f4b25114605f575b600080fd5b60476067565b60408051918252519081900360200190f35b6047606b565b60656071565b005b4290565b60005481565b60008054600101905556fea2646970667358221220efaabb0e472533d7e3f1c6e1da0aac138da3f9559d48dadb45cad93a22b1730664736f6c634300060c0033",
  "immutableReferences": {},
  "source": "// SPDX-License-Identifier: MIT\npragma solidity 0.6.12;\n// file: BlockMinder.sol\n\n// used to \"waste\" blocks for truffle tests\ncontract BlockMiner {\n    uint256 public blocksMined;\n\n    constructor () public {\n        blocksMined = 0;\n    }\n\n    function mine() public {\n       blocksMined += 1;\n    }\n\n    function blockTime() external view returns (uint256) {\n       return block.timestamp;\n    }\n}",
  "sourcePath": "/Users/cooper/GitHub/Prigogine/Ceres-Protocol/contracts/Utils/BlockMiner.sol",
  "compiler": {
    "name": "solc",
    "version": "0.6.12+commit.27d51765.Emscripten.clang"
  },
  "schemaVersion": "3.4.1",
  "updatedAt": "2021-07-29T07:51:31.593Z",
  "devdoc": {
    "kind": "dev",
    "methods": {},
    "version": 1
  },
  "userdoc": {
    "kind": "user",
    "methods": {},
    "version": 1
  }
}