{
  "contractName": "Boardroom",
  "abi": [
    {
      "inputs": [
        {
          "internalType": "contract IERC20",
          "name": "_cash",
          "type": "address"
        },
        {
          "internalType": "contract IERC20",
          "name": "_share",
          "type": "address"
        }
      ],
      "stateMutability": "nonpayable",
      "type": "constructor"
    },
    {
      "anonymous": false,
      "inputs": [
        {
          "indexed": true,
          "internalType": "address",
          "name": "user",
          "type": "address"
        },
        {
          "indexed": false,
          "internalType": "uint256",
          "name": "reward",
          "type": "uint256"
        }
      ],
      "name": "RewardAdded",
      "type": "event"
    },
    {
      "anonymous": false,
      "inputs": [
        {
          "indexed": true,
          "internalType": "address",
          "name": "user",
          "type": "address"
        },
        {
          "indexed": false,
          "internalType": "uint256",
          "name": "reward",
          "type": "uint256"
        }
      ],
      "name": "RewardPaid",
      "type": "event"
    },
    {
      "anonymous": false,
      "inputs": [
        {
          "indexed": true,
          "internalType": "address",
          "name": "user",
          "type": "address"
        },
        {
          "indexed": false,
          "internalType": "uint256",
          "name": "amount",
          "type": "uint256"
        }
      ],
      "name": "Staked",
      "type": "event"
    },
    {
      "anonymous": false,
      "inputs": [
        {
          "indexed": true,
          "internalType": "address",
          "name": "user",
          "type": "address"
        },
        {
          "indexed": false,
          "internalType": "uint256",
          "name": "amount",
          "type": "uint256"
        }
      ],
      "name": "Withdrawn",
      "type": "event"
    },
    {
      "inputs": [
        {
          "internalType": "address",
          "name": "account",
          "type": "address"
        }
      ],
      "name": "balanceOf",
      "outputs": [
        {
          "internalType": "uint256",
          "name": "",
          "type": "uint256"
        }
      ],
      "stateMutability": "view",
      "type": "function"
    },
    {
      "inputs": [],
      "name": "cash",
      "outputs": [
        {
          "internalType": "contract IERC20",
          "name": "",
          "type": "address"
        }
      ],
      "stateMutability": "view",
      "type": "function"
    },
    {
      "inputs": [],
      "name": "epochAlignTimestamp",
      "outputs": [
        {
          "internalType": "uint256",
          "name": "",
          "type": "uint256"
        }
      ],
      "stateMutability": "view",
      "type": "function"
    },
    {
      "inputs": [],
      "name": "epochPeriod",
      "outputs": [
        {
          "internalType": "uint256",
          "name": "",
          "type": "uint256"
        }
      ],
      "stateMutability": "view",
      "type": "function"
    },
    {
      "inputs": [
        {
          "internalType": "address",
          "name": "",
          "type": "address"
        }
      ],
      "name": "referralAmount",
      "outputs": [
        {
          "internalType": "uint256",
          "name": "",
          "type": "uint256"
        }
      ],
      "stateMutability": "view",
      "type": "function"
    },
    {
      "inputs": [
        {
          "internalType": "uint256",
          "name": "",
          "type": "uint256"
        }
      ],
      "name": "referralList",
      "outputs": [
        {
          "internalType": "address",
          "name": "",
          "type": "address"
        }
      ],
      "stateMutability": "view",
      "type": "function"
    },
    {
      "inputs": [
        {
          "internalType": "uint256",
          "name": "",
          "type": "uint256"
        }
      ],
      "name": "referralNameList",
      "outputs": [
        {
          "internalType": "string",
          "name": "",
          "type": "string"
        }
      ],
      "stateMutability": "view",
      "type": "function"
    },
    {
      "inputs": [],
      "name": "rewardLockupEpochs",
      "outputs": [
        {
          "internalType": "uint256",
          "name": "",
          "type": "uint256"
        }
      ],
      "stateMutability": "view",
      "type": "function"
    },
    {
      "inputs": [],
      "name": "share",
      "outputs": [
        {
          "internalType": "contract IERC20",
          "name": "",
          "type": "address"
        }
      ],
      "stateMutability": "view",
      "type": "function"
    },
    {
      "inputs": [],
      "name": "totalReferralAmount",
      "outputs": [
        {
          "internalType": "uint256",
          "name": "",
          "type": "uint256"
        }
      ],
      "stateMutability": "view",
      "type": "function"
    },
    {
      "inputs": [],
      "name": "totalSupply",
      "outputs": [
        {
          "internalType": "uint256",
          "name": "",
          "type": "uint256"
        }
      ],
      "stateMutability": "view",
      "type": "function"
    },
    {
      "inputs": [],
      "name": "withdrawLockupEpochs",
      "outputs": [
        {
          "internalType": "uint256",
          "name": "",
          "type": "uint256"
        }
      ],
      "stateMutability": "view",
      "type": "function"
    },
    {
      "inputs": [],
      "name": "latestSnapshotIndex",
      "outputs": [
        {
          "internalType": "uint256",
          "name": "",
          "type": "uint256"
        }
      ],
      "stateMutability": "view",
      "type": "function"
    },
    {
      "inputs": [
        {
          "internalType": "address",
          "name": "director",
          "type": "address"
        }
      ],
      "name": "getLastSnapshotIndexOf",
      "outputs": [
        {
          "internalType": "uint256",
          "name": "",
          "type": "uint256"
        }
      ],
      "stateMutability": "view",
      "type": "function"
    },
    {
      "inputs": [],
      "name": "getCurrentEpochTimestamp",
      "outputs": [
        {
          "internalType": "uint256",
          "name": "",
          "type": "uint256"
        }
      ],
      "stateMutability": "view",
      "type": "function"
    },
    {
      "inputs": [
        {
          "internalType": "address",
          "name": "director",
          "type": "address"
        }
      ],
      "name": "getCanWithdrawTime",
      "outputs": [
        {
          "internalType": "uint256",
          "name": "",
          "type": "uint256"
        }
      ],
      "stateMutability": "view",
      "type": "function"
    },
    {
      "inputs": [
        {
          "internalType": "address",
          "name": "director",
          "type": "address"
        }
      ],
      "name": "getCanClaimTime",
      "outputs": [
        {
          "internalType": "uint256",
          "name": "",
          "type": "uint256"
        }
      ],
      "stateMutability": "view",
      "type": "function"
    },
    {
      "inputs": [
        {
          "internalType": "address",
          "name": "director",
          "type": "address"
        }
      ],
      "name": "canWithdraw",
      "outputs": [
        {
          "internalType": "bool",
          "name": "",
          "type": "bool"
        }
      ],
      "stateMutability": "view",
      "type": "function"
    },
    {
      "inputs": [
        {
          "internalType": "address",
          "name": "director",
          "type": "address"
        }
      ],
      "name": "canClaimReward",
      "outputs": [
        {
          "internalType": "bool",
          "name": "",
          "type": "bool"
        }
      ],
      "stateMutability": "view",
      "type": "function"
    },
    {
      "inputs": [],
      "name": "rewardPerShare",
      "outputs": [
        {
          "internalType": "uint256",
          "name": "",
          "type": "uint256"
        }
      ],
      "stateMutability": "view",
      "type": "function"
    },
    {
      "inputs": [
        {
          "internalType": "address",
          "name": "director",
          "type": "address"
        }
      ],
      "name": "earned",
      "outputs": [
        {
          "internalType": "uint256",
          "name": "",
          "type": "uint256"
        }
      ],
      "stateMutability": "view",
      "type": "function"
    },
    {
      "inputs": [
        {
          "internalType": "uint256",
          "name": "_withdrawLockupEpochs",
          "type": "uint256"
        },
        {
          "internalType": "uint256",
          "name": "_rewardLockupEpochs",
          "type": "uint256"
        },
        {
          "internalType": "uint256",
          "name": "_epochAlignTimestamp",
          "type": "uint256"
        },
        {
          "internalType": "uint256",
          "name": "_epochPeriod",
          "type": "uint256"
        }
      ],
      "name": "setLockUp",
      "outputs": [],
      "stateMutability": "nonpayable",
      "type": "function"
    },
    {
      "inputs": [
        {
          "internalType": "uint256",
          "name": "amount",
          "type": "uint256"
        }
      ],
      "name": "stake",
      "outputs": [],
      "stateMutability": "nonpayable",
      "type": "function"
    },
    {
      "inputs": [
        {
          "internalType": "uint256",
          "name": "amount",
          "type": "uint256"
        }
      ],
      "name": "withdraw",
      "outputs": [],
      "stateMutability": "nonpayable",
      "type": "function"
    },
    {
      "inputs": [],
      "name": "exit",
      "outputs": [],
      "stateMutability": "nonpayable",
      "type": "function"
    },
    {
      "inputs": [],
      "name": "claimReward",
      "outputs": [],
      "stateMutability": "nonpayable",
      "type": "function"
    },
    {
      "inputs": [
        {
          "internalType": "uint256",
          "name": "amount",
          "type": "uint256"
        }
      ],
      "name": "allocateSeigniorage",
      "outputs": [],
      "stateMutability": "nonpayable",
      "type": "function"
    },
    {
      "inputs": [
        {
          "internalType": "address",
          "name": "_referral",
          "type": "address"
        },
        {
          "internalType": "string",
          "name": "_name",
          "type": "string"
        }
      ],
      "name": "addReferral",
      "outputs": [],
      "stateMutability": "nonpayable",
      "type": "function"
    },
    {
      "inputs": [],
      "name": "getReferralList",
      "outputs": [
        {
          "internalType": "address[]",
          "name": "",
          "type": "address[]"
        }
      ],
      "stateMutability": "view",
      "type": "function"
    },
    {
      "inputs": [],
      "name": "getReferralNameList",
      "outputs": [
        {
          "internalType": "string[]",
          "name": "",
          "type": "string[]"
        }
      ],
      "stateMutability": "view",
      "type": "function"
    },
    {
      "inputs": [
        {
          "internalType": "address",
          "name": "_referral",
          "type": "address"
        }
      ],
      "name": "getReferralAmount",
      "outputs": [
        {
          "internalType": "uint256",
          "name": "",
          "type": "uint256"
        }
      ],
      "stateMutability": "view",
      "type": "function"
    },
    {
      "inputs": [],
      "name": "getTotalReferralAmount",
      "outputs": [
        {
          "internalType": "uint256",
          "name": "",
          "type": "uint256"
        }
      ],
      "stateMutability": "view",
      "type": "function"
    }
  ],
  "bytecode": "0x608060405260026004556002600555635fe59c0060065561012c6007553480156200002957600080fd5b506040516200217c3803806200217c8339810160408190526200004c916200016e565b600880546001600160a01b038085166001600160a01b0319928316179092556000805492841692909116919091179055620000866200012f565b505060408051606081018252438152600060208201818152928201818152600a8054600181018255925291517fc65a7bb8d6351c1cf70c95a316cc6a92839c986682d98bc35f958f4883f9d2a860039092029182015591517fc65a7bb8d6351c1cf70c95a316cc6a92839c986682d98bc35f958f4883f9d2a9830155517fc65a7bb8d6351c1cf70c95a316cc6a92839c986682d98bc35f958f4883f9d2aa9091015550620001a7565b60405180606001604052806000815260200160008152602001600081525090565b80516001600160a01b03811681146200016857600080fd5b92915050565b6000806040838503121562000181578182fd5b6200018d848462000150565b91506200019e846020850162000150565b90509250929050565b611fc580620001b76000396000f3fe608060405234801561001057600080fd5b50600436106101ef5760003560e01c806376f11ca61161010f578063a8d5fd65116100a2578063d2a6fbc111610071578063d2a6fbc1146103ba578063d91e0ddc146103cd578063ddbcb5a4146103e0578063e9fad8ee146103f5576101ef565b8063a8d5fd6514610382578063b5b7a1841461038a578063b88a802f14610392578063cc7e6ed81461039a576101ef565b8063961be391116100de578063961be3911461033457806397ffe1d714610349578063a437a6771461035c578063a694fc3a1461036f576101ef565b806376f11ca6146102f157806383825ced1461030657806385f036ce1461030e57806395d4c7bb14610321576101ef565b80633f9e3f04116101875780636f013789116101565780636f013789146102bb57806370a08231146102c3578063714b4658146102d657806373937fbb146102e9576101ef565b80633f9e3f04146102855780634453511d1461028d578063446a2ec8146102a05780635b17e0eb146102a8576101ef565b806319262d30116101c357806319262d301461024d5780631be2ff97146102605780631e85cd65146102685780632e1a7d4d14610270576101ef565b80628cc262146101f4578063022ba18d1461021d578063046335d01461022557806318160ddd14610245575b600080fd5b6102076102023660046117b8565b6103fd565b6040516102149190611f38565b60405180910390f35b61020761048b565b6102386102333660046117b8565b610491565b6040516102149190611ad7565b6102076104ac565b61023861025b3660046117b8565b6104b2565b6102076104c5565b6102076104cb565b61028361027e3660046118d8565b6104d1565b005b6102076106ad565b61028361029b3660046117ec565b6106c3565b610207610797565b6102076102b63660046117b8565b6107aa565b6102076107fb565b6102076102d13660046117b8565b610801565b6102076102e43660046117b8565b610829565b610207610851565b6102f9610857565b60405161021491906119ff565b6102076108c6565b61020761031c3660046117b8565b6108ca565b61020761032f3660046117b8565b6108f2565b61033c610904565b6040516102149190611987565b6102836103573660046118d8565b610920565b61033c61036a3660046118d8565b610afd565b61028361037d3660046118d8565b610b31565b61033c610c77565b610207610c93565b610283610c99565b6103ad6103a83660046118d8565b610e31565b6040516102149190611ae2565b6102836103c83660046118f0565b610ef5565b6102076103db3660046117b8565b610fda565b6103e8610ff6565b6040516102149190611a59565b6102836110ec565b600080610408611102565b60400151905060006104198461115a565b60409081015173ffffffffffffffffffffffffffffffffffffffff86166000908152600960205291909120600101549091506104839061047d670de0b6b3a764000061047761046887876111b5565b6104718a610801565b906111fe565b90611252565b90611294565b949350505050565b60055481565b600061049b6108c6565b6104a4836107aa565b111592915050565b60015490565b60006104bc6108c6565b6104a483610fda565b60065481565b60045481565b60006104dc33610801565b1161051c576040517f08c379a000000000000000000000000000000000000000000000000000000000815260040161051390611d56565b60405180910390fd5b3380156105d05761052b611704565b5073ffffffffffffffffffffffffffffffffffffffff81166000908152600960209081526040918290208251606081018452815481526001820154928101929092526002015491810191909152610581826103fd565b602082015261058e6106ad565b815273ffffffffffffffffffffffffffffffffffffffff8216600090815260096020908152604091829020835181559083015160018201559101516002909101555b6000821161060a576040517f08c379a000000000000000000000000000000000000000000000000000000000815260040161051390611af5565b610613336104b2565b610649576040517f08c379a000000000000000000000000000000000000000000000000000000000815260040161051390611dea565b610652826112d3565b61065a6108c6565b33600081815260096020526040908190206002019290925590517f7084f5476618d8e60b11ef0d7d3f06914655adb8793e28ff7f018d4c76d505d5906106a1908590611f38565b60405180910390a25050565b600a546000906106be9060016111b5565b905090565b600b805460018082019092557f0175b7a638427703f0dbe7bb9bbf987a2551717b34e79f33b5b1008d1fa01db90180547fffffffffffffffffffffffff00000000000000000000000000000000000000001673ffffffffffffffffffffffffffffffffffffffff8516179055600c80549182018155600052815161076e917fdf6966c971051c3d54ec59162606531493a51404a002842f56009d7e5cf4a8c701906020840190611725565b505073ffffffffffffffffffffffffffffffffffffffff166000908152600d6020526040812055565b60006107a1611102565b60400151905090565b60006107f56107c66007546005546111fe90919063ffffffff16565b73ffffffffffffffffffffffffffffffffffffffff841660009081526009602052604090206002015490611294565b92915050565b600e5481565b73ffffffffffffffffffffffffffffffffffffffff1660009081526002602052604090205490565b73ffffffffffffffffffffffffffffffffffffffff1660009081526009602052604090205490565b600e5490565b6060600b8054806020026020016040519081016040528092919081815260200182805480156108bc57602002820191906000526020600020905b815473ffffffffffffffffffffffffffffffffffffffff168152600190910190602001808311610891575b5050505050905090565b4290565b73ffffffffffffffffffffffffffffffffffffffff166000908152600d602052604090205490565b600d6020526000908152604090205481565b60085473ffffffffffffffffffffffffffffffffffffffff1681565b6000811161095a576040517f08c379a000000000000000000000000000000000000000000000000000000000815260040161051390611cc2565b60006109646104ac565b1161099b576040517f08c379a000000000000000000000000000000000000000000000000000000000815260040161051390611c65565b60006109a5611102565b60400151905060006109d46109cd6109bb6104ac565b61047786670de0b6b3a76400006111fe565b8390611294565b90506109de611704565b506040805160608101825243815260208101858152918101838152600a805460018101825560009190915282517fc65a7bb8d6351c1cf70c95a316cc6a92839c986682d98bc35f958f4883f9d2a860039092029182015592517fc65a7bb8d6351c1cf70c95a316cc6a92839c986682d98bc35f958f4883f9d2a9840155517fc65a7bb8d6351c1cf70c95a316cc6a92839c986682d98bc35f958f4883f9d2aa90920191909155600854610aa99073ffffffffffffffffffffffffffffffffffffffff1633308761136f565b3373ffffffffffffffffffffffffffffffffffffffff167fac24935fd910bc682b5ccb1a07b718cadf8cf2f6d1404c4f3ddc3662dae40e2985604051610aef9190611f38565b60405180910390a250505050565b600b8181548110610b0a57fe5b60009182526020909120015473ffffffffffffffffffffffffffffffffffffffff16905081565b338015610be557610b40611704565b5073ffffffffffffffffffffffffffffffffffffffff81166000908152600960209081526040918290208251606081018452815481526001820154928101929092526002015491810191909152610b96826103fd565b6020820152610ba36106ad565b815273ffffffffffffffffffffffffffffffffffffffff8216600090815260096020908152604091829020835181559083015160018201559101516002909101555b60008211610c1f576040517f08c379a000000000000000000000000000000000000000000000000000000000815260040161051390611bf7565b610c2882611418565b610c306108c6565b33600081815260096020526040908190206002019290925590517f9e71bc8eea02a63969f509818f2dafb9254532904319f9dbda79b67bd34a5f3d906106a1908590611f38565b60005473ffffffffffffffffffffffffffffffffffffffff1681565b60075481565b338015610d4d57610ca8611704565b5073ffffffffffffffffffffffffffffffffffffffff81166000908152600960209081526040918290208251606081018452815481526001820154928101929092526002015491810191909152610cfe826103fd565b6020820152610d0b6106ad565b815273ffffffffffffffffffffffffffffffffffffffff8216600090815260096020908152604091829020835181559083015160018201559101516002909101555b336000908152600960205260409020600101548015610e2d57610d6f33610491565b610da5576040517f08c379a000000000000000000000000000000000000000000000000000000000815260040161051390611b63565b33600081815260096020526040812060010155600854610dde9173ffffffffffffffffffffffffffffffffffffffff909116908361147e565b610de66108c6565b33600081815260096020526040908190206002019290925590517fe2403640ba68fed3a2f88b7557551d1993f84b99bb10ff833f0cf8db0c5e0486906106a1908490611f38565b5050565b600c8181548110610e3e57fe5b600091825260209182902001805460408051601f60027fffffffffffffffffffffffffffffffffffffffffffffffffffffffffffffffff610100600187161502019094169390930492830185900485028101850190915281815293509091830182828015610eed5780601f10610ec257610100808354040283529160200191610eed565b820191906000526020600020905b815481529060010190602001808311610ed057829003601f168201915b505050505081565b828410158015610f06575060158411155b610f3c576040517f08c379a000000000000000000000000000000000000000000000000000000000815260040161051390611c2e565b62015180811115610f79576040517f08c379a000000000000000000000000000000000000000000000000000000000815260040161051390611ea4565b42610f8f610f888360026111fe565b8490611294565b10610fc6576040517f08c379a000000000000000000000000000000000000000000000000000000000815260040161051390611bc0565b600493909355600591909155600655600755565b60006107f56107c66007546004546111fe90919063ffffffff16565b6060600c805480602002602001604051908101604052809291908181526020016000905b828210156110e35760008481526020908190208301805460408051601f60027fffffffffffffffffffffffffffffffffffffffffffffffffffffffffffffffff6101006001871615020190941693909304928301859004850281018501909152818152928301828280156110cf5780601f106110a4576101008083540402835291602001916110cf565b820191906000526020600020905b8154815290600101906020018083116110b257829003601f168201915b50505050508152602001906001019061101a565b50505050905090565b6110f861027e33610801565b611100610c99565b565b61110a611704565b600a6111146106ad565b8154811061111e57fe5b90600052602060002090600302016040518060600160405290816000820154815260200160018201548152602001600282015481525050905090565b611162611704565b600a61116d83610829565b8154811061117757fe5b906000526020600020906003020160405180606001604052908160008201548152602001600182015481526020016002820154815250509050919050565b60006111f783836040518060400160405280601e81526020017f536166654d6174683a207375627472616374696f6e206f766572666c6f7700008152506114a2565b9392505050565b60008261120d575060006107f5565b8282028284828161121a57fe5b04146111f7576040517f08c379a000000000000000000000000000000000000000000000000000000000815260040161051390611cf9565b60006111f783836040518060400160405280601a81526020017f536166654d6174683a206469766973696f6e206279207a65726f0000000000008152506114e8565b6000828201838110156111f7576040517f08c379a000000000000000000000000000000000000000000000000000000000815260040161051390611b2c565b336000908152600260205260409020548181101561131d576040517f08c379a000000000000000000000000000000000000000000000000000000000815260040161051390611edb565b60015461132a90836111b5565b60015561133781836111b5565b336000818152600260205260408120929092559054610e2d9173ffffffffffffffffffffffffffffffffffffffff909116908461147e565b611412846323b872dd60e01b858585604051602401611390939291906119a8565b604080517fffffffffffffffffffffffffffffffffffffffffffffffffffffffffffffffe08184030181529190526020810180517bffffffffffffffffffffffffffffffffffffffffffffffffffffffff167fffffffff0000000000000000000000000000000000000000000000000000000090931692909217909152611539565b50505050565b6001546114259082611294565b600155336000908152600260205260409020546114429082611294565b33600081815260026020526040812092909255905461147b9173ffffffffffffffffffffffffffffffffffffffff90911690308461136f565b50565b61149d8363a9059cbb60e01b84846040516024016113909291906119d9565b505050565b600081848411156114e0576040517f08c379a00000000000000000000000000000000000000000000000000000000081526004016105139190611ae2565b505050900390565b60008183611523576040517f08c379a00000000000000000000000000000000000000000000000000000000081526004016105139190611ae2565b50600083858161152f57fe5b0495945050505050565b606061159b826040518060400160405280602081526020017f5361666545524332303a206c6f772d6c6576656c2063616c6c206661696c65648152508573ffffffffffffffffffffffffffffffffffffffff166115ef9092919063ffffffff16565b80519091501561149d57808060200190518101906115b991906118b8565b61149d576040517f08c379a000000000000000000000000000000000000000000000000000000000815260040161051390611e47565b606061048384846000856060611604856116fe565b61163a576040517f08c379a000000000000000000000000000000000000000000000000000000000815260040161051390611db3565b600060608673ffffffffffffffffffffffffffffffffffffffff168587604051611664919061196b565b60006040518083038185875af1925050503d80600081146116a1576040519150601f19603f3d011682016040523d82523d6000602084013e6116a6565b606091505b509150915081156116ba5791506104839050565b8051156116ca5780518082602001fd5b836040517f08c379a00000000000000000000000000000000000000000000000000000000081526004016105139190611ae2565b3b151590565b60405180606001604052806000815260200160008152602001600081525090565b828054600181600116156101000203166002900490600052602060002090601f016020900481019282601f1061176657805160ff1916838001178555611793565b82800160010185558215611793579182015b82811115611793578251825591602001919060010190611778565b5061179f9291506117a3565b5090565b5b8082111561179f57600081556001016117a4565b6000602082840312156117c9578081fd5b813573ffffffffffffffffffffffffffffffffffffffff811681146111f7578182fd5b600080604083850312156117fe578081fd5b823561180981611f6d565b915060208381013567ffffffffffffffff80821115611826578384fd5b818601915086601f830112611839578384fd5b813581811115611847578485fd5b604051847fffffffffffffffffffffffffffffffffffffffffffffffffffffffffffffffe0601f8401168201018181108482111715611884578687fd5b604052818152838201850189101561189a578586fd5b81858501868301378585838301015280955050505050509250929050565b6000602082840312156118c9578081fd5b815180151581146111f7578182fd5b6000602082840312156118e9578081fd5b5035919050565b60008060008060808587031215611905578182fd5b5050823594602084013594506040840135936060013592509050565b60008151808452611939816020860160208601611f41565b601f017fffffffffffffffffffffffffffffffffffffffffffffffffffffffffffffffe0169290920160200192915050565b6000825161197d818460208701611f41565b9190910192915050565b73ffffffffffffffffffffffffffffffffffffffff91909116815260200190565b73ffffffffffffffffffffffffffffffffffffffff9384168152919092166020820152604081019190915260600190565b73ffffffffffffffffffffffffffffffffffffffff929092168252602082015260400190565b6020808252825182820181905260009190848201906040850190845b81811015611a4d57835173ffffffffffffffffffffffffffffffffffffffff1683529284019291840191600101611a1b565b50909695505050505050565b6000602080830181845280855180835260408601915060408482028701019250838701855b82811015611aca577fffffffffffffffffffffffffffffffffffffffffffffffffffffffffffffffc0888603018452611ab8858351611921565b94509285019290850190600101611a7e565b5092979650505050505050565b901515815260200190565b6000602082526111f76020830184611921565b6020808252601c908201527f426f617264726f6f6d3a2043616e6e6f74207769746864726177203000000000604082015260600190565b6020808252601b908201527f536166654d6174683a206164646974696f6e206f766572666c6f770000000000604082015260600190565b60208082526026908201527f426f617264726f6f6d3a207374696c6c20696e20636c61696d5265776172642060408201527f6c6f636b75700000000000000000000000000000000000000000000000000000606082015260800190565b6020808252601d908201527f45706f6368416c69676e54696d657374616d703a20746f6f206c617465000000604082015260600190565b60208082526019908201527f426f617264726f6f6d3a2043616e6e6f74207374616b65203000000000000000604082015260600190565b6020808252601a908201527f4c6f636b757045706f6368733a206f7574206f662072616e6765000000000000604082015260600190565b60208082526030908201527f426f617264726f6f6d3a2043616e6e6f7420616c6c6f63617465207768656e2060408201527f746f74616c537570706c79206973203000000000000000000000000000000000606082015260800190565b6020808252601c908201527f426f617264726f6f6d3a2043616e6e6f7420616c6c6f63617465203000000000604082015260600190565b60208082526021908201527f536166654d6174683a206d756c7469706c69636174696f6e206f766572666c6f60408201527f7700000000000000000000000000000000000000000000000000000000000000606082015260800190565b60208082526026908201527f426f617264726f6f6d3a20546865206469726563746f7220646f6573206e6f7460408201527f2065786973740000000000000000000000000000000000000000000000000000606082015260800190565b6020808252601d908201527f416464726573733a2063616c6c20746f206e6f6e2d636f6e7472616374000000604082015260600190565b60208082526023908201527f426f617264726f6f6d3a207374696c6c20696e207769746864726177206c6f6360408201527f6b75700000000000000000000000000000000000000000000000000000000000606082015260800190565b6020808252602a908201527f5361666545524332303a204552433230206f7065726174696f6e20646964206e60408201527f6f74207375636365656400000000000000000000000000000000000000000000606082015260800190565b60208082526019908201527f45706f6368506572696f643a206f7574206f662072616e676500000000000000604082015260600190565b60208082526036908201527f426f617264726f6f6d3a2077697468647261772072657175657374206772656160408201527f746572207468616e207374616b656420616d6f756e7400000000000000000000606082015260800190565b90815260200190565b60005b83811015611f5c578181015183820152602001611f44565b838111156114125750506000910152565b73ffffffffffffffffffffffffffffffffffffffff8116811461147b57600080fdfea26469706673582212204276a83ec4dcecadaece3b28bc786e59388c8bec2b141bb8b18e9a7a31f0955764736f6c634300060c0033",
  "immutableReferences": {},
  "source": "// SPDX-License-Identifier: MIT\npragma solidity ^0.6.12;\npragma experimental ABIEncoderV2;\n\nimport './ERC20/IERC20.sol';\nimport './ERC20/SafeERC20.sol';\n\nimport './Math/Safe112.sol';\n// [IMPORTANT] ADD ADMIN & OPERATOR.SOL\nimport './owner/Operator.sol';\nimport './owner/Admin.sol';\nimport './Utils/ContractGuard.sol';\nimport './Interfaces/IBasisAsset.sol';\nimport './Interfaces/IReferral.sol';\n\ncontract ShareWrapper2 {\n    using SafeMath for uint256;\n    using SafeERC20 for IERC20;\n\n    IERC20 public share;\n\n    uint256 private _totalSupply;\n    mapping(address => uint256) private _balances;\n\n    function totalSupply() public view returns (uint256) {\n        return _totalSupply;\n    }\n\n    function balanceOf(address account) public view returns (uint256) {\n        return _balances[account];\n    }\n\n    function stake(uint256 amount) public virtual {\n        _totalSupply = _totalSupply.add(amount);\n        _balances[msg.sender] = _balances[msg.sender].add(amount);\n        share.safeTransferFrom(msg.sender, address(this), amount);\n    }\n\n    // function stake(uint256 amount, address referral ) public virtual {\n    //     _totalSupply = _totalSupply.add(amount);\n    //     _balances[msg.sender] = _balances[msg.sender].add(amount);\n    //     share.safeTransferFrom(msg.sender, address(this), amount);\n    // }\n\n    function withdraw(uint256 amount) public virtual {\n        uint256 directorShare = _balances[msg.sender];\n        require(\n            directorShare >= amount,\n            'Boardroom: withdraw request greater than staked amount'\n        );\n        _totalSupply = _totalSupply.sub(amount);\n        _balances[msg.sender] = directorShare.sub(amount);\n        share.safeTransfer(msg.sender, amount);\n    }\n}\n\ncontract Boardroom is ShareWrapper2, ContractGuard, IReferral {\n    using SafeERC20 for IERC20;\n    using Address for address;\n    using SafeMath for uint256;\n    using Safe112 for uint112;\n\n\n    // timelock_Duration for DEPOSIT & WITHDRAW\n    // TIMELOCK_DURATION FOR S = 12 HOURS & C = 4 HOURS\n    /* ========== PARAMETERS =============== */\n    uint256 public withdrawLockupEpochs = 2; //TEST CASES DONE\n    uint256 public rewardLockupEpochs = 2; //TEST CASES DONE\n    uint256 public epochAlignTimestamp = 1608883200; //TEST CASES DONE\n    uint256 public epochPeriod = 300; //TEST CASES DONE\n\n    /* ========== DATA STRUCTURES ========== */\n\n    struct Boardseat {\n        uint256 lastSnapshotIndex;\n        uint256 rewardEarned;\n        uint256 epochTimerStart;\n    }\n\n    struct BoardSnapshot {\n        uint256 time;\n        uint256 rewardReceived;\n        uint256 rewardPerShare;\n    }\n\n    /* ========== STATE VARIABLES ========== */\n\n    IERC20 public cash; //TEST CASES DONE\n\n    mapping(address => Boardseat) private directors;\n    BoardSnapshot[] private boardHistory;\n\n    /* ========== whitelist for referral ======= */\n    // TODO: [IMPORTANT]: REMOVE REFERRAL FUNC LATER & ADD THEM TO LIBRARY\n    address[] public referralList; //TEST CASES DONE\n    string[] public referralNameList; //TEST CASES DONE\n    mapping(address => uint256) public referralAmount;\n    uint256 public totalReferralAmount;\n\n    /* ========== CONSTRUCTOR ========== */\n\n    constructor(IERC20 _cash, IERC20 _share) public {\n        cash = _cash;\n        share = _share;\n\n        BoardSnapshot memory genesisSnapshot = BoardSnapshot({\n            time: block.number,\n            rewardReceived: 0,\n            rewardPerShare: 0\n        });\n        boardHistory.push(genesisSnapshot);\n    }\n\n    /* ========== Modifiers =============== */\n    modifier directorExists {\n        require(\n            balanceOf(msg.sender) > 0,\n            'Boardroom: The director does not exist'\n        );\n        _;\n    }\n\n    modifier updateReward(address director) {\n        if (director != address(0)) {\n            Boardseat memory seat = directors[director];\n            seat.rewardEarned = earned(director);\n            seat.lastSnapshotIndex = latestSnapshotIndex();\n            directors[director] = seat;\n        }\n        _;\n    }\n\n    /* ========== VIEW FUNCTIONS ========== */\n\n    // =========== Snapshot getters\n    // TEST CASES DONE\n    function latestSnapshotIndex() public view returns (uint256) {\n        return boardHistory.length.sub(1);\n    }\n    // TEST CASES DONE\n    function getLatestSnapshot() internal view returns (BoardSnapshot memory) {\n        return boardHistory[latestSnapshotIndex()];\n    }\n    // TEST CASES DONE\n    function getLastSnapshotIndexOf(address director)\n        public\n        view\n        returns (uint256)\n    {\n        return directors[director].lastSnapshotIndex;\n    }\n    // TEST CASES DONE\n    function getLastSnapshotOf(address director)\n        internal\n        view\n        returns (BoardSnapshot memory)\n    {\n        return boardHistory[getLastSnapshotIndexOf(director)];\n    }\n\n    // TEST CASES DONE\n    function getCurrentEpochTimestamp() public view returns(uint256) {\n        // return epochAlignTimestamp.add(\n        //         block.timestamp\n        //         .sub(epochAlignTimestamp)\n        //         .div(epochPeriod)\n        //         .mul(epochPeriod)\n        //     );\n        return block.timestamp;\n    }\n    // TEST CASES DONE\n    function getCanWithdrawTime(address director) public view returns(uint256) {\n        return directors[director].epochTimerStart.add(\n                    withdrawLockupEpochs.mul(epochPeriod)\n                );\n    }\n    // TEST CASES DONE\n    function getCanClaimTime(address director) public view returns(uint256) {\n        return directors[director].epochTimerStart.add(\n                    rewardLockupEpochs.mul(epochPeriod)\n                );\n    }\n    // TEST CASES DONE\n    function canWithdraw(address director) public view returns (bool) {\n        return getCanWithdrawTime(director) <= getCurrentEpochTimestamp();\n    }\n    // TEST CASES DONE\n    function canClaimReward(address director) public view returns (bool) {\n        return getCanClaimTime(director) <= getCurrentEpochTimestamp();\n    }\n\n    // =========== Director getters\n    // TEST CASES DONE\n    function rewardPerShare() public view returns (uint256) {\n        return getLatestSnapshot().rewardPerShare;\n    }\n    // TEST CASES DONE\n    function earned(address director) public view returns (uint256) {\n        uint256 latestRPS = getLatestSnapshot().rewardPerShare;\n        uint256 storedRPS = getLastSnapshotOf(director).rewardPerShare;\n\n        return\n            balanceOf(director).mul(latestRPS.sub(storedRPS)).div(1e18).add(\n                directors[director].rewardEarned\n            );\n    }\n\n    /* ========== GOVERNANCE ================== */\n    // TEST CASES DONE\n    function setLockUp(\n        uint256 _withdrawLockupEpochs,\n        uint256 _rewardLockupEpochs,\n        uint256 _epochAlignTimestamp,\n        uint256 _epochPeriod\n    )\n        external\n    {\n        require(\n            _withdrawLockupEpochs >= _rewardLockupEpochs\n            && _withdrawLockupEpochs <= 21,\n            \"LockupEpochs: out of range\"\n        );\n        require(_epochPeriod <= 1 days, \"EpochPeriod: out of range\");\n        require(\n            _epochAlignTimestamp.add(_epochPeriod.mul(2)) < block.timestamp,\n            \"EpochAlignTimestamp: too late\"\n        );\n        withdrawLockupEpochs = _withdrawLockupEpochs;\n        rewardLockupEpochs = _rewardLockupEpochs;\n        epochAlignTimestamp = _epochAlignTimestamp;\n        epochPeriod = _epochPeriod;\n    }\n\n\n    /* ========== MUTATIVE FUNCTIONS ========== */\n    // TEST CASES DONE\n    function stake(uint256 amount)\n        public\n        override\n        updateReward(msg.sender)\n    {\n        require(amount > 0, 'Boardroom: Cannot stake 0');\n        super.stake(amount);\n        directors[msg.sender].epochTimerStart = getCurrentEpochTimestamp();\n        emit Staked(msg.sender, amount);\n    }\n\n    // function stake(uint256 amount, address referral)\n    //     public\n    //     override\n    //     onlyOneBlock\n    //     updateReward(msg.sender)\n    // {\n    //     require(amount > 0, 'Boardroom: Cannot stake 0');\n    //     super.stake(amount, referral);\n    //     directors[msg.sender].epochTimerStart = getCurrentEpochTimestamp();\n    //     _addAmountToReferral(amount, referral);\n    //     emit Staked(msg.sender, amount);\n    // }\n    // TEST CASES DONE\n    function withdraw(uint256 amount)\n        public\n        override\n        directorExists\n        updateReward(msg.sender)\n    {\n        require(amount > 0, 'Boardroom: Cannot withdraw 0');\n        require(canWithdraw(msg.sender), \"Boardroom: still in withdraw lockup\");\n        super.withdraw(amount);\n        directors[msg.sender].epochTimerStart = getCurrentEpochTimestamp();\n        emit Withdrawn(msg.sender, amount);\n    }\n\n    function exit() external {\n        withdraw(balanceOf(msg.sender));\n        claimReward();\n    }\n    // TEST CASES DONE\n    function claimReward() public updateReward(msg.sender) {\n        uint256 reward = directors[msg.sender].rewardEarned;\n        if (reward > 0) {\n            require(canClaimReward(msg.sender), \"Boardroom: still in claimReward lockup\");\n            directors[msg.sender].rewardEarned = 0;\n            cash.safeTransfer(msg.sender, reward);\n            directors[msg.sender].epochTimerStart = getCurrentEpochTimestamp();\n            emit RewardPaid(msg.sender, reward);\n        }\n    }\n    // TEST CASES DONE\n    function allocateSeigniorage(uint256 amount)\n        external\n    {\n        require(amount > 0, 'Boardroom: Cannot allocate 0');\n        require(\n            totalSupply() > 0,\n            'Boardroom: Cannot allocate when totalSupply is 0'\n        );\n\n        // Create & add new snapshot\n        uint256 prevRPS = getLatestSnapshot().rewardPerShare;\n        uint256 nextRPS = prevRPS.add(amount.mul(1e18).div(totalSupply()));\n\n        BoardSnapshot memory newSnapshot = BoardSnapshot({\n            time: block.number,\n            rewardReceived: amount,\n            rewardPerShare: nextRPS\n        });\n        boardHistory.push(newSnapshot);\n\n        cash.safeTransferFrom(msg.sender, address(this), amount);\n        emit RewardAdded(msg.sender, amount);\n    }\n\n    /* =============== REFERRAL ================= */\n    // NO NEED TO ADD TEST SCRIPTS\n    function addReferral(address _referral,string memory _name) external {\n        referralList.push(_referral);\n        referralNameList.push(_name);\n        referralAmount[_referral] = 0;\n    }\n    // NO NEED TO ADD TEST SCRIPTS\n    function _addAmountToReferral(uint256 _amount, address _referral) internal {\n        if (_referral != address(0)) {\n            uint isFound = 0;\n            for (uint i = 0; i < referralList.length; i++) {\n                if (referralList[i] == _referral) {\n                    isFound = 1;\n                    break;\n                }\n            }\n            require(isFound > 0, \"The referral address is not correct\");\n            referralAmount[_referral] = referralAmount[_referral].add(_amount);\n            totalReferralAmount = totalReferralAmount.add(_amount);\n        }\n    }\n    // NO NEED TO ADD TEST SCRIPTS\n    function getReferralList() external view override returns (address[] memory) {\n        return referralList;\n    }\n    // NO NEED TO ADD TEST SCRIPTS\n    function getReferralNameList() external view override returns (string[] memory) {\n        return referralNameList;\n    }\n    // NO NEED TO ADD TEST SCRIPTS\n    function getReferralAmount(address _referral) external view override returns (uint256) {\n        return referralAmount[_referral];\n    }\n    // NO NEED TO ADD TEST SCRIPTS\n    function getTotalReferralAmount() external view override returns (uint256) {\n        return totalReferralAmount;\n    }\n\n    /* ========== EVENTS ========== */\n\n    event Staked(address indexed user, uint256 amount);\n    event Withdrawn(address indexed user, uint256 amount);\n    event RewardPaid(address indexed user, uint256 reward);\n    event RewardAdded(address indexed user, uint256 reward);\n}\n",
  "sourcePath": "/Users/cooper/GitHub/Prigogine/Ceres-Protocol/contracts/Boardroom.sol",
  "compiler": {
    "name": "solc",
    "version": "0.6.12+commit.27d51765.Emscripten.clang"
  },
  "schemaVersion": "3.4.1",
  "updatedAt": "2021-07-29T08:29:12.923Z",
  "devdoc": {
    "kind": "dev",
    "methods": {},
    "version": 1
  },
  "userdoc": {
    "kind": "user",
    "methods": {},
    "version": 1
  }
}