{
  "contractName": "CERESWETHPool",
  "abi": [
    {
      "inputs": [
        {
          "internalType": "address",
          "name": "_ceres",
          "type": "address"
        },
        {
          "internalType": "address",
          "name": "_weth",
          "type": "address"
        },
        {
          "internalType": "uint256",
          "name": "_startime",
          "type": "uint256"
        }
      ],
      "stateMutability": "nonpayable",
      "type": "constructor"
    },
    {
      "anonymous": false,
      "inputs": [
        {
          "indexed": true,
          "internalType": "address",
          "name": "previousOperator",
          "type": "address"
        },
        {
          "indexed": true,
          "internalType": "address",
          "name": "newOperator",
          "type": "address"
        }
      ],
      "name": "OperatorTransferred",
      "type": "event"
    },
    {
      "anonymous": false,
      "inputs": [
        {
          "indexed": true,
          "internalType": "address",
          "name": "previousOwner",
          "type": "address"
        },
        {
          "indexed": true,
          "internalType": "address",
          "name": "newOwner",
          "type": "address"
        }
      ],
      "name": "OwnershipTransferred",
      "type": "event"
    },
    {
      "anonymous": false,
      "inputs": [
        {
          "indexed": false,
          "internalType": "uint256",
          "name": "reward",
          "type": "uint256"
        }
      ],
      "name": "RewardAdded",
      "type": "event"
    },
    {
      "anonymous": false,
      "inputs": [
        {
          "indexed": true,
          "internalType": "address",
          "name": "user",
          "type": "address"
        },
        {
          "indexed": false,
          "internalType": "uint256",
          "name": "reward",
          "type": "uint256"
        }
      ],
      "name": "RewardPaid",
      "type": "event"
    },
    {
      "anonymous": false,
      "inputs": [
        {
          "indexed": true,
          "internalType": "address",
          "name": "user",
          "type": "address"
        },
        {
          "indexed": false,
          "internalType": "uint256",
          "name": "amount",
          "type": "uint256"
        }
      ],
      "name": "Staked",
      "type": "event"
    },
    {
      "anonymous": false,
      "inputs": [
        {
          "indexed": true,
          "internalType": "address",
          "name": "user",
          "type": "address"
        },
        {
          "indexed": false,
          "internalType": "uint256",
          "name": "amount",
          "type": "uint256"
        }
      ],
      "name": "Withdrawn",
      "type": "event"
    },
    {
      "inputs": [],
      "name": "DURATION",
      "outputs": [
        {
          "internalType": "uint256",
          "name": "",
          "type": "uint256"
        }
      ],
      "stateMutability": "view",
      "type": "function"
    },
    {
      "inputs": [
        {
          "internalType": "address",
          "name": "account",
          "type": "address"
        }
      ],
      "name": "balanceOf",
      "outputs": [
        {
          "internalType": "uint256",
          "name": "",
          "type": "uint256"
        }
      ],
      "stateMutability": "view",
      "type": "function"
    },
    {
      "inputs": [],
      "name": "ceres",
      "outputs": [
        {
          "internalType": "contract IERC20",
          "name": "",
          "type": "address"
        }
      ],
      "stateMutability": "view",
      "type": "function"
    },
    {
      "inputs": [
        {
          "internalType": "address",
          "name": "",
          "type": "address"
        }
      ],
      "name": "deposits",
      "outputs": [
        {
          "internalType": "uint256",
          "name": "",
          "type": "uint256"
        }
      ],
      "stateMutability": "view",
      "type": "function"
    },
    {
      "inputs": [],
      "name": "isOperator",
      "outputs": [
        {
          "internalType": "bool",
          "name": "",
          "type": "bool"
        }
      ],
      "stateMutability": "view",
      "type": "function"
    },
    {
      "inputs": [],
      "name": "lastUpdateTime",
      "outputs": [
        {
          "internalType": "uint256",
          "name": "",
          "type": "uint256"
        }
      ],
      "stateMutability": "view",
      "type": "function"
    },
    {
      "inputs": [],
      "name": "operator",
      "outputs": [
        {
          "internalType": "address",
          "name": "",
          "type": "address"
        }
      ],
      "stateMutability": "view",
      "type": "function"
    },
    {
      "inputs": [],
      "name": "owner",
      "outputs": [
        {
          "internalType": "address",
          "name": "",
          "type": "address"
        }
      ],
      "stateMutability": "view",
      "type": "function"
    },
    {
      "inputs": [],
      "name": "periodFinish",
      "outputs": [
        {
          "internalType": "uint256",
          "name": "",
          "type": "uint256"
        }
      ],
      "stateMutability": "view",
      "type": "function"
    },
    {
      "inputs": [],
      "name": "renounceOwnership",
      "outputs": [],
      "stateMutability": "nonpayable",
      "type": "function"
    },
    {
      "inputs": [],
      "name": "rewardDistribution",
      "outputs": [
        {
          "internalType": "address",
          "name": "",
          "type": "address"
        }
      ],
      "stateMutability": "view",
      "type": "function"
    },
    {
      "inputs": [],
      "name": "rewardPerTokenStored",
      "outputs": [
        {
          "internalType": "uint256",
          "name": "",
          "type": "uint256"
        }
      ],
      "stateMutability": "view",
      "type": "function"
    },
    {
      "inputs": [],
      "name": "rewardRate",
      "outputs": [
        {
          "internalType": "uint256",
          "name": "",
          "type": "uint256"
        }
      ],
      "stateMutability": "view",
      "type": "function"
    },
    {
      "inputs": [
        {
          "internalType": "address",
          "name": "",
          "type": "address"
        }
      ],
      "name": "rewards",
      "outputs": [
        {
          "internalType": "uint256",
          "name": "",
          "type": "uint256"
        }
      ],
      "stateMutability": "view",
      "type": "function"
    },
    {
      "inputs": [
        {
          "internalType": "address",
          "name": "_rewardDistribution",
          "type": "address"
        }
      ],
      "name": "setRewardDistribution",
      "outputs": [],
      "stateMutability": "nonpayable",
      "type": "function"
    },
    {
      "inputs": [],
      "name": "startime",
      "outputs": [
        {
          "internalType": "uint256",
          "name": "",
          "type": "uint256"
        }
      ],
      "stateMutability": "view",
      "type": "function"
    },
    {
      "inputs": [],
      "name": "totalSupply",
      "outputs": [
        {
          "internalType": "uint256",
          "name": "",
          "type": "uint256"
        }
      ],
      "stateMutability": "view",
      "type": "function"
    },
    {
      "inputs": [
        {
          "internalType": "address",
          "name": "newOperator_",
          "type": "address"
        }
      ],
      "name": "transferOperator",
      "outputs": [],
      "stateMutability": "nonpayable",
      "type": "function"
    },
    {
      "inputs": [
        {
          "internalType": "address",
          "name": "newOwner",
          "type": "address"
        }
      ],
      "name": "transferOwnership",
      "outputs": [],
      "stateMutability": "nonpayable",
      "type": "function"
    },
    {
      "inputs": [
        {
          "internalType": "address",
          "name": "",
          "type": "address"
        }
      ],
      "name": "userRewardPerTokenPaid",
      "outputs": [
        {
          "internalType": "uint256",
          "name": "",
          "type": "uint256"
        }
      ],
      "stateMutability": "view",
      "type": "function"
    },
    {
      "inputs": [],
      "name": "weth",
      "outputs": [
        {
          "internalType": "contract IERC20",
          "name": "",
          "type": "address"
        }
      ],
      "stateMutability": "view",
      "type": "function"
    },
    {
      "inputs": [
        {
          "internalType": "uint256",
          "name": "_rewardRate",
          "type": "uint256"
        }
      ],
      "name": "setRewardRate",
      "outputs": [],
      "stateMutability": "nonpayable",
      "type": "function"
    },
    {
      "inputs": [],
      "name": "lastTimeRewardApplicable",
      "outputs": [
        {
          "internalType": "uint256",
          "name": "",
          "type": "uint256"
        }
      ],
      "stateMutability": "view",
      "type": "function"
    },
    {
      "inputs": [],
      "name": "rewardPerToken",
      "outputs": [
        {
          "internalType": "uint256",
          "name": "",
          "type": "uint256"
        }
      ],
      "stateMutability": "view",
      "type": "function"
    },
    {
      "inputs": [],
      "name": "tmpValue",
      "outputs": [
        {
          "internalType": "uint256",
          "name": "",
          "type": "uint256"
        }
      ],
      "stateMutability": "view",
      "type": "function"
    },
    {
      "inputs": [
        {
          "internalType": "address",
          "name": "account",
          "type": "address"
        }
      ],
      "name": "earned",
      "outputs": [
        {
          "internalType": "uint256",
          "name": "",
          "type": "uint256"
        }
      ],
      "stateMutability": "view",
      "type": "function"
    },
    {
      "inputs": [
        {
          "internalType": "uint256",
          "name": "amount",
          "type": "uint256"
        }
      ],
      "name": "stake",
      "outputs": [],
      "stateMutability": "nonpayable",
      "type": "function"
    },
    {
      "inputs": [
        {
          "internalType": "uint256",
          "name": "amount",
          "type": "uint256"
        }
      ],
      "name": "withdraw",
      "outputs": [],
      "stateMutability": "nonpayable",
      "type": "function"
    },
    {
      "inputs": [],
      "name": "exit",
      "outputs": [],
      "stateMutability": "nonpayable",
      "type": "function"
    },
    {
      "inputs": [],
      "name": "getReward",
      "outputs": [],
      "stateMutability": "nonpayable",
      "type": "function"
    }
  ],
  "bytecode": "0x60806040526206978060075560006009556000600a5534801561002157600080fd5b5060405162001bd338038062001bd38339818101604052606081101561004657600080fd5b50805160208201516040909201519091906100676100626100f3565b6100f7565b61006f6100f3565b600580546001600160a01b0319166001600160a01b0392831617908190556040519116906000907f74da04524d50c64947f5dd5381ef1a4dca5cba8ed1d816243f9e48aa0b5617ed908290a3600680546001600160a01b039485166001600160a01b0319918216179091556000805493909416921691909117909155600855610149565b3390565b600380546001600160a01b038381166001600160a01b0319831681179093556040519116919082907f8be0079c531659141344cd1fd0a4f28419497f9722a3daafe3b4186f6b6457e090600090a35050565b611a7a80620001596000396000f3fe608060405234801561001057600080fd5b50600436106101d95760003560e01c80637b0a47ee11610104578063c673bb55116100a2578063e9fad8ee11610071578063e9fad8ee14610440578063ebe2b12b14610448578063f2fde38b14610450578063fc7e286d14610483576101d9565b8063c673bb5514610420578063c8f33c9114610428578063cd3daf9d14610430578063df136d6514610438576101d9565b80638b876347116100de5780638b876347146103ab5780638da5cb5b146103de5780639e447fc6146103e6578063a694fc3a14610403576101d9565b80637b0a47ee146103935780637d031ce41461039b57806380faa57d146103a3576101d9565b80632e1a7d4d1161017c578063570ca7351161014b578063570ca735146103485780636b1235dc1461035057806370a0823114610358578063715018a61461038b576101d9565b80632e1a7d4d146102ff5780633d18b9121461031c5780633fc8cef3146103245780634456eda21461032c576101d9565b8063101114cf116101b8578063101114cf1461028b57806318160ddd146102bc5780631be05289146102c457806329605e77146102cc576101d9565b80628cc262146101de5780630700037d146102235780630d68b76114610256575b600080fd5b610211600480360360208110156101f457600080fd5b503573ffffffffffffffffffffffffffffffffffffffff166104b6565b60408051918252519081900360200190f35b6102116004803603602081101561023957600080fd5b503573ffffffffffffffffffffffffffffffffffffffff16610531565b6102896004803603602081101561026c57600080fd5b503573ffffffffffffffffffffffffffffffffffffffff16610543565b005b610293610632565b6040805173ffffffffffffffffffffffffffffffffffffffff9092168252519081900360200190f35b61021161064e565b610211610655565b610289600480360360208110156102e257600080fd5b503573ffffffffffffffffffffffffffffffffffffffff1661065b565b6102896004803603602081101561031557600080fd5b503561070f565b6102896108d1565b610293610a3b565b610334610a57565b604080519115158252519081900360200190f35b610293610a97565b610211610ab3565b6102116004803603602081101561036e57600080fd5b503573ffffffffffffffffffffffffffffffffffffffff16610ac8565b610289610af0565b610211610ba4565b610211610baa565b610211610bb0565b610211600480360360208110156103c157600080fd5b503573ffffffffffffffffffffffffffffffffffffffff16610bcb565b610293610bdd565b610289600480360360208110156103fc57600080fd5b5035610bf9565b6102896004803603602081101561041957600080fd5b5035610cae565b610293610ed8565b610211610ef4565b610211610efa565b610211610f48565b610289610f4e565b610211610f67565b6102896004803603602081101561046657600080fd5b503573ffffffffffffffffffffffffffffffffffffffff16610f6d565b6102116004803603602081101561049957600080fd5b503573ffffffffffffffffffffffffffffffffffffffff1661108a565b73ffffffffffffffffffffffffffffffffffffffff81166000908152600e6020908152604080832054600d90925282205461052b919061052590670de0b6b3a76400009061051f906105109061050a610efa565b9061109c565b61051988610ac8565b906110e5565b90611158565b9061119a565b92915050565b600e6020526000908152604090205481565b61054b61120e565b73ffffffffffffffffffffffffffffffffffffffff16610569610bdd565b73ffffffffffffffffffffffffffffffffffffffff16146105eb57604080517f08c379a000000000000000000000000000000000000000000000000000000000815260206004820181905260248201527f4f776e61626c653a2063616c6c6572206973206e6f7420746865206f776e6572604482015290519081900360640190fd5b600480547fffffffffffffffffffffffff00000000000000000000000000000000000000001673ffffffffffffffffffffffffffffffffffffffff92909216919091179055565b60045473ffffffffffffffffffffffffffffffffffffffff1681565b6001545b90565b60075481565b61066361120e565b73ffffffffffffffffffffffffffffffffffffffff16610681610bdd565b73ffffffffffffffffffffffffffffffffffffffff161461070357604080517f08c379a000000000000000000000000000000000000000000000000000000000815260206004820181905260248201527f4f776e61626c653a2063616c6c6572206973206e6f7420746865206f776e6572604482015290519081900360640190fd5b61070c81611212565b50565b33610718610efa565b600c55610723610bb0565b600b5573ffffffffffffffffffffffffffffffffffffffff8116156107845761074b816104b6565b73ffffffffffffffffffffffffffffffffffffffff82166000908152600e6020908152604080832093909355600c54600d909152919020555b6008544210156107f557604080517f08c379a000000000000000000000000000000000000000000000000000000000815260206004820152601660248201527f42414379435256506f6f6c3a206e6f7420737461727400000000000000000000604482015290519081900360640190fd5b6000821161086457604080517f08c379a000000000000000000000000000000000000000000000000000000000815260206004820152601160248201527f43616e6e6f742077697468647261772030000000000000000000000000000000604482015290519081900360640190fd5b336000908152600f602052604090205461087e908361109c565b336000908152600f602052604090205561089782611308565b60408051838152905133917f7084f5476618d8e60b11ef0d7d3f06914655adb8793e28ff7f018d4c76d505d5919081900360200190a25050565b336108da610efa565b600c556108e5610bb0565b600b5573ffffffffffffffffffffffffffffffffffffffff8116156109465761090d816104b6565b73ffffffffffffffffffffffffffffffffffffffff82166000908152600e6020908152604080832093909355600c54600d909152919020555b6008544210156109b757604080517f08c379a000000000000000000000000000000000000000000000000000000000815260206004820152601660248201527f42414379435256506f6f6c3a206e6f7420737461727400000000000000000000604482015290519081900360640190fd5b60006109c2336104b6565b90508015610a3757336000818152600e6020526040812055600654610a009173ffffffffffffffffffffffffffffffffffffffff9091169083611366565b60408051828152905133917fe2403640ba68fed3a2f88b7557551d1993f84b99bb10ff833f0cf8db0c5e0486919081900360200190a25b5050565b60005473ffffffffffffffffffffffffffffffffffffffff1681565b60055460009073ffffffffffffffffffffffffffffffffffffffff16610a7b61120e565b73ffffffffffffffffffffffffffffffffffffffff1614905090565b60055473ffffffffffffffffffffffffffffffffffffffff1690565b6000610ac3600b5461050a610bb0565b905090565b73ffffffffffffffffffffffffffffffffffffffff1660009081526002602052604090205490565b610af861120e565b73ffffffffffffffffffffffffffffffffffffffff16610b16610bdd565b73ffffffffffffffffffffffffffffffffffffffff1614610b9857604080517f08c379a000000000000000000000000000000000000000000000000000000000815260206004820181905260248201527f4f776e61626c653a2063616c6c6572206973206e6f7420746865206f776e6572604482015290519081900360640190fd5b610ba260006113f8565b565b600a5481565b60085481565b60095460009015610bc45750600954610652565b5042610652565b600d6020526000908152604090205481565b60035473ffffffffffffffffffffffffffffffffffffffff1690565b60055473ffffffffffffffffffffffffffffffffffffffff163314610c69576040517f08c379a00000000000000000000000000000000000000000000000000000000081526004018080602001828103825260248152602001806119f76024913960400191505060405180910390fd5b600a819055600854421115610c935742600b819055600754610c8b919061119a565b60095561070c565b600854600b819055600754610ca8919061119a565b60095550565b33610cb7610efa565b600c55610cc2610bb0565b600b5573ffffffffffffffffffffffffffffffffffffffff811615610d2357610cea816104b6565b73ffffffffffffffffffffffffffffffffffffffff82166000908152600e6020908152604080832093909355600c54600d909152919020555b600854421015610d9457604080517f08c379a000000000000000000000000000000000000000000000000000000000815260206004820152601660248201527f42414379435256506f6f6c3a206e6f7420737461727400000000000000000000604482015290519081900360640190fd5b60008211610e0357604080517f08c379a000000000000000000000000000000000000000000000000000000000815260206004820152600e60248201527f43616e6e6f74207374616b652030000000000000000000000000000000000000604482015290519081900360640190fd5b336000908152600f6020526040812054610e1d908461119a565b905069043c33c1937564800000811115610e82576040517f08c379a00000000000000000000000000000000000000000000000000000000081526004018080602001828103825260248152602001806119b26024913960400191505060405180910390fd5b336000908152600f60205260409020819055610e9d8361146f565b60408051848152905133917f9e71bc8eea02a63969f509818f2dafb9254532904319f9dbda79b67bd34a5f3d919081900360200190a2505050565b60065473ffffffffffffffffffffffffffffffffffffffff1681565b600b5481565b6000610f0461064e565b610f115750600c54610652565b610ac3610f3f610f1f61064e565b61051f670de0b6b3a7640000610519600a54610519600b5461050a610bb0565b600c549061119a565b600c5481565b610f5f610f5a33610ac8565b61070f565b610ba26108d1565b60095481565b610f7561120e565b73ffffffffffffffffffffffffffffffffffffffff16610f93610bdd565b73ffffffffffffffffffffffffffffffffffffffff161461101557604080517f08c379a000000000000000000000000000000000000000000000000000000000815260206004820181905260248201527f4f776e61626c653a2063616c6c6572206973206e6f7420746865206f776e6572604482015290519081900360640190fd5b73ffffffffffffffffffffffffffffffffffffffff8116611081576040517f08c379a000000000000000000000000000000000000000000000000000000000815260040180806020018281038252602681526020018061195f6026913960400191505060405180910390fd5b61070c816113f8565b600f6020526000908152604090205481565b60006110de83836040518060400160405280601e81526020017f536166654d6174683a207375627472616374696f6e206f766572666c6f7700008152506114d2565b9392505050565b6000826110f45750600061052b565b8282028284828161110157fe5b04146110de576040517f08c379a00000000000000000000000000000000000000000000000000000000081526004018080602001828103825260218152602001806119d66021913960400191505060405180910390fd5b60006110de83836040518060400160405280601a81526020017f536166654d6174683a206469766973696f6e206279207a65726f000000000000815250611583565b6000828201838110156110de57604080517f08c379a000000000000000000000000000000000000000000000000000000000815260206004820152601b60248201527f536166654d6174683a206164646974696f6e206f766572666c6f770000000000604482015290519081900360640190fd5b3390565b73ffffffffffffffffffffffffffffffffffffffff811661127e576040517f08c379a000000000000000000000000000000000000000000000000000000000815260040180806020018281038252602d815260200180611985602d913960400191505060405180910390fd5b60405173ffffffffffffffffffffffffffffffffffffffff8216906000907f74da04524d50c64947f5dd5381ef1a4dca5cba8ed1d816243f9e48aa0b5617ed908290a3600580547fffffffffffffffffffffffff00000000000000000000000000000000000000001673ffffffffffffffffffffffffffffffffffffffff92909216919091179055565b600154611315908261109c565b60015533600090815260026020526040902054611332908261109c565b33600081815260026020526040812092909255905461070c9173ffffffffffffffffffffffffffffffffffffffff90911690835b6040805173ffffffffffffffffffffffffffffffffffffffff8416602482015260448082018490528251808303909101815260649091019091526020810180517bffffffffffffffffffffffffffffffffffffffffffffffffffffffff167fa9059cbb000000000000000000000000000000000000000000000000000000001790526113f3908490611602565b505050565b6003805473ffffffffffffffffffffffffffffffffffffffff8381167fffffffffffffffffffffffff0000000000000000000000000000000000000000831681179093556040519116919082907f8be0079c531659141344cd1fd0a4f28419497f9722a3daafe3b4186f6b6457e090600090a35050565b60015461147c908261119a565b60015533600090815260026020526040902054611499908261119a565b33600081815260026020526040812092909255905461070c9173ffffffffffffffffffffffffffffffffffffffff9091169030846116da565b6000818484111561157b576040517f08c379a00000000000000000000000000000000000000000000000000000000081526004018080602001828103825283818151815260200191508051906020019080838360005b83811015611540578181015183820152602001611528565b50505050905090810190601f16801561156d5780820380516001836020036101000a031916815260200191505b509250505060405180910390fd5b505050900390565b600081836115ec576040517f08c379a0000000000000000000000000000000000000000000000000000000008152602060048201818152835160248401528351909283926044909101919085019080838360008315611540578181015183820152602001611528565b5060008385816115f857fe5b0495945050505050565b6060611664826040518060400160405280602081526020017f5361666545524332303a206c6f772d6c6576656c2063616c6c206661696c65648152508573ffffffffffffffffffffffffffffffffffffffff166117759092919063ffffffff16565b8051909150156113f35780806020019051602081101561168357600080fd5b50516113f3576040517f08c379a000000000000000000000000000000000000000000000000000000000815260040180806020018281038252602a815260200180611a1b602a913960400191505060405180910390fd5b6040805173ffffffffffffffffffffffffffffffffffffffff80861660248301528416604482015260648082018490528251808303909101815260849091019091526020810180517bffffffffffffffffffffffffffffffffffffffffffffffffffffffff167f23b872dd0000000000000000000000000000000000000000000000000000000017905261176f908590611602565b50505050565b6060611784848460008561178c565b949350505050565b606061179785611958565b61180257604080517f08c379a000000000000000000000000000000000000000000000000000000000815260206004820152601d60248201527f416464726573733a2063616c6c20746f206e6f6e2d636f6e7472616374000000604482015290519081900360640190fd5b600060608673ffffffffffffffffffffffffffffffffffffffff1685876040518082805190602001908083835b6020831061186c57805182527fffffffffffffffffffffffffffffffffffffffffffffffffffffffffffffffe0909201916020918201910161182f565b6001836020036101000a03801982511681845116808217855250505050505090500191505060006040518083038185875af1925050503d80600081146118ce576040519150601f19603f3d011682016040523d82523d6000602084013e6118d3565b606091505b509150915081156118e75791506117849050565b8051156118f75780518082602001fd5b6040517f08c379a0000000000000000000000000000000000000000000000000000000008152602060048201818152865160248401528651879391928392604401919085019080838360008315611540578181015183820152602001611528565b3b15159056fe4f776e61626c653a206e6577206f776e657220697320746865207a65726f20616464726573736f70657261746f723a207a65726f206164647265737320676976656e20666f72206e6577206f70657261746f726465706f73697420616d6f756e742065786365656473206d6178696d756d203230303030536166654d6174683a206d756c7469706c69636174696f6e206f766572666c6f776f70657261746f723a2063616c6c6572206973206e6f7420746865206f70657261746f725361666545524332303a204552433230206f7065726174696f6e20646964206e6f742073756363656564a2646970667358221220f3a51192c78332501bf06a6c0b9b16e3081e2f67b09685b1781adfc357f9b1d264736f6c634300060c0033",
  "immutableReferences": {},
  "source": "// SPDX-License-Identifier: MIT\npragma solidity ^0.6.12;\n\n// File: @openzeppelin/contracts/math/Math.sol\n\nimport '../../Math/Math.sol';\nimport '../../Math/SafeMath.sol';\nimport '../../ERC20/IERC20.sol';\nimport '../../Utils/Address.sol';\nimport '../../ERC20/SafeERC20.sol';\nimport '../../Interfaces/IRewardDistributionRecipient.sol';\nimport '../../owner/Operator.sol';\n\ncontract WETHWrapper {\n    using SafeMath for uint256;\n    using SafeERC20 for IERC20;\n\n    IERC20 public weth; //TEST CASES DONE\n\n    uint256 private _totalSupply;\n    mapping(address => uint256) private _balances;\n\n    //TEST CASES DONE\n    function totalSupply() public virtual view returns (uint256) {\n        return _totalSupply;\n    }\n    //TEST CASES DONE\n    function balanceOf(address account) public virtual view returns (uint256) {\n        return _balances[account];\n    }\n    //TEST CASES DONE\n    function stake(uint256 amount) public virtual {\n        _totalSupply = _totalSupply.add(amount);\n        _balances[msg.sender] = _balances[msg.sender].add(amount);\n        weth.safeTransferFrom(msg.sender, address(this), amount);\n    }\n    //TEST CASES DONE\n    function withdraw(uint256 amount) public virtual {\n        _totalSupply = _totalSupply.sub(amount);\n        _balances[msg.sender] = _balances[msg.sender].sub(amount);\n        weth.safeTransfer(msg.sender, amount);\n    }\n}\n\ncontract CERESWETHPool is WETHWrapper, IRewardDistributionRecipient, Operator {\n    IERC20 public ceres; //TEST CASES DONE\n    uint256 public DURATION = 5 days; //TEST CASES DONE\n\n    uint256 public startime; //TEST CASES DONE\n    uint256 public periodFinish = 0; //TEST CASES DONE\n    uint256 public rewardRate = 0; //TEST CASES DONE\n    uint256 public lastUpdateTime; //TEST CASES DONE\n    uint256 public rewardPerTokenStored; //TEST CASES DONE\n    mapping(address => uint256) public userRewardPerTokenPaid;\n    mapping(address => uint256) public rewards;\n    mapping(address => uint256) public deposits;\n\n    event RewardAdded(uint256 reward);\n    event Staked(address indexed user, uint256 amount);\n    event Withdrawn(address indexed user, uint256 amount);\n    event RewardPaid(address indexed user, uint256 reward);\n    // TEST CASES DONE\n    constructor(\n        address _ceres,\n        address _weth,\n        uint256 _startime\n    ) public {\n        ceres = IERC20(_ceres);\n        weth = IERC20(_weth);\n        startime = _startime;\n    }\n\n    modifier checkStart() {\n        require(block.timestamp >= startime, 'BACyCRVPool: not start');\n        _;\n    }\n\n    modifier updateReward(address account) {\n        rewardPerTokenStored = rewardPerToken();\n        lastUpdateTime = lastTimeRewardApplicable();\n        if (account != address(0)) {\n            rewards[account] = earned(account);\n            userRewardPerTokenPaid[account] = rewardPerTokenStored;\n        }\n        _;\n    }\n    // TEST CASES DONE\n    function setRewardRate(uint256 _rewardRate) public onlyOperator {\n        rewardRate = _rewardRate;\n        if (block.timestamp > startime) {\n            lastUpdateTime = block.timestamp;\n            periodFinish = block.timestamp.add(DURATION);\n        } else {\n            lastUpdateTime = startime;\n            periodFinish = startime.add(DURATION);\n        }\n    }\n    // TEST CASES DONE\n    function lastTimeRewardApplicable() public view returns (uint256) {\n        // return Math.min(block.timestamp, periodFinish);\n        if (periodFinish>0) \n            return periodFinish;\n        else \n            return block.timestamp;\n    }\n    // TEST CASES DONE\n    function rewardPerToken() public view returns (uint256) {\n        if (totalSupply() == 0) {\n            return rewardPerTokenStored;\n        }\n        return\n            rewardPerTokenStored.add(\n                lastTimeRewardApplicable()\n                    .sub(lastUpdateTime)\n                    .mul(rewardRate)\n                    .mul(1e18)\n                    .div(totalSupply())\n            );\n    }\n    // TEST CASES DONE\n    function tmpValue() public view returns(uint256) {\n        return lastTimeRewardApplicable()\n                    .sub(lastUpdateTime);\n    }\n    // TEST CASES DONE\n    function earned(address account) public view returns (uint256) {\n        return\n            balanceOf(account)\n                .mul(rewardPerToken().sub(userRewardPerTokenPaid[account]))\n                .div(1e18)\n                .add(rewards[account]);\n    }\n    // TEST CASES DONE\n    // stake visibility is public as overriding LPTokenWrapper's stake() function\n    function stake(uint256 amount)\n        public\n        override\n        updateReward(msg.sender)\n        checkStart\n    {\n        require(amount > 0, 'Cannot stake 0');\n        uint256 newDeposit = deposits[msg.sender].add(amount);\n        require(\n            newDeposit <= 20000e18,\n            'deposit amount exceeds maximum 20000'\n        );\n        deposits[msg.sender] = newDeposit;\n        super.stake(amount);\n        emit Staked(msg.sender, amount);\n    }\n    // TEST CASES DONE\n    function withdraw(uint256 amount)\n        public\n        override\n        updateReward(msg.sender)\n        checkStart\n    {\n        require(amount > 0, 'Cannot withdraw 0');\n        deposits[msg.sender] = deposits[msg.sender].sub(amount);\n        super.withdraw(amount);\n        emit Withdrawn(msg.sender, amount);\n    }\n    // TEST CASES DONE\n    function exit() external {\n        withdraw(balanceOf(msg.sender));\n        getReward();\n    }\n    // TEST CASES DONE\n    function getReward() public updateReward(msg.sender) checkStart {\n        uint256 reward = earned(msg.sender);\n        if (reward > 0) {\n            rewards[msg.sender] = 0;\n            ceres.safeTransfer(msg.sender, reward);\n            emit RewardPaid(msg.sender, reward);\n        }\n    }\n\n    // function notifyRewardAmount(uint256 reward)\n    //     external\n    //     override\n    //     onlyRewardDistribution\n    //     updateReward(address(0))\n    // {\n    //     if (block.timestamp > startime) {\n    //         if (block.timestamp >= periodFinish) {\n    //             rewardRate = reward.div(DURATION);\n    //         } else {\n    //             uint256 remaining = periodFinish.sub(block.timestamp);\n    //             uint256 leftover = remaining.mul(rewardRate);\n    //             rewardRate = reward.add(leftover).div(DURATION);\n    //         }\n    //         lastUpdateTime = block.timestamp;\n    //         periodFinish = block.timestamp.add(DURATION);\n    //         emit RewardAdded(reward);\n    //     } else {\n    //         rewardRate = reward.div(DURATION);\n    //         lastUpdateTime = startime;\n    //         periodFinish = startime.add(DURATION);\n    //         emit RewardAdded(reward);\n    //     }\n    // }\n}\n",
  "sourcePath": "/Users/cooper/GitHub/Prigogine/Ceres-Protocol/contracts/Ceres/Pools/CERESWETHPool.sol",
  "compiler": {
    "name": "solc",
    "version": "0.6.12+commit.27d51765.Emscripten.clang"
  },
  "schemaVersion": "3.4.1",
  "updatedAt": "2021-07-29T08:29:12.989Z",
  "devdoc": {
    "kind": "dev",
    "methods": {
      "owner()": {
        "details": "Returns the address of the current owner."
      },
      "renounceOwnership()": {
        "details": "Leaves the contract without owner. It will not be possible to call `onlyOwner` functions anymore. Can only be called by the current owner. NOTE: Renouncing ownership will leave the contract without an owner, thereby removing any functionality that is only available to the owner."
      },
      "transferOwnership(address)": {
        "details": "Transfers ownership of the contract to a new account (`newOwner`). Can only be called by the current owner."
      }
    },
    "version": 1
  },
  "userdoc": {
    "kind": "user",
    "methods": {},
    "version": 1
  }
}