{
  "contractName": "CERESPoolLibrary",
  "abi": [
    {
      "inputs": [
        {
          "internalType": "uint256",
          "name": "col_price",
          "type": "uint256"
        },
        {
          "internalType": "uint256",
          "name": "collateral_amount_d18",
          "type": "uint256"
        }
      ],
      "name": "calcMint1t1CERES",
      "outputs": [
        {
          "internalType": "uint256",
          "name": "",
          "type": "uint256"
        }
      ],
      "stateMutability": "pure",
      "type": "function"
    },
    {
      "inputs": [
        {
          "internalType": "uint256",
          "name": "css_price_usd",
          "type": "uint256"
        },
        {
          "internalType": "uint256",
          "name": "css_amount_d18",
          "type": "uint256"
        }
      ],
      "name": "calcMintAlgorithmicCERES",
      "outputs": [
        {
          "internalType": "uint256",
          "name": "",
          "type": "uint256"
        }
      ],
      "stateMutability": "pure",
      "type": "function"
    },
    {
      "inputs": [
        {
          "internalType": "uint256",
          "name": "col_price_usd",
          "type": "uint256"
        },
        {
          "internalType": "uint256",
          "name": "CERES_amount",
          "type": "uint256"
        }
      ],
      "name": "calcRedeem1t1CERES",
      "outputs": [
        {
          "internalType": "uint256",
          "name": "",
          "type": "uint256"
        }
      ],
      "stateMutability": "pure",
      "type": "function"
    },
    {
      "inputs": [
        {
          "internalType": "uint256",
          "name": "total_supply",
          "type": "uint256"
        },
        {
          "internalType": "uint256",
          "name": "global_collateral_ratio",
          "type": "uint256"
        },
        {
          "internalType": "uint256",
          "name": "global_collat_value",
          "type": "uint256"
        }
      ],
      "name": "recollateralizeAmount",
      "outputs": [
        {
          "internalType": "uint256",
          "name": "",
          "type": "uint256"
        }
      ],
      "stateMutability": "pure",
      "type": "function"
    },
    {
      "inputs": [
        {
          "internalType": "uint256",
          "name": "collateral_amount",
          "type": "uint256"
        },
        {
          "internalType": "uint256",
          "name": "col_price",
          "type": "uint256"
        },
        {
          "internalType": "uint256",
          "name": "global_collat_value",
          "type": "uint256"
        },
        {
          "internalType": "uint256",
          "name": "ceres_total_supply",
          "type": "uint256"
        },
        {
          "internalType": "uint256",
          "name": "global_collateral_ratio",
          "type": "uint256"
        }
      ],
      "name": "calcRecollateralizeCERESInner",
      "outputs": [
        {
          "internalType": "uint256",
          "name": "",
          "type": "uint256"
        },
        {
          "internalType": "uint256",
          "name": "",
          "type": "uint256"
        }
      ],
      "stateMutability": "pure",
      "type": "function"
    }
  ],
  "bytecode": "0x6104e1610026600b82828239805160001a60731461001957fe5b30600052607381538281f3fe73000000000000000000000000000000000000000030146080604052600436106100715760003560e01c8063bdf2c23b1161005a578063bdf2c23b146100c0578063bfe14e2e146100c0578063f1d6d407146100d357610071565b80630ff24ec114610076578063816260611461009f575b600080fd5b610089610084366004610361565b6100e6565b6040516100969190610494565b60405180910390f35b6100b26100ad36600461038c565b610115565b60405161009692919061049d565b6100896100ce366004610340565b61019d565b6100896100e1366004610340565b6101b9565b600080610100620f42406100fa87876101c8565b90610225565b905061010c8184610267565b95945050505050565b6000808061012a620f42406100fa8a8a6101c8565b9050600061013f866100fa89620f42406101c8565b90506000610167620f42406100fa6101578a866101c8565b6101618a8c6101c8565b90610267565b9050600081841161017957508261017c565b50805b61018d8a6100fa83620f42406101c8565b9b909a5098505050505050505050565b60006101b0620f42406100fa84866101c8565b90505b92915050565b60006101b0836100fa84620f42405b6000826101d7575060006101b3565b828202828482816101e457fe5b04146101b0576040517f08c379a000000000000000000000000000000000000000000000000000000000815260040161021c90610437565b60405180910390fd5b60006101b083836040518060400160405280601a81526020017f536166654d6174683a206469766973696f6e206279207a65726f0000000000008152506102a9565b60006101b083836040518060400160405280601e81526020017f536166654d6174683a207375627472616374696f6e206f766572666c6f7700008152506102fa565b600081836102e4576040517f08c379a000000000000000000000000000000000000000000000000000000000815260040161021c91906103c6565b5060008385816102f057fe5b0495945050505050565b60008184841115610338576040517f08c379a000000000000000000000000000000000000000000000000000000000815260040161021c91906103c6565b505050900390565b60008060408385031215610352578182fd5b50508035926020909101359150565b600080600060608486031215610375578081fd5b505081359360208301359350604090920135919050565b600080600080600060a086880312156103a3578081fd5b505083359560208501359550604085013594606081013594506080013592509050565b6000602080835283518082850152825b818110156103f2578581018301518582016040015282016103d6565b818111156104035783604083870101525b50601f017fffffffffffffffffffffffffffffffffffffffffffffffffffffffffffffffe016929092016040019392505050565b60208082526021908201527f536166654d6174683a206d756c7469706c69636174696f6e206f766572666c6f60408201527f7700000000000000000000000000000000000000000000000000000000000000606082015260800190565b90815260200190565b91825260208201526040019056fea26469706673582212204ca2bc5668d88fa0651bde98ec7030c521e9ee1b965eccdb877e685eeaaff16a64736f6c634300060c0033",
  "immutableReferences": {},
  "source": "// SPDX-License-Identifier: MIT\npragma solidity ^0.6.0;\npragma experimental ABIEncoderV2;\n\nimport \"../../Math/SafeMath.sol\";\n\n\n\nlibrary CERESPoolLibrary {\n    using SafeMath for uint256;\n\n    // Constants for various precisions\n    uint256 private constant PRICE_PRECISION = 1e6;\n\n    // ================ Structs ================\n    // Needed to lower stack size\n    struct MintCSS_Params {\n        uint256 css_price_usd; \n        uint256 col_price_usd;\n        uint256 css_amount;\n        uint256 collateral_amount;\n        uint256 col_ratio;\n    }\n\n    struct BuybackCSS_Params {\n        uint256 excess_collateral_dollar_value_d18;\n        uint256 css_price_usd;\n        uint256 col_price_usd;\n        uint256 CSS_amount;\n    }\n\n    // ================ Functions ================\n\n    function calcMint1t1CERES(uint256 col_price, uint256 collateral_amount_d18) public pure returns (uint256) {\n        return (collateral_amount_d18.mul(col_price)).div(1e6);\n    }\n\n    function calcMintAlgorithmicCERES(uint256 css_price_usd, uint256 css_amount_d18) public pure returns (uint256) {\n        return css_amount_d18.mul(css_price_usd).div(1e6);\n    }\n\n    \n    function calcMintFractionalCERES(MintCSS_Params memory params) internal pure returns (uint256, uint256) {    \n        uint256 css_dollar_value_d18;\n        uint256 c_dollar_value_d18;\n        \n        // Scoping for stack concerns\n        {    \n            css_dollar_value_d18 = params.css_amount.mul(params.css_price_usd).div(1e6);\n            c_dollar_value_d18 = params.collateral_amount.mul(params.col_price_usd).div(1e6);\n\n        }\n        uint calculated_css_dollar_value_d18 = \n                    (c_dollar_value_d18.mul(1e6).div(params.col_ratio))\n                    .sub(c_dollar_value_d18);\n\n        uint calculated_css_needed = calculated_css_dollar_value_d18.mul(1e6).div(params.css_price_usd);\n\n        return (\n            c_dollar_value_d18.add(calculated_css_dollar_value_d18),\n            calculated_css_needed\n        );\n    }\n\n    function calcRedeem1t1CERES(uint256 col_price_usd, uint256 CERES_amount) public pure returns (uint256) {\n        return CERES_amount.mul(1e6).div(col_price_usd);\n    }\n\n    // Must be internal because of the struct\n    function calcBuyBackCSS(BuybackCSS_Params memory params) internal pure returns (uint256) {\n        require(params.excess_collateral_dollar_value_d18 > 0, \"No excess collateral to buy back!\");\n\n        // Make sure not to take more than is available\n        uint256 css_dollar_value_d18 = params.CSS_amount.mul(params.css_price_usd).div(1e6);\n        require(css_dollar_value_d18 <= params.excess_collateral_dollar_value_d18, \"You are trying to buy back more than the excess!\");\n\n        uint256 collateral_equivalent_d18 = css_dollar_value_d18.mul(1e6).div(params.col_price_usd);\n        return (\n            collateral_equivalent_d18\n        );\n\n    }\n\n\n    \n    function recollateralizeAmount(uint256 total_supply, uint256 global_collateral_ratio, uint256 global_collat_value) public pure returns (uint256) {\n        uint256 target_collat_value = total_supply.mul(global_collateral_ratio).div(1e6); \n        return target_collat_value.sub(global_collat_value); \n    }\n\n    function calcRecollateralizeCERESInner(\n        uint256 collateral_amount, \n        uint256 col_price,\n        uint256 global_collat_value,\n        uint256 ceres_total_supply,\n        uint256 global_collateral_ratio\n    ) public pure returns (uint256, uint256) {\n        uint256 collat_value_attempted = collateral_amount.mul(col_price).div(1e6);\n        uint256 effective_collateral_ratio = global_collat_value.mul(1e6).div(ceres_total_supply); \n        uint256 recollat_possible = (global_collateral_ratio.mul(ceres_total_supply).sub(ceres_total_supply.mul(effective_collateral_ratio))).div(1e6);\n\n        uint256 amount_to_recollat;\n        if(collat_value_attempted <= recollat_possible){\n            amount_to_recollat = collat_value_attempted;\n        } else {\n            amount_to_recollat = recollat_possible;\n        }\n\n        return (amount_to_recollat.mul(1e6).div(col_price), amount_to_recollat);\n\n    }\n\n}",
  "sourcePath": "/Users/cooper/GitHub/Prigogine/Ceres-Protocol/contracts/Ceres/Pools/CeresPoolLibrary.sol",
  "compiler": {
    "name": "solc",
    "version": "0.6.12+commit.27d51765.Emscripten.clang"
  },
  "schemaVersion": "3.4.1",
  "updatedAt": "2021-07-29T08:29:13.037Z",
  "devdoc": {
    "kind": "dev",
    "methods": {},
    "version": 1
  },
  "userdoc": {
    "kind": "user",
    "methods": {},
    "version": 1
  }
}