{
  "contractName": "CEREStable",
  "abi": [
    {
      "inputs": [
        {
          "internalType": "string",
          "name": "_name",
          "type": "string"
        },
        {
          "internalType": "string",
          "name": "_symbol",
          "type": "string"
        },
        {
          "internalType": "address",
          "name": "_creator_address",
          "type": "address"
        },
        {
          "internalType": "address",
          "name": "_timelock_address",
          "type": "address"
        }
      ],
      "stateMutability": "nonpayable",
      "type": "constructor"
    },
    {
      "anonymous": false,
      "inputs": [
        {
          "indexed": true,
          "internalType": "address",
          "name": "owner",
          "type": "address"
        },
        {
          "indexed": true,
          "internalType": "address",
          "name": "spender",
          "type": "address"
        },
        {
          "indexed": false,
          "internalType": "uint256",
          "name": "value",
          "type": "uint256"
        }
      ],
      "name": "Approval",
      "type": "event"
    },
    {
      "anonymous": false,
      "inputs": [
        {
          "indexed": true,
          "internalType": "address",
          "name": "from",
          "type": "address"
        },
        {
          "indexed": true,
          "internalType": "address",
          "name": "to",
          "type": "address"
        },
        {
          "indexed": false,
          "internalType": "uint256",
          "name": "amount",
          "type": "uint256"
        }
      ],
      "name": "CERESBurned",
      "type": "event"
    },
    {
      "anonymous": false,
      "inputs": [
        {
          "indexed": true,
          "internalType": "address",
          "name": "from",
          "type": "address"
        },
        {
          "indexed": true,
          "internalType": "address",
          "name": "to",
          "type": "address"
        },
        {
          "indexed": false,
          "internalType": "uint256",
          "name": "amount",
          "type": "uint256"
        }
      ],
      "name": "CERESMinted",
      "type": "event"
    },
    {
      "anonymous": false,
      "inputs": [
        {
          "indexed": true,
          "internalType": "bytes32",
          "name": "role",
          "type": "bytes32"
        },
        {
          "indexed": true,
          "internalType": "bytes32",
          "name": "previousAdminRole",
          "type": "bytes32"
        },
        {
          "indexed": true,
          "internalType": "bytes32",
          "name": "newAdminRole",
          "type": "bytes32"
        }
      ],
      "name": "RoleAdminChanged",
      "type": "event"
    },
    {
      "anonymous": false,
      "inputs": [
        {
          "indexed": true,
          "internalType": "bytes32",
          "name": "role",
          "type": "bytes32"
        },
        {
          "indexed": true,
          "internalType": "address",
          "name": "account",
          "type": "address"
        },
        {
          "indexed": true,
          "internalType": "address",
          "name": "sender",
          "type": "address"
        }
      ],
      "name": "RoleGranted",
      "type": "event"
    },
    {
      "anonymous": false,
      "inputs": [
        {
          "indexed": true,
          "internalType": "bytes32",
          "name": "role",
          "type": "bytes32"
        },
        {
          "indexed": true,
          "internalType": "address",
          "name": "account",
          "type": "address"
        },
        {
          "indexed": true,
          "internalType": "address",
          "name": "sender",
          "type": "address"
        }
      ],
      "name": "RoleRevoked",
      "type": "event"
    },
    {
      "anonymous": false,
      "inputs": [
        {
          "indexed": true,
          "internalType": "address",
          "name": "from",
          "type": "address"
        },
        {
          "indexed": true,
          "internalType": "address",
          "name": "to",
          "type": "address"
        },
        {
          "indexed": false,
          "internalType": "uint256",
          "name": "value",
          "type": "uint256"
        }
      ],
      "name": "Transfer",
      "type": "event"
    },
    {
      "inputs": [],
      "name": "CSSEthOracle",
      "outputs": [
        {
          "internalType": "contract UniswapPairOracle",
          "name": "",
          "type": "address"
        }
      ],
      "stateMutability": "view",
      "type": "function"
    },
    {
      "inputs": [],
      "name": "CeresEthOracle",
      "outputs": [
        {
          "internalType": "contract UniswapPairOracle",
          "name": "",
          "type": "address"
        }
      ],
      "stateMutability": "view",
      "type": "function"
    },
    {
      "inputs": [],
      "name": "DEFAULT_ADMIN_ADDRESS",
      "outputs": [
        {
          "internalType": "address",
          "name": "",
          "type": "address"
        }
      ],
      "stateMutability": "view",
      "type": "function"
    },
    {
      "inputs": [],
      "name": "DEFAULT_ADMIN_ROLE",
      "outputs": [
        {
          "internalType": "bytes32",
          "name": "",
          "type": "bytes32"
        }
      ],
      "stateMutability": "view",
      "type": "function"
    },
    {
      "inputs": [],
      "name": "PRICE_PRECISION",
      "outputs": [
        {
          "internalType": "uint256",
          "name": "",
          "type": "uint256"
        }
      ],
      "stateMutability": "view",
      "type": "function"
    },
    {
      "inputs": [
        {
          "internalType": "address",
          "name": "owner",
          "type": "address"
        },
        {
          "internalType": "address",
          "name": "spender",
          "type": "address"
        }
      ],
      "name": "allowance",
      "outputs": [
        {
          "internalType": "uint256",
          "name": "",
          "type": "uint256"
        }
      ],
      "stateMutability": "view",
      "type": "function"
    },
    {
      "inputs": [
        {
          "internalType": "address",
          "name": "spender",
          "type": "address"
        },
        {
          "internalType": "uint256",
          "name": "amount",
          "type": "uint256"
        }
      ],
      "name": "approve",
      "outputs": [
        {
          "internalType": "bool",
          "name": "",
          "type": "bool"
        }
      ],
      "stateMutability": "nonpayable",
      "type": "function"
    },
    {
      "inputs": [
        {
          "internalType": "address",
          "name": "account",
          "type": "address"
        }
      ],
      "name": "balanceOf",
      "outputs": [
        {
          "internalType": "uint256",
          "name": "",
          "type": "uint256"
        }
      ],
      "stateMutability": "view",
      "type": "function"
    },
    {
      "inputs": [
        {
          "internalType": "uint256",
          "name": "amount",
          "type": "uint256"
        }
      ],
      "name": "burn",
      "outputs": [],
      "stateMutability": "nonpayable",
      "type": "function"
    },
    {
      "inputs": [
        {
          "internalType": "address",
          "name": "account",
          "type": "address"
        },
        {
          "internalType": "uint256",
          "name": "amount",
          "type": "uint256"
        }
      ],
      "name": "burnFrom",
      "outputs": [],
      "stateMutability": "nonpayable",
      "type": "function"
    },
    {
      "inputs": [],
      "name": "ceres_eth_oracle_address",
      "outputs": [
        {
          "internalType": "address",
          "name": "",
          "type": "address"
        }
      ],
      "stateMutability": "view",
      "type": "function"
    },
    {
      "inputs": [
        {
          "internalType": "address",
          "name": "",
          "type": "address"
        }
      ],
      "name": "ceres_pools",
      "outputs": [
        {
          "internalType": "bool",
          "name": "",
          "type": "bool"
        }
      ],
      "stateMutability": "view",
      "type": "function"
    },
    {
      "inputs": [
        {
          "internalType": "uint256",
          "name": "",
          "type": "uint256"
        }
      ],
      "name": "ceres_pools_array",
      "outputs": [
        {
          "internalType": "address",
          "name": "",
          "type": "address"
        }
      ],
      "stateMutability": "view",
      "type": "function"
    },
    {
      "inputs": [],
      "name": "ceres_step",
      "outputs": [
        {
          "internalType": "uint256",
          "name": "",
          "type": "uint256"
        }
      ],
      "stateMutability": "view",
      "type": "function"
    },
    {
      "inputs": [],
      "name": "collateral_ratio_paused",
      "outputs": [
        {
          "internalType": "bool",
          "name": "",
          "type": "bool"
        }
      ],
      "stateMutability": "view",
      "type": "function"
    },
    {
      "inputs": [],
      "name": "controller_address",
      "outputs": [
        {
          "internalType": "address",
          "name": "",
          "type": "address"
        }
      ],
      "stateMutability": "view",
      "type": "function"
    },
    {
      "inputs": [],
      "name": "creator_address",
      "outputs": [
        {
          "internalType": "address",
          "name": "",
          "type": "address"
        }
      ],
      "stateMutability": "view",
      "type": "function"
    },
    {
      "inputs": [],
      "name": "css_eth_oracle_address",
      "outputs": [
        {
          "internalType": "address",
          "name": "",
          "type": "address"
        }
      ],
      "stateMutability": "view",
      "type": "function"
    },
    {
      "inputs": [],
      "name": "decimals",
      "outputs": [
        {
          "internalType": "uint8",
          "name": "",
          "type": "uint8"
        }
      ],
      "stateMutability": "view",
      "type": "function"
    },
    {
      "inputs": [
        {
          "internalType": "address",
          "name": "spender",
          "type": "address"
        },
        {
          "internalType": "uint256",
          "name": "subtractedValue",
          "type": "uint256"
        }
      ],
      "name": "decreaseAllowance",
      "outputs": [
        {
          "internalType": "bool",
          "name": "",
          "type": "bool"
        }
      ],
      "stateMutability": "nonpayable",
      "type": "function"
    },
    {
      "inputs": [],
      "name": "eth_usd_consumer_address",
      "outputs": [
        {
          "internalType": "address",
          "name": "",
          "type": "address"
        }
      ],
      "stateMutability": "view",
      "type": "function"
    },
    {
      "inputs": [],
      "name": "eth_usd_pricer",
      "outputs": [
        {
          "internalType": "contract ChainlinkETHUSDPriceConsumer",
          "name": "",
          "type": "address"
        }
      ],
      "stateMutability": "view",
      "type": "function"
    },
    {
      "inputs": [],
      "name": "eth_usd_pricer_decimals",
      "outputs": [
        {
          "internalType": "uint8",
          "name": "",
          "type": "uint8"
        }
      ],
      "stateMutability": "view",
      "type": "function"
    },
    {
      "inputs": [],
      "name": "genesis_supply",
      "outputs": [
        {
          "internalType": "uint256",
          "name": "",
          "type": "uint256"
        }
      ],
      "stateMutability": "view",
      "type": "function"
    },
    {
      "inputs": [
        {
          "internalType": "bytes32",
          "name": "role",
          "type": "bytes32"
        }
      ],
      "name": "getRoleAdmin",
      "outputs": [
        {
          "internalType": "bytes32",
          "name": "",
          "type": "bytes32"
        }
      ],
      "stateMutability": "view",
      "type": "function"
    },
    {
      "inputs": [
        {
          "internalType": "bytes32",
          "name": "role",
          "type": "bytes32"
        },
        {
          "internalType": "uint256",
          "name": "index",
          "type": "uint256"
        }
      ],
      "name": "getRoleMember",
      "outputs": [
        {
          "internalType": "address",
          "name": "",
          "type": "address"
        }
      ],
      "stateMutability": "view",
      "type": "function"
    },
    {
      "inputs": [
        {
          "internalType": "bytes32",
          "name": "role",
          "type": "bytes32"
        }
      ],
      "name": "getRoleMemberCount",
      "outputs": [
        {
          "internalType": "uint256",
          "name": "",
          "type": "uint256"
        }
      ],
      "stateMutability": "view",
      "type": "function"
    },
    {
      "inputs": [],
      "name": "global_collateral_ratio",
      "outputs": [
        {
          "internalType": "uint256",
          "name": "",
          "type": "uint256"
        }
      ],
      "stateMutability": "view",
      "type": "function"
    },
    {
      "inputs": [
        {
          "internalType": "bytes32",
          "name": "role",
          "type": "bytes32"
        },
        {
          "internalType": "address",
          "name": "account",
          "type": "address"
        }
      ],
      "name": "grantRole",
      "outputs": [],
      "stateMutability": "nonpayable",
      "type": "function"
    },
    {
      "inputs": [
        {
          "internalType": "bytes32",
          "name": "role",
          "type": "bytes32"
        },
        {
          "internalType": "address",
          "name": "account",
          "type": "address"
        }
      ],
      "name": "hasRole",
      "outputs": [
        {
          "internalType": "bool",
          "name": "",
          "type": "bool"
        }
      ],
      "stateMutability": "view",
      "type": "function"
    },
    {
      "inputs": [
        {
          "internalType": "address",
          "name": "spender",
          "type": "address"
        },
        {
          "internalType": "uint256",
          "name": "addedValue",
          "type": "uint256"
        }
      ],
      "name": "increaseAllowance",
      "outputs": [
        {
          "internalType": "bool",
          "name": "",
          "type": "bool"
        }
      ],
      "stateMutability": "nonpayable",
      "type": "function"
    },
    {
      "inputs": [],
      "name": "last_call_time",
      "outputs": [
        {
          "internalType": "uint256",
          "name": "",
          "type": "uint256"
        }
      ],
      "stateMutability": "view",
      "type": "function"
    },
    {
      "inputs": [],
      "name": "name",
      "outputs": [
        {
          "internalType": "string",
          "name": "",
          "type": "string"
        }
      ],
      "stateMutability": "view",
      "type": "function"
    },
    {
      "inputs": [],
      "name": "owner_address",
      "outputs": [
        {
          "internalType": "address",
          "name": "",
          "type": "address"
        }
      ],
      "stateMutability": "view",
      "type": "function"
    },
    {
      "inputs": [],
      "name": "price_band",
      "outputs": [
        {
          "internalType": "uint256",
          "name": "",
          "type": "uint256"
        }
      ],
      "stateMutability": "view",
      "type": "function"
    },
    {
      "inputs": [],
      "name": "price_target",
      "outputs": [
        {
          "internalType": "uint256",
          "name": "",
          "type": "uint256"
        }
      ],
      "stateMutability": "view",
      "type": "function"
    },
    {
      "inputs": [],
      "name": "refresh_cooldown",
      "outputs": [
        {
          "internalType": "uint256",
          "name": "",
          "type": "uint256"
        }
      ],
      "stateMutability": "view",
      "type": "function"
    },
    {
      "inputs": [
        {
          "internalType": "bytes32",
          "name": "role",
          "type": "bytes32"
        },
        {
          "internalType": "address",
          "name": "account",
          "type": "address"
        }
      ],
      "name": "renounceRole",
      "outputs": [],
      "stateMutability": "nonpayable",
      "type": "function"
    },
    {
      "inputs": [
        {
          "internalType": "bytes32",
          "name": "role",
          "type": "bytes32"
        },
        {
          "internalType": "address",
          "name": "account",
          "type": "address"
        }
      ],
      "name": "revokeRole",
      "outputs": [],
      "stateMutability": "nonpayable",
      "type": "function"
    },
    {
      "inputs": [],
      "name": "symbol",
      "outputs": [
        {
          "internalType": "string",
          "name": "",
          "type": "string"
        }
      ],
      "stateMutability": "view",
      "type": "function"
    },
    {
      "inputs": [],
      "name": "timelock_address",
      "outputs": [
        {
          "internalType": "address",
          "name": "",
          "type": "address"
        }
      ],
      "stateMutability": "view",
      "type": "function"
    },
    {
      "inputs": [],
      "name": "totalSupply",
      "outputs": [
        {
          "internalType": "uint256",
          "name": "",
          "type": "uint256"
        }
      ],
      "stateMutability": "view",
      "type": "function"
    },
    {
      "inputs": [
        {
          "internalType": "address",
          "name": "recipient",
          "type": "address"
        },
        {
          "internalType": "uint256",
          "name": "amount",
          "type": "uint256"
        }
      ],
      "name": "transfer",
      "outputs": [
        {
          "internalType": "bool",
          "name": "",
          "type": "bool"
        }
      ],
      "stateMutability": "nonpayable",
      "type": "function"
    },
    {
      "inputs": [
        {
          "internalType": "address",
          "name": "sender",
          "type": "address"
        },
        {
          "internalType": "address",
          "name": "recipient",
          "type": "address"
        },
        {
          "internalType": "uint256",
          "name": "amount",
          "type": "uint256"
        }
      ],
      "name": "transferFrom",
      "outputs": [
        {
          "internalType": "bool",
          "name": "",
          "type": "bool"
        }
      ],
      "stateMutability": "nonpayable",
      "type": "function"
    },
    {
      "inputs": [],
      "name": "weth_address",
      "outputs": [
        {
          "internalType": "address",
          "name": "",
          "type": "address"
        }
      ],
      "stateMutability": "view",
      "type": "function"
    },
    {
      "inputs": [],
      "name": "getCeresEthOracle_consult",
      "outputs": [
        {
          "internalType": "uint256",
          "name": "",
          "type": "uint256"
        }
      ],
      "stateMutability": "view",
      "type": "function"
    },
    {
      "inputs": [],
      "name": "getCSSEthOracle_consult",
      "outputs": [
        {
          "internalType": "uint256",
          "name": "",
          "type": "uint256"
        }
      ],
      "stateMutability": "view",
      "type": "function"
    },
    {
      "inputs": [
        {
          "internalType": "address",
          "name": "m_address",
          "type": "address"
        },
        {
          "internalType": "uint256",
          "name": "m_amount",
          "type": "uint256"
        }
      ],
      "name": "pool_mint",
      "outputs": [],
      "stateMutability": "nonpayable",
      "type": "function"
    },
    {
      "inputs": [
        {
          "internalType": "address",
          "name": "pool_address",
          "type": "address"
        }
      ],
      "name": "addPool",
      "outputs": [],
      "stateMutability": "nonpayable",
      "type": "function"
    },
    {
      "inputs": [
        {
          "internalType": "address",
          "name": "pool_address",
          "type": "address"
        }
      ],
      "name": "removePool",
      "outputs": [],
      "stateMutability": "nonpayable",
      "type": "function"
    },
    {
      "inputs": [
        {
          "internalType": "uint256",
          "name": "_new_step",
          "type": "uint256"
        }
      ],
      "name": "setCeresStep",
      "outputs": [],
      "stateMutability": "nonpayable",
      "type": "function"
    },
    {
      "inputs": [
        {
          "internalType": "uint256",
          "name": "_new_cooldown",
          "type": "uint256"
        }
      ],
      "name": "setRefreshCooldown",
      "outputs": [],
      "stateMutability": "nonpayable",
      "type": "function"
    },
    {
      "inputs": [
        {
          "internalType": "uint256",
          "name": "_new_price_target",
          "type": "uint256"
        }
      ],
      "name": "setPriceTarget",
      "outputs": [],
      "stateMutability": "nonpayable",
      "type": "function"
    },
    {
      "inputs": [
        {
          "internalType": "uint256",
          "name": "_price_band",
          "type": "uint256"
        }
      ],
      "name": "setPriceBand",
      "outputs": [],
      "stateMutability": "nonpayable",
      "type": "function"
    },
    {
      "inputs": [
        {
          "internalType": "uint256",
          "name": "_global_collateral_ratio",
          "type": "uint256"
        }
      ],
      "name": "set_global_collateral_ratio",
      "outputs": [],
      "stateMutability": "nonpayable",
      "type": "function"
    },
    {
      "inputs": [
        {
          "internalType": "uint256",
          "name": "_last_call_time",
          "type": "uint256"
        }
      ],
      "name": "set_last_call_time",
      "outputs": [],
      "stateMutability": "nonpayable",
      "type": "function"
    },
    {
      "inputs": [],
      "name": "refreshCollateralRatio",
      "outputs": [],
      "stateMutability": "nonpayable",
      "type": "function"
    },
    {
      "inputs": [],
      "name": "toggleCollateralRatio",
      "outputs": [],
      "stateMutability": "nonpayable",
      "type": "function"
    },
    {
      "inputs": [
        {
          "internalType": "address",
          "name": "b_address",
          "type": "address"
        },
        {
          "internalType": "uint256",
          "name": "b_amount",
          "type": "uint256"
        }
      ],
      "name": "pool_burn_from",
      "outputs": [],
      "stateMutability": "nonpayable",
      "type": "function"
    },
    {
      "inputs": [],
      "name": "globalCollateralValue",
      "outputs": [
        {
          "internalType": "uint256",
          "name": "",
          "type": "uint256"
        }
      ],
      "stateMutability": "view",
      "type": "function"
    },
    {
      "inputs": [
        {
          "internalType": "address",
          "name": "_owner_address",
          "type": "address"
        }
      ],
      "name": "setOwner",
      "outputs": [],
      "stateMutability": "nonpayable",
      "type": "function"
    },
    {
      "inputs": [
        {
          "internalType": "address",
          "name": "new_timelock",
          "type": "address"
        }
      ],
      "name": "setTimelock",
      "outputs": [],
      "stateMutability": "nonpayable",
      "type": "function"
    },
    {
      "inputs": [
        {
          "internalType": "address",
          "name": "_controller_address",
          "type": "address"
        }
      ],
      "name": "setController",
      "outputs": [],
      "stateMutability": "nonpayable",
      "type": "function"
    },
    {
      "inputs": [
        {
          "internalType": "address",
          "name": "_eth_usd_consumer_address",
          "type": "address"
        }
      ],
      "name": "setETHUSDOracle",
      "outputs": [],
      "stateMutability": "nonpayable",
      "type": "function"
    },
    {
      "inputs": [
        {
          "internalType": "address",
          "name": "_ceres_oracle_addr",
          "type": "address"
        },
        {
          "internalType": "address",
          "name": "_weth_address",
          "type": "address"
        }
      ],
      "name": "setCeresEthOracle",
      "outputs": [],
      "stateMutability": "nonpayable",
      "type": "function"
    },
    {
      "inputs": [
        {
          "internalType": "address",
          "name": "_css_oracle_addr",
          "type": "address"
        },
        {
          "internalType": "address",
          "name": "_weth_address",
          "type": "address"
        }
      ],
      "name": "setCSSEthOracle",
      "outputs": [],
      "stateMutability": "nonpayable",
      "type": "function"
    },
    {
      "inputs": [],
      "name": "ceres_price",
      "outputs": [
        {
          "internalType": "uint256",
          "name": "",
          "type": "uint256"
        }
      ],
      "stateMutability": "view",
      "type": "function"
    },
    {
      "inputs": [],
      "name": "css_price",
      "outputs": [
        {
          "internalType": "uint256",
          "name": "",
          "type": "uint256"
        }
      ],
      "stateMutability": "view",
      "type": "function"
    },
    {
      "inputs": [],
      "name": "eth_usd_price",
      "outputs": [
        {
          "internalType": "uint256",
          "name": "",
          "type": "uint256"
        }
      ],
      "stateMutability": "view",
      "type": "function"
    },
    {
      "inputs": [],
      "name": "ceres_info",
      "outputs": [
        {
          "internalType": "uint256",
          "name": "",
          "type": "uint256"
        },
        {
          "internalType": "uint256",
          "name": "",
          "type": "uint256"
        },
        {
          "internalType": "uint256",
          "name": "",
          "type": "uint256"
        },
        {
          "internalType": "uint256",
          "name": "",
          "type": "uint256"
        },
        {
          "internalType": "uint256",
          "name": "",
          "type": "uint256"
        }
      ],
      "stateMutability": "view",
      "type": "function"
    },
    {
      "inputs": [
        {
          "internalType": "address",
          "name": "recipient_",
          "type": "address"
        },
        {
          "internalType": "uint256",
          "name": "amount_",
          "type": "uint256"
        }
      ],
      "name": "mint",
      "outputs": [
        {
          "internalType": "bool",
          "name": "",
          "type": "bool"
        }
      ],
      "stateMutability": "nonpayable",
      "type": "function"
    }
  ],
  "bytecode": "0x60806040526019805460ff191690553480156200001b57600080fd5b5060405162003e6838038062003e688339810160408190526200003e9162000392565b83516200005390600490602087019062000237565b5082516200006990600590602086019062000237565b50600680546001600160a01b038085166001600160a01b0319928316179092556007805492841692909116919091179055620000a462000111565b600880546001600160a01b03199081166001600160a01b039384161790915560098054909116848316179055600654620000ea911669d3c21bcecceda100000062000115565b50506109c46014555050603c601555620f4240601681905561138860175560185562000497565b3390565b6001600160a01b038216620001475760405162461bcd60e51b81526004016200013e9062000457565b60405180910390fd5b620001556000838362000201565b62000171816002546200020660201b6200242d1790919060201c565b6002556001600160a01b03821660009081526020818152604090912054620001a49183906200242d62000206821b17901c565b6001600160a01b0383166000818152602081905260408082209390935591519091907fddf252ad1be2c89b69c2b068fc378daa952ba7f163c4a11628f55a4df523b3ef90620001f59085906200048e565b60405180910390a35050565b505050565b6000828201838110156200022e5760405162461bcd60e51b81526004016200013e9062000420565b90505b92915050565b828054600181600116156101000203166002900490600052602060002090601f016020900481019282601f106200027a57805160ff1916838001178555620002aa565b82800160010185558215620002aa579182015b82811115620002aa5782518255916020019190600101906200028d565b50620002b8929150620002bc565b5090565b5b80821115620002b85760008155600101620002bd565b80516001600160a01b03811681146200023157600080fd5b600082601f830112620002fc578081fd5b81516001600160401b038082111562000313578283fd5b6040516020601f8401601f191682018101838111838210171562000335578586fd5b806040525081945083825286818588010111156200035257600080fd5b600092505b8383101562000376578583018101518284018201529182019162000357565b83831115620003885760008185840101525b5050505092915050565b60008060008060808587031215620003a8578384fd5b84516001600160401b0380821115620003bf578586fd5b620003cd88838901620002eb565b95506020870151915080821115620003e3578485fd5b50620003f287828801620002eb565b935050620004048660408701620002d3565b9150620004158660608701620002d3565b905092959194509250565b6020808252601b908201527f536166654d6174683a206164646974696f6e206f766572666c6f770000000000604082015260600190565b6020808252601f908201527f45524332303a206d696e7420746f20746865207a65726f206164647265737300604082015260600190565b90815260200190565b6139c180620004a76000396000f3fe608060405234801561001057600080fd5b506004361061048d5760003560e01c806370a082311161026b578063b4f56b2611610150578063d2d97b06116100c8578063dc7864e511610097578063e08ca8aa1161007c578063e08ca8aa14610885578063f849eda214610898578063fe15a242146108a05761048d565b8063dc7864e51461086a578063dd62ed3e146108725761048d565b8063d2d97b0614610834578063d547741f1461083c578063d914cd4b1461084f578063dc6663c7146108625761048d565b8063c03f7be31161011f578063ca15c87311610104578063ca15c87314610800578063cba7548914610813578063d046f8691461081b5761048d565b8063c03f7be3146107e5578063c194216a146107ed5761048d565b8063b4f56b26146107a4578063b8f3f3be146107b7578063bdacb303146107ca578063bef40ec8146107dd5761048d565b806392eefe9b116101e3578063a3419c82116101b2578063a8a778ae11610197578063a8a778ae14610776578063a9059cbb14610789578063b0fc69ce1461079c5761048d565b8063a3419c821461075b578063a457c2d7146107635761048d565b806392eefe9b1461073057806395082d251461074357806395d89b411461074b578063a217fddf146107535761048d565b806380edef8e1161023a57806387a140c31161021f57806387a140c3146107025780639010d07c1461070a57806391d148541461071d5761048d565b806380edef8e146106f25780638111bb91146106fa5761048d565b806370a08231146106b157806371d3b583146106c4578063741d3c18146106cc57806379cc6790146106df5761048d565b80632853fb10116103915780633b7d09461161030957806342966c68116102d857806351e238e3116102bd57806351e238e31461068e5780636140133b1461069657806367feda3e146106a95761048d565b806342966c68146106735780634bd0be23146106865761048d565b80633b7d0946146106325780634013124a14610645578063408ab10f1461064d57806340c10f19146106605761048d565b8063313ce5671161036057806335467d5d1161034557806335467d5d1461060457806336568abe1461060c578063395093511461061f5761048d565b8063313ce567146105f4578063345ba24b146105fc5761048d565b80632853fb10146105c95780632cb4f63e146105d15780632eb9771b146105d95780632f2ff15d146105e15761048d565b806318160ddd11610424578063217f37bd116103f357806323b872dd116103d857806323b872dd1461059b578063246126bd146105ae578063248a9ca3146105b65761048d565b8063217f37bd146105805780632258750a146105935761048d565b806318160ddd1461054a5780631c5df1e5146105525780631dfc4944146105655780631e7afda1146105785761048d565b8063095ea7b311610460578063095ea7b3146105055780630968f6f01461051857806313af4035146105205780631496c8a1146105355761048d565b806306fdde031461049257806307281b3b146104b0578063079d89b7146104c5578063088bc67b146104e5575b600080fd5b61049a6108a8565b6040516104a7919061320d565b60405180910390f35b6104b8610954565b6040516104a79190613204565b6104d86104d3366004613058565b610965565b6040516104a791906131f9565b6104f86104f3366004613111565b61097a565b6040516104a791906131b2565b6104d86105133660046130e7565b6109ae565b6104f86109cc565b61053361052e366004613058565b6109e8565b005b61053d610acd565b6040516104a791906138a2565b6104b8610aee565b610533610560366004613111565b610af4565b610533610573366004613111565b610b8e565b6104b8610c28565b61053361058e366004613111565b610ce1565b6104b8610d7b565b6104d86105a93660046130a7565b610d81565b6104f8610e22565b6104b86105c4366004613111565b610e3e565b6104b8610e53565b6104b8610e59565b6104b8610e5f565b6105336105ef366004613129565b610e65565b61053d610ec7565b6104b8610ecc565b6104f8610f9a565b61053361061a366004613129565b610fb6565b6104d861062d3660046130e7565b61102c565b610533610640366004613058565b611087565b610533611286565b61053361065b366004613111565b6113ae565b6104d861066e3660046130e7565b611448565b610533610681366004613111565b611477565b6104f861148b565b6104b86114a7565b6105336106a4366004613111565b6114b5565b6104f861154f565b6104b86106bf366004613058565b61156b565b6104f8611593565b6105336106da366004613058565b6115af565b6105336106ed3660046130e7565b611743565b6104f8611798565b6104b86117b4565b6104d86117ba565b6104f8610718366004613158565b6117c3565b6104d861072b366004613129565b6117e2565b61053361073e366004613058565b6117fa565b6104b86118d6565b61049a6118dd565b6104b8611956565b6104b861195b565b6104d86107713660046130e7565b611967565b6105336107843660046130e7565b6119dc565b6104d86107973660046130e7565b611a9d565b6104f8611ab1565b6105336107b23660046130e7565b611acd565b6105336107c5366004613073565b611b82565b6105336107d8366004613058565b611c77565b610533611d53565b6104b8611e1a565b6105336107fb366004613073565b611e20565b6104b861080e366004613111565b611f15565b6104b8611f2c565b610823611f8f565b6040516104a795949392919061387f565b6104b8611fcf565b61053361084a366004613129565b6120f9565b61053361085d366004613058565b61214d565b6104f86122eb565b6104f8612307565b6104b8610880366004613073565b612323565b610533610893366004613111565b61235b565b6104f86123f5565b6104f8612411565b6004805460408051602060026001851615610100027fffffffffffffffffffffffffffffffffffffffffffffffffffffffffffffffff0190941693909304601f8101849004840282018401909252818152929183018282801561094c5780601f106109215761010080835404028352916020019161094c565b820191906000526020600020905b81548152906001019060200180831161092f57829003601f168201915b505050505081565b6000610960600161246c565b905090565b600b6020526000908152604090205460ff1681565b600c818154811061098757fe5b60009182526020909120015473ffffffffffffffffffffffffffffffffffffffff16905081565b60006109c26109bb612682565b8484612686565b5060015b92915050565b60115473ffffffffffffffffffffffffffffffffffffffff1681565b60095473ffffffffffffffffffffffffffffffffffffffff16331480610a25575060075473ffffffffffffffffffffffffffffffffffffffff1633145b80610a475750600a5473ffffffffffffffffffffffffffffffffffffffff1633145b610a86576040517f08c379a0000000000000000000000000000000000000000000000000000000008152600401610a7d90613551565b60405180910390fd5b600980547fffffffffffffffffffffffff00000000000000000000000000000000000000001673ffffffffffffffffffffffffffffffffffffffff92909216919091179055565b600d5474010000000000000000000000000000000000000000900460ff1681565b60025490565b60095473ffffffffffffffffffffffffffffffffffffffff16331480610b31575060075473ffffffffffffffffffffffffffffffffffffffff1633145b80610b535750600a5473ffffffffffffffffffffffffffffffffffffffff1633145b610b89576040517f08c379a0000000000000000000000000000000000000000000000000000000008152600401610a7d90613551565b601555565b60095473ffffffffffffffffffffffffffffffffffffffff16331480610bcb575060075473ffffffffffffffffffffffffffffffffffffffff1633145b80610bed5750600a5473ffffffffffffffffffffffffffffffffffffffff1633145b610c23576040517f08c379a0000000000000000000000000000000000000000000000000000000008152600401610a7d90613551565b601455565b6010546013546040517f3ddac953000000000000000000000000000000000000000000000000000000008152600092839273ffffffffffffffffffffffffffffffffffffffff91821692633ddac95392610c8b921690620f4240906004016131d3565b60206040518083038186803b158015610ca357600080fd5b505afa158015610cb7573d6000803e3d6000fd5b505050506040513d601f19601f82011682018060405250810190610cdb9190613179565b91505090565b60095473ffffffffffffffffffffffffffffffffffffffff16331480610d1e575060075473ffffffffffffffffffffffffffffffffffffffff1633145b80610d405750600a5473ffffffffffffffffffffffffffffffffffffffff1633145b610d76576040517f08c379a0000000000000000000000000000000000000000000000000000000008152600401610a7d90613551565b601a55565b601a5481565b6000610d8e848484612795565b610e1884610d9a612682565b610e138560405180606001604052806028815260200161391b6028913973ffffffffffffffffffffffffffffffffffffffff8a16600090815260016020526040812090610de5612682565b73ffffffffffffffffffffffffffffffffffffffff168152602081019190915260400160002054919061291f565b612686565b5060019392505050565b60135473ffffffffffffffffffffffffffffffffffffffff1681565b60009081526003602052604090206002015490565b60175481565b60165481565b60185481565b600082815260036020526040902060020154610e839061072b612682565b610eb9576040517f08c379a0000000000000000000000000000000000000000000000000000000008152600401610a7d90613395565b610ec38282612965565b5050565b601281565b6000610960600d60149054906101000a900460ff1660ff16600a0a610f94620f4240600e60009054906101000a900473ffffffffffffffffffffffffffffffffffffffff1673ffffffffffffffffffffffffffffffffffffffff16638e15f4736040518163ffffffff1660e01b815260040160206040518083038186803b158015610f5657600080fd5b505afa158015610f6a573d6000803e3d6000fd5b505050506040513d601f19601f82011682018060405250810190610f8e9190613179565b906129e8565b90612a3c565b60085473ffffffffffffffffffffffffffffffffffffffff1681565b610fbe612682565b73ffffffffffffffffffffffffffffffffffffffff168173ffffffffffffffffffffffffffffffffffffffff1614611022576040517f08c379a0000000000000000000000000000000000000000000000000000000008152600401610a7d906137eb565b610ec38282612a7e565b60006109c2611039612682565b84610e13856001600061104a612682565b73ffffffffffffffffffffffffffffffffffffffff908116825260208083019390935260409182016000908120918c16815292529020549061242d565b60095473ffffffffffffffffffffffffffffffffffffffff163314806110c4575060075473ffffffffffffffffffffffffffffffffffffffff1633145b806110e65750600a5473ffffffffffffffffffffffffffffffffffffffff1633145b61111c576040517f08c379a0000000000000000000000000000000000000000000000000000000008152600401610a7d90613551565b73ffffffffffffffffffffffffffffffffffffffff81166000908152600b602052604090205460ff161515600114611180576040517f08c379a0000000000000000000000000000000000000000000000000000000008152600401610a7d90613486565b73ffffffffffffffffffffffffffffffffffffffff81166000908152600b6020526040812080547fffffffffffffffffffffffffffffffffffffffffffffffffffffffffffffff001690555b600c54811015610ec3578173ffffffffffffffffffffffffffffffffffffffff16600c82815481106111fa57fe5b60009182526020909120015473ffffffffffffffffffffffffffffffffffffffff16141561127e576000600c828154811061123157fe5b9060005260206000200160006101000a81548173ffffffffffffffffffffffffffffffffffffffff021916908373ffffffffffffffffffffffffffffffffffffffff160217905550610ec3565b6001016111cc565b60195460ff16156112c3576040517f08c379a0000000000000000000000000000000000000000000000000000000008152600401610a7d9061377f565b60006112cd61195b565b9050601554601a544203101561130f576040517f08c379a0000000000000000000000000000000000000000000000000000000008152600401610a7d90613722565b60175460165461131e9161242d565b811115611352576014546018541161133a57600060185561134d565b60145460185461134991612b01565b6018555b6113a7565b60175460165461136191612b01565b8110156113a757620f424061138360145460185461242d90919063ffffffff16565b1061139457620f42406018556113a7565b6014546018546113a39161242d565b6018555b5042601a55565b60095473ffffffffffffffffffffffffffffffffffffffff163314806113eb575060075473ffffffffffffffffffffffffffffffffffffffff1633145b8061140d5750600a5473ffffffffffffffffffffffffffffffffffffffff1633145b611443576040517f08c379a0000000000000000000000000000000000000000000000000000000008152600401610a7d90613551565b601655565b6000806114548461156b565b90506114608484612b43565b600061146b8561156b565b91909111949350505050565b611488611482612682565b82612c38565b50565b60065473ffffffffffffffffffffffffffffffffffffffff1681565b69d3c21bcecceda100000081565b60095473ffffffffffffffffffffffffffffffffffffffff163314806114f2575060075473ffffffffffffffffffffffffffffffffffffffff1633145b806115145750600a5473ffffffffffffffffffffffffffffffffffffffff1633145b61154a576040517f08c379a0000000000000000000000000000000000000000000000000000000008152600401610a7d90613551565b601755565b600a5473ffffffffffffffffffffffffffffffffffffffff1681565b73ffffffffffffffffffffffffffffffffffffffff1660009081526020819052604090205490565b60105473ffffffffffffffffffffffffffffffffffffffff1681565b60095473ffffffffffffffffffffffffffffffffffffffff163314806115ec575060075473ffffffffffffffffffffffffffffffffffffffff1633145b8061160e5750600a5473ffffffffffffffffffffffffffffffffffffffff1633145b611644576040517f08c379a0000000000000000000000000000000000000000000000000000000008152600401610a7d90613551565b600d805473ffffffffffffffffffffffffffffffffffffffff8084167fffffffffffffffffffffffff00000000000000000000000000000000000000009283161792839055600e80549092169281169290921790819055604080517ff0141d840000000000000000000000000000000000000000000000000000000081529051919092169163f0141d84916004808301926020929190829003018186803b1580156116ee57600080fd5b505afa158015611702573d6000803e3d6000fd5b505050506040513d601f19601f820116820180604052508101906117269190613191565b600d60146101000a81548160ff021916908360ff16021790555050565b6000611775826040518060600160405280602481526020016139436024913961176e86610880612682565b919061291f565b905061178983611783612682565b83612686565b6117938383612c38565b505050565b60095473ffffffffffffffffffffffffffffffffffffffff1681565b60145481565b60195460ff1681565b60008281526003602052604081206117db9083612d5c565b9392505050565b60008281526003602052604081206117db9083612d68565b60095473ffffffffffffffffffffffffffffffffffffffff16331480611837575060075473ffffffffffffffffffffffffffffffffffffffff1633145b806118595750600a5473ffffffffffffffffffffffffffffffffffffffff1633145b61188f576040517f08c379a0000000000000000000000000000000000000000000000000000000008152600401610a7d90613551565b600a80547fffffffffffffffffffffffff00000000000000000000000000000000000000001673ffffffffffffffffffffffffffffffffffffffff92909216919091179055565b620f424081565b6005805460408051602060026001851615610100027fffffffffffffffffffffffffffffffffffffffffffffffffffffffffffffffff0190941693909304601f8101849004840282018401909252818152929183018282801561094c5780601f106109215761010080835404028352916020019161094c565b600081565b6000610960600061246c565b60006109c2611974612682565b84610e1385604051806060016040528060258152602001613967602591396001600061199e612682565b73ffffffffffffffffffffffffffffffffffffffff908116825260208083019390935260409182016000908120918d1681529252902054919061291f565b336000908152600b602052604090205460ff161515600114611a2a576040517f08c379a0000000000000000000000000000000000000000000000000000000008152600401610a7d90613338565b611a348282612d8a565b3373ffffffffffffffffffffffffffffffffffffffff168273ffffffffffffffffffffffffffffffffffffffff167f61834334e384a339eb09ce6c8db2124884b894b3309391cf794853462a2b3f8383604051611a919190613204565b60405180910390a35050565b60006109c2611aaa612682565b8484612795565b600d5473ffffffffffffffffffffffffffffffffffffffff1681565b336000908152600b602052604090205460ff161515600114611b1b576040517f08c379a0000000000000000000000000000000000000000000000000000000008152600401610a7d90613338565b611b258282612b43565b8173ffffffffffffffffffffffffffffffffffffffff163373ffffffffffffffffffffffffffffffffffffffff167f1abe87e1a7e6a1ae14ed87d5512f1b8977e6b26b9bb2b8b650420a114372234183604051611a919190613204565b60095473ffffffffffffffffffffffffffffffffffffffff16331480611bbf575060075473ffffffffffffffffffffffffffffffffffffffff1633145b80611be15750600a5473ffffffffffffffffffffffffffffffffffffffff1633145b611c17576040517f08c379a0000000000000000000000000000000000000000000000000000000008152600401610a7d90613551565b600f805473ffffffffffffffffffffffffffffffffffffffff9384167fffffffffffffffffffffffff0000000000000000000000000000000000000000918216811790925560108054821690921790915560138054929093169116179055565b60095473ffffffffffffffffffffffffffffffffffffffff16331480611cb4575060075473ffffffffffffffffffffffffffffffffffffffff1633145b80611cd65750600a5473ffffffffffffffffffffffffffffffffffffffff1633145b611d0c576040517f08c379a0000000000000000000000000000000000000000000000000000000008152600401610a7d90613551565b600780547fffffffffffffffffffffffff00000000000000000000000000000000000000001673ffffffffffffffffffffffffffffffffffffffff92909216919091179055565b60095473ffffffffffffffffffffffffffffffffffffffff16331480611d90575060075473ffffffffffffffffffffffffffffffffffffffff1633145b80611db25750600a5473ffffffffffffffffffffffffffffffffffffffff1633145b611de8576040517f08c379a0000000000000000000000000000000000000000000000000000000008152600401610a7d90613551565b601980547fffffffffffffffffffffffffffffffffffffffffffffffffffffffffffffff00811660ff90911615179055565b60155481565b60095473ffffffffffffffffffffffffffffffffffffffff16331480611e5d575060075473ffffffffffffffffffffffffffffffffffffffff1633145b80611e7f5750600a5473ffffffffffffffffffffffffffffffffffffffff1633145b611eb5576040517f08c379a0000000000000000000000000000000000000000000000000000000008152600401610a7d90613551565b6011805473ffffffffffffffffffffffffffffffffffffffff9384167fffffffffffffffffffffffff0000000000000000000000000000000000000000918216811790925560128054821690921790915560138054929093169116179055565b60008181526003602052604081206109c690612deb565b6012546013546040517f3ddac953000000000000000000000000000000000000000000000000000000008152600092839273ffffffffffffffffffffffffffffffffffffffff91821692633ddac95392610c8b921690620f4240906004016131d3565b6000806000806000611fa1600061246c565b611fab600161246c565b611fb3610aee565b601854611fbe610ecc565b945094509450945094509091929394565b600080805b600c548110156120f357600073ffffffffffffffffffffffffffffffffffffffff16600c828154811061200357fe5b60009182526020909120015473ffffffffffffffffffffffffffffffffffffffff16146120eb576120e8600c828154811061203a57fe5b60009182526020918290200154604080517f17284c94000000000000000000000000000000000000000000000000000000008152905173ffffffffffffffffffffffffffffffffffffffff909216926317284c9492600480840193829003018186803b1580156120a957600080fd5b505afa1580156120bd573d6000803e3d6000fd5b505050506040513d601f19601f820116820180604052508101906120e19190613179565b839061242d565b91505b600101611fd4565b50905090565b6000828152600360205260409020600201546121179061072b612682565b611022576040517f08c379a0000000000000000000000000000000000000000000000000000000008152600401610a7d906134f4565b60095473ffffffffffffffffffffffffffffffffffffffff1633148061218a575060075473ffffffffffffffffffffffffffffffffffffffff1633145b806121ac5750600a5473ffffffffffffffffffffffffffffffffffffffff1633145b6121e2576040517f08c379a0000000000000000000000000000000000000000000000000000000008152600401610a7d90613551565b73ffffffffffffffffffffffffffffffffffffffff81166000908152600b602052604090205460ff1615612242576040517f08c379a0000000000000000000000000000000000000000000000000000000008152600401610a7d906137b4565b73ffffffffffffffffffffffffffffffffffffffff166000818152600b6020526040812080547fffffffffffffffffffffffffffffffffffffffffffffffffffffffffffffff00166001908117909155600c805491820181559091527fdf6966c971051c3d54ec59162606531493a51404a002842f56009d7e5cf4a8c70180547fffffffffffffffffffffffff0000000000000000000000000000000000000000169091179055565b60075473ffffffffffffffffffffffffffffffffffffffff1681565b60125473ffffffffffffffffffffffffffffffffffffffff1681565b73ffffffffffffffffffffffffffffffffffffffff918216600090815260016020908152604080832093909416825291909152205490565b60095473ffffffffffffffffffffffffffffffffffffffff16331480612398575060075473ffffffffffffffffffffffffffffffffffffffff1633145b806123ba5750600a5473ffffffffffffffffffffffffffffffffffffffff1633145b6123f0576040517f08c379a0000000000000000000000000000000000000000000000000000000008152600401610a7d90613551565b601855565b600e5473ffffffffffffffffffffffffffffffffffffffff1681565b600f5473ffffffffffffffffffffffffffffffffffffffff1681565b6000828201838110156117db576040517f08c379a0000000000000000000000000000000000000000000000000000000008152600401610a7d9061344f565b6000806124f7600d60149054906101000a900460ff1660ff16600a0a610f94620f4240600e60009054906101000a900473ffffffffffffffffffffffffffffffffffffffff1673ffffffffffffffffffffffffffffffffffffffff16638e15f4736040518163ffffffff1660e01b815260040160206040518083038186803b158015610f5657600080fd5b905060008084600181111561250857fe5b14156125c4576012546013546040517f3ddac95300000000000000000000000000000000000000000000000000000000815273ffffffffffffffffffffffffffffffffffffffff92831692633ddac9539261256d92911690620f4240906004016131d3565b60206040518083038186803b15801561258557600080fd5b505afa158015612599573d6000803e3d6000fd5b505050506040513d601f19601f820116820180604052508101906125bd9190613179565b9050612669565b60018460018111156125d257fe5b1415612637576010546013546040517f3ddac95300000000000000000000000000000000000000000000000000000000815273ffffffffffffffffffffffffffffffffffffffff92831692633ddac9539261256d92911690620f4240906004016131d3565b6040517f08c379a0000000000000000000000000000000000000000000000000000000008152600401610a7d906134bd565b61267a81610f9484620f42406129e8565b949350505050565b3390565b73ffffffffffffffffffffffffffffffffffffffff83166126d3576040517f08c379a0000000000000000000000000000000000000000000000000000000008152600401610a7d906136c5565b73ffffffffffffffffffffffffffffffffffffffff8216612720576040517f08c379a0000000000000000000000000000000000000000000000000000000008152600401610a7d906133f2565b73ffffffffffffffffffffffffffffffffffffffff80841660008181526001602090815260408083209487168084529490915290819020849055517f8c5be1e5ebec7d5bd14f71427d1e84f3dd0314c0f7b2291e5b200ac8c7c3b92590612788908590613204565b60405180910390a3505050565b73ffffffffffffffffffffffffffffffffffffffff83166127e2576040517f08c379a0000000000000000000000000000000000000000000000000000000008152600401610a7d90613668565b73ffffffffffffffffffffffffffffffffffffffff821661282f576040517f08c379a0000000000000000000000000000000000000000000000000000000008152600401610a7d906132db565b61283a838383611793565b612884816040518060600160405280602681526020016138f56026913973ffffffffffffffffffffffffffffffffffffffff8616600090815260208190526040902054919061291f565b73ffffffffffffffffffffffffffffffffffffffff80851660009081526020819052604080822093909355908416815220546128c0908261242d565b73ffffffffffffffffffffffffffffffffffffffff80841660008181526020819052604090819020939093559151908516907fddf252ad1be2c89b69c2b068fc378daa952ba7f163c4a11628f55a4df523b3ef90612788908590613204565b6000818484111561295d576040517f08c379a0000000000000000000000000000000000000000000000000000000008152600401610a7d919061320d565b505050900390565b600082815260036020526040902061297d9082612df6565b15610ec35761298a612682565b73ffffffffffffffffffffffffffffffffffffffff168173ffffffffffffffffffffffffffffffffffffffff16837f2f8788117e7eff1d82e926ec794901d17c78024a50270940304540a733656f0d60405160405180910390a45050565b6000826129f7575060006109c6565b82820282848281612a0457fe5b04146117db576040517f08c379a0000000000000000000000000000000000000000000000000000000008152600401610a7d906135ae565b60006117db83836040518060400160405280601a81526020017f536166654d6174683a206469766973696f6e206279207a65726f000000000000815250612e18565b6000828152600360205260409020612a969082612e69565b15610ec357612aa3612682565b73ffffffffffffffffffffffffffffffffffffffff168173ffffffffffffffffffffffffffffffffffffffff16837ff6391f5c32d9c69d2a47ea670b442974b53935d1edc7fd64eb21e047a839171b60405160405180910390a45050565b60006117db83836040518060400160405280601e81526020017f536166654d6174683a207375627472616374696f6e206f766572666c6f77000081525061291f565b73ffffffffffffffffffffffffffffffffffffffff8216612b90576040517f08c379a0000000000000000000000000000000000000000000000000000000008152600401610a7d90613848565b612b9c60008383611793565b600254612ba9908261242d565b60025573ffffffffffffffffffffffffffffffffffffffff8216600090815260208190526040902054612bdc908261242d565b73ffffffffffffffffffffffffffffffffffffffff83166000818152602081905260408082209390935591519091907fddf252ad1be2c89b69c2b068fc378daa952ba7f163c4a11628f55a4df523b3ef90611a91908590613204565b73ffffffffffffffffffffffffffffffffffffffff8216612c85576040517f08c379a0000000000000000000000000000000000000000000000000000000008152600401610a7d9061360b565b612c9182600083611793565b612cdb816040518060600160405280602281526020016138d36022913973ffffffffffffffffffffffffffffffffffffffff8516600090815260208190526040902054919061291f565b73ffffffffffffffffffffffffffffffffffffffff8316600090815260208190526040902055600254612d0e9082612b01565b60025560405160009073ffffffffffffffffffffffffffffffffffffffff8416907fddf252ad1be2c89b69c2b068fc378daa952ba7f163c4a11628f55a4df523b3ef90611a91908590613204565b60006117db8383612e8b565b60006117db8373ffffffffffffffffffffffffffffffffffffffff8416612eea565b612d948282612c38565b610ec382612da0612682565b610e13846040518060600160405280602481526020016139436024913973ffffffffffffffffffffffffffffffffffffffff8816600090815260016020526040812090610de5612682565b60006109c682612f02565b60006117db8373ffffffffffffffffffffffffffffffffffffffff8416612f06565b60008183612e53576040517f08c379a0000000000000000000000000000000000000000000000000000000008152600401610a7d919061320d565b506000838581612e5f57fe5b0495945050505050565b60006117db8373ffffffffffffffffffffffffffffffffffffffff8416612f50565b81546000908210612ec8576040517f08c379a0000000000000000000000000000000000000000000000000000000008152600401610a7d9061327e565b826000018281548110612ed757fe5b9060005260206000200154905092915050565b60009081526001919091016020526040902054151590565b5490565b6000612f128383612eea565b612f48575081546001818101845560008481526020808220909301849055845484825282860190935260409020919091556109c6565b5060006109c6565b6000818152600183016020526040812054801561302a5783547fffffffffffffffffffffffffffffffffffffffffffffffffffffffffffffffff8083019190810190600090879083908110612fa157fe5b9060005260206000200154905080876000018481548110612fbe57fe5b600091825260208083209091019290925582815260018981019092526040902090840190558654879080612fee57fe5b600190038181906000526020600020016000905590558660010160008781526020019081526020016000206000905560019450505050506109c6565b60009150506109c6565b803573ffffffffffffffffffffffffffffffffffffffff811681146109c657600080fd5b600060208284031215613069578081fd5b6117db8383613034565b60008060408385031215613085578081fd5b61308f8484613034565b915061309e8460208501613034565b90509250929050565b6000806000606084860312156130bb578081fd5b83356130c6816138b0565b925060208401356130d6816138b0565b929592945050506040919091013590565b600080604083850312156130f9578182fd5b6131038484613034565b946020939093013593505050565b600060208284031215613122578081fd5b5035919050565b6000806040838503121561313b578182fd5b82359150602083013561314d816138b0565b809150509250929050565b6000806040838503121561316a578182fd5b50508035926020909101359150565b60006020828403121561318a578081fd5b5051919050565b6000602082840312156131a2578081fd5b815160ff811681146117db578182fd5b73ffffffffffffffffffffffffffffffffffffffff91909116815260200190565b73ffffffffffffffffffffffffffffffffffffffff929092168252602082015260400190565b901515815260200190565b90815260200190565b6000602080835283518082850152825b818110156132395785810183015185820160400152820161321d565b8181111561324a5783604083870101525b50601f017fffffffffffffffffffffffffffffffffffffffffffffffffffffffffffffffe016929092016040019392505050565b60208082526022908201527f456e756d657261626c655365743a20696e646578206f7574206f6620626f756e60408201527f6473000000000000000000000000000000000000000000000000000000000000606082015260800190565b60208082526023908201527f45524332303a207472616e7366657220746f20746865207a65726f206164647260408201527f6573730000000000000000000000000000000000000000000000000000000000606082015260800190565b60208082526027908201527f4f6e6c7920636572657320706f6f6c732063616e2063616c6c2074686973206660408201527f756e6374696f6e00000000000000000000000000000000000000000000000000606082015260800190565b6020808252602f908201527f416363657373436f6e74726f6c3a2073656e646572206d75737420626520616e60408201527f2061646d696e20746f206772616e740000000000000000000000000000000000606082015260800190565b60208082526022908201527f45524332303a20617070726f766520746f20746865207a65726f20616464726560408201527f7373000000000000000000000000000000000000000000000000000000000000606082015260800190565b6020808252601b908201527f536166654d6174683a206164646974696f6e206f766572666c6f770000000000604082015260600190565b6020808252601d908201527f6164647265737320646f65736e277420657869737420616c7265616479000000604082015260600190565b60208082526016908201527f494e56414c49442050524943452043484f4943452e2000000000000000000000604082015260600190565b60208082526030908201527f416363657373436f6e74726f6c3a2073656e646572206d75737420626520616e60408201527f2061646d696e20746f207265766f6b6500000000000000000000000000000000606082015260800190565b6020808252603d908201527f596f7520617265206e6f7420746865206f776e65722c20636f6e74726f6c6c6560408201527f722c206f722074686520676f7665726e616e63652074696d656c6f636b000000606082015260800190565b60208082526021908201527f536166654d6174683a206d756c7469706c69636174696f6e206f766572666c6f60408201527f7700000000000000000000000000000000000000000000000000000000000000606082015260800190565b60208082526021908201527f45524332303a206275726e2066726f6d20746865207a65726f2061646472657360408201527f7300000000000000000000000000000000000000000000000000000000000000606082015260800190565b60208082526025908201527f45524332303a207472616e736665722066726f6d20746865207a65726f20616460408201527f6472657373000000000000000000000000000000000000000000000000000000606082015260800190565b60208082526024908201527f45524332303a20617070726f76652066726f6d20746865207a65726f2061646460408201527f7265737300000000000000000000000000000000000000000000000000000000606082015260800190565b60208082526035908201527f4d757374207761697420666f7220746865207265667265736820636f6f6c646f60408201527f776e2073696e6365206c61737420726566726573680000000000000000000000606082015260800190565b6020808252818101527f436f6c6c61746572616c20526174696f20686173206265656e20706175736564604082015260600190565b60208082526016908201527f6164647265737320616c72656164792065786973747300000000000000000000604082015260600190565b6020808252602f908201527f416363657373436f6e74726f6c3a2063616e206f6e6c792072656e6f756e636560408201527f20726f6c657320666f722073656c660000000000000000000000000000000000606082015260800190565b6020808252601f908201527f45524332303a206d696e7420746f20746865207a65726f206164647265737300604082015260600190565b948552602085019390935260408401919091526060830152608082015260a00190565b60ff91909116815260200190565b73ffffffffffffffffffffffffffffffffffffffff8116811461148857600080fdfe45524332303a206275726e20616d6f756e7420657863656564732062616c616e636545524332303a207472616e7366657220616d6f756e7420657863656564732062616c616e636545524332303a207472616e7366657220616d6f756e74206578636565647320616c6c6f77616e636545524332303a206275726e20616d6f756e74206578636565647320616c6c6f77616e636545524332303a2064656372656173656420616c6c6f77616e63652062656c6f77207a65726fa26469706673582212207778c957fe51426bbdd2f23e44ed90ac6d9d580cb088d70ab26d134b241bc74e64736f6c634300060c0033",
  "immutableReferences": {},
  "source": "// SPDX-License-Identifier: MIT\npragma solidity 0.6.12;\npragma experimental ABIEncoderV2;\n\n\nimport \"../Common/Context.sol\";\nimport \"../ERC20/IERC20.sol\";\nimport \"../ERC20/ERC20Custom.sol\";\nimport \"../ERC20/ERC20.sol\";\nimport \"../Math/SafeMath.sol\";\nimport \"../Governance/AccessControl.sol\";\nimport \"../Oracle/ChainlinkETHUSDPriceConsumer.sol\";\nimport \"../Oracle/UniswapPairOracle.sol\";\nimport \"./Pools/CeresPool.sol\";\n\n\n\ncontract CEREStable is ERC20Custom, AccessControl {\n    using SafeMath for uint256;\n    enum PriceChoice { CERES, CSS }\n\n    //TEST CASE DONE\n    string public name; \n    //TEST CASE DONE\n    string public symbol; \n    //TEST CASE DONE\n    uint8 public constant decimals = 18; \n    \n    //TEST CASE DONE\n    address public creator_address; \n    //TEST CASE DONE\n    address public timelock_address; \n    //TEST CASE DONE\n    address public DEFAULT_ADMIN_ADDRESS; \n    //TEST CASE DONE\n    address public owner_address; \n    //TEST CASE DONE\n    address public controller_address;\n    //TEST CASE DONE\n    uint256 public constant genesis_supply = 1000000e18; \n\n    mapping(address => bool) public ceres_pools; //test case done\n    address[] public ceres_pools_array; //test case done\n\n    // TEST CASE DONE\n    address public eth_usd_consumer_address; //test case done\n    uint8 public eth_usd_pricer_decimals;  //test case done\n    ChainlinkETHUSDPriceConsumer public eth_usd_pricer; //test case done\n\n    \n    address public css_eth_oracle_address; //TEST CASE DONE\n    UniswapPairOracle public CSSEthOracle;  //TEST CASE DONE\n\n    // CONSTANTS\n    uint256 public constant PRICE_PRECISION = 1e6; //TEST CASE DONE\n\n    address public ceres_eth_oracle_address; //TEST CASE DONE\n    UniswapPairOracle public CeresEthOracle; //TEST CASE DONE\n    address public weth_address; //TEST CASE DONE\n\n    // CERES PARAMETERS\n    uint256 public ceres_step;  //TEST CASE DONE\n    uint256 public refresh_cooldown;  //TEST CASE DONE\n    uint256 public price_target;  //TEST CASE DONE\n    uint256 public price_band;  //TEST CASE DONE\n    uint256 public global_collateral_ratio; //TEST CASE DONE\n    bool public collateral_ratio_paused = false; //TEST CASE DONE\n    uint256 public last_call_time; //TEST CASE DONE\n\n    constructor(\n        string memory _name,\n        string memory _symbol,\n        address _creator_address,\n        address _timelock_address\n    ) public {\n        name = _name;\n        symbol = _symbol;\n        creator_address = _creator_address;\n        timelock_address = _timelock_address;\n        DEFAULT_ADMIN_ADDRESS = _msgSender();\n        owner_address = _creator_address;\n        _mint(creator_address, genesis_supply);\n\n        ceres_step = 2500; \n        refresh_cooldown = 60; \n        price_target = 1000000; \n        price_band = 5000; \n        global_collateral_ratio = 1000000; \n    }\n\n    /* ========== MODIFIERS ========== */\n    // TEST CASE DONE\n    modifier onlyPools() {\n       require(ceres_pools[msg.sender] == true, \"Only ceres pools can call this function\");\n        _;\n    }\n    // TEST CASE DONE\n    modifier onlyByOwnerOrGovernance() {\n        require(msg.sender == owner_address || msg.sender == timelock_address || msg.sender == controller_address, \"You are not the owner, controller, or the governance timelock\");\n        _;\n    }\n    /* ========== PUBLIC FUNCTIONS PART I (FUNC)========== */\n    // TEST CASE DONE\n    function getCeresEthOracle_consult() public view returns (uint256) {\n        uint256 consult = CeresEthOracle.consult(weth_address, PRICE_PRECISION);\n        return consult;\n    }\n    // TEST CASE DONE\n    function getCSSEthOracle_consult() public view returns (uint256) {\n        uint256 consult = CSSEthOracle.consult(weth_address, PRICE_PRECISION);\n        return consult;\n    }\n\n    /* ========== RESTRICTED FUNCTIONS PART I (FUNC)========== */\n    // TEST CASE DONE\n    function pool_mint(address m_address, uint256 m_amount) public onlyPools {\n        super._mint(m_address, m_amount);\n        emit CERESMinted(msg.sender, m_address, m_amount);\n    }\n\n    // [FUNC][addPool]\n    // TEST CASE DONE\n    function addPool(address pool_address) public onlyByOwnerOrGovernance {\n        require(ceres_pools[pool_address] == false, \"address already exists\");\n        ceres_pools[pool_address] = true; \n        ceres_pools_array.push(pool_address);\n    }\n\n    // Remove a pool \n    // TEST CASE DONE\n    function removePool(address pool_address) public onlyByOwnerOrGovernance {\n        require(ceres_pools[pool_address] == true, \"address doesn't exist already\");\n        \n        // Delete from the mapping\n        delete ceres_pools[pool_address];\n\n        // 'Delete' from the array by setting the address to 0x0\n        for (uint i = 0; i < ceres_pools_array.length; i++){ \n            if (ceres_pools_array[i] == pool_address) {\n                ceres_pools_array[i] = address(0); // This will leave a null in the array and keep the indices the same\n                break;\n            }\n        }\n    }\n\n    // TEST CASE DONE\n    function setCeresStep(uint256 _new_step) public onlyByOwnerOrGovernance {\n        ceres_step = _new_step;\n    }  \n\n    // TEST CASE DONE\n    function setRefreshCooldown(uint256 _new_cooldown) public onlyByOwnerOrGovernance {\n    \trefresh_cooldown = _new_cooldown;\n    }\n\n    // TEST CASE DONE\n    function setPriceTarget (uint256 _new_price_target) public onlyByOwnerOrGovernance {\n        price_target = _new_price_target;\n    }\n\n    // TEST CASE DONE\n    function setPriceBand(uint256 _price_band) external onlyByOwnerOrGovernance {\n        price_band = _price_band;\n    }\n\n    // TEST CASE DONE\n    function set_global_collateral_ratio(uint256 _global_collateral_ratio) external onlyByOwnerOrGovernance {\n        global_collateral_ratio = _global_collateral_ratio;\n    }\n\n    // TEST CASE DONE\n    function set_last_call_time(uint256 _last_call_time) external onlyByOwnerOrGovernance {\n        last_call_time = _last_call_time;\n    }\n\n    // TEST CASE DONE\n    function refreshCollateralRatio() public {\n        require(collateral_ratio_paused == false, \"Collateral Ratio has been paused\");\n        uint256 ceres_price_cur = ceres_price();\n        require(block.timestamp - last_call_time >= refresh_cooldown, \"Must wait for the refresh cooldown since last refresh\");\n\n    \n        \n        if (ceres_price_cur > price_target.add(price_band)) { //decrease collateral ratio\n            if(global_collateral_ratio <= ceres_step){ //if within a step of 0, go to 0\n                global_collateral_ratio = 0;\n            } else {\n                global_collateral_ratio = global_collateral_ratio.sub(ceres_step);\n            }\n        } else if (ceres_price_cur < price_target.sub(price_band)) { //increase collateral ratio\n            if(global_collateral_ratio.add(ceres_step) >= 1000000){\n                global_collateral_ratio = 1000000; // cap collateral ratio at 1.000000\n            } else {\n                global_collateral_ratio = global_collateral_ratio.add(ceres_step);\n            }\n        }\n\n        last_call_time = block.timestamp; // Set the time of the last expansion\n    }\n    //TEST CASE DONE\n    function toggleCollateralRatio() public onlyByOwnerOrGovernance {\n        collateral_ratio_paused = !collateral_ratio_paused;\n    }\n    //TEST CASE DONE\n    function pool_burn_from(address b_address, uint256 b_amount) public onlyPools {\n        super._burnFrom(b_address, b_amount);\n        emit CERESBurned(b_address, msg.sender, b_amount);\n    }\n\n    //TEST CASE DONE\n    function globalCollateralValue() public view returns (uint256) {\n        uint256 total_collateral_value_d18 = 0; \n\n        for (uint i = 0; i < ceres_pools_array.length; i++){ \n            if (ceres_pools_array[i] != address(0)){\n                total_collateral_value_d18 = total_collateral_value_d18.add(CeresPool(ceres_pools_array[i]).collatDollarBalance());\n            }\n\n        }\n        return total_collateral_value_d18;\n    }\n\n\n\n    /* ========== RESTRICTED FUNCTIONS PART II (ROLE)========== */\n    // TEST CASE DONE\n    function setOwner(address _owner_address) external onlyByOwnerOrGovernance {\n        owner_address = _owner_address;\n    }\n    // TEST CASE DONE\n    function setTimelock(address new_timelock) external onlyByOwnerOrGovernance {\n        timelock_address = new_timelock;\n    }\n    // TEST CASE DONE\n    function setController(address _controller_address) external onlyByOwnerOrGovernance {\n        controller_address = _controller_address;\n    }\n    // TEST CASE DONE\n    function setETHUSDOracle(address _eth_usd_consumer_address) public onlyByOwnerOrGovernance {\n        eth_usd_consumer_address = _eth_usd_consumer_address;\n        eth_usd_pricer = ChainlinkETHUSDPriceConsumer(eth_usd_consumer_address);\n        eth_usd_pricer_decimals = eth_usd_pricer.getDecimals();\n    }\n    // TEST CASE DONE\n    function setCeresEthOracle(address _ceres_oracle_addr, address _weth_address) public onlyByOwnerOrGovernance {\n        ceres_eth_oracle_address = _ceres_oracle_addr;\n        CeresEthOracle = UniswapPairOracle(_ceres_oracle_addr); \n        weth_address = _weth_address;\n    }\n\n    // TEST CASE DONE\n    function setCSSEthOracle(address _css_oracle_addr, address _weth_address) public onlyByOwnerOrGovernance {\n        css_eth_oracle_address = _css_oracle_addr;\n        CSSEthOracle = UniswapPairOracle(_css_oracle_addr);\n        weth_address = _weth_address;\n    }\n\n    function oracle_price(PriceChoice choice) internal view returns (uint256) {\n        // Get the ETH / USD price first, and cut it down to 1e6 precision\n        uint256 eth_usd_price = uint256(eth_usd_pricer.getLatestPrice()).mul(PRICE_PRECISION).div(uint256(10) ** eth_usd_pricer_decimals);\n        uint256 price_vs_eth;\n\n        if (choice == PriceChoice.CERES) {\n            price_vs_eth = uint256(CeresEthOracle.consult(weth_address, PRICE_PRECISION)); \n        }\n        else if (choice == PriceChoice.CSS) {\n            price_vs_eth = uint256(CSSEthOracle.consult(weth_address, PRICE_PRECISION)); \n        }\n        else revert(\"INVALID PRICE CHOICE. \");\n\n        // Will be in 1e6 format\n        return eth_usd_price.mul(PRICE_PRECISION).div(price_vs_eth);\n    }\n\n    /* ========== PUBLIC FUNCTIONS PART 2 (FUNC)========== */\n    // TEST CASE DONE\n    function ceres_price() public view returns (uint256) {\n        return oracle_price(PriceChoice.CERES);\n    }\n\n    // TEST CASE DONE\n    function css_price()  public view returns (uint256) {\n        return oracle_price(PriceChoice.CSS);\n    }\n\n    // TEST CASE DONE\n    function eth_usd_price() public view returns (uint256) {\n        return uint256(eth_usd_pricer.getLatestPrice()).mul(PRICE_PRECISION).div(uint256(10) ** eth_usd_pricer_decimals);\n    }\n    // TEST CASE DONE\n    function ceres_info() public view returns (uint256, uint256, uint256, uint256, uint256) {\n        return (\n            oracle_price(PriceChoice.CERES), \n            oracle_price(PriceChoice.CSS), \n            totalSupply(), \n            global_collateral_ratio, \n            eth_usd_price() \n        );\n    }\n    // TODO: ADD RESTRICTED ONLY BY OWNER OR OPERATOR OR CONTROLLER\n    function mint(address recipient_, uint256 amount_)\n        external\n        returns (bool)\n    {\n        uint256 balanceBefore = balanceOf(recipient_);\n        _mint(recipient_, amount_);\n        uint256 balanceAfter = balanceOf(recipient_);\n\n        return balanceAfter > balanceBefore;\n    }\n\n    /* ========== EVENTS ========== */\n\n    // Track Ceres burned\n    event CERESBurned(address indexed from, address indexed to, uint256 amount);\n\n    // Track Ceres minted\n    event CERESMinted(address indexed from, address indexed to, uint256 amount);\n\n}\n",
  "sourcePath": "/Users/cooper/GitHub/Prigogine/Ceres-Protocol/contracts/Ceres/Ceres.sol",
  "compiler": {
    "name": "solc",
    "version": "0.6.12+commit.27d51765.Emscripten.clang"
  },
  "schemaVersion": "3.4.1",
  "updatedAt": "2021-07-29T07:51:31.390Z",
  "devdoc": {
    "kind": "dev",
    "methods": {
      "allowance(address,address)": {
        "details": "See {IERC20-allowance}."
      },
      "approve(address,uint256)": {
        "details": "See {IERC20-approve}. Requirements: - `spender` cannot be the zero address.approve(address spender, uint256 amount)"
      },
      "balanceOf(address)": {
        "details": "See {IERC20-balanceOf}."
      },
      "burn(uint256)": {
        "details": "Destroys `amount` tokens from the caller. See {ERC20-_burn}."
      },
      "burnFrom(address,uint256)": {
        "details": "Destroys `amount` tokens from `account`, deducting from the caller's allowance. See {ERC20-_burn} and {ERC20-allowance}. Requirements: - the caller must have allowance for `accounts`'s tokens of at least `amount`."
      },
      "decreaseAllowance(address,uint256)": {
        "details": "Atomically decreases the allowance granted to `spender` by the caller. This is an alternative to {approve} that can be used as a mitigation for problems described in {IERC20-approve}. Emits an {Approval} event indicating the updated allowance. Requirements: - `spender` cannot be the zero address. - `spender` must have allowance for the caller of at least `subtractedValue`."
      },
      "getRoleAdmin(bytes32)": {
        "details": "Returns the admin role that controls `role`. See {grantRole} and {revokeRole}. To change a role's admin, use {_setRoleAdmin}."
      },
      "getRoleMember(bytes32,uint256)": {
        "details": "Returns one of the accounts that have `role`. `index` must be a value between 0 and {getRoleMemberCount}, non-inclusive. Role bearers are not sorted in any particular way, and their ordering may change at any point. WARNING: When using {getRoleMember} and {getRoleMemberCount}, make sure you perform all queries on the same block. See the following https://forum.openzeppelin.com/t/iterating-over-elements-on-enumerableset-in-openzeppelin-contracts/2296[forum post] for more information."
      },
      "getRoleMemberCount(bytes32)": {
        "details": "Returns the number of accounts that have `role`. Can be used together with {getRoleMember} to enumerate all bearers of a role."
      },
      "grantRole(bytes32,address)": {
        "details": "Grants `role` to `account`. If `account` had not been already granted `role`, emits a {RoleGranted} event. Requirements: - the caller must have ``role``'s admin role."
      },
      "hasRole(bytes32,address)": {
        "details": "Returns `true` if `account` has been granted `role`."
      },
      "increaseAllowance(address,uint256)": {
        "details": "Atomically increases the allowance granted to `spender` by the caller. This is an alternative to {approve} that can be used as a mitigation for problems described in {IERC20-approve}. Emits an {Approval} event indicating the updated allowance. Requirements: - `spender` cannot be the zero address."
      },
      "renounceRole(bytes32,address)": {
        "details": "Revokes `role` from the calling account. Roles are often managed via {grantRole} and {revokeRole}: this function's purpose is to provide a mechanism for accounts to lose their privileges if they are compromised (such as when a trusted device is misplaced). If the calling account had been granted `role`, emits a {RoleRevoked} event. Requirements: - the caller must be `account`."
      },
      "revokeRole(bytes32,address)": {
        "details": "Revokes `role` from `account`. If `account` had been granted `role`, emits a {RoleRevoked} event. Requirements: - the caller must have ``role``'s admin role."
      },
      "totalSupply()": {
        "details": "See {IERC20-totalSupply}."
      },
      "transfer(address,uint256)": {
        "details": "See {IERC20-transfer}. Requirements: - `recipient` cannot be the zero address. - the caller must have a balance of at least `amount`."
      },
      "transferFrom(address,address,uint256)": {
        "details": "See {IERC20-transferFrom}. Emits an {Approval} event indicating the updated allowance. This is not required by the EIP. See the note at the beginning of {ERC20}; Requirements: - `sender` and `recipient` cannot be the zero address. - `sender` must have a balance of at least `amount`. - the caller must have allowance for `sender`'s tokens of at least `amount`."
      }
    },
    "version": 1
  },
  "userdoc": {
    "kind": "user",
    "methods": {},
    "version": 1
  }
}