{
  "contractName": "CeresPool",
  "abi": [
    {
      "inputs": [
        {
          "internalType": "address",
          "name": "_ceres_contract_address",
          "type": "address"
        },
        {
          "internalType": "address",
          "name": "_css_contract_address",
          "type": "address"
        },
        {
          "internalType": "address",
          "name": "_collateral_address",
          "type": "address"
        },
        {
          "internalType": "address",
          "name": "_owner_address",
          "type": "address"
        },
        {
          "internalType": "address",
          "name": "_timelock_address",
          "type": "address"
        },
        {
          "internalType": "uint256",
          "name": "_pool_ceiling",
          "type": "uint256"
        }
      ],
      "stateMutability": "nonpayable",
      "type": "constructor"
    },
    {
      "anonymous": false,
      "inputs": [
        {
          "indexed": true,
          "internalType": "bytes32",
          "name": "role",
          "type": "bytes32"
        },
        {
          "indexed": true,
          "internalType": "bytes32",
          "name": "previousAdminRole",
          "type": "bytes32"
        },
        {
          "indexed": true,
          "internalType": "bytes32",
          "name": "newAdminRole",
          "type": "bytes32"
        }
      ],
      "name": "RoleAdminChanged",
      "type": "event"
    },
    {
      "anonymous": false,
      "inputs": [
        {
          "indexed": true,
          "internalType": "bytes32",
          "name": "role",
          "type": "bytes32"
        },
        {
          "indexed": true,
          "internalType": "address",
          "name": "account",
          "type": "address"
        },
        {
          "indexed": true,
          "internalType": "address",
          "name": "sender",
          "type": "address"
        }
      ],
      "name": "RoleGranted",
      "type": "event"
    },
    {
      "anonymous": false,
      "inputs": [
        {
          "indexed": true,
          "internalType": "bytes32",
          "name": "role",
          "type": "bytes32"
        },
        {
          "indexed": true,
          "internalType": "address",
          "name": "account",
          "type": "address"
        },
        {
          "indexed": true,
          "internalType": "address",
          "name": "sender",
          "type": "address"
        }
      ],
      "name": "RoleRevoked",
      "type": "event"
    },
    {
      "inputs": [],
      "name": "CERES",
      "outputs": [
        {
          "internalType": "contract CEREStable",
          "name": "",
          "type": "address"
        }
      ],
      "stateMutability": "view",
      "type": "function"
    },
    {
      "inputs": [],
      "name": "COLLATERAL_RATIO_MAX",
      "outputs": [
        {
          "internalType": "uint256",
          "name": "",
          "type": "uint256"
        }
      ],
      "stateMutability": "view",
      "type": "function"
    },
    {
      "inputs": [],
      "name": "COLLATERAL_RATIO_PRECISION",
      "outputs": [
        {
          "internalType": "uint256",
          "name": "",
          "type": "uint256"
        }
      ],
      "stateMutability": "view",
      "type": "function"
    },
    {
      "inputs": [],
      "name": "CSS",
      "outputs": [
        {
          "internalType": "contract CEREShares",
          "name": "",
          "type": "address"
        }
      ],
      "stateMutability": "view",
      "type": "function"
    },
    {
      "inputs": [],
      "name": "DEFAULT_ADMIN_ROLE",
      "outputs": [
        {
          "internalType": "bytes32",
          "name": "",
          "type": "bytes32"
        }
      ],
      "stateMutability": "view",
      "type": "function"
    },
    {
      "inputs": [],
      "name": "PRICE_PRECISION",
      "outputs": [
        {
          "internalType": "uint256",
          "name": "",
          "type": "uint256"
        }
      ],
      "stateMutability": "view",
      "type": "function"
    },
    {
      "inputs": [],
      "name": "bonus_rate",
      "outputs": [
        {
          "internalType": "uint256",
          "name": "",
          "type": "uint256"
        }
      ],
      "stateMutability": "view",
      "type": "function"
    },
    {
      "inputs": [],
      "name": "buyBackPaused",
      "outputs": [
        {
          "internalType": "bool",
          "name": "",
          "type": "bool"
        }
      ],
      "stateMutability": "view",
      "type": "function"
    },
    {
      "inputs": [],
      "name": "buyback_fee",
      "outputs": [
        {
          "internalType": "uint256",
          "name": "",
          "type": "uint256"
        }
      ],
      "stateMutability": "view",
      "type": "function"
    },
    {
      "inputs": [],
      "name": "ceres_contract_address",
      "outputs": [
        {
          "internalType": "address",
          "name": "",
          "type": "address"
        }
      ],
      "stateMutability": "view",
      "type": "function"
    },
    {
      "inputs": [],
      "name": "collatEthOracle",
      "outputs": [
        {
          "internalType": "contract UniswapPairOracle",
          "name": "",
          "type": "address"
        }
      ],
      "stateMutability": "view",
      "type": "function"
    },
    {
      "inputs": [],
      "name": "collat_eth_oracle_address",
      "outputs": [
        {
          "internalType": "address",
          "name": "",
          "type": "address"
        }
      ],
      "stateMutability": "view",
      "type": "function"
    },
    {
      "inputs": [],
      "name": "collateralPricePaused",
      "outputs": [
        {
          "internalType": "bool",
          "name": "",
          "type": "bool"
        }
      ],
      "stateMutability": "view",
      "type": "function"
    },
    {
      "inputs": [],
      "name": "collateral_address",
      "outputs": [
        {
          "internalType": "address",
          "name": "",
          "type": "address"
        }
      ],
      "stateMutability": "view",
      "type": "function"
    },
    {
      "inputs": [],
      "name": "collateral_token",
      "outputs": [
        {
          "internalType": "contract ERC20",
          "name": "",
          "type": "address"
        }
      ],
      "stateMutability": "view",
      "type": "function"
    },
    {
      "inputs": [],
      "name": "css_contract_address",
      "outputs": [
        {
          "internalType": "address",
          "name": "",
          "type": "address"
        }
      ],
      "stateMutability": "view",
      "type": "function"
    },
    {
      "inputs": [
        {
          "internalType": "bytes32",
          "name": "role",
          "type": "bytes32"
        }
      ],
      "name": "getRoleAdmin",
      "outputs": [
        {
          "internalType": "bytes32",
          "name": "",
          "type": "bytes32"
        }
      ],
      "stateMutability": "view",
      "type": "function"
    },
    {
      "inputs": [
        {
          "internalType": "bytes32",
          "name": "role",
          "type": "bytes32"
        },
        {
          "internalType": "uint256",
          "name": "index",
          "type": "uint256"
        }
      ],
      "name": "getRoleMember",
      "outputs": [
        {
          "internalType": "address",
          "name": "",
          "type": "address"
        }
      ],
      "stateMutability": "view",
      "type": "function"
    },
    {
      "inputs": [
        {
          "internalType": "bytes32",
          "name": "role",
          "type": "bytes32"
        }
      ],
      "name": "getRoleMemberCount",
      "outputs": [
        {
          "internalType": "uint256",
          "name": "",
          "type": "uint256"
        }
      ],
      "stateMutability": "view",
      "type": "function"
    },
    {
      "inputs": [
        {
          "internalType": "bytes32",
          "name": "role",
          "type": "bytes32"
        },
        {
          "internalType": "address",
          "name": "account",
          "type": "address"
        }
      ],
      "name": "grantRole",
      "outputs": [],
      "stateMutability": "nonpayable",
      "type": "function"
    },
    {
      "inputs": [
        {
          "internalType": "bytes32",
          "name": "role",
          "type": "bytes32"
        },
        {
          "internalType": "address",
          "name": "account",
          "type": "address"
        }
      ],
      "name": "hasRole",
      "outputs": [
        {
          "internalType": "bool",
          "name": "",
          "type": "bool"
        }
      ],
      "stateMutability": "view",
      "type": "function"
    },
    {
      "inputs": [
        {
          "internalType": "address",
          "name": "",
          "type": "address"
        }
      ],
      "name": "lastRedeemed",
      "outputs": [
        {
          "internalType": "uint256",
          "name": "",
          "type": "uint256"
        }
      ],
      "stateMutability": "view",
      "type": "function"
    },
    {
      "inputs": [],
      "name": "mintPaused",
      "outputs": [
        {
          "internalType": "bool",
          "name": "",
          "type": "bool"
        }
      ],
      "stateMutability": "view",
      "type": "function"
    },
    {
      "inputs": [],
      "name": "minting_fee",
      "outputs": [
        {
          "internalType": "uint256",
          "name": "",
          "type": "uint256"
        }
      ],
      "stateMutability": "view",
      "type": "function"
    },
    {
      "inputs": [],
      "name": "missing_decimals",
      "outputs": [
        {
          "internalType": "uint256",
          "name": "",
          "type": "uint256"
        }
      ],
      "stateMutability": "view",
      "type": "function"
    },
    {
      "inputs": [],
      "name": "owner_address",
      "outputs": [
        {
          "internalType": "address",
          "name": "",
          "type": "address"
        }
      ],
      "stateMutability": "view",
      "type": "function"
    },
    {
      "inputs": [],
      "name": "pausedPrice",
      "outputs": [
        {
          "internalType": "uint256",
          "name": "",
          "type": "uint256"
        }
      ],
      "stateMutability": "view",
      "type": "function"
    },
    {
      "inputs": [],
      "name": "pool_ceiling",
      "outputs": [
        {
          "internalType": "uint256",
          "name": "",
          "type": "uint256"
        }
      ],
      "stateMutability": "view",
      "type": "function"
    },
    {
      "inputs": [],
      "name": "recollat_fee",
      "outputs": [
        {
          "internalType": "uint256",
          "name": "",
          "type": "uint256"
        }
      ],
      "stateMutability": "view",
      "type": "function"
    },
    {
      "inputs": [],
      "name": "recollateralizePaused",
      "outputs": [
        {
          "internalType": "bool",
          "name": "",
          "type": "bool"
        }
      ],
      "stateMutability": "view",
      "type": "function"
    },
    {
      "inputs": [
        {
          "internalType": "address",
          "name": "",
          "type": "address"
        }
      ],
      "name": "redeemCSSBalances",
      "outputs": [
        {
          "internalType": "uint256",
          "name": "",
          "type": "uint256"
        }
      ],
      "stateMutability": "view",
      "type": "function"
    },
    {
      "inputs": [
        {
          "internalType": "address",
          "name": "",
          "type": "address"
        }
      ],
      "name": "redeemCollateralBalances",
      "outputs": [
        {
          "internalType": "uint256",
          "name": "",
          "type": "uint256"
        }
      ],
      "stateMutability": "view",
      "type": "function"
    },
    {
      "inputs": [],
      "name": "redeemPaused",
      "outputs": [
        {
          "internalType": "bool",
          "name": "",
          "type": "bool"
        }
      ],
      "stateMutability": "view",
      "type": "function"
    },
    {
      "inputs": [],
      "name": "redemption_delay",
      "outputs": [
        {
          "internalType": "uint256",
          "name": "",
          "type": "uint256"
        }
      ],
      "stateMutability": "view",
      "type": "function"
    },
    {
      "inputs": [],
      "name": "redemption_fee",
      "outputs": [
        {
          "internalType": "uint256",
          "name": "",
          "type": "uint256"
        }
      ],
      "stateMutability": "view",
      "type": "function"
    },
    {
      "inputs": [
        {
          "internalType": "bytes32",
          "name": "role",
          "type": "bytes32"
        },
        {
          "internalType": "address",
          "name": "account",
          "type": "address"
        }
      ],
      "name": "renounceRole",
      "outputs": [],
      "stateMutability": "nonpayable",
      "type": "function"
    },
    {
      "inputs": [
        {
          "internalType": "bytes32",
          "name": "role",
          "type": "bytes32"
        },
        {
          "internalType": "address",
          "name": "account",
          "type": "address"
        }
      ],
      "name": "revokeRole",
      "outputs": [],
      "stateMutability": "nonpayable",
      "type": "function"
    },
    {
      "inputs": [],
      "name": "timelock_address",
      "outputs": [
        {
          "internalType": "address",
          "name": "",
          "type": "address"
        }
      ],
      "stateMutability": "view",
      "type": "function"
    },
    {
      "inputs": [],
      "name": "unclaimedPoolCSS",
      "outputs": [
        {
          "internalType": "uint256",
          "name": "",
          "type": "uint256"
        }
      ],
      "stateMutability": "view",
      "type": "function"
    },
    {
      "inputs": [],
      "name": "unclaimedPoolCollateral",
      "outputs": [
        {
          "internalType": "uint256",
          "name": "",
          "type": "uint256"
        }
      ],
      "stateMutability": "view",
      "type": "function"
    },
    {
      "inputs": [],
      "name": "weth_address",
      "outputs": [
        {
          "internalType": "address",
          "name": "",
          "type": "address"
        }
      ],
      "stateMutability": "view",
      "type": "function"
    },
    {
      "inputs": [
        {
          "internalType": "address",
          "name": "_owner_address",
          "type": "address"
        }
      ],
      "name": "setOwner",
      "outputs": [],
      "stateMutability": "nonpayable",
      "type": "function"
    },
    {
      "inputs": [
        {
          "internalType": "address",
          "name": "new_timelock",
          "type": "address"
        }
      ],
      "name": "setTimelock",
      "outputs": [],
      "stateMutability": "nonpayable",
      "type": "function"
    },
    {
      "inputs": [
        {
          "internalType": "uint256",
          "name": "new_ceiling",
          "type": "uint256"
        }
      ],
      "name": "setPoolParameters",
      "outputs": [],
      "stateMutability": "nonpayable",
      "type": "function"
    },
    {
      "inputs": [
        {
          "internalType": "uint256",
          "name": "_minting_fee",
          "type": "uint256"
        }
      ],
      "name": "setMinting_fee",
      "outputs": [],
      "stateMutability": "nonpayable",
      "type": "function"
    },
    {
      "inputs": [
        {
          "internalType": "uint256",
          "name": "_redemption_fee",
          "type": "uint256"
        }
      ],
      "name": "setRedemption_fee",
      "outputs": [],
      "stateMutability": "nonpayable",
      "type": "function"
    },
    {
      "inputs": [
        {
          "internalType": "uint256",
          "name": "_buyback_fee",
          "type": "uint256"
        }
      ],
      "name": "setBuyback_fee",
      "outputs": [],
      "stateMutability": "nonpayable",
      "type": "function"
    },
    {
      "inputs": [
        {
          "internalType": "uint256",
          "name": "_recollat_fee",
          "type": "uint256"
        }
      ],
      "name": "setRecollat_fee",
      "outputs": [],
      "stateMutability": "nonpayable",
      "type": "function"
    },
    {
      "inputs": [
        {
          "internalType": "uint256",
          "name": "_bonus_rate",
          "type": "uint256"
        }
      ],
      "name": "setBonus_rate",
      "outputs": [],
      "stateMutability": "nonpayable",
      "type": "function"
    },
    {
      "inputs": [],
      "name": "toggleMinting",
      "outputs": [],
      "stateMutability": "nonpayable",
      "type": "function"
    },
    {
      "inputs": [],
      "name": "toggleRedeeming",
      "outputs": [],
      "stateMutability": "nonpayable",
      "type": "function"
    },
    {
      "inputs": [],
      "name": "toggleRecollateralize",
      "outputs": [],
      "stateMutability": "nonpayable",
      "type": "function"
    },
    {
      "inputs": [],
      "name": "toggleCollateralPricePaused",
      "outputs": [],
      "stateMutability": "nonpayable",
      "type": "function"
    },
    {
      "inputs": [],
      "name": "getCollateralPrice",
      "outputs": [
        {
          "internalType": "uint256",
          "name": "",
          "type": "uint256"
        }
      ],
      "stateMutability": "view",
      "type": "function"
    },
    {
      "inputs": [
        {
          "internalType": "address",
          "name": "_collateral_weth_oracle_address",
          "type": "address"
        },
        {
          "internalType": "address",
          "name": "_weth_address",
          "type": "address"
        }
      ],
      "name": "setCollatETHOracle",
      "outputs": [],
      "stateMutability": "nonpayable",
      "type": "function"
    },
    {
      "inputs": [
        {
          "internalType": "uint256",
          "name": "collateral_amount",
          "type": "uint256"
        },
        {
          "internalType": "uint256",
          "name": "CERES_out_min",
          "type": "uint256"
        }
      ],
      "name": "mint1t1CERES",
      "outputs": [],
      "stateMutability": "nonpayable",
      "type": "function"
    },
    {
      "inputs": [
        {
          "internalType": "uint256",
          "name": "collateral_amount",
          "type": "uint256"
        },
        {
          "internalType": "uint256",
          "name": "css_amount",
          "type": "uint256"
        },
        {
          "internalType": "uint256",
          "name": "CERES_out_min",
          "type": "uint256"
        }
      ],
      "name": "mintFractionalCERES",
      "outputs": [],
      "stateMutability": "nonpayable",
      "type": "function"
    },
    {
      "inputs": [
        {
          "internalType": "uint256",
          "name": "css_amount_d18",
          "type": "uint256"
        },
        {
          "internalType": "uint256",
          "name": "CERES_out_min",
          "type": "uint256"
        }
      ],
      "name": "mintAlgorithmicCERES",
      "outputs": [],
      "stateMutability": "nonpayable",
      "type": "function"
    },
    {
      "inputs": [
        {
          "internalType": "uint256",
          "name": "CERES_amount",
          "type": "uint256"
        },
        {
          "internalType": "uint256",
          "name": "COLLATERAL_out_min",
          "type": "uint256"
        }
      ],
      "name": "redeem1t1CERES",
      "outputs": [],
      "stateMutability": "nonpayable",
      "type": "function"
    },
    {
      "inputs": [
        {
          "internalType": "uint256",
          "name": "CERES_amount",
          "type": "uint256"
        },
        {
          "internalType": "uint256",
          "name": "CSS_out_min",
          "type": "uint256"
        },
        {
          "internalType": "uint256",
          "name": "COLLATERAL_out_min",
          "type": "uint256"
        }
      ],
      "name": "redeemFractionalCERES",
      "outputs": [],
      "stateMutability": "nonpayable",
      "type": "function"
    },
    {
      "inputs": [
        {
          "internalType": "uint256",
          "name": "CERES_amount",
          "type": "uint256"
        },
        {
          "internalType": "uint256",
          "name": "CSS_out_min",
          "type": "uint256"
        }
      ],
      "name": "redeemAlgorithmicCERES",
      "outputs": [],
      "stateMutability": "nonpayable",
      "type": "function"
    },
    {
      "inputs": [],
      "name": "collectRedemption",
      "outputs": [],
      "stateMutability": "nonpayable",
      "type": "function"
    },
    {
      "inputs": [],
      "name": "collatDollarBalance",
      "outputs": [
        {
          "internalType": "uint256",
          "name": "",
          "type": "uint256"
        }
      ],
      "stateMutability": "view",
      "type": "function"
    },
    {
      "inputs": [
        {
          "internalType": "uint256",
          "name": "collateral_amount",
          "type": "uint256"
        },
        {
          "internalType": "uint256",
          "name": "CSS_out_min",
          "type": "uint256"
        }
      ],
      "name": "recollateralizeCSS",
      "outputs": [],
      "stateMutability": "nonpayable",
      "type": "function"
    },
    {
      "inputs": [],
      "name": "availableExcessCollatDV",
      "outputs": [
        {
          "internalType": "uint256",
          "name": "",
          "type": "uint256"
        }
      ],
      "stateMutability": "view",
      "type": "function"
    },
    {
      "inputs": [
        {
          "internalType": "uint256",
          "name": "CSS_amount",
          "type": "uint256"
        },
        {
          "internalType": "uint256",
          "name": "COLLATERAL_out_min",
          "type": "uint256"
        }
      ],
      "name": "buyBackCSS",
      "outputs": [],
      "stateMutability": "nonpayable",
      "type": "function"
    }
  ],
  "bytecode": "0x60a060405260006009819055600a8190556010556011805464ffffffffff1916905561012c60145561019060155560646016819055601755611d4c6018553480156200004a57600080fd5b50604051620053f1380380620053f18339810160408190526200006d916200021a565b600880546001600160a01b03199081166001600160a01b03898116918217909355600780548316898516908117909155600180548416898616908117918290556004805486169094178455600580548616909317909255600280548516909217909155600380548416888616179055600680549093168685161790925560098490556040805163313ce56760e01b815290516200018194939093169263313ce56792828101926020929190829003018186803b1580156200012d57600080fd5b505afa15801562000142573d6000803e3d6000fd5b505050506040513d601f19601f82011682018060405250810190620001689190620002a1565b60ff1660126200019160201b62003f881790919060201c565b6080525062000333945050505050565b6000620001db83836040518060400160405280601e81526020017f536166654d6174683a207375627472616374696f6e206f766572666c6f770000815250620001e260201b60201c565b9392505050565b60008184841115620002125760405162461bcd60e51b8152600401620002099190620002c4565b60405180910390fd5b505050900390565b60008060008060008060c0878903121562000233578182fd5b865162000240816200031a565b602088015190965062000253816200031a565b604088015190955062000266816200031a565b606088015190945062000279816200031a565b60808801519093506200028c816200031a565b8092505060a087015190509295509295509295565b600060208284031215620002b3578081fd5b815160ff81168114620001db578182fd5b6000602080835283518082850152825b81811015620002f257858101830151858201604001528201620002d4565b81811115620003045783604083870101525b50601f01601f1916929092016040019392505050565b6001600160a01b03811681146200033057600080fd5b50565b60805161506c620003856000398061104f528061123f528061131452806116a55280611a565280611c1b528061221a528061267752806129a9528061341852806138925280613edf525061506c6000f3fe608060405234801561001057600080fd5b50600436106104065760003560e01c80637f877f851161021a578063ca15c87311610135578063e02f4d2c116100c8578063f46f4de011610097578063f7683bbc1161007c578063f7683bbc14610743578063fdc5c7ab1461074b578063fede5c9c1461075e57610406565b8063f46f4de014610728578063f61adab21461073b57610406565b8063e02f4d2c146106fd578063e0bad1af14610710578063ee13118014610718578063efadaf8a1461072057610406565b8063d855edf411610104578063d855edf4146106da578063daa50485146106ed578063dc6663c7146106f5578063dd89fe0a1461064357610406565b8063ca15c873146106ac578063cb73999f146106bf578063d07ac67e14610643578063d547741f146106c757610406565b80639e14e7ee116101ad578063b442927f1161017c578063b442927f14610681578063bdacb30314610689578063c3355b8d1461069c578063c74ec56a146106a457610406565b80639e14e7ee1461064b578063a217fddf1461065e578063abae2c4c14610666578063b235d4681461067957610406565b80638d2ac7a4116101e95780638d2ac7a4146106155780639010d07c1461061d57806391d148541461063057806395082d251461064357610406565b80637f877f85146105ea57806380edef8e146105f257806388d42cf2146105fa5780638baa4b9f1461060d57610406565b80632621db2f1161032557806365046439116102b85780636f909ead116102875780637b0461e91161026c5780637b0461e9146105d25780637d55094d146105da5780637e4831d3146105e257610406565b80636f909ead146105ac578063785a82df146105bf57610406565b806365046439146105695780636526a12a1461057c5780636c26317f146105845780636d2c56151461059757610406565b806336568abe116102f457806336568abe1461053e5780633ed4e55c1461055157806342d15aec146105595780634c6349341461056157610406565b80632621db2f1461050857806328138f2f146105105780632a01851f146105185780632f2ff15d1461052b57610406565b8063151284251161039d5780631915d5f81161036c5780631915d5f8146104dd5780631eaa0e17146104e5578063246126bd146104ed578063248a9ca3146104f557610406565b806315128425146104a5578063169c9eeb146104ad57806317284c94146104c05780631912b3d7146104c857610406565b8063101197c7116103d9578063101197c71461046f57806312ace5a2146104775780631308bad31461047f57806313af40351461049257610406565b8063029662f61461040b57806308a7493d146104205780630d037cfa146104495780630fe02a3a1461045c575b600080fd5b61041e6104193660046146b1565b610766565b005b61043361042e366004614642565b6107e7565b604051610440919061481a565b60405180910390f35b61041e6104573660046146b1565b6107f9565b61041e61046a3660046146b1565b610871565b6104336108e9565b61041e6108ef565b61041e61048d3660046146b1565b610b40565b61041e6104a0366004614642565b610bb8565b610433610c72565b61041e6104bb366004614710565b610c78565b61043361102a565b6104d061136f565b6040516104409190614797565b6104d061138b565b6104d06113a7565b6104d06113c3565b6104336105033660046146b1565b6113df565b6104d06113f4565b6104d0611410565b61041e61052636600461476c565b61142c565b61041e6105393660046146c9565b61197c565b61041e61054c3660046146c9565b6119de565b610433611a54565b61041e611a78565b610433611b27565b61041e6105773660046146b1565b611b2d565b610433611ba5565b61041e610592366004614710565b611bab565b61059f611fc1565b604051610440919061480f565b61041e6105ba36600461476c565b611fd1565b61041e6105cd366004614710565b612605565b610433612b80565b61041e612b86565b61059f612c33565b61059f612c41565b6104d0612c52565b61041e61060836600461465d565b612c6e565b6104d0612d6e565b61059f612d8a565b6104d061062b366004614710565b612d93565b61059f61063e3660046146c9565b612db4565b610433612dcc565b61041e610659366004614710565b612dd3565b610433613178565b610433610674366004614642565b61317d565b61059f61318f565b6104d061319e565b61041e610697366004614642565b6131ba565b610433613274565b61043361327a565b6104336106ba3660046146b1565b613280565b610433613297565b61041e6106d53660046146c9565b61329d565b61041e6106e8366004614710565b6132f1565b61041e61366e565b6104d061371c565b61041e61070b366004614710565b613738565b61041e613a32565b6104d0613ad7565b610433613afc565b61041e6107363660046146b1565b613b02565b610433613b7a565b610433613db8565b610433610759366004614642565b613f70565b610433613f82565b60065473ffffffffffffffffffffffffffffffffffffffff163314806107a3575060035473ffffffffffffffffffffffffffffffffffffffff1633145b6107e2576040517f08c379a00000000000000000000000000000000000000000000000000000000081526004016107d990614cca565b60405180910390fd5b601655565b600e6020526000908152604090205481565b60065473ffffffffffffffffffffffffffffffffffffffff16331480610836575060035473ffffffffffffffffffffffffffffffffffffffff1633145b61086c576040517f08c379a00000000000000000000000000000000000000000000000000000000081526004016107d990614cca565b601755565b60065473ffffffffffffffffffffffffffffffffffffffff163314806108ae575060035473ffffffffffffffffffffffffffffffffffffffff1633145b6108e4576040517f08c379a00000000000000000000000000000000000000000000000000000000081526004016107d990614cca565b601855565b60165481565b601054336000908152600d6020526040902054439161090e9190613fca565b1115610946576040517f08c379a00000000000000000000000000000000000000000000000000000000081526004016107d990614b56565b336000908152600f60205260408120548190819081901561098d57336000908152600f602052604081208054919055600c549092506109859083613f88565b600c55600193505b336000908152600e6020526040902054156109cc5750336000908152600e602052604081208054919055600b546109c49082613f88565b600b55600192505b60018415151415610a83576007546040517fa9059cbb00000000000000000000000000000000000000000000000000000000815273ffffffffffffffffffffffffffffffffffffffff9091169063a9059cbb90610a2f90339086906004016147e9565b602060405180830381600087803b158015610a4957600080fd5b505af1158015610a5d573d6000803e3d6000fd5b505050506040513d601f19601f82011682018060405250810190610a819190614691565b505b60018315151415610b3a576001546040517fa9059cbb00000000000000000000000000000000000000000000000000000000815273ffffffffffffffffffffffffffffffffffffffff9091169063a9059cbb90610ae690339085906004016147e9565b602060405180830381600087803b158015610b0057600080fd5b505af1158015610b14573d6000803e3d6000fd5b505050506040513d601f19601f82011682018060405250810190610b389190614691565b505b50505050565b60065473ffffffffffffffffffffffffffffffffffffffff16331480610b7d575060035473ffffffffffffffffffffffffffffffffffffffff1633145b610bb3576040517f08c379a00000000000000000000000000000000000000000000000000000000081526004016107d990614cca565b601555565b60065473ffffffffffffffffffffffffffffffffffffffff16331480610bf5575060035473ffffffffffffffffffffffffffffffffffffffff1633145b610c2b576040517f08c379a00000000000000000000000000000000000000000000000000000000081526004016107d990614cca565b600380547fffffffffffffffffffffffff00000000000000000000000000000000000000001673ffffffffffffffffffffffffffffffffffffffff92909216919091179055565b60105481565b60115462010000900460ff1615610cbb576040517f08c379a00000000000000000000000000000000000000000000000000000000081526004016107d990614bd9565b600854604080517f07281b3b000000000000000000000000000000000000000000000000000000008152905160009273ffffffffffffffffffffffffffffffffffffffff16916307281b3b916004808301926020929190829003018186803b158015610d2657600080fd5b505afa158015610d3a573d6000803e3d6000fd5b505050506040513d601f19601f82011682018060405250810190610d5e9190614731565b90506000600860009054906101000a900473ffffffffffffffffffffffffffffffffffffffff1673ffffffffffffffffffffffffffffffffffffffff16632eb9771b6040518163ffffffff1660e01b815260040160206040518083038186803b158015610dca57600080fd5b505afa158015610dde573d6000803e3d6000fd5b505050506040513d601f19601f82011682018060405250810190610e029190614731565b90508015610e3c576040517f08c379a00000000000000000000000000000000000000000000000000000000081526004016107d990614f3a565b6000849050610e70620f4240610e6a610e63601554620f4240613f8890919063ffffffff16565b8490614009565b9061405d565b90506000610e8584610e6a84620f4240614009565b336000908152600f6020526040902054909150610ea29082613fca565b336000908152600f6020526040902055600c54610ebf9082613fca565b600c55336000908152600d6020526040902043905580851115610f0e576040517f08c379a00000000000000000000000000000000000000000000000000000000081526004016107d990614e60565b6008546040517fa8a778ae00000000000000000000000000000000000000000000000000000000815273ffffffffffffffffffffffffffffffffffffffff9091169063a8a778ae90610f669033908a906004016147e9565b600060405180830381600087803b158015610f8057600080fd5b505af1158015610f94573d6000803e3d6000fd5b50506007546040517fb4f56b2600000000000000000000000000000000000000000000000000000000815273ffffffffffffffffffffffffffffffffffffffff909116925063b4f56b269150610ff090309085906004016147e9565b600060405180830381600087803b15801561100a57600080fd5b505af115801561101e573d6000803e3d6000fd5b50505050505050505050565b60115460009060ff161515600114156111355761112e620f4240610e6a600a546111287f0000000000000000000000000000000000000000000000000000000000000000600a0a611128600b54600160009054906101000a900473ffffffffffffffffffffffffffffffffffffffff1673ffffffffffffffffffffffffffffffffffffffff166370a08231306040518263ffffffff1660e01b81526004016110d29190614797565b60206040518083038186803b1580156110ea57600080fd5b505afa1580156110fe573d6000803e3d6000fd5b505050506040513d601f19601f820116820180604052508101906111229190614731565b90613f88565b90614009565b905061136c565b600854604080517f345ba24b000000000000000000000000000000000000000000000000000000008152905160009273ffffffffffffffffffffffffffffffffffffffff169163345ba24b916004808301926020929190829003018186803b1580156111a057600080fd5b505afa1580156111b4573d6000803e3d6000fd5b505050506040513d601f19601f820116820180604052508101906111d89190614731565b6011546013546040517f3ddac95300000000000000000000000000000000000000000000000000000000815292935060009273ffffffffffffffffffffffffffffffffffffffff65010000000000909304831692633ddac9539261126b92911690620f42407f0000000000000000000000000000000000000000000000000000000000000000600a0a02906004016147e9565b60206040518083038186803b15801561128357600080fd5b505afa158015611297573d6000803e3d6000fd5b505050506040513d601f19601f820116820180604052508101906112bb9190614731565b905060006112d082610e6a85620f4240614009565b600b546001546040517f70a0823100000000000000000000000000000000000000000000000000000000815292935061136692620f424092610e6a928692611128927f0000000000000000000000000000000000000000000000000000000000000000600a0a92849273ffffffffffffffffffffffffffffffffffffffff909116906370a08231906110d2903090600401614797565b93505050505b90565b60075473ffffffffffffffffffffffffffffffffffffffff1681565b60045473ffffffffffffffffffffffffffffffffffffffff1681565b60025473ffffffffffffffffffffffffffffffffffffffff1681565b60135473ffffffffffffffffffffffffffffffffffffffff1681565b60009081526020819052604090206002015490565b60015473ffffffffffffffffffffffffffffffffffffffff1681565b60055473ffffffffffffffffffffffffffffffffffffffff1681565b601154610100900460ff161561146e576040517f08c379a00000000000000000000000000000000000000000000000000000000081526004016107d990614e29565b600854604080517f07281b3b000000000000000000000000000000000000000000000000000000008152905160009273ffffffffffffffffffffffffffffffffffffffff16916307281b3b916004808301926020929190829003018186803b1580156114d957600080fd5b505afa1580156114ed573d6000803e3d6000fd5b505050506040513d601f19601f820116820180604052508101906115119190614731565b90506000600860009054906101000a900473ffffffffffffffffffffffffffffffffffffffff1673ffffffffffffffffffffffffffffffffffffffff16632eb9771b6040518163ffffffff1660e01b815260040160206040518083038186803b15801561157d57600080fd5b505afa158015611591573d6000803e3d6000fd5b505050506040513d601f19601f820116820180604052508101906115b59190614731565b9050620f4240811080156115c95750600081115b6115ff576040517f08c379a00000000000000000000000000000000000000000000000000000000081526004016107d990614a19565b600954600b546001546040517f70a0823100000000000000000000000000000000000000000000000000000000815261166b9289926116659273ffffffffffffffffffffffffffffffffffffffff909116906370a08231906110d2903090600401614797565b90613fca565b11156116a3576040517f08c379a00000000000000000000000000000000000000000000000000000000081526004016107d990614ad3565b7f0000000000000000000000000000000000000000000000000000000000000000600a0a85026116d16145c7565b6040518060a001604052808581526020016116ea613db8565b815260200187815260200183815260200184815250905060008061170d8361409f565b9150915061173a620f4240610e6a611733601454620f4240613f8890919063ffffffff16565b8590614009565b915081871115611776576040517f08c379a00000000000000000000000000000000000000000000000000000000081526004016107d990614e60565b878111156117b0576040517f08c379a00000000000000000000000000000000000000000000000000000000081526004016107d990614d84565b6007546040517fa8a778ae00000000000000000000000000000000000000000000000000000000815273ffffffffffffffffffffffffffffffffffffffff9091169063a8a778ae9061180890339085906004016147e9565b600060405180830381600087803b15801561182257600080fd5b505af1158015611836573d6000803e3d6000fd5b50506001546040517f23b872dd00000000000000000000000000000000000000000000000000000000815273ffffffffffffffffffffffffffffffffffffffff90911692506323b872dd915061189490339030908e906004016147b8565b602060405180830381600087803b1580156118ae57600080fd5b505af11580156118c2573d6000803e3d6000fd5b505050506040513d601f19601f820116820180604052508101906118e69190614691565b506008546040517fb4f56b2600000000000000000000000000000000000000000000000000000000815273ffffffffffffffffffffffffffffffffffffffff9091169063b4f56b269061193f90339086906004016147e9565b600060405180830381600087803b15801561195957600080fd5b505af115801561196d573d6000803e3d6000fd5b50505050505050505050505050565b60008281526020819052604090206002015461199a9061063e614142565b6119d0576040517f08c379a00000000000000000000000000000000000000000000000000000000081526004016107d9906148f1565b6119da8282614146565b5050565b6119e6614142565b73ffffffffffffffffffffffffffffffffffffffff168173ffffffffffffffffffffffffffffffffffffffff1614611a4a576040517f08c379a00000000000000000000000000000000000000000000000000000000081526004016107d990614f71565b6119da82826141c9565b7f000000000000000000000000000000000000000000000000000000000000000081565b60065473ffffffffffffffffffffffffffffffffffffffff16331480611ab5575060035473ffffffffffffffffffffffffffffffffffffffff1633145b611aeb576040517f08c379a00000000000000000000000000000000000000000000000000000000081526004016107d990614cca565b601180547fffffffffffffffffffffffffffffffffffffffffffffffffffffffff00ffffff811663010000009182900460ff1615909102179055565b60185481565b60065473ffffffffffffffffffffffffffffffffffffffff16331480611b6a575060035473ffffffffffffffffffffffffffffffffffffffff1633145b611ba0576040517f08c379a00000000000000000000000000000000000000000000000000000000081526004016107d990614cca565b601455565b60095481565b601154610100900460ff1615611bed576040517f08c379a00000000000000000000000000000000000000000000000000000000081526004016107d990614e29565b600854604080517f2eb9771b00000000000000000000000000000000000000000000000000000000815290517f0000000000000000000000000000000000000000000000000000000000000000600a0a850292620f42409273ffffffffffffffffffffffffffffffffffffffff90911691632eb9771b91600480820192602092909190829003018186803b158015611c8457600080fd5b505afa158015611c98573d6000803e3d6000fd5b505050506040513d601f19601f82011682018060405250810190611cbc9190614731565b1015611cf4576040517f08c379a00000000000000000000000000000000000000000000000000000000081526004016107d9906149ab565b600954600b546001546040517f70a08231000000000000000000000000000000000000000000000000000000008152611d5a9287926116659273ffffffffffffffffffffffffffffffffffffffff909116906370a08231906110d2903090600401614797565b1115611d92576040517f08c379a00000000000000000000000000000000000000000000000000000000081526004016107d990614e97565b600073__CERESPoolLibrary______________________63bdf2c23b611db6613db8565b846040518363ffffffff1660e01b8152600401611dd4929190615005565b60206040518083038186803b158015611dec57600080fd5b505af4158015611e00573d6000803e3d6000fd5b505050506040513d601f19601f82011682018060405250810190611e249190614731565b9050611e48620f4240610e6a610e63601454620f4240613f8890919063ffffffff16565b905080831115611e84576040517f08c379a00000000000000000000000000000000000000000000000000000000081526004016107d990614e60565b6001546040517f23b872dd00000000000000000000000000000000000000000000000000000000815273ffffffffffffffffffffffffffffffffffffffff909116906323b872dd90611ede903390309089906004016147b8565b602060405180830381600087803b158015611ef857600080fd5b505af1158015611f0c573d6000803e3d6000fd5b505050506040513d601f19601f82011682018060405250810190611f309190614691565b506008546040517fb4f56b2600000000000000000000000000000000000000000000000000000000815273ffffffffffffffffffffffffffffffffffffffff9091169063b4f56b2690611f8990339085906004016147e9565b600060405180830381600087803b158015611fa357600080fd5b505af1158015611fb7573d6000803e3d6000fd5b5050505050505050565b6011546301000000900460ff1681565b60115462010000900460ff1615612014576040517f08c379a00000000000000000000000000000000000000000000000000000000081526004016107d990614bd9565b600854604080517f07281b3b000000000000000000000000000000000000000000000000000000008152905160009273ffffffffffffffffffffffffffffffffffffffff16916307281b3b916004808301926020929190829003018186803b15801561207f57600080fd5b505afa158015612093573d6000803e3d6000fd5b505050506040513d601f19601f820116820180604052508101906120b79190614731565b90506000600860009054906101000a900473ffffffffffffffffffffffffffffffffffffffff1673ffffffffffffffffffffffffffffffffffffffff16632eb9771b6040518163ffffffff1660e01b815260040160206040518083038186803b15801561212357600080fd5b505afa158015612137573d6000803e3d6000fd5b505050506040513d601f19601f8201168201806040525081019061215b9190614731565b9050620f42408110801561216f5750600081115b6121a5576040517f08c379a00000000000000000000000000000000000000000000000000000000081526004016107d990614a19565b60006121af613db8565b905060006121dc620f4240610e6a6121d5601554620f4240613f8890919063ffffffff16565b8a90614009565b905060006121fb6121f4620f4240610e6a8588614009565b8390613f88565b9050600061221086610e6a84620f4240614009565b90506000612241847f0000000000000000000000000000000000000000000000000000000000000000600a0a61405d565b90506000612256620f4240610e6a848a614009565b9050600061226b87610e6a84620f4240614009565b600b546001546040517f70a082310000000000000000000000000000000000000000000000000000000081529293506122cb9273ffffffffffffffffffffffffffffffffffffffff909116906370a08231906110d2903090600401614797565b811115612304576040517f08c379a00000000000000000000000000000000000000000000000000000000081526004016107d990614f03565b808a111561233e576040517f08c379a00000000000000000000000000000000000000000000000000000000081526004016107d990614a76565b838b1115612378576040517f08c379a00000000000000000000000000000000000000000000000000000000081526004016107d990614dbb565b336000908152600e60205260409020546123929082613fca565b336000908152600e6020526040902055600b546123af9082613fca565b600b55336000908152600f60205260409020546123cc9085613fca565b336000908152600f6020526040902055600c546123e99085613fca565b600c8190555043600d60003373ffffffffffffffffffffffffffffffffffffffff1673ffffffffffffffffffffffffffffffffffffffff16815260200190815260200160002081905550600860009054906101000a900473ffffffffffffffffffffffffffffffffffffffff1673ffffffffffffffffffffffffffffffffffffffff1663a8a778ae338e6040518363ffffffff1660e01b81526004016124909291906147e9565b600060405180830381600087803b1580156124aa57600080fd5b505af11580156124be573d6000803e3d6000fd5b50506001546040517fa9059cbb00000000000000000000000000000000000000000000000000000000815273ffffffffffffffffffffffffffffffffffffffff909116925063a9059cbb915061251a90339085906004016147e9565b602060405180830381600087803b15801561253457600080fd5b505af1158015612548573d6000803e3d6000fd5b505050506040513d601f19601f8201168201806040525081019061256c9190614691565b506007546040517fb4f56b2600000000000000000000000000000000000000000000000000000000815273ffffffffffffffffffffffffffffffffffffffff9091169063b4f56b26906125c590309088906004016147e9565b600060405180830381600087803b1580156125df57600080fd5b505af11580156125f3573d6000803e3d6000fd5b50505050505050505050505050505050565b6011546301000000900460ff1615612649576040517f08c379a00000000000000000000000000000000000000000000000000000000081526004016107d990614ecc565b600854604080517f07281b3b00000000000000000000000000000000000000000000000000000000815290517f0000000000000000000000000000000000000000000000000000000000000000600a0a85029260009273ffffffffffffffffffffffffffffffffffffffff909116916307281b3b91600480820192602092909190829003018186803b1580156126de57600080fd5b505afa1580156126f2573d6000803e3d6000fd5b505050506040513d601f19601f820116820180604052508101906127169190614731565b90506000600860009054906101000a900473ffffffffffffffffffffffffffffffffffffffff1673ffffffffffffffffffffffffffffffffffffffff166318160ddd6040518163ffffffff1660e01b815260040160206040518083038186803b15801561278257600080fd5b505afa158015612796573d6000803e3d6000fd5b505050506040513d601f19601f820116820180604052508101906127ba9190614731565b90506000600860009054906101000a900473ffffffffffffffffffffffffffffffffffffffff1673ffffffffffffffffffffffffffffffffffffffff16632eb9771b6040518163ffffffff1660e01b815260040160206040518083038186803b15801561282657600080fd5b505afa15801561283a573d6000803e3d6000fd5b505050506040513d601f19601f8201168201806040525081019061285e9190614731565b90506000600860009054906101000a900473ffffffffffffffffffffffffffffffffffffffff1673ffffffffffffffffffffffffffffffffffffffff1663d2d97b066040518163ffffffff1660e01b815260040160206040518083038186803b1580156128ca57600080fd5b505afa1580156128de573d6000803e3d6000fd5b505050506040513d601f19601f820116820180604052508101906129029190614731565b905060008073__CERESPoolLibrary______________________63816260618861292a613db8565b8689896040518663ffffffff1660e01b815260040161294d959493929190615013565b604080518083038186803b15801561296457600080fd5b505af4158015612978573d6000803e3d6000fd5b505050506040513d601f19601f8201168201806040525081019061299c9190614749565b909250905060006129d0837f0000000000000000000000000000000000000000000000000000000000000000600a0a61405d565b90506000612a0088610e6a6129f9601754611122601854620f4240613fca90919063ffffffff16565b8690614009565b9050808a1115612a3c576040517f08c379a00000000000000000000000000000000000000000000000000000000081526004016107d990614e60565b6001546040517f23b872dd00000000000000000000000000000000000000000000000000000000815273ffffffffffffffffffffffffffffffffffffffff909116906323b872dd90612a96903390309087906004016147b8565b602060405180830381600087803b158015612ab057600080fd5b505af1158015612ac4573d6000803e3d6000fd5b505050506040513d601f19601f82011682018060405250810190612ae89190614691565b506007546040517fb4f56b2600000000000000000000000000000000000000000000000000000000815273ffffffffffffffffffffffffffffffffffffffff9091169063b4f56b2690612b4190339085906004016147e9565b600060405180830381600087803b158015612b5b57600080fd5b505af1158015612b6f573d6000803e3d6000fd5b505050505050505050505050505050565b600b5481565b60065473ffffffffffffffffffffffffffffffffffffffff16331480612bc3575060035473ffffffffffffffffffffffffffffffffffffffff1633145b612bf9576040517f08c379a00000000000000000000000000000000000000000000000000000000081526004016107d990614cca565b601180547fffffffffffffffffffffffffffffffffffffffffffffffffffffffffffff00ff81166101009182900460ff1615909102179055565b601154610100900460ff1681565b601154640100000000900460ff1681565b60035473ffffffffffffffffffffffffffffffffffffffff1681565b60065473ffffffffffffffffffffffffffffffffffffffff16331480612cab575060035473ffffffffffffffffffffffffffffffffffffffff1633145b612ce1576040517f08c379a00000000000000000000000000000000000000000000000000000000081526004016107d990614cca565b6012805473ffffffffffffffffffffffffffffffffffffffff9384167fffffffffffffffffffffffff0000000000000000000000000000000000000000918216811790925560118054650100000000009093027fffffffffffffff0000000000000000000000000000000000000000ffffffffff9093169290921790915560138054929093169116179055565b60125473ffffffffffffffffffffffffffffffffffffffff1681565b60115460ff1681565b6000828152602081905260408120612dab908361424c565b90505b92915050565b6000828152602081905260408120612dab9083614258565b620f424081565b601154610100900460ff1615612e15576040517f08c379a00000000000000000000000000000000000000000000000000000000081526004016107d990614e29565b600854604080517f07281b3b000000000000000000000000000000000000000000000000000000008152905160009273ffffffffffffffffffffffffffffffffffffffff16916307281b3b916004808301926020929190829003018186803b158015612e8057600080fd5b505afa158015612e94573d6000803e3d6000fd5b505050506040513d601f19601f82011682018060405250810190612eb89190614731565b9050600860009054906101000a900473ffffffffffffffffffffffffffffffffffffffff1673ffffffffffffffffffffffffffffffffffffffff16632eb9771b6040518163ffffffff1660e01b815260040160206040518083038186803b158015612f2257600080fd5b505afa158015612f36573d6000803e3d6000fd5b505050506040513d601f19601f82011682018060405250810190612f5a9190614731565b15612f91576040517f08c379a00000000000000000000000000000000000000000000000000000000081526004016107d990614f3a565b6040517fbfe14e2e00000000000000000000000000000000000000000000000000000000815260009073__CERESPoolLibrary______________________9063bfe14e2e90612fe69085908890600401615005565b60206040518083038186803b158015612ffe57600080fd5b505af4158015613012573d6000803e3d6000fd5b505050506040513d601f19601f820116820180604052508101906130369190614731565b905061305a620f4240610e6a610e63601454620f4240613f8890919063ffffffff16565b905080831115613096576040517f08c379a00000000000000000000000000000000000000000000000000000000081526004016107d990614e60565b6007546040517fa8a778ae00000000000000000000000000000000000000000000000000000000815273ffffffffffffffffffffffffffffffffffffffff9091169063a8a778ae906130ee90339088906004016147e9565b600060405180830381600087803b15801561310857600080fd5b505af115801561311c573d6000803e3d6000fd5b50506008546040517fb4f56b2600000000000000000000000000000000000000000000000000000000815273ffffffffffffffffffffffffffffffffffffffff909116925063b4f56b269150611f8990339085906004016147e9565b600081565b600d6020526000908152604090205481565b60115462010000900460ff1681565b60085473ffffffffffffffffffffffffffffffffffffffff1681565b60065473ffffffffffffffffffffffffffffffffffffffff163314806131f7575060035473ffffffffffffffffffffffffffffffffffffffff1633145b61322d576040517f08c379a00000000000000000000000000000000000000000000000000000000081526004016107d990614cca565b600680547fffffffffffffffffffffffff00000000000000000000000000000000000000001673ffffffffffffffffffffffffffffffffffffffff92909216919091179055565b60145481565b600a5481565b6000818152602081905260408120612dae9061427a565b60155481565b6000828152602081905260409020600201546132bb9061063e614142565b611a4a576040517f08c379a00000000000000000000000000000000000000000000000000000000081526004016107d990614c6d565b60115462010000900460ff1615613334576040517f08c379a00000000000000000000000000000000000000000000000000000000081526004016107d990614bd9565b600854604080517f2eb9771b0000000000000000000000000000000000000000000000000000000081529051620f42409273ffffffffffffffffffffffffffffffffffffffff1691632eb9771b916004808301926020929190829003018186803b1580156133a157600080fd5b505afa1580156133b5573d6000803e3d6000fd5b505050506040513d601f19601f820116820180604052508101906133d99190614731565b14613410576040517f08c379a00000000000000000000000000000000000000000000000000000000081526004016107d990614df2565b600061343f837f0000000000000000000000000000000000000000000000000000000000000000600a0a61405d565b9050600073__CERESPoolLibrary______________________63f1d6d407613465613db8565b846040518363ffffffff1660e01b8152600401613483929190615005565b60206040518083038186803b15801561349b57600080fd5b505af41580156134af573d6000803e3d6000fd5b505050506040513d601f19601f820116820180604052508101906134d39190614731565b90506134f7620f4240610e6a610e63601554620f4240613f8890919063ffffffff16565b600b546001546040517f70a082310000000000000000000000000000000000000000000000000000000081529293506135579273ffffffffffffffffffffffffffffffffffffffff909116906370a08231906110d2903090600401614797565b811115613590576040517f08c379a00000000000000000000000000000000000000000000000000000000081526004016107d990614f03565b808311156135ca576040517f08c379a00000000000000000000000000000000000000000000000000000000081526004016107d990614e60565b336000908152600e60205260409020546135e49082613fca565b336000908152600e6020526040902055600b546136019082613fca565b600b55336000818152600d60205260409081902043905560085490517fa8a778ae00000000000000000000000000000000000000000000000000000000815273ffffffffffffffffffffffffffffffffffffffff9091169163a8a778ae91611f89919088906004016147e9565b60065473ffffffffffffffffffffffffffffffffffffffff163314806136ab575060035473ffffffffffffffffffffffffffffffffffffffff1633145b6136e1576040517f08c379a00000000000000000000000000000000000000000000000000000000081526004016107d990614cca565b601180547fffffffffffffffffffffffffffffffffffffffffffffffffffffffffff00ffff8116620100009182900460ff1615909102179055565b60065473ffffffffffffffffffffffffffffffffffffffff1681565b601154640100000000900460ff161561377d576040517f08c379a00000000000000000000000000000000000000000000000000000000081526004016107d990614fce565b600854604080517f07281b3b000000000000000000000000000000000000000000000000000000008152905160009273ffffffffffffffffffffffffffffffffffffffff16916307281b3b916004808301926020929190829003018186803b1580156137e857600080fd5b505afa1580156137fc573d6000803e3d6000fd5b505050506040513d601f19601f820116820180604052508101906138209190614731565b905061382a6145f6565b604051806080016040528061383d613b7a565b8152602001838152602001613850613db8565b81526020018581525090506000613888620f4240610e6a61387f601654620f4240613f8890919063ffffffff16565b61112886614285565b905060006138b9827f0000000000000000000000000000000000000000000000000000000000000000600a0a61405d565b9050808511156138f5576040517f08c379a00000000000000000000000000000000000000000000000000000000081526004016107d990614e60565b6007546040517fa8a778ae00000000000000000000000000000000000000000000000000000000815273ffffffffffffffffffffffffffffffffffffffff9091169063a8a778ae9061394d9033908a906004016147e9565b600060405180830381600087803b15801561396757600080fd5b505af115801561397b573d6000803e3d6000fd5b50506001546040517fa9059cbb00000000000000000000000000000000000000000000000000000000815273ffffffffffffffffffffffffffffffffffffffff909116925063a9059cbb91506139d790339085906004016147e9565b602060405180830381600087803b1580156139f157600080fd5b505af1158015613a05573d6000803e3d6000fd5b505050506040513d601f19601f82011682018060405250810190613a299190614691565b50505050505050565b60065473ffffffffffffffffffffffffffffffffffffffff16331480613a6f575060035473ffffffffffffffffffffffffffffffffffffffff1633145b613aa5576040517f08c379a00000000000000000000000000000000000000000000000000000000081526004016107d990614cca565b601180547fffffffffffffffffffffffffffffffffffffffffffffffffffffffffffffff00811660ff90911615179055565b60115465010000000000900473ffffffffffffffffffffffffffffffffffffffff1681565b600c5481565b60065473ffffffffffffffffffffffffffffffffffffffff16331480613b3f575060035473ffffffffffffffffffffffffffffffffffffffff1633145b613b75576040517f08c379a00000000000000000000000000000000000000000000000000000000081526004016107d990614cca565b600955565b600080600860009054906101000a900473ffffffffffffffffffffffffffffffffffffffff1673ffffffffffffffffffffffffffffffffffffffff166318160ddd6040518163ffffffff1660e01b815260040160206040518083038186803b158015613be557600080fd5b505afa158015613bf9573d6000803e3d6000fd5b505050506040513d601f19601f82011682018060405250810190613c1d9190614731565b90506000600860009054906101000a900473ffffffffffffffffffffffffffffffffffffffff1673ffffffffffffffffffffffffffffffffffffffff16632eb9771b6040518163ffffffff1660e01b815260040160206040518083038186803b158015613c8957600080fd5b505afa158015613c9d573d6000803e3d6000fd5b505050506040513d601f19601f82011682018060405250810190613cc19190614731565b90506000600860009054906101000a900473ffffffffffffffffffffffffffffffffffffffff1673ffffffffffffffffffffffffffffffffffffffff1663d2d97b066040518163ffffffff1660e01b815260040160206040518083038186803b158015613d2d57600080fd5b505afa158015613d41573d6000803e3d6000fd5b505050506040513d601f19601f82011682018060405250810190613d659190614731565b9050620f4240821115613d7957620f424091505b6000613d8c620f4240610e6a8686614009565b905080821115613dab57613da08282613f88565b94505050505061136c565b600094505050505061136c565b60115460009060ff16151560011415613dd45750600a5461136c565b600854604080517f345ba24b000000000000000000000000000000000000000000000000000000008152905160009273ffffffffffffffffffffffffffffffffffffffff169163345ba24b916004808301926020929190829003018186803b158015613e3f57600080fd5b505afa158015613e53573d6000803e3d6000fd5b505050506040513d601f19601f82011682018060405250810190613e779190614731565b6011546013546040517f3ddac953000000000000000000000000000000000000000000000000000000008152929350613f689273ffffffffffffffffffffffffffffffffffffffff65010000000000909304831692633ddac95392613f0b92911690620f42407f0000000000000000000000000000000000000000000000000000000000000000600a0a02906004016147e9565b60206040518083038186803b158015613f2357600080fd5b505afa158015613f37573d6000803e3d6000fd5b505050506040513d601f19601f82011682018060405250810190613f5b9190614731565b610e6a83620f4240614009565b91505061136c565b600f6020526000908152604090205481565b60175481565b6000612dab83836040518060400160405280601e81526020017f536166654d6174683a207375627472616374696f6e206f766572666c6f770000815250614343565b600082820183811015612dab576040517f08c379a00000000000000000000000000000000000000000000000000000000081526004016107d9906149e2565b60008261401857506000612dae565b8282028284828161402557fe5b0414612dab576040517f08c379a00000000000000000000000000000000000000000000000000000000081526004016107d990614d27565b6000612dab83836040518060400160405280601a81526020017f536166654d6174683a206469766973696f6e206279207a65726f000000000000815250614389565b6000806000806140c7620f4240610e6a8760000151886040015161400990919063ffffffff16565b91506140eb620f4240610e6a8760200151886060015161400990919063ffffffff16565b90506000614111826111228860800151610e6a620f42408761400990919063ffffffff16565b865190915060009061412a90610e6a84620f4240614009565b90506141368383613fca565b95509350505050915091565b3390565b600082815260208190526040902061415e90826143da565b156119da5761416b614142565b73ffffffffffffffffffffffffffffffffffffffff168173ffffffffffffffffffffffffffffffffffffffff16837f2f8788117e7eff1d82e926ec794901d17c78024a50270940304540a733656f0d60405160405180910390a45050565b60008281526020819052604090206141e190826143fc565b156119da576141ee614142565b73ffffffffffffffffffffffffffffffffffffffff168173ffffffffffffffffffffffffffffffffffffffff16837ff6391f5c32d9c69d2a47ea670b442974b53935d1edc7fd64eb21e047a839171b60405160405180910390a45050565b6000612dab838361441e565b6000612dab8373ffffffffffffffffffffffffffffffffffffffff841661447d565b6000612dae82614495565b80516000906142c0576040517f08c379a00000000000000000000000000000000000000000000000000000000081526004016107d990614c10565b60006142e4620f4240610e6a8560200151866060015161400990919063ffffffff16565b8351909150811115614322576040517f08c379a00000000000000000000000000000000000000000000000000000000081526004016107d99061494e565b604083015160009061433b90610e6a84620f4240614009565b949350505050565b60008184841115614381576040517f08c379a00000000000000000000000000000000000000000000000000000000081526004016107d99190614823565b505050900390565b600081836143c4576040517f08c379a00000000000000000000000000000000000000000000000000000000081526004016107d99190614823565b5060008385816143d057fe5b0495945050505050565b6000612dab8373ffffffffffffffffffffffffffffffffffffffff8416614499565b6000612dab8373ffffffffffffffffffffffffffffffffffffffff84166144e3565b8154600090821061445b576040517f08c379a00000000000000000000000000000000000000000000000000000000081526004016107d990614894565b82600001828154811061446a57fe5b9060005260206000200154905092915050565b60009081526001919091016020526040902054151590565b5490565b60006144a5838361447d565b6144db57508154600181810184556000848152602080822090930184905584548482528286019093526040902091909155612dae565b506000612dae565b600081815260018301602052604081205480156145bd5783547fffffffffffffffffffffffffffffffffffffffffffffffffffffffffffffffff808301919081019060009087908390811061453457fe5b906000526020600020015490508087600001848154811061455157fe5b60009182526020808320909101929092558281526001898101909252604090209084019055865487908061458157fe5b60019003818190600052602060002001600090559055866001016000878152602001908152602001600020600090556001945050505050612dae565b6000915050612dae565b6040518060a0016040528060008152602001600081526020016000815260200160008152602001600081525090565b6040518060800160405280600081526020016000815260200160008152602001600081525090565b803573ffffffffffffffffffffffffffffffffffffffff81168114612dae57600080fd5b600060208284031215614653578081fd5b612dab838361461e565b6000806040838503121561466f578081fd5b614679848461461e565b9150614688846020850161461e565b90509250929050565b6000602082840312156146a2578081fd5b81518015158114612dab578182fd5b6000602082840312156146c2578081fd5b5035919050565b600080604083850312156146db578182fd5b82359150602083013573ffffffffffffffffffffffffffffffffffffffff81168114614705578182fd5b809150509250929050565b60008060408385031215614722578182fd5b50508035926020909101359150565b600060208284031215614742578081fd5b5051919050565b6000806040838503121561475b578182fd5b505080516020909101519092909150565b600080600060608486031215614780578081fd5b505081359360208301359350604090920135919050565b73ffffffffffffffffffffffffffffffffffffffff91909116815260200190565b73ffffffffffffffffffffffffffffffffffffffff9384168152919092166020820152604081019190915260600190565b73ffffffffffffffffffffffffffffffffffffffff929092168252602082015260400190565b901515815260200190565b90815260200190565b6000602080835283518082850152825b8181101561484f57858101830151858201604001528201614833565b818111156148605783604083870101525b50601f017fffffffffffffffffffffffffffffffffffffffffffffffffffffffffffffffe016929092016040019392505050565b60208082526022908201527f456e756d657261626c655365743a20696e646578206f7574206f6620626f756e60408201527f6473000000000000000000000000000000000000000000000000000000000000606082015260800190565b6020808252602f908201527f416363657373436f6e74726f6c3a2073656e646572206d75737420626520616e60408201527f2061646d696e20746f206772616e740000000000000000000000000000000000606082015260800190565b60208082526030908201527f596f752061726520747279696e6720746f20627579206261636b206d6f72652060408201527f7468616e20746865206578636573732100000000000000000000000000000000606082015260800190565b6020808252601d908201527f436f6c6c61746572616c20726174696f206d757374206265203e3d2031000000604082015260600190565b6020808252601b908201527f536166654d6174683a206164646974696f6e206f766572666c6f770000000000604082015260600190565b60208082526038908201527f436f6c6c61746572616c20726174696f206e6565647320746f2062652062657460408201527f7765656e202e30303030303120616e64202e3939393939390000000000000000606082015260800190565b60208082526023908201527f536c697070616765206c696d69742072656163686564205b636f6c6c6174657260408201527f616c5d0000000000000000000000000000000000000000000000000000000000606082015260800190565b60208082526046908201527f506f6f6c206365696c696e6720726561636865642c206e6f206d6f726520434560408201527f5245532063616e206265206d696e7465642077697468207468697320636f6c6c60608201527f61746572616c0000000000000000000000000000000000000000000000000000608082015260a00190565b60208082526042908201527f4d757374207761697420666f7220726564656d7074696f6e5f64656c6179206260408201527f6c6f636b73206265666f726520636f6c6c656374696e6720726564656d70746960608201527f6f6e000000000000000000000000000000000000000000000000000000000000608082015260a00190565b60208082526013908201527f52656465656d696e672069732070617573656400000000000000000000000000604082015260600190565b60208082526021908201527f4e6f2065786365737320636f6c6c61746572616c20746f20627579206261636b60408201527f2100000000000000000000000000000000000000000000000000000000000000606082015260800190565b60208082526030908201527f416363657373436f6e74726f6c3a2073656e646572206d75737420626520616e60408201527f2061646d696e20746f207265766f6b6500000000000000000000000000000000606082015260800190565b60208082526030908201527f596f7520617265206e6f7420746865206f776e6572206f722074686520676f7660408201527f65726e616e63652074696d656c6f636b00000000000000000000000000000000606082015260800190565b60208082526021908201527f536166654d6174683a206d756c7469706c69636174696f6e206f766572666c6f60408201527f7700000000000000000000000000000000000000000000000000000000000000606082015260800190565b60208082526017908201527f4e6f7420656e6f7567682043535320696e707574746564000000000000000000604082015260600190565b6020808252601c908201527f536c697070616765206c696d69742072656163686564205b4353535d00000000604082015260600190565b6020808252601d908201527f436f6c6c61746572616c20726174696f206d757374206265203d3d2031000000604082015260600190565b60208082526011908201527f4d696e74696e6720697320706175736564000000000000000000000000000000604082015260600190565b60208082526016908201527f536c697070616765206c696d6974207265616368656400000000000000000000604082015260600190565b6020808252818101527f5b506f6f6c277320436c6f7365645d3a204365696c696e672072656163686564604082015260600190565b60208082526019908201527f5265636f6c6c61746572616c697a652069732070617573656400000000000000604082015260600190565b6020808252601d908201527f4e6f7420656e6f75676820636f6c6c61746572616c20696e20706f6f6c000000604082015260600190565b6020808252601a908201527f436f6c6c61746572616c20726174696f206d7573742062652030000000000000604082015260600190565b6020808252602f908201527f416363657373436f6e74726f6c3a2063616e206f6e6c792072656e6f756e636560408201527f20726f6c657320666f722073656c660000000000000000000000000000000000606082015260800190565b60208082526011908201527f4275796261636b20697320706175736564000000000000000000000000000000604082015260600190565b918252602082015260400190565b948552602085019390935260408401919091526060830152608082015260a0019056fea26469706673582212208ef57a4ec1dad508e7fa5d77956a53f0b1b02b323abfe2f51bb6b399e3885b4a64736f6c634300060c0033",
  "immutableReferences": {
    "6961": [
      {
        "length": 32,
        "start": 4175
      },
      {
        "length": 32,
        "start": 4671
      },
      {
        "length": 32,
        "start": 4884
      },
      {
        "length": 32,
        "start": 5797
      },
      {
        "length": 32,
        "start": 6742
      },
      {
        "length": 32,
        "start": 7195
      },
      {
        "length": 32,
        "start": 8730
      },
      {
        "length": 32,
        "start": 9847
      },
      {
        "length": 32,
        "start": 10665
      },
      {
        "length": 32,
        "start": 13336
      },
      {
        "length": 32,
        "start": 14482
      },
      {
        "length": 32,
        "start": 16095
      }
    ]
  },
  "source": "// SPDX-License-Identifier: MIT\npragma solidity 0.6.12;\npragma experimental ABIEncoderV2;\n\n\nimport \"../../Math/SafeMath.sol\";\nimport \"../../CSS/CSS.sol\";\nimport \"../../Ceres/Ceres.sol\";\nimport \"../../ERC20/ERC20.sol\";\nimport \"../../Oracle/UniswapPairOracle.sol\";\nimport \"../../Governance/AccessControl.sol\";\nimport \"./CeresPoolLibrary.sol\";\n\ncontract CeresPool is AccessControl {\n    using SafeMath for uint256;\n\n    /* ========== STATE VARIABLES ========== */\n \n    ERC20 public collateral_token; //TEST CASE DONE\n    address public collateral_address; //TEST CASE DONE\n    address public owner_address; //TEST CASE DONE\n\n    address public ceres_contract_address; //TEST CASE DONE\n    address public css_contract_address; //TEST CASE DONE\n    address public timelock_address; //TEST CASE DONE\n    CEREShares public CSS; //TEST CASE DONE\n    CEREStable public CERES; //TEST CASE DONE\n\n    // Number of decimals needed to get to 18\n    uint256 public immutable missing_decimals; //TEST CASE DONE\n    // Pool_ceiling is the total units of collateral that a pool contract can hold\n    uint256 public pool_ceiling = 0; //TEST CASE DONE\n\n    // Constants for various precisions\n    // TEST CASE DONE\n    uint256 public constant PRICE_PRECISION = 1e6; //TEST CASE DONE\n    uint256 public constant COLLATERAL_RATIO_PRECISION = 1e6; //TEST CASE DONE\n    uint256 public constant COLLATERAL_RATIO_MAX = 1e6; //TEST CASE DONE\n\n    // Stores price of the collateral, if price is paused\n    uint256 public pausedPrice = 0; //TEST CASE DONE\n    \n    uint256 public unclaimedPoolCollateral; //TEST CASE DONE\n    uint256 public unclaimedPoolCSS; //TEST CASE DONE\n    \n    mapping (address => uint256) public lastRedeemed; //TEST CASE DONE\n    mapping (address => uint256) public redeemCollateralBalances; //TEST CASE DONE\n    mapping (address => uint256) public redeemCSSBalances; //TEST CASE DONE\n    \n\n    uint256 public redemption_delay = 0; //TEST CASE DONE\n    \n    // AccessControl state variables\n    bool public collateralPricePaused = false; //TEST CASE DONE\n    bool public mintPaused = false; //TEST CASE DONE\n    bool public redeemPaused = false; //TEST CASE DONE\n    bool public recollateralizePaused = false; //TEST CASE DONE\n    bool public buyBackPaused = false; //TEST CASE DONE\n    \n    \n    // [PARAMETER][collat_eth_oracle_address]\n    UniswapPairOracle public collatEthOracle; //TEST CASE DONE\n    address public collat_eth_oracle_address; //TEST CASE DONE\n    address public weth_address; //TEST CASE DONE\n\n    uint256 public minting_fee = 300; //TEST CASE DONE\n    uint256 public redemption_fee = 400; //TEST CASE DONE\n    uint256 public buyback_fee = 100; //TEST CASE DONE\n    uint256 public recollat_fee = 100; //TEST CASE DONE\n    uint256 public bonus_rate = 7500; //TEST CASE DONE\n    \n\n\n\n    /* ========== MODIFIERS ========== */\n\n    modifier onlyByOwnerOrGovernance() {\n        require(msg.sender == timelock_address || msg.sender == owner_address, \"You are not the owner or the governance timelock\");\n        _;\n    }\n\n    modifier notMintPaused() {\n        require(mintPaused == false, \"Minting is paused\");\n        _;\n    }\n\n    modifier notRedeemPaused() {\n        require(redeemPaused == false, \"Redeeming is paused\");\n        _;\n    }\n \n    /* ========== CONSTRUCTOR ========== */\n    //TEST CASE DONE\n    constructor(\n        address _ceres_contract_address,\n        address _css_contract_address,\n        address _collateral_address,\n        address _owner_address,\n        address _timelock_address,\n        uint256 _pool_ceiling\n    ) public {\n        CERES = CEREStable(_ceres_contract_address);\n        CSS = CEREShares(_css_contract_address);\n        collateral_token = ERC20(_collateral_address);\n\n        ceres_contract_address = _ceres_contract_address;\n        css_contract_address = _css_contract_address;\n        collateral_address = _collateral_address;\n        owner_address = _owner_address;\n        timelock_address = _timelock_address;\n        pool_ceiling = _pool_ceiling;        \n        missing_decimals = uint(18).sub(collateral_token.decimals());\n    }\n\n    // ADD RESTRICTED FUNC FIRST\n    /* ========== RESTRICTED FUNCTIONS ========== */\n    //TEST CASE DONE\n    function setOwner(address _owner_address) external onlyByOwnerOrGovernance {\n        owner_address = _owner_address;\n    }\n    //TEST CASE DONE\n    function setTimelock(address new_timelock) external onlyByOwnerOrGovernance {\n        timelock_address = new_timelock;\n    }\n    //TEST CASE DONE\n    function setPoolParameters(uint256 new_ceiling) external onlyByOwnerOrGovernance {\n        pool_ceiling = new_ceiling;\n    }\n    //TEST CASE DONE\n    function setMinting_fee(uint256 _minting_fee) external onlyByOwnerOrGovernance {\n        minting_fee = _minting_fee;\n    }\n\n    //TEST CASE DONE\n    function setRedemption_fee(uint256 _redemption_fee) external onlyByOwnerOrGovernance {\n        redemption_fee = _redemption_fee;\n    }\n\n    //TEST CASE DONE\n    function setBuyback_fee(uint256 _buyback_fee) external onlyByOwnerOrGovernance {\n        buyback_fee = _buyback_fee;\n    }\n\n    //TEST CASE DONE\n    function setRecollat_fee(uint256 _recollat_fee) external onlyByOwnerOrGovernance {\n        recollat_fee = _recollat_fee;\n    }\n\n    //TEST CASE DONE\n    function setBonus_rate(uint256 _bonus_rate) external onlyByOwnerOrGovernance {\n        bonus_rate = _bonus_rate;\n    }\n\n    \n    //TEST CASE DONE\n    function toggleMinting() external onlyByOwnerOrGovernance {\n        mintPaused = !mintPaused;\n    }\n    //TEST CASE DONE\n    function toggleRedeeming() external onlyByOwnerOrGovernance {\n        redeemPaused = !redeemPaused;\n    }\n    //TEST CASE DONE\n    function toggleRecollateralize() external onlyByOwnerOrGovernance {\n        recollateralizePaused = !recollateralizePaused;\n    }\n    \n    //TEST CASE DONE\n    function toggleCollateralPricePaused() external onlyByOwnerOrGovernance {\n        collateralPricePaused = !collateralPricePaused;\n    }\n\n    /* ========== PUBLIC FUNCTIONS ========== */\n    //TEST CASE DONE\n    function getCollateralPrice() public view returns (uint256) {\n        if(collateralPricePaused == true){\n            return pausedPrice;\n        } else {\n            uint256 eth_usd_price = CERES.eth_usd_price();\n            return eth_usd_price.mul(PRICE_PRECISION).div(collatEthOracle.consult(weth_address, PRICE_PRECISION * (10 ** missing_decimals)));\n        }\n    }\n\n    //TEST CASE DONE\n    function setCollatETHOracle(address _collateral_weth_oracle_address, address _weth_address) external onlyByOwnerOrGovernance {\n        collat_eth_oracle_address = _collateral_weth_oracle_address;\n        collatEthOracle = UniswapPairOracle(_collateral_weth_oracle_address);\n        weth_address = _weth_address;\n    }\n\n    // TEST CASE DONE\n    function mint1t1CERES(uint256 collateral_amount, uint256 CERES_out_min) external notMintPaused {\n        uint256 collateral_amount_d18 = collateral_amount * (10 ** missing_decimals);\n\n        require(CERES.global_collateral_ratio() >= COLLATERAL_RATIO_MAX, \"Collateral ratio must be >= 1\");\n        require((collateral_token.balanceOf(address(this))).sub(unclaimedPoolCollateral).add(collateral_amount) <= pool_ceiling, \"[Pool's Closed]: Ceiling reached\");\n        \n        (uint256 ceres_amount_d18) = CERESPoolLibrary.calcMint1t1CERES(\n            getCollateralPrice(),\n            collateral_amount_d18\n        ); //1 CERES for each $1 worth of collateral\n\n        ceres_amount_d18 = (ceres_amount_d18.mul(uint(1e6).sub(minting_fee))).div(1e6); //remove precision at the end\n        require(CERES_out_min <= ceres_amount_d18, \"Slippage limit reached\");\n\n        collateral_token.transferFrom(msg.sender, address(this), collateral_amount);\n        CERES.pool_mint(msg.sender, ceres_amount_d18);\n    }\n\n    //TEST CASE DONE\n    function mintFractionalCERES(uint256 collateral_amount, uint256 css_amount, uint256 CERES_out_min) external notMintPaused {\n        uint256 css_price = CERES.css_price();\n        uint256 global_collateral_ratio = CERES.global_collateral_ratio();\n\n        require(global_collateral_ratio < COLLATERAL_RATIO_MAX && global_collateral_ratio > 0, \"Collateral ratio needs to be between .000001 and .999999\");\n        require(collateral_token.balanceOf(address(this)).sub(unclaimedPoolCollateral).add(collateral_amount) <= pool_ceiling, \"Pool ceiling reached, no more CERES can be minted with this collateral\");\n\n        uint256 collateral_amount_d18 = collateral_amount * (10 ** missing_decimals);\n        CERESPoolLibrary.MintCSS_Params memory input_params = CERESPoolLibrary.MintCSS_Params(\n            css_price,\n            getCollateralPrice(),\n            css_amount,\n            collateral_amount_d18,\n            global_collateral_ratio\n        );\n\n        (uint256 mint_amount, uint256 css_needed) = CERESPoolLibrary.calcMintFractionalCERES(input_params);\n\n        mint_amount = (mint_amount.mul(uint(1e6).sub(minting_fee))).div(1e6);\n        require(CERES_out_min <= mint_amount, \"Slippage limit reached\");\n        require(css_needed <= css_amount, \"Not enough CSS inputted\");\n\n        CSS.pool_burn_from(msg.sender, css_needed);\n        collateral_token.transferFrom(msg.sender, address(this), collateral_amount);\n        CERES.pool_mint(msg.sender, mint_amount);\n    }\n    //TEST CASE DONE\n    function mintAlgorithmicCERES(uint256 css_amount_d18, uint256 CERES_out_min) external notMintPaused {\n        uint256 css_price = CERES.css_price();\n        require(CERES.global_collateral_ratio() == 0, \"Collateral ratio must be 0\");\n        \n        (uint256 ceres_amount_d18) = CERESPoolLibrary.calcMintAlgorithmicCERES(\n            css_price, // X CSS / 1 USD\n            css_amount_d18\n        );\n\n        ceres_amount_d18 = (ceres_amount_d18.mul(uint(1e6).sub(minting_fee))).div(1e6);\n        require(CERES_out_min <= ceres_amount_d18, \"Slippage limit reached\");\n\n        CSS.pool_burn_from(msg.sender, css_amount_d18);\n        CERES.pool_mint(msg.sender, ceres_amount_d18);\n    }\n\n    // TEST CASE DONE\n    function redeem1t1CERES(uint256 CERES_amount, uint256 COLLATERAL_out_min) external notRedeemPaused {\n        require(CERES.global_collateral_ratio() == COLLATERAL_RATIO_MAX, \"Collateral ratio must be == 1\");\n\n        // Need to adjust for decimals of collateral\n        uint256 CERES_amount_precision = CERES_amount.div(10 ** missing_decimals);\n        (uint256 collateral_needed) = CERESPoolLibrary.calcRedeem1t1CERES(\n            getCollateralPrice(),\n            CERES_amount_precision\n        );\n\n        collateral_needed = (collateral_needed.mul(uint(1e6).sub(redemption_fee))).div(1e6);\n        require(collateral_needed <= collateral_token.balanceOf(address(this)).sub(unclaimedPoolCollateral), \"Not enough collateral in pool\");\n        require(COLLATERAL_out_min <= collateral_needed, \"Slippage limit reached\");\n\n        redeemCollateralBalances[msg.sender] = redeemCollateralBalances[msg.sender].add(collateral_needed);\n        unclaimedPoolCollateral = unclaimedPoolCollateral.add(collateral_needed);\n        lastRedeemed[msg.sender] = block.number;\n        \n        // Move all external functions to the end\n        CERES.pool_burn_from(msg.sender, CERES_amount);\n    }\n    // TEST CASE DONE\n    function redeemFractionalCERES(uint256 CERES_amount, uint256 CSS_out_min, uint256 COLLATERAL_out_min) external notRedeemPaused {\n        uint256 css_price = CERES.css_price();\n        uint256 global_collateral_ratio = CERES.global_collateral_ratio();\n\n        require(global_collateral_ratio < COLLATERAL_RATIO_MAX && global_collateral_ratio > 0, \"Collateral ratio needs to be between .000001 and .999999\");\n        uint256 col_price_usd = getCollateralPrice();\n\n        uint256 CERES_amount_post_fee = (CERES_amount.mul(uint(1e6).sub(redemption_fee))).div(PRICE_PRECISION);\n\n        uint256 css_dollar_value_d18 = CERES_amount_post_fee.sub(CERES_amount_post_fee.mul(global_collateral_ratio).div(PRICE_PRECISION));\n        uint256 css_amount = css_dollar_value_d18.mul(PRICE_PRECISION).div(css_price);\n\n        // Need to adjust for decimals of collateral\n        uint256 CERES_amount_precision = CERES_amount_post_fee.div(10 ** missing_decimals);\n        uint256 collateral_dollar_value = CERES_amount_precision.mul(global_collateral_ratio).div(PRICE_PRECISION);\n        uint256 collateral_amount = collateral_dollar_value.mul(PRICE_PRECISION).div(col_price_usd);\n\n\n        require(collateral_amount <= collateral_token.balanceOf(address(this)).sub(unclaimedPoolCollateral), \"Not enough collateral in pool\");\n        require(COLLATERAL_out_min <= collateral_amount, \"Slippage limit reached [collateral]\");\n        require(CSS_out_min <= css_amount, \"Slippage limit reached [CSS]\");\n\n        redeemCollateralBalances[msg.sender] = redeemCollateralBalances[msg.sender].add(collateral_amount);\n        unclaimedPoolCollateral = unclaimedPoolCollateral.add(collateral_amount);\n\n        redeemCSSBalances[msg.sender] = redeemCSSBalances[msg.sender].add(css_amount);\n        unclaimedPoolCSS = unclaimedPoolCSS.add(css_amount);\n\n        lastRedeemed[msg.sender] = block.number;\n        \n        // Move all external functions to the end\n        CERES.pool_burn_from(msg.sender, CERES_amount);\n        \n        // collateral_token.transferFrom(address(this), msg.sender, collateral_amount);\n        collateral_token.transfer(msg.sender, collateral_amount);\n        CSS.pool_mint(address(this), css_amount);\n    }\n    // TEST CASE DONE\n    function redeemAlgorithmicCERES(uint256 CERES_amount, uint256 CSS_out_min) external notRedeemPaused {\n        uint256 css_price = CERES.css_price();\n        uint256 global_collateral_ratio = CERES.global_collateral_ratio();\n\n        require(global_collateral_ratio == 0, \"Collateral ratio must be 0\"); \n        uint256 css_dollar_value_d18 = CERES_amount;\n\n        css_dollar_value_d18 = (css_dollar_value_d18.mul(uint(1e6).sub(redemption_fee))).div(PRICE_PRECISION); //apply fees\n\n        uint256 css_amount = css_dollar_value_d18.mul(PRICE_PRECISION).div(css_price);\n        \n        redeemCSSBalances[msg.sender] = redeemCSSBalances[msg.sender].add(css_amount);\n        unclaimedPoolCSS = unclaimedPoolCSS.add(css_amount);\n        \n        lastRedeemed[msg.sender] = block.number;\n        \n        require(CSS_out_min <= css_amount, \"Slippage limit reached\");\n        // Move all external functions to the end\n        CERES.pool_burn_from(msg.sender, CERES_amount);\n        CSS.pool_mint(address(this), css_amount);\n    }\n    //TEST CASE DONE\n    function collectRedemption() external {\n        require((lastRedeemed[msg.sender].add(redemption_delay)) <= block.number, \"Must wait for redemption_delay blocks before collecting redemption\");\n        bool sendCSS = false;\n        bool sendCollateral = false;\n        uint CSSAmount;\n        uint CollateralAmount;\n\n        // Use Checks-Effects-Interactions pattern\n        if(redeemCSSBalances[msg.sender] > 0){\n            CSSAmount = redeemCSSBalances[msg.sender];\n            redeemCSSBalances[msg.sender] = 0;\n            unclaimedPoolCSS = unclaimedPoolCSS.sub(CSSAmount);\n\n            sendCSS = true;\n        }\n        \n        if(redeemCollateralBalances[msg.sender] > 0){\n            CollateralAmount = redeemCollateralBalances[msg.sender];\n            redeemCollateralBalances[msg.sender] = 0;\n            unclaimedPoolCollateral = unclaimedPoolCollateral.sub(CollateralAmount);\n\n            sendCollateral = true;\n        }\n\n        if(sendCSS == true){\n            CSS.transfer(msg.sender, CSSAmount);\n        }\n        if(sendCollateral == true){\n            collateral_token.transfer(msg.sender, CollateralAmount);\n        }\n    }\n    //TEST CASE DONE\n    function collatDollarBalance() public view returns (uint256) {\n        if(collateralPricePaused == true){\n            return (collateral_token.balanceOf(address(this)).sub(unclaimedPoolCollateral)).mul(10 ** missing_decimals).mul(pausedPrice).div(PRICE_PRECISION);\n        } else {\n            uint256 eth_usd_price = CERES.eth_usd_price();\n            uint256 eth_collat_price = collatEthOracle.consult(weth_address, (PRICE_PRECISION * (10 ** missing_decimals)));\n\n            uint256 collat_usd_price = eth_usd_price.mul(PRICE_PRECISION).div(eth_collat_price);\n            return (collateral_token.balanceOf(address(this)).sub(unclaimedPoolCollateral)).mul(10 ** missing_decimals).mul(collat_usd_price).div(PRICE_PRECISION); //.mul(getCollateralPrice()).div(1e6);    \n        }\n    }\n\n    //TEST CASE DONE\n    function recollateralizeCSS(uint256 collateral_amount, uint256 CSS_out_min) external {\n        require(recollateralizePaused == false, \"Recollateralize is paused\");\n        uint256 collateral_amount_d18 = collateral_amount * (10 ** missing_decimals);\n        uint256 css_price = CERES.css_price();\n        uint256 ceres_total_supply = CERES.totalSupply();\n        uint256 global_collateral_ratio = CERES.global_collateral_ratio();\n        uint256 global_collat_value = CERES.globalCollateralValue();\n\n        (uint256 collateral_units, uint256 amount_to_recollat) = CERESPoolLibrary.calcRecollateralizeCERESInner(\n            collateral_amount_d18,\n            getCollateralPrice(),\n            global_collat_value,\n            ceres_total_supply,\n            global_collateral_ratio\n        ); \n\n        uint256 collateral_units_precision = collateral_units.div(10 ** missing_decimals);\n\n        uint256 css_paid_back = amount_to_recollat.mul(uint(1e6).add(bonus_rate).sub(recollat_fee)).div(css_price);\n\n        require(CSS_out_min <= css_paid_back, \"Slippage limit reached\");\n        collateral_token.transferFrom(msg.sender, address(this), collateral_units_precision);\n        CSS.pool_mint(msg.sender, css_paid_back);\n        \n    }\n\n    //TEST CASE DONE\n    function availableExcessCollatDV() public view returns (uint256) {\n        uint256 total_supply = CERES.totalSupply();\n        uint256 global_collateral_ratio = CERES.global_collateral_ratio();\n        uint256 global_collat_value = CERES.globalCollateralValue();\n\n        if (global_collateral_ratio > COLLATERAL_RATIO_PRECISION) global_collateral_ratio = COLLATERAL_RATIO_PRECISION; // Handles an overcollateralized contract with CR > 1\n        uint256 required_collat_dollar_value_d18 = (total_supply.mul(global_collateral_ratio)).div(COLLATERAL_RATIO_PRECISION); // Calculates collateral needed to back each 1 CERES with $1 of collateral at current collat ratio\n        if (global_collat_value > required_collat_dollar_value_d18) return global_collat_value.sub(required_collat_dollar_value_d18);\n        else return 0;\n    }\n\n    //TEST CASE DONE\n    function buyBackCSS(uint256 CSS_amount, uint256 COLLATERAL_out_min) external {\n        require(buyBackPaused == false, \"Buyback is paused\");\n        uint256 css_price = CERES.css_price();\n    \n        CERESPoolLibrary.BuybackCSS_Params memory input_params = CERESPoolLibrary.BuybackCSS_Params(\n            availableExcessCollatDV(),\n            css_price,\n            getCollateralPrice(),\n            CSS_amount\n        );\n\n        (uint256 collateral_equivalent_d18) = (CERESPoolLibrary.calcBuyBackCSS(input_params)).mul(uint(1e6).sub(buyback_fee)).div(1e6);\n        uint256 collateral_precision = collateral_equivalent_d18.div(10 ** missing_decimals);\n\n        require(COLLATERAL_out_min <= collateral_precision, \"Slippage limit reached\");\n        \n        CSS.pool_burn_from(msg.sender, CSS_amount);\n        collateral_token.transfer(msg.sender, collateral_precision);\n    }                                                                                                                                                                                                                                                                                                                                                                                                                                                   \n}",
  "sourcePath": "/Users/cooper/GitHub/Prigogine/Ceres-Protocol/contracts/Ceres/Pools/CeresPool.sol",
  "compiler": {
    "name": "solc",
    "version": "0.6.12+commit.27d51765.Emscripten.clang"
  },
  "schemaVersion": "3.4.1",
  "updatedAt": "2021-07-29T03:32:44.714Z",
  "devdoc": {
    "kind": "dev",
    "methods": {
      "getRoleAdmin(bytes32)": {
        "details": "Returns the admin role that controls `role`. See {grantRole} and {revokeRole}. To change a role's admin, use {_setRoleAdmin}."
      },
      "getRoleMember(bytes32,uint256)": {
        "details": "Returns one of the accounts that have `role`. `index` must be a value between 0 and {getRoleMemberCount}, non-inclusive. Role bearers are not sorted in any particular way, and their ordering may change at any point. WARNING: When using {getRoleMember} and {getRoleMemberCount}, make sure you perform all queries on the same block. See the following https://forum.openzeppelin.com/t/iterating-over-elements-on-enumerableset-in-openzeppelin-contracts/2296[forum post] for more information."
      },
      "getRoleMemberCount(bytes32)": {
        "details": "Returns the number of accounts that have `role`. Can be used together with {getRoleMember} to enumerate all bearers of a role."
      },
      "grantRole(bytes32,address)": {
        "details": "Grants `role` to `account`. If `account` had not been already granted `role`, emits a {RoleGranted} event. Requirements: - the caller must have ``role``'s admin role."
      },
      "hasRole(bytes32,address)": {
        "details": "Returns `true` if `account` has been granted `role`."
      },
      "renounceRole(bytes32,address)": {
        "details": "Revokes `role` from the calling account. Roles are often managed via {grantRole} and {revokeRole}: this function's purpose is to provide a mechanism for accounts to lose their privileges if they are compromised (such as when a trusted device is misplaced). If the calling account had been granted `role`, emits a {RoleRevoked} event. Requirements: - the caller must be `account`."
      },
      "revokeRole(bytes32,address)": {
        "details": "Revokes `role` from `account`. If `account` had been granted `role`, emits a {RoleRevoked} event. Requirements: - the caller must have ``role``'s admin role."
      }
    },
    "version": 1
  },
  "userdoc": {
    "kind": "user",
    "methods": {},
    "version": 1
  }
}