{
  "contractName": "CEREShares",
  "abi": [
    {
      "inputs": [
        {
          "internalType": "string",
          "name": "_name",
          "type": "string"
        },
        {
          "internalType": "string",
          "name": "_symbol",
          "type": "string"
        },
        {
          "internalType": "address",
          "name": "_oracle_address",
          "type": "address"
        },
        {
          "internalType": "address",
          "name": "_owner_address",
          "type": "address"
        },
        {
          "internalType": "address",
          "name": "_timelock_address",
          "type": "address"
        }
      ],
      "stateMutability": "nonpayable",
      "type": "constructor"
    },
    {
      "anonymous": false,
      "inputs": [
        {
          "indexed": true,
          "internalType": "address",
          "name": "owner",
          "type": "address"
        },
        {
          "indexed": true,
          "internalType": "address",
          "name": "spender",
          "type": "address"
        },
        {
          "indexed": false,
          "internalType": "uint256",
          "name": "value",
          "type": "uint256"
        }
      ],
      "name": "Approval",
      "type": "event"
    },
    {
      "anonymous": false,
      "inputs": [
        {
          "indexed": true,
          "internalType": "address",
          "name": "from",
          "type": "address"
        },
        {
          "indexed": true,
          "internalType": "address",
          "name": "to",
          "type": "address"
        },
        {
          "indexed": false,
          "internalType": "uint256",
          "name": "amount",
          "type": "uint256"
        }
      ],
      "name": "CSSBurned",
      "type": "event"
    },
    {
      "anonymous": false,
      "inputs": [
        {
          "indexed": true,
          "internalType": "address",
          "name": "from",
          "type": "address"
        },
        {
          "indexed": true,
          "internalType": "address",
          "name": "to",
          "type": "address"
        },
        {
          "indexed": false,
          "internalType": "uint256",
          "name": "amount",
          "type": "uint256"
        }
      ],
      "name": "CSSMinted",
      "type": "event"
    },
    {
      "anonymous": false,
      "inputs": [
        {
          "indexed": true,
          "internalType": "bytes32",
          "name": "role",
          "type": "bytes32"
        },
        {
          "indexed": true,
          "internalType": "bytes32",
          "name": "previousAdminRole",
          "type": "bytes32"
        },
        {
          "indexed": true,
          "internalType": "bytes32",
          "name": "newAdminRole",
          "type": "bytes32"
        }
      ],
      "name": "RoleAdminChanged",
      "type": "event"
    },
    {
      "anonymous": false,
      "inputs": [
        {
          "indexed": true,
          "internalType": "bytes32",
          "name": "role",
          "type": "bytes32"
        },
        {
          "indexed": true,
          "internalType": "address",
          "name": "account",
          "type": "address"
        },
        {
          "indexed": true,
          "internalType": "address",
          "name": "sender",
          "type": "address"
        }
      ],
      "name": "RoleGranted",
      "type": "event"
    },
    {
      "anonymous": false,
      "inputs": [
        {
          "indexed": true,
          "internalType": "bytes32",
          "name": "role",
          "type": "bytes32"
        },
        {
          "indexed": true,
          "internalType": "address",
          "name": "account",
          "type": "address"
        },
        {
          "indexed": true,
          "internalType": "address",
          "name": "sender",
          "type": "address"
        }
      ],
      "name": "RoleRevoked",
      "type": "event"
    },
    {
      "anonymous": false,
      "inputs": [
        {
          "indexed": true,
          "internalType": "address",
          "name": "from",
          "type": "address"
        },
        {
          "indexed": true,
          "internalType": "address",
          "name": "to",
          "type": "address"
        },
        {
          "indexed": false,
          "internalType": "uint256",
          "name": "value",
          "type": "uint256"
        }
      ],
      "name": "Transfer",
      "type": "event"
    },
    {
      "inputs": [],
      "name": "CERES",
      "outputs": [
        {
          "internalType": "contract CEREStable",
          "name": "",
          "type": "address"
        }
      ],
      "stateMutability": "view",
      "type": "function",
      "constant": true
    },
    {
      "inputs": [],
      "name": "DEFAULT_ADMIN_ROLE",
      "outputs": [
        {
          "internalType": "bytes32",
          "name": "",
          "type": "bytes32"
        }
      ],
      "stateMutability": "view",
      "type": "function",
      "constant": true
    },
    {
      "inputs": [
        {
          "internalType": "address",
          "name": "owner",
          "type": "address"
        },
        {
          "internalType": "address",
          "name": "spender",
          "type": "address"
        }
      ],
      "name": "allowance",
      "outputs": [
        {
          "internalType": "uint256",
          "name": "",
          "type": "uint256"
        }
      ],
      "stateMutability": "view",
      "type": "function",
      "constant": true
    },
    {
      "inputs": [
        {
          "internalType": "address",
          "name": "spender",
          "type": "address"
        },
        {
          "internalType": "uint256",
          "name": "amount",
          "type": "uint256"
        }
      ],
      "name": "approve",
      "outputs": [
        {
          "internalType": "bool",
          "name": "",
          "type": "bool"
        }
      ],
      "stateMutability": "nonpayable",
      "type": "function"
    },
    {
      "inputs": [
        {
          "internalType": "address",
          "name": "account",
          "type": "address"
        }
      ],
      "name": "balanceOf",
      "outputs": [
        {
          "internalType": "uint256",
          "name": "",
          "type": "uint256"
        }
      ],
      "stateMutability": "view",
      "type": "function",
      "constant": true
    },
    {
      "inputs": [
        {
          "internalType": "uint256",
          "name": "amount",
          "type": "uint256"
        }
      ],
      "name": "burn",
      "outputs": [],
      "stateMutability": "nonpayable",
      "type": "function"
    },
    {
      "inputs": [
        {
          "internalType": "address",
          "name": "account",
          "type": "address"
        },
        {
          "internalType": "uint256",
          "name": "amount",
          "type": "uint256"
        }
      ],
      "name": "burnFrom",
      "outputs": [],
      "stateMutability": "nonpayable",
      "type": "function"
    },
    {
      "inputs": [],
      "name": "decimals",
      "outputs": [
        {
          "internalType": "uint8",
          "name": "",
          "type": "uint8"
        }
      ],
      "stateMutability": "view",
      "type": "function",
      "constant": true
    },
    {
      "inputs": [
        {
          "internalType": "address",
          "name": "spender",
          "type": "address"
        },
        {
          "internalType": "uint256",
          "name": "subtractedValue",
          "type": "uint256"
        }
      ],
      "name": "decreaseAllowance",
      "outputs": [
        {
          "internalType": "bool",
          "name": "",
          "type": "bool"
        }
      ],
      "stateMutability": "nonpayable",
      "type": "function"
    },
    {
      "inputs": [],
      "name": "genesis_supply",
      "outputs": [
        {
          "internalType": "uint256",
          "name": "",
          "type": "uint256"
        }
      ],
      "stateMutability": "view",
      "type": "function",
      "constant": true
    },
    {
      "inputs": [
        {
          "internalType": "bytes32",
          "name": "role",
          "type": "bytes32"
        }
      ],
      "name": "getRoleAdmin",
      "outputs": [
        {
          "internalType": "bytes32",
          "name": "",
          "type": "bytes32"
        }
      ],
      "stateMutability": "view",
      "type": "function",
      "constant": true
    },
    {
      "inputs": [
        {
          "internalType": "bytes32",
          "name": "role",
          "type": "bytes32"
        },
        {
          "internalType": "uint256",
          "name": "index",
          "type": "uint256"
        }
      ],
      "name": "getRoleMember",
      "outputs": [
        {
          "internalType": "address",
          "name": "",
          "type": "address"
        }
      ],
      "stateMutability": "view",
      "type": "function",
      "constant": true
    },
    {
      "inputs": [
        {
          "internalType": "bytes32",
          "name": "role",
          "type": "bytes32"
        }
      ],
      "name": "getRoleMemberCount",
      "outputs": [
        {
          "internalType": "uint256",
          "name": "",
          "type": "uint256"
        }
      ],
      "stateMutability": "view",
      "type": "function",
      "constant": true
    },
    {
      "inputs": [
        {
          "internalType": "bytes32",
          "name": "role",
          "type": "bytes32"
        },
        {
          "internalType": "address",
          "name": "account",
          "type": "address"
        }
      ],
      "name": "grantRole",
      "outputs": [],
      "stateMutability": "nonpayable",
      "type": "function"
    },
    {
      "inputs": [
        {
          "internalType": "bytes32",
          "name": "role",
          "type": "bytes32"
        },
        {
          "internalType": "address",
          "name": "account",
          "type": "address"
        }
      ],
      "name": "hasRole",
      "outputs": [
        {
          "internalType": "bool",
          "name": "",
          "type": "bool"
        }
      ],
      "stateMutability": "view",
      "type": "function",
      "constant": true
    },
    {
      "inputs": [
        {
          "internalType": "address",
          "name": "spender",
          "type": "address"
        },
        {
          "internalType": "uint256",
          "name": "addedValue",
          "type": "uint256"
        }
      ],
      "name": "increaseAllowance",
      "outputs": [
        {
          "internalType": "bool",
          "name": "",
          "type": "bool"
        }
      ],
      "stateMutability": "nonpayable",
      "type": "function"
    },
    {
      "inputs": [],
      "name": "name",
      "outputs": [
        {
          "internalType": "string",
          "name": "",
          "type": "string"
        }
      ],
      "stateMutability": "view",
      "type": "function",
      "constant": true
    },
    {
      "inputs": [],
      "name": "oracle_address",
      "outputs": [
        {
          "internalType": "address",
          "name": "",
          "type": "address"
        }
      ],
      "stateMutability": "view",
      "type": "function",
      "constant": true
    },
    {
      "inputs": [],
      "name": "owner_address",
      "outputs": [
        {
          "internalType": "address",
          "name": "",
          "type": "address"
        }
      ],
      "stateMutability": "view",
      "type": "function",
      "constant": true
    },
    {
      "inputs": [
        {
          "internalType": "bytes32",
          "name": "role",
          "type": "bytes32"
        },
        {
          "internalType": "address",
          "name": "account",
          "type": "address"
        }
      ],
      "name": "renounceRole",
      "outputs": [],
      "stateMutability": "nonpayable",
      "type": "function"
    },
    {
      "inputs": [
        {
          "internalType": "bytes32",
          "name": "role",
          "type": "bytes32"
        },
        {
          "internalType": "address",
          "name": "account",
          "type": "address"
        }
      ],
      "name": "revokeRole",
      "outputs": [],
      "stateMutability": "nonpayable",
      "type": "function"
    },
    {
      "inputs": [],
      "name": "symbol",
      "outputs": [
        {
          "internalType": "string",
          "name": "",
          "type": "string"
        }
      ],
      "stateMutability": "view",
      "type": "function",
      "constant": true
    },
    {
      "inputs": [],
      "name": "timelock_address",
      "outputs": [
        {
          "internalType": "address",
          "name": "",
          "type": "address"
        }
      ],
      "stateMutability": "view",
      "type": "function",
      "constant": true
    },
    {
      "inputs": [],
      "name": "totalSupply",
      "outputs": [
        {
          "internalType": "uint256",
          "name": "",
          "type": "uint256"
        }
      ],
      "stateMutability": "view",
      "type": "function",
      "constant": true
    },
    {
      "inputs": [
        {
          "internalType": "address",
          "name": "recipient",
          "type": "address"
        },
        {
          "internalType": "uint256",
          "name": "amount",
          "type": "uint256"
        }
      ],
      "name": "transfer",
      "outputs": [
        {
          "internalType": "bool",
          "name": "",
          "type": "bool"
        }
      ],
      "stateMutability": "nonpayable",
      "type": "function"
    },
    {
      "inputs": [
        {
          "internalType": "address",
          "name": "sender",
          "type": "address"
        },
        {
          "internalType": "address",
          "name": "recipient",
          "type": "address"
        },
        {
          "internalType": "uint256",
          "name": "amount",
          "type": "uint256"
        }
      ],
      "name": "transferFrom",
      "outputs": [
        {
          "internalType": "bool",
          "name": "",
          "type": "bool"
        }
      ],
      "stateMutability": "nonpayable",
      "type": "function"
    },
    {
      "inputs": [
        {
          "internalType": "address",
          "name": "new_oracle",
          "type": "address"
        }
      ],
      "name": "setOracle",
      "outputs": [],
      "stateMutability": "nonpayable",
      "type": "function"
    },
    {
      "inputs": [
        {
          "internalType": "address",
          "name": "_owner_address",
          "type": "address"
        }
      ],
      "name": "setOwner",
      "outputs": [],
      "stateMutability": "nonpayable",
      "type": "function"
    },
    {
      "inputs": [
        {
          "internalType": "address",
          "name": "new_timelock",
          "type": "address"
        }
      ],
      "name": "setTimelock",
      "outputs": [],
      "stateMutability": "nonpayable",
      "type": "function"
    },
    {
      "inputs": [
        {
          "internalType": "address",
          "name": "ceres_contract_address",
          "type": "address"
        }
      ],
      "name": "setCERESAddress",
      "outputs": [],
      "stateMutability": "nonpayable",
      "type": "function"
    },
    {
      "inputs": [
        {
          "internalType": "address",
          "name": "b_address",
          "type": "address"
        },
        {
          "internalType": "uint256",
          "name": "b_amount",
          "type": "uint256"
        }
      ],
      "name": "pool_burn_from",
      "outputs": [],
      "stateMutability": "nonpayable",
      "type": "function"
    },
    {
      "inputs": [
        {
          "internalType": "address",
          "name": "m_address",
          "type": "address"
        },
        {
          "internalType": "uint256",
          "name": "m_amount",
          "type": "uint256"
        }
      ],
      "name": "pool_mint",
      "outputs": [],
      "stateMutability": "nonpayable",
      "type": "function"
    }
  ],
  "bytecode": "0x60806040523480156200001157600080fd5b50604051620024773803806200247783398101604081905262000034916200033e565b845162000049906005906020880190620001e3565b5083516200005f906004906020870190620001e3565b50600780546001600160a01b038086166001600160a01b03199283161790925560068054858416908316179081905560088054858516931692909217909155620000b691166a52b7d2dcc80cd2e4000000620000c1565b505050505062000457565b6001600160a01b038216620000f35760405162461bcd60e51b8152600401620000ea9062000417565b60405180910390fd5b6200010160008383620001ad565b6200011d81600254620001b260201b62000f6f1790919060201c565b6002556001600160a01b038216600090815260208181526040909120546200015091839062000f6f620001b2821b17901c565b6001600160a01b0383166000818152602081905260408082209390935591519091907fddf252ad1be2c89b69c2b068fc378daa952ba7f163c4a11628f55a4df523b3ef90620001a19085906200044e565b60405180910390a35050565b505050565b600082820183811015620001da5760405162461bcd60e51b8152600401620000ea90620003e0565b90505b92915050565b828054600181600116156101000203166002900490600052602060002090601f016020900481019282601f106200022657805160ff191683800117855562000256565b8280016001018555821562000256579182015b828111156200025657825182559160200191906001019062000239565b506200026492915062000268565b5090565b5b8082111562000264576000815560010162000269565b80516001600160a01b0381168114620001dd57600080fd5b600082601f830112620002a8578081fd5b81516001600160401b0380821115620002bf578283fd5b6040516020601f8401601f1916820181018381118382101715620002e1578586fd5b80604052508194508382528681858801011115620002fe57600080fd5b600092505b8383101562000322578583018101518284018201529182019162000303565b83831115620003345760008185840101525b5050505092915050565b600080600080600060a0868803121562000356578081fd5b85516001600160401b03808211156200036d578283fd5b6200037b89838a0162000297565b9650602088015191508082111562000391578283fd5b50620003a08882890162000297565b945050620003b287604088016200027f565b9250620003c387606088016200027f565b9150620003d487608088016200027f565b90509295509295909350565b6020808252601b908201527f536166654d6174683a206164646974696f6e206f766572666c6f770000000000604082015260600190565b6020808252601f908201527f45524332303a206d696e7420746f20746865207a65726f206164647265737300604082015260600190565b90815260200190565b61201080620004676000396000f3fe608060405234801561001057600080fd5b50600436106101f05760003560e01c80637e0c17921161010f578063a9059cbb116100a2578063ca15c87311610071578063ca15c873146103f2578063d547741f14610405578063dc6663c714610418578063dd62ed3e14610420576101f0565b8063a9059cbb146103b1578063b442927f146103c4578063b4f56b26146103cc578063bdacb303146103df576101f0565b806395d89b41116100de57806395d89b411461037b578063a217fddf14610383578063a457c2d71461038b578063a8a778ae1461039e576101f0565b80637e0c17921461033857806380edef8e1461034d5780639010d07c1461035557806391d1485414610368576101f0565b806336568abe11610187578063681103631161015657806368110363146102ec57806370a08231146102ff57806379cc6790146103125780637adbf97314610325576101f0565b806336568abe146102ab57806339509351146102be57806342966c68146102d157806351e238e3146102e4576101f0565b806323b872dd116101c357806323b872dd1461025d578063248a9ca3146102705780632f2ff15d14610283578063313ce56714610296576101f0565b806306fdde03146101f5578063095ea7b31461021357806313af40351461023357806318160ddd14610248575b600080fd5b6101fd610433565b60405161020a9190611a13565b60405180910390f35b61022661022136600461192c565b6104df565b60405161020a91906119ff565b61024661024136600461189d565b6104fd565b005b6102506105c0565b60405161020a9190611a0a565b61022661026b3660046118ec565b6105c6565b61025061027e366004611976565b610667565b61024661029136600461198e565b61067c565b61029e6106de565b60405161020a9190611ef1565b6102466102b936600461198e565b6106e3565b6102266102cc36600461192c565b610759565b6102466102df366004611976565b6107b4565b6102506107c8565b6102466102fa36600461189d565b6107d7565b61025061030d36600461189d565b610891565b61024661032036600461192c565b6108b9565b61024661033336600461189d565b61090e565b6103406109c8565b60405161020a91906119de565b6103406109e4565b6103406103633660046119bd565b610a00565b61022661037636600461198e565b610a1f565b6101fd610a37565b610250610ab0565b61022661039936600461192c565b610ab5565b6102466103ac36600461192c565b610b2a565b6102266103bf36600461192c565b610c7e565b610340610c92565b6102466103da36600461192c565b610cae565b6102466103ed36600461189d565b610df6565b610250610400366004611976565b610eb0565b61024661041336600461198e565b610ec7565b610340610f1b565b61025061042e3660046118b8565b610f37565b6005805460408051602060026001851615610100027fffffffffffffffffffffffffffffffffffffffffffffffffffffffffffffffff0190941693909304601f810184900484028201840190925281815292918301828280156104d75780601f106104ac576101008083540402835291602001916104d7565b820191906000526020600020905b8154815290600101906020018083116104ba57829003601f168201915b505050505081565b60006104f36104ec610fae565b8484610fb2565b5060015b92915050565b60065473ffffffffffffffffffffffffffffffffffffffff1633148061053a575060085473ffffffffffffffffffffffffffffffffffffffff1633145b610579576040517f08c379a000000000000000000000000000000000000000000000000000000000815260040161057090611e00565b60405180910390fd5b600680547fffffffffffffffffffffffff00000000000000000000000000000000000000001673ffffffffffffffffffffffffffffffffffffffff92909216919091179055565b60025490565b60006105d38484846110c1565b61065d846105df610fae565b61065885604051806060016040528060288152602001611f6a6028913973ffffffffffffffffffffffffffffffffffffffff8a1660009081526001602052604081209061062a610fae565b73ffffffffffffffffffffffffffffffffffffffff168152602081019190915260400160002054919061124b565b610fb2565b5060019392505050565b60009081526003602052604090206002015490565b60008281526003602052604090206002015461069a90610376610fae565b6106d0576040517f08c379a000000000000000000000000000000000000000000000000000000000815260040161057090611b3e565b6106da8282611291565b5050565b601281565b6106eb610fae565b73ffffffffffffffffffffffffffffffffffffffff168173ffffffffffffffffffffffffffffffffffffffff161461074f576040517f08c379a000000000000000000000000000000000000000000000000000000000815260040161057090611e5d565b6106da8282611314565b60006104f3610766610fae565b846106588560016000610777610fae565b73ffffffffffffffffffffffffffffffffffffffff908116825260208083019390935260409182016000908120918c168152925290205490610f6f565b6107c56107bf610fae565b82611397565b50565b6a52b7d2dcc80cd2e400000081565b60065473ffffffffffffffffffffffffffffffffffffffff16331480610814575060085473ffffffffffffffffffffffffffffffffffffffff1633145b61084a576040517f08c379a000000000000000000000000000000000000000000000000000000000815260040161057090611e00565b600980547fffffffffffffffffffffffff00000000000000000000000000000000000000001673ffffffffffffffffffffffffffffffffffffffff92909216919091179055565b73ffffffffffffffffffffffffffffffffffffffff1660009081526020819052604090205490565b60006108eb82604051806060016040528060248152602001611f92602491396108e48661042e610fae565b919061124b565b90506108ff836108f9610fae565b83610fb2565b6109098383611397565b505050565b60065473ffffffffffffffffffffffffffffffffffffffff1633148061094b575060085473ffffffffffffffffffffffffffffffffffffffff1633145b610981576040517f08c379a000000000000000000000000000000000000000000000000000000000815260040161057090611e00565b600780547fffffffffffffffffffffffff00000000000000000000000000000000000000001673ffffffffffffffffffffffffffffffffffffffff92909216919091179055565b60075473ffffffffffffffffffffffffffffffffffffffff1681565b60065473ffffffffffffffffffffffffffffffffffffffff1681565b6000828152600360205260408120610a1890836114bb565b9392505050565b6000828152600360205260408120610a1890836114c7565b6004805460408051602060026001851615610100027fffffffffffffffffffffffffffffffffffffffffffffffffffffffffffffffff0190941693909304601f810184900484028201840190925281815292918301828280156104d75780601f106104ac576101008083540402835291602001916104d7565b600081565b60006104f3610ac2610fae565b8461065885604051806060016040528060258152602001611fb66025913960016000610aec610fae565b73ffffffffffffffffffffffffffffffffffffffff908116825260208083019390935260409182016000908120918d1681529252902054919061124b565b6009546040517f079d89b700000000000000000000000000000000000000000000000000000000815273ffffffffffffffffffffffffffffffffffffffff9091169063079d89b790610b809033906004016119de565b60206040518083038186803b158015610b9857600080fd5b505afa158015610bac573d6000803e3d6000fd5b505050506040513d601f19601f82011682018060405250810190610bd09190611956565b1515600114610c0b576040517f08c379a000000000000000000000000000000000000000000000000000000000815260040161057090611c8c565b610c1582826114e9565b3073ffffffffffffffffffffffffffffffffffffffff168273ffffffffffffffffffffffffffffffffffffffff167f3de29daca45f5b37e0aee09130f7a953492543441989003b4b92027c1ebc7e3983604051610c729190611a0a565b60405180910390a35050565b60006104f3610c8b610fae565b84846110c1565b60095473ffffffffffffffffffffffffffffffffffffffff1681565b6009546040517f079d89b700000000000000000000000000000000000000000000000000000000815273ffffffffffffffffffffffffffffffffffffffff9091169063079d89b790610d049033906004016119de565b60206040518083038186803b158015610d1c57600080fd5b505afa158015610d30573d6000803e3d6000fd5b505050506040513d601f19601f82011682018060405250810190610d549190611956565b1515600114610d8f576040517f08c379a000000000000000000000000000000000000000000000000000000000815260040161057090611c8c565b610d99828261154a565b8173ffffffffffffffffffffffffffffffffffffffff163073ffffffffffffffffffffffffffffffffffffffff167f160b77ce90a241f9144eac9c77ef9176ac4be733e854b00c446147d07dad876083604051610c729190611a0a565b60065473ffffffffffffffffffffffffffffffffffffffff16331480610e33575060085473ffffffffffffffffffffffffffffffffffffffff1633145b610e69576040517f08c379a000000000000000000000000000000000000000000000000000000000815260040161057090611e00565b600880547fffffffffffffffffffffffff00000000000000000000000000000000000000001673ffffffffffffffffffffffffffffffffffffffff92909216919091179055565b60008181526003602052604081206104f79061163f565b600082815260036020526040902060020154610ee590610376610fae565b61074f576040517f08c379a000000000000000000000000000000000000000000000000000000000815260040161057090611c2f565b60085473ffffffffffffffffffffffffffffffffffffffff1681565b73ffffffffffffffffffffffffffffffffffffffff918216600090815260016020908152604080832093909416825291909152205490565b600082820183811015610a18576040517f08c379a000000000000000000000000000000000000000000000000000000000815260040161057090611bf8565b3390565b73ffffffffffffffffffffffffffffffffffffffff8316610fff576040517f08c379a000000000000000000000000000000000000000000000000000000000815260040161057090611da3565b73ffffffffffffffffffffffffffffffffffffffff821661104c576040517f08c379a000000000000000000000000000000000000000000000000000000000815260040161057090611b9b565b73ffffffffffffffffffffffffffffffffffffffff80841660008181526001602090815260408083209487168084529490915290819020849055517f8c5be1e5ebec7d5bd14f71427d1e84f3dd0314c0f7b2291e5b200ac8c7c3b925906110b4908590611a0a565b60405180910390a3505050565b73ffffffffffffffffffffffffffffffffffffffff831661110e576040517f08c379a000000000000000000000000000000000000000000000000000000000815260040161057090611d46565b73ffffffffffffffffffffffffffffffffffffffff821661115b576040517f08c379a000000000000000000000000000000000000000000000000000000000815260040161057090611ae1565b611166838383610909565b6111b081604051806060016040528060268152602001611f446026913973ffffffffffffffffffffffffffffffffffffffff8616600090815260208190526040902054919061124b565b73ffffffffffffffffffffffffffffffffffffffff80851660009081526020819052604080822093909355908416815220546111ec9082610f6f565b73ffffffffffffffffffffffffffffffffffffffff80841660008181526020819052604090819020939093559151908516907fddf252ad1be2c89b69c2b068fc378daa952ba7f163c4a11628f55a4df523b3ef906110b4908590611a0a565b60008184841115611289576040517f08c379a00000000000000000000000000000000000000000000000000000000081526004016105709190611a13565b505050900390565b60008281526003602052604090206112a9908261164a565b156106da576112b6610fae565b73ffffffffffffffffffffffffffffffffffffffff168173ffffffffffffffffffffffffffffffffffffffff16837f2f8788117e7eff1d82e926ec794901d17c78024a50270940304540a733656f0d60405160405180910390a45050565b600082815260036020526040902061132c908261166c565b156106da57611339610fae565b73ffffffffffffffffffffffffffffffffffffffff168173ffffffffffffffffffffffffffffffffffffffff16837ff6391f5c32d9c69d2a47ea670b442974b53935d1edc7fd64eb21e047a839171b60405160405180910390a45050565b73ffffffffffffffffffffffffffffffffffffffff82166113e4576040517f08c379a000000000000000000000000000000000000000000000000000000000815260040161057090611ce9565b6113f082600083610909565b61143a81604051806060016040528060228152602001611f226022913973ffffffffffffffffffffffffffffffffffffffff8516600090815260208190526040902054919061124b565b73ffffffffffffffffffffffffffffffffffffffff831660009081526020819052604090205560025461146d908261168e565b60025560405160009073ffffffffffffffffffffffffffffffffffffffff8416907fddf252ad1be2c89b69c2b068fc378daa952ba7f163c4a11628f55a4df523b3ef90610c72908590611a0a565b6000610a1883836116d0565b6000610a188373ffffffffffffffffffffffffffffffffffffffff841661172f565b6114f38282611397565b6106da826114ff610fae565b61065884604051806060016040528060248152602001611f926024913973ffffffffffffffffffffffffffffffffffffffff881660009081526001602052604081209061062a610fae565b73ffffffffffffffffffffffffffffffffffffffff8216611597576040517f08c379a000000000000000000000000000000000000000000000000000000000815260040161057090611eba565b6115a360008383610909565b6002546115b09082610f6f565b60025573ffffffffffffffffffffffffffffffffffffffff82166000908152602081905260409020546115e39082610f6f565b73ffffffffffffffffffffffffffffffffffffffff83166000818152602081905260408082209390935591519091907fddf252ad1be2c89b69c2b068fc378daa952ba7f163c4a11628f55a4df523b3ef90610c72908590611a0a565b60006104f782611747565b6000610a188373ffffffffffffffffffffffffffffffffffffffff841661174b565b6000610a188373ffffffffffffffffffffffffffffffffffffffff8416611795565b6000610a1883836040518060400160405280601e81526020017f536166654d6174683a207375627472616374696f6e206f766572666c6f77000081525061124b565b8154600090821061170d576040517f08c379a000000000000000000000000000000000000000000000000000000000815260040161057090611a84565b82600001828154811061171c57fe5b9060005260206000200154905092915050565b60009081526001919091016020526040902054151590565b5490565b6000611757838361172f565b61178d575081546001818101845560008481526020808220909301849055845484825282860190935260409020919091556104f7565b5060006104f7565b6000818152600183016020526040812054801561186f5783547fffffffffffffffffffffffffffffffffffffffffffffffffffffffffffffffff80830191908101906000908790839081106117e657fe5b906000526020600020015490508087600001848154811061180357fe5b60009182526020808320909101929092558281526001898101909252604090209084019055865487908061183357fe5b600190038181906000526020600020016000905590558660010160008781526020019081526020016000206000905560019450505050506104f7565b60009150506104f7565b803573ffffffffffffffffffffffffffffffffffffffff811681146104f757600080fd5b6000602082840312156118ae578081fd5b610a188383611879565b600080604083850312156118ca578081fd5b6118d48484611879565b91506118e38460208501611879565b90509250929050565b600080600060608486031215611900578081fd5b833561190b81611eff565b9250602084013561191b81611eff565b929592945050506040919091013590565b6000806040838503121561193e578182fd5b6119488484611879565b946020939093013593505050565b600060208284031215611967578081fd5b81518015158114610a18578182fd5b600060208284031215611987578081fd5b5035919050565b600080604083850312156119a0578182fd5b8235915060208301356119b281611eff565b809150509250929050565b600080604083850312156119cf578182fd5b50508035926020909101359150565b73ffffffffffffffffffffffffffffffffffffffff91909116815260200190565b901515815260200190565b90815260200190565b6000602080835283518082850152825b81811015611a3f57858101830151858201604001528201611a23565b81811115611a505783604083870101525b50601f017fffffffffffffffffffffffffffffffffffffffffffffffffffffffffffffffe016929092016040019392505050565b60208082526022908201527f456e756d657261626c655365743a20696e646578206f7574206f6620626f756e60408201527f6473000000000000000000000000000000000000000000000000000000000000606082015260800190565b60208082526023908201527f45524332303a207472616e7366657220746f20746865207a65726f206164647260408201527f6573730000000000000000000000000000000000000000000000000000000000606082015260800190565b6020808252602f908201527f416363657373436f6e74726f6c3a2073656e646572206d75737420626520616e60408201527f2061646d696e20746f206772616e740000000000000000000000000000000000606082015260800190565b60208082526022908201527f45524332303a20617070726f766520746f20746865207a65726f20616464726560408201527f7373000000000000000000000000000000000000000000000000000000000000606082015260800190565b6020808252601b908201527f536166654d6174683a206164646974696f6e206f766572666c6f770000000000604082015260600190565b60208082526030908201527f416363657373436f6e74726f6c3a2073656e646572206d75737420626520616e60408201527f2061646d696e20746f207265766f6b6500000000000000000000000000000000606082015260800190565b60208082526023908201527f4f6e6c7920636572657320706f6f6c732063616e206d696e74206e657720636560408201527f7265730000000000000000000000000000000000000000000000000000000000606082015260800190565b60208082526021908201527f45524332303a206275726e2066726f6d20746865207a65726f2061646472657360408201527f7300000000000000000000000000000000000000000000000000000000000000606082015260800190565b60208082526025908201527f45524332303a207472616e736665722066726f6d20746865207a65726f20616460408201527f6472657373000000000000000000000000000000000000000000000000000000606082015260800190565b60208082526024908201527f45524332303a20617070726f76652066726f6d20746865207a65726f2061646460408201527f7265737300000000000000000000000000000000000000000000000000000000606082015260800190565b6020808252602f908201527f596f7520617265206e6f7420616e206f776e6572206f722074686520676f766560408201527f726e616e63652074696d656c6f636b0000000000000000000000000000000000606082015260800190565b6020808252602f908201527f416363657373436f6e74726f6c3a2063616e206f6e6c792072656e6f756e636560408201527f20726f6c657320666f722073656c660000000000000000000000000000000000606082015260800190565b6020808252601f908201527f45524332303a206d696e7420746f20746865207a65726f206164647265737300604082015260600190565b60ff91909116815260200190565b73ffffffffffffffffffffffffffffffffffffffff811681146107c557600080fdfe45524332303a206275726e20616d6f756e7420657863656564732062616c616e636545524332303a207472616e7366657220616d6f756e7420657863656564732062616c616e636545524332303a207472616e7366657220616d6f756e74206578636565647320616c6c6f77616e636545524332303a206275726e20616d6f756e74206578636565647320616c6c6f77616e636545524332303a2064656372656173656420616c6c6f77616e63652062656c6f77207a65726fa2646970667358221220522a23f374a0d36b8c17b9e9b980728e59b4949f34476fcae9864f16272dab5564736f6c634300060c0033",
  "immutableReferences": {},
  "source": "// SPDX-License-Identifier: MIT\npragma solidity 0.6.12;\npragma experimental ABIEncoderV2;\n\nimport \"../Common/Context.sol\";\nimport \"../ERC20/ERC20Custom.sol\";\nimport \"../ERC20/IERC20.sol\";\nimport \"../Ceres/Ceres.sol\";\nimport \"../Math/SafeMath.sol\";\nimport \"../Governance/AccessControl.sol\";\n\ncontract CEREShares is ERC20Custom, AccessControl {\n    using SafeMath for uint256;\n\n    /* ========== STATE VARIABLES ========== */\n\n    string public symbol; //TEST CASE DONE\n    string public name; //TEST CASE DONE\n    uint8 public constant decimals = 18;  //TEST CASE DONE \n    uint256 public constant genesis_supply = 100000000e18; //TEST CASE DONE\n    \n    address public owner_address; //TEST CASE DONE\n    address public oracle_address; //TEST CASE DONE\n    \n    address public timelock_address; // Governance timelock address //TEST CASE DONE\n    CEREStable public CERES; //PRIVATE, NOTHING TO DO\n\n\n    /* ========== MODIFIERS ========== */\n\n    modifier onlyPools() {\n       require(CERES.ceres_pools(msg.sender) == true, \"Only ceres pools can mint new ceres\");\n        _;\n    } \n    \n    modifier onlyByOwnerOrGovernance() {\n        require(msg.sender == owner_address || msg.sender == timelock_address, \"You are not an owner or the governance timelock\");\n        _;\n    }\n\n    /* ========== CONSTRUCTOR ========== */\n    //TEST CASE DONE\n    constructor(\n        string memory _name,\n        string memory _symbol, \n        address _oracle_address,\n        address _owner_address,\n        address _timelock_address\n    ) public {\n        name = _name;\n        symbol = _symbol;\n        oracle_address = _oracle_address;\n        owner_address = _owner_address;\n        timelock_address = _timelock_address;\n        _mint(owner_address, genesis_supply);\n    }\n\n    /* ========== RESTRICTED FUNCTIONS ========== */\n    //TEST CASE DONE\n    function setOracle(address new_oracle) external onlyByOwnerOrGovernance {\n        oracle_address = new_oracle;\n    }\n    //TEST CASE DONE\n    function setOwner(address _owner_address) external onlyByOwnerOrGovernance {\n        owner_address = _owner_address;\n    }\n    //TEST CASE DONE\n    function setTimelock(address new_timelock) external onlyByOwnerOrGovernance {\n        timelock_address = new_timelock;\n    }\n    //TEST CASE DONE\n    function setCERESAddress(address ceres_contract_address) external onlyByOwnerOrGovernance {\n        CERES = CEREStable(ceres_contract_address);\n    }\n    //TEST CASE DONE\n    function pool_burn_from(address b_address, uint256 b_amount) external onlyPools {\n        // if(trackingVotes){\n        //     trackVotes(b_address, address(this), uint96(b_amount));\n        //     uint32 srcRepNum = numCheckpoints[address(this)];\n        //     uint96 srcRepOld = srcRepNum > 0 ? checkpoints[address(this)][srcRepNum - 1].votes : 0;\n        //     uint96 srcRepNew = sub96(srcRepOld, uint96(b_amount), \"pool_burn_from new votes underflows\");\n        //     _writeCheckpoint(address(this), srcRepNum, srcRepOld, srcRepNew); // burn votes\n        // }\n\n        super._burnFrom(b_address, b_amount);\n        emit CSSBurned(b_address, address(this), b_amount);\n    }\n\n    //TEST CASE DONE\n    function pool_mint(address m_address, uint256 m_amount) external onlyPools {        \n        // if(trackingVotes){\n        //     uint32 srcRepNum = numCheckpoints[address(this)];\n        //     uint96 srcRepOld = srcRepNum > 0 ? checkpoints[address(this)][srcRepNum - 1].votes : 0;\n        //     uint96 srcRepNew = add96(srcRepOld, uint96(m_amount), \"pool_mint new votes overflows\");\n        //     _writeCheckpoint(address(this), srcRepNum, srcRepOld, srcRepNew); // mint new votes\n        //     trackVotes(address(this), m_address, uint96(m_amount));\n        // }\n\n        super._mint(m_address, m_amount);\n        emit CSSMinted(address(this), m_address, m_amount);\n    }\n    \n    /* ========== EVENTS ========== */\n\n    // Track CSS burned\n    event CSSBurned(address indexed from, address indexed to, uint256 amount);\n\n    // Track CSS minted\n    event CSSMinted(address indexed from, address indexed to, uint256 amount);\n\n}\n",
  "sourcePath": "/Users/cooper/GitHub/Prigogine/Ceres-Protocol/contracts/CSS/CSS.sol",
  "compiler": {
    "name": "solc",
    "version": "0.6.12+commit.27d51765.Emscripten.clang"
  },
  "schemaVersion": "3.4.1",
  "updatedAt": "2021-07-29T03:47:51.223Z",
  "networkType": "ethereum",
  "devdoc": {
    "kind": "dev",
    "methods": {
      "allowance(address,address)": {
        "details": "See {IERC20-allowance}."
      },
      "approve(address,uint256)": {
        "details": "See {IERC20-approve}. Requirements: - `spender` cannot be the zero address.approve(address spender, uint256 amount)"
      },
      "balanceOf(address)": {
        "details": "See {IERC20-balanceOf}."
      },
      "burn(uint256)": {
        "details": "Destroys `amount` tokens from the caller. See {ERC20-_burn}."
      },
      "burnFrom(address,uint256)": {
        "details": "Destroys `amount` tokens from `account`, deducting from the caller's allowance. See {ERC20-_burn} and {ERC20-allowance}. Requirements: - the caller must have allowance for `accounts`'s tokens of at least `amount`."
      },
      "decreaseAllowance(address,uint256)": {
        "details": "Atomically decreases the allowance granted to `spender` by the caller. This is an alternative to {approve} that can be used as a mitigation for problems described in {IERC20-approve}. Emits an {Approval} event indicating the updated allowance. Requirements: - `spender` cannot be the zero address. - `spender` must have allowance for the caller of at least `subtractedValue`."
      },
      "getRoleAdmin(bytes32)": {
        "details": "Returns the admin role that controls `role`. See {grantRole} and {revokeRole}. To change a role's admin, use {_setRoleAdmin}."
      },
      "getRoleMember(bytes32,uint256)": {
        "details": "Returns one of the accounts that have `role`. `index` must be a value between 0 and {getRoleMemberCount}, non-inclusive. Role bearers are not sorted in any particular way, and their ordering may change at any point. WARNING: When using {getRoleMember} and {getRoleMemberCount}, make sure you perform all queries on the same block. See the following https://forum.openzeppelin.com/t/iterating-over-elements-on-enumerableset-in-openzeppelin-contracts/2296[forum post] for more information."
      },
      "getRoleMemberCount(bytes32)": {
        "details": "Returns the number of accounts that have `role`. Can be used together with {getRoleMember} to enumerate all bearers of a role."
      },
      "grantRole(bytes32,address)": {
        "details": "Grants `role` to `account`. If `account` had not been already granted `role`, emits a {RoleGranted} event. Requirements: - the caller must have ``role``'s admin role."
      },
      "hasRole(bytes32,address)": {
        "details": "Returns `true` if `account` has been granted `role`."
      },
      "increaseAllowance(address,uint256)": {
        "details": "Atomically increases the allowance granted to `spender` by the caller. This is an alternative to {approve} that can be used as a mitigation for problems described in {IERC20-approve}. Emits an {Approval} event indicating the updated allowance. Requirements: - `spender` cannot be the zero address."
      },
      "renounceRole(bytes32,address)": {
        "details": "Revokes `role` from the calling account. Roles are often managed via {grantRole} and {revokeRole}: this function's purpose is to provide a mechanism for accounts to lose their privileges if they are compromised (such as when a trusted device is misplaced). If the calling account had been granted `role`, emits a {RoleRevoked} event. Requirements: - the caller must be `account`."
      },
      "revokeRole(bytes32,address)": {
        "details": "Revokes `role` from `account`. If `account` had been granted `role`, emits a {RoleRevoked} event. Requirements: - the caller must have ``role``'s admin role."
      },
      "totalSupply()": {
        "details": "See {IERC20-totalSupply}."
      },
      "transfer(address,uint256)": {
        "details": "See {IERC20-transfer}. Requirements: - `recipient` cannot be the zero address. - the caller must have a balance of at least `amount`."
      },
      "transferFrom(address,address,uint256)": {
        "details": "See {IERC20-transferFrom}. Emits an {Approval} event indicating the updated allowance. This is not required by the EIP. See the note at the beginning of {ERC20}; Requirements: - `sender` and `recipient` cannot be the zero address. - `sender` must have a balance of at least `amount`. - the caller must have allowance for `sender`'s tokens of at least `amount`."
      }
    },
    "version": 1
  },
  "userdoc": {
    "kind": "user",
    "methods": {},
    "version": 1
  }
}