{
  "contractName": "ChainlinkETHUSDPriceConsumer",
  "abi": [
    {
      "inputs": [],
      "stateMutability": "nonpayable",
      "type": "constructor"
    },
    {
      "inputs": [],
      "name": "getLatestPrice",
      "outputs": [
        {
          "internalType": "int256",
          "name": "",
          "type": "int256"
        }
      ],
      "stateMutability": "view",
      "type": "function"
    },
    {
      "inputs": [],
      "name": "getDecimals",
      "outputs": [
        {
          "internalType": "uint8",
          "name": "",
          "type": "uint8"
        }
      ],
      "stateMutability": "view",
      "type": "function"
    }
  ],
  "bytecode": "0x608060405234801561001057600080fd5b50600080546001600160a01b031916735f4ec3df9cbd43714fe2740f5e3616155c5b84191790556102a8806100466000396000f3fe608060405234801561001057600080fd5b50600436106100365760003560e01c80638e15f4731461003b578063f0141d8414610059575b600080fd5b61004361006e565b604051610050919061025b565b60405180910390f35b61006161011c565b6040516100509190610264565b60008054604080517ffeaf968c0000000000000000000000000000000000000000000000000000000081529051839273ffffffffffffffffffffffffffffffffffffffff169163feaf968c9160048083019260a0929190829003018186803b1580156100d957600080fd5b505afa1580156100ed573d6000803e3d6000fd5b505050506040513d601f19601f8201168201806040525081019061011191906101e2565b509194505050505090565b60008060009054906101000a900473ffffffffffffffffffffffffffffffffffffffff1673ffffffffffffffffffffffffffffffffffffffff1663313ce5676040518163ffffffff1660e01b815260040160206040518083038186803b15801561018557600080fd5b505afa158015610199573d6000803e3d6000fd5b505050506040513d601f19601f820116820180604052508101906101bd9190610233565b905090565b805169ffffffffffffffffffff811681146101dc57600080fd5b92915050565b600080600080600060a086880312156101f9578081fd5b61020387876101c2565b945060208601519350604086015192506060860151915061022787608088016101c2565b90509295509295909350565b600060208284031215610244578081fd5b815160ff81168114610254578182fd5b9392505050565b90815260200190565b60ff9190911681526020019056fea26469706673582212205a58e6a25030e9b4442dd7a076ac1b67b27e74f78434ee72bbbed367e378728664736f6c634300060c0033",
  "immutableReferences": {},
  "source": "// SPDX-License-Identifier: MIT\npragma solidity 0.6.12;\npragma experimental ABIEncoderV2;\n\nimport \"./AggregatorV3Interface.sol\";\n\ncontract ChainlinkETHUSDPriceConsumer {\n\n    AggregatorV3Interface internal priceFeed;\n\n\n    constructor() public {\n        priceFeed = AggregatorV3Interface(0x5f4eC3Df9cbd43714FE2740f5E3616155c5b8419);\n    }\n\n    /**\n     * Returns the latest price\n     */\n    function getLatestPrice() public view returns (int) {\n        (\n            , \n            int price,\n            ,\n            ,\n            \n        ) = priceFeed.latestRoundData();\n        return price;\n    }\n\n    function getDecimals() public view returns (uint8) {\n        return priceFeed.decimals();\n    }\n}",
  "sourcePath": "/Users/cooper/GitHub/Prigogine/Ceres-Protocol/contracts/Oracle/ChainlinkETHUSDPriceConsumer.sol",
  "compiler": {
    "name": "solc",
    "version": "0.6.12+commit.27d51765.Emscripten.clang"
  },
  "schemaVersion": "3.4.1",
  "updatedAt": "2021-07-29T03:32:44.785Z",
  "devdoc": {
    "kind": "dev",
    "methods": {},
    "version": 1
  },
  "userdoc": {
    "kind": "user",
    "methods": {
      "getLatestPrice()": {
        "notice": "Returns the latest price"
      }
    },
    "version": 1
  }
}