{
  "contractName": "ChainlinkETHUSDPriceConsumerTest",
  "abi": [
    {
      "inputs": [],
      "stateMutability": "nonpayable",
      "type": "constructor"
    },
    {
      "inputs": [],
      "name": "getLatestPrice",
      "outputs": [
        {
          "internalType": "int256",
          "name": "",
          "type": "int256"
        }
      ],
      "stateMutability": "view",
      "type": "function"
    },
    {
      "inputs": [],
      "name": "getDecimals",
      "outputs": [
        {
          "internalType": "uint8",
          "name": "",
          "type": "uint8"
        }
      ],
      "stateMutability": "view",
      "type": "function"
    }
  ],
  "bytecode": "0x608060405234801561001057600080fd5b50600080546001600160a01b031916738a753747a1fa494ec906ce90e9f37563a8af630e17905560bd806100456000396000f3fe6080604052348015600f57600080fd5b506004361060325760003560e01c80638e15f473146037578063f0141d84146051575b600080fd5b603d6062565b604051604891906070565b60405180910390f35b6057606b565b604051604891906079565b64315043860090565b600890565b90815260200190565b60ff9190911681526020019056fea26469706673582212203f6249711f0caf1e6ce9e9a2a8eafedc78c8a4c25bc465247038589ddd79c6d164736f6c634300060c0033",
  "immutableReferences": {},
  "source": "// SPDX-License-Identifier: MIT\npragma solidity 0.6.12;\npragma experimental ABIEncoderV2;\n\nimport \"./AggregatorV3Interface.sol\";\n\n// VERY IMPORTANT: UNCOMMENT THIS LATER\n// VERY IMPORTANT: UNCOMMENT THIS LATER\n// VERY IMPORTANT: UNCOMMENT THIS LATER\n// VERY IMPORTANT: UNCOMMENT THIS LATER\n// VERY IMPORTANT: UNCOMMENT THIS LATER\n// VERY IMPORTANT: UNCOMMENT THIS LATER\n// VERY IMPORTANT: UNCOMMENT THIS LATER\n// VERY IMPORTANT: UNCOMMENT THIS LATER\n// VERY IMPORTANT: UNCOMMENT THIS LATER\n// VERY IMPORTANT: UNCOMMENT THIS LATER\n// VERY IMPORTANT: UNCOMMENT THIS LATER\n// VERY IMPORTANT: UNCOMMENT THIS LATER\n// VERY IMPORTANT: UNCOMMENT THIS LATER\n// VERY IMPORTANT: UNCOMMENT THIS LATER\n// import \"@chainlink/contracts/src/v0.6/interfaces/AggregatorV3Interface.sol\";\n\ncontract ChainlinkETHUSDPriceConsumerTest {\n\n    // VERY IMPORTANT: UNCOMMENT THIS LATER\n    // VERY IMPORTANT: UNCOMMENT THIS LATER\n    // VERY IMPORTANT: UNCOMMENT THIS LATER\n    // VERY IMPORTANT: UNCOMMENT THIS LATER\n    // VERY IMPORTANT: UNCOMMENT THIS LATER\n    // VERY IMPORTANT: UNCOMMENT THIS LATER\n    // VERY IMPORTANT: UNCOMMENT THIS LATER\n    // VERY IMPORTANT: UNCOMMENT THIS LATER\n    // VERY IMPORTANT: UNCOMMENT THIS LATER\n    // VERY IMPORTANT: UNCOMMENT THIS LATER\n    // VERY IMPORTANT: UNCOMMENT THIS LATER\n    // VERY IMPORTANT: UNCOMMENT THIS LATER\n    // VERY IMPORTANT: UNCOMMENT THIS LATER\n    // VERY IMPORTANT: UNCOMMENT THIS LATER\n    AggregatorV3Interface internal priceFeed;\n\n    /**\n     * Network: Kovan\n     * Aggregator: ETH/USD\n     * Address: 0x9326BFA02ADD2366b30bacB125260Af641031331\n     */\n    /**\n     * Network: Mainnet\n     * Aggregator: ETH/USD\n     * Address: 0x5f4eC3Df9cbd43714FE2740f5E3616155c5b8419\n     */\n    /**\n     * Network: Mainnet\n     * Aggregator: ETH/USD\n     * Address: 0x8A753747A1Fa494EC906cE90E9f37563A8AF630e\n     */\n\n     \n    constructor() public {\n        // VERY IMPORTANT: UNCOMMENT THIS LATER\n        // VERY IMPORTANT: UNCOMMENT THIS LATER\n        // VERY IMPORTANT: UNCOMMENT THIS LATER\n        // VERY IMPORTANT: UNCOMMENT THIS LATER\n        // VERY IMPORTANT: UNCOMMENT THIS LATER\n        // VERY IMPORTANT: UNCOMMENT THIS LATER\n        // VERY IMPORTANT: UNCOMMENT THIS LATER\n        // VERY IMPORTANT: UNCOMMENT THIS LATER\n        // VERY IMPORTANT: UNCOMMENT THIS LATER\n        // VERY IMPORTANT: UNCOMMENT THIS LATER\n        // VERY IMPORTANT: UNCOMMENT THIS LATER\n        // VERY IMPORTANT: UNCOMMENT THIS LATER\n        // VERY IMPORTANT: UNCOMMENT THIS LATER\n        // VERY IMPORTANT: UNCOMMENT THIS LATER\n        priceFeed = AggregatorV3Interface(0x8A753747A1Fa494EC906cE90E9f37563A8AF630e);\n    }\n\n    /**\n     * Returns the latest price\n     */\n    function getLatestPrice() public view returns (int) {\n        // VERY IMPORTANT: UNCOMMENT THIS LATER\n        // VERY IMPORTANT: UNCOMMENT THIS LATER\n        // VERY IMPORTANT: UNCOMMENT THIS LATER\n        // VERY IMPORTANT: UNCOMMENT THIS LATER\n        // VERY IMPORTANT: UNCOMMENT THIS LATER\n        // VERY IMPORTANT: UNCOMMENT THIS LATER\n        // VERY IMPORTANT: UNCOMMENT THIS LATER\n        // VERY IMPORTANT: UNCOMMENT THIS LATER\n        // VERY IMPORTANT: UNCOMMENT THIS LATER\n        // VERY IMPORTANT: UNCOMMENT THIS LATER\n        // VERY IMPORTANT: UNCOMMENT THIS LATER\n        // VERY IMPORTANT: UNCOMMENT THIS LATER\n        // VERY IMPORTANT: UNCOMMENT THIS LATER\n        // VERY IMPORTANT: UNCOMMENT THIS LATER\n        // (\n        //     uint80 roundID, \n        //     int price,\n        //     uint startedAt,\n        //     uint timeStamp,\n        //     uint80 answeredInRound\n        // ) = priceFeed.latestRoundData();\n        // If the round is not complete yet, timestamp is 0\n        // require(timeStamp > 0, \"Round not complete\");\n\n        // This will return something like 32063000000\n        // Divide this by getDecimals to get the \"true\" price\n        // You can can multiply the \"true\" price by 1e6 to get the ceres ecosystem 'price'\n        // return price;\n\n        return 211800000000;\n    }\n\n    function getDecimals() public view returns (uint8) {\n        // VERY IMPORTANT: UNCOMMENT THIS LATER\n        // VERY IMPORTANT: UNCOMMENT THIS LATER\n        // VERY IMPORTANT: UNCOMMENT THIS LATER\n        // VERY IMPORTANT: UNCOMMENT THIS LATER\n        // VERY IMPORTANT: UNCOMMENT THIS LATER\n        // VERY IMPORTANT: UNCOMMENT THIS LATER\n        // VERY IMPORTANT: UNCOMMENT THIS LATER\n        // VERY IMPORTANT: UNCOMMENT THIS LATER\n        // VERY IMPORTANT: UNCOMMENT THIS LATER\n        // VERY IMPORTANT: UNCOMMENT THIS LATER\n        // VERY IMPORTANT: UNCOMMENT THIS LATER\n        // VERY IMPORTANT: UNCOMMENT THIS LATER\n        // VERY IMPORTANT: UNCOMMENT THIS LATER\n        // VERY IMPORTANT: UNCOMMENT THIS LATER\n        // return priceFeed.decimals();\n        return 8;\n    }\n}",
  "sourcePath": "/Users/cooper/GitHub/Prigogine/Ceres-Protocol/contracts/Oracle/ChainlinkETHUSDPriceConsumerTest.sol",
  "compiler": {
    "name": "solc",
    "version": "0.6.12+commit.27d51765.Emscripten.clang"
  },
  "schemaVersion": "3.4.1",
  "updatedAt": "2021-07-29T07:51:31.516Z",
  "devdoc": {
    "kind": "dev",
    "methods": {},
    "version": 1
  },
  "userdoc": {
    "kind": "user",
    "methods": {
      "constructor": "Network: Mainnet Aggregator: ETH/USD Address: 0x8A753747A1Fa494EC906cE90E9f37563A8AF630e",
      "getLatestPrice()": {
        "notice": "Returns the latest price"
      }
    },
    "version": 1
  }
}