{
  "contractName": "CSSWETHLPPool",
  "abi": [
    {
      "inputs": [
        {
          "internalType": "address",
          "name": "_css",
          "type": "address"
        },
        {
          "internalType": "address",
          "name": "lptoken_",
          "type": "address"
        },
        {
          "internalType": "address",
          "name": "foundationA_",
          "type": "address"
        },
        {
          "internalType": "uint256",
          "name": "_startime",
          "type": "uint256"
        }
      ],
      "stateMutability": "nonpayable",
      "type": "constructor"
    },
    {
      "anonymous": false,
      "inputs": [
        {
          "indexed": true,
          "internalType": "address",
          "name": "previousOperator",
          "type": "address"
        },
        {
          "indexed": true,
          "internalType": "address",
          "name": "newOperator",
          "type": "address"
        }
      ],
      "name": "OperatorTransferred",
      "type": "event"
    },
    {
      "anonymous": false,
      "inputs": [
        {
          "indexed": true,
          "internalType": "address",
          "name": "previousOwner",
          "type": "address"
        },
        {
          "indexed": true,
          "internalType": "address",
          "name": "newOwner",
          "type": "address"
        }
      ],
      "name": "OwnershipTransferred",
      "type": "event"
    },
    {
      "anonymous": false,
      "inputs": [
        {
          "indexed": false,
          "internalType": "uint256",
          "name": "reward",
          "type": "uint256"
        }
      ],
      "name": "RewardAdded",
      "type": "event"
    },
    {
      "anonymous": false,
      "inputs": [
        {
          "indexed": true,
          "internalType": "address",
          "name": "user",
          "type": "address"
        },
        {
          "indexed": false,
          "internalType": "uint256",
          "name": "reward",
          "type": "uint256"
        }
      ],
      "name": "RewardPaid",
      "type": "event"
    },
    {
      "anonymous": false,
      "inputs": [
        {
          "indexed": true,
          "internalType": "address",
          "name": "user",
          "type": "address"
        },
        {
          "indexed": false,
          "internalType": "uint256",
          "name": "amount",
          "type": "uint256"
        }
      ],
      "name": "Staked",
      "type": "event"
    },
    {
      "anonymous": false,
      "inputs": [
        {
          "indexed": true,
          "internalType": "address",
          "name": "user",
          "type": "address"
        },
        {
          "indexed": false,
          "internalType": "uint256",
          "name": "amount",
          "type": "uint256"
        }
      ],
      "name": "Withdrawn",
      "type": "event"
    },
    {
      "anonymous": false,
      "inputs": [
        {
          "indexed": true,
          "internalType": "address",
          "name": "",
          "type": "address"
        },
        {
          "indexed": false,
          "internalType": "string",
          "name": "propertyName",
          "type": "string"
        },
        {
          "indexed": false,
          "internalType": "uint256",
          "name": "propertyValue",
          "type": "uint256"
        }
      ],
      "name": "changeLockProperties",
      "type": "event"
    },
    {
      "inputs": [],
      "name": "DURATION",
      "outputs": [
        {
          "internalType": "uint256",
          "name": "",
          "type": "uint256"
        }
      ],
      "stateMutability": "view",
      "type": "function",
      "constant": true
    },
    {
      "inputs": [
        {
          "internalType": "address",
          "name": "account",
          "type": "address"
        }
      ],
      "name": "balanceOf",
      "outputs": [
        {
          "internalType": "uint256",
          "name": "",
          "type": "uint256"
        }
      ],
      "stateMutability": "view",
      "type": "function",
      "constant": true
    },
    {
      "inputs": [
        {
          "internalType": "address",
          "name": "director",
          "type": "address"
        }
      ],
      "name": "canClaimReward",
      "outputs": [
        {
          "internalType": "bool",
          "name": "",
          "type": "bool"
        }
      ],
      "stateMutability": "view",
      "type": "function",
      "constant": true
    },
    {
      "inputs": [
        {
          "internalType": "address",
          "name": "director",
          "type": "address"
        }
      ],
      "name": "canWithdraw",
      "outputs": [
        {
          "internalType": "bool",
          "name": "",
          "type": "bool"
        }
      ],
      "stateMutability": "view",
      "type": "function",
      "constant": true
    },
    {
      "inputs": [],
      "name": "css",
      "outputs": [
        {
          "internalType": "contract IERC20",
          "name": "",
          "type": "address"
        }
      ],
      "stateMutability": "view",
      "type": "function",
      "constant": true
    },
    {
      "inputs": [],
      "name": "cssAllocationPercentage",
      "outputs": [
        {
          "internalType": "uint256",
          "name": "",
          "type": "uint256"
        }
      ],
      "stateMutability": "view",
      "type": "function",
      "constant": true
    },
    {
      "inputs": [],
      "name": "epochAlignTimestamp",
      "outputs": [
        {
          "internalType": "uint256",
          "name": "",
          "type": "uint256"
        }
      ],
      "stateMutability": "view",
      "type": "function",
      "constant": true
    },
    {
      "inputs": [],
      "name": "epochPeriod",
      "outputs": [
        {
          "internalType": "uint256",
          "name": "",
          "type": "uint256"
        }
      ],
      "stateMutability": "view",
      "type": "function",
      "constant": true
    },
    {
      "inputs": [],
      "name": "foundationA",
      "outputs": [
        {
          "internalType": "address",
          "name": "",
          "type": "address"
        }
      ],
      "stateMutability": "view",
      "type": "function",
      "constant": true
    },
    {
      "inputs": [
        {
          "internalType": "address",
          "name": "director",
          "type": "address"
        }
      ],
      "name": "getCanClaimTime",
      "outputs": [
        {
          "internalType": "uint256",
          "name": "",
          "type": "uint256"
        }
      ],
      "stateMutability": "view",
      "type": "function",
      "constant": true
    },
    {
      "inputs": [
        {
          "internalType": "address",
          "name": "director",
          "type": "address"
        }
      ],
      "name": "getCanWithdrawTime",
      "outputs": [
        {
          "internalType": "uint256",
          "name": "",
          "type": "uint256"
        }
      ],
      "stateMutability": "view",
      "type": "function",
      "constant": true
    },
    {
      "inputs": [],
      "name": "getCurrentEpochTimestamp",
      "outputs": [
        {
          "internalType": "uint256",
          "name": "",
          "type": "uint256"
        }
      ],
      "stateMutability": "view",
      "type": "function",
      "constant": true
    },
    {
      "inputs": [],
      "name": "initreward",
      "outputs": [
        {
          "internalType": "uint256",
          "name": "",
          "type": "uint256"
        }
      ],
      "stateMutability": "view",
      "type": "function",
      "constant": true
    },
    {
      "inputs": [],
      "name": "isOperator",
      "outputs": [
        {
          "internalType": "bool",
          "name": "",
          "type": "bool"
        }
      ],
      "stateMutability": "view",
      "type": "function",
      "constant": true
    },
    {
      "inputs": [],
      "name": "lastUpdateTime",
      "outputs": [
        {
          "internalType": "uint256",
          "name": "",
          "type": "uint256"
        }
      ],
      "stateMutability": "view",
      "type": "function",
      "constant": true
    },
    {
      "inputs": [],
      "name": "lpt",
      "outputs": [
        {
          "internalType": "contract IERC20",
          "name": "",
          "type": "address"
        }
      ],
      "stateMutability": "view",
      "type": "function",
      "constant": true
    },
    {
      "inputs": [],
      "name": "operator",
      "outputs": [
        {
          "internalType": "address",
          "name": "",
          "type": "address"
        }
      ],
      "stateMutability": "view",
      "type": "function",
      "constant": true
    },
    {
      "inputs": [],
      "name": "owner",
      "outputs": [
        {
          "internalType": "address",
          "name": "",
          "type": "address"
        }
      ],
      "stateMutability": "view",
      "type": "function",
      "constant": true
    },
    {
      "inputs": [],
      "name": "periodFinish",
      "outputs": [
        {
          "internalType": "uint256",
          "name": "",
          "type": "uint256"
        }
      ],
      "stateMutability": "view",
      "type": "function",
      "constant": true
    },
    {
      "inputs": [],
      "name": "renounceOwnership",
      "outputs": [],
      "stateMutability": "nonpayable",
      "type": "function"
    },
    {
      "inputs": [],
      "name": "rewardDistribution",
      "outputs": [
        {
          "internalType": "address",
          "name": "",
          "type": "address"
        }
      ],
      "stateMutability": "view",
      "type": "function",
      "constant": true
    },
    {
      "inputs": [],
      "name": "rewardLockupEpochs",
      "outputs": [
        {
          "internalType": "uint256",
          "name": "",
          "type": "uint256"
        }
      ],
      "stateMutability": "view",
      "type": "function",
      "constant": true
    },
    {
      "inputs": [],
      "name": "rewardPerTokenStored",
      "outputs": [
        {
          "internalType": "uint256",
          "name": "",
          "type": "uint256"
        }
      ],
      "stateMutability": "view",
      "type": "function",
      "constant": true
    },
    {
      "inputs": [],
      "name": "rewardRate",
      "outputs": [
        {
          "internalType": "uint256",
          "name": "",
          "type": "uint256"
        }
      ],
      "stateMutability": "view",
      "type": "function",
      "constant": true
    },
    {
      "inputs": [
        {
          "internalType": "address",
          "name": "",
          "type": "address"
        }
      ],
      "name": "rewards",
      "outputs": [
        {
          "internalType": "uint256",
          "name": "",
          "type": "uint256"
        }
      ],
      "stateMutability": "view",
      "type": "function",
      "constant": true
    },
    {
      "inputs": [
        {
          "internalType": "uint256",
          "name": "_withdrawLockupEpochs",
          "type": "uint256"
        },
        {
          "internalType": "uint256",
          "name": "_rewardLockupEpochs",
          "type": "uint256"
        },
        {
          "internalType": "uint256",
          "name": "_epochAlignTimestamp",
          "type": "uint256"
        },
        {
          "internalType": "uint256",
          "name": "_epochPeriod",
          "type": "uint256"
        }
      ],
      "name": "setLockUp",
      "outputs": [],
      "stateMutability": "nonpayable",
      "type": "function"
    },
    {
      "inputs": [
        {
          "internalType": "address",
          "name": "_rewardDistribution",
          "type": "address"
        }
      ],
      "name": "setRewardDistribution",
      "outputs": [],
      "stateMutability": "nonpayable",
      "type": "function"
    },
    {
      "inputs": [],
      "name": "startime",
      "outputs": [
        {
          "internalType": "uint256",
          "name": "",
          "type": "uint256"
        }
      ],
      "stateMutability": "view",
      "type": "function",
      "constant": true
    },
    {
      "inputs": [],
      "name": "totalSupply",
      "outputs": [
        {
          "internalType": "uint256",
          "name": "",
          "type": "uint256"
        }
      ],
      "stateMutability": "view",
      "type": "function",
      "constant": true
    },
    {
      "inputs": [
        {
          "internalType": "address",
          "name": "newOperator_",
          "type": "address"
        }
      ],
      "name": "transferOperator",
      "outputs": [],
      "stateMutability": "nonpayable",
      "type": "function"
    },
    {
      "inputs": [
        {
          "internalType": "address",
          "name": "newOwner",
          "type": "address"
        }
      ],
      "name": "transferOwnership",
      "outputs": [],
      "stateMutability": "nonpayable",
      "type": "function"
    },
    {
      "inputs": [
        {
          "internalType": "uint256",
          "name": "_epochAlignTimestamp",
          "type": "uint256"
        }
      ],
      "name": "updateEpochAlignTimestamp",
      "outputs": [],
      "stateMutability": "nonpayable",
      "type": "function"
    },
    {
      "inputs": [
        {
          "internalType": "uint256",
          "name": "_epochPeriod",
          "type": "uint256"
        }
      ],
      "name": "updateEpochPeriod",
      "outputs": [],
      "stateMutability": "nonpayable",
      "type": "function"
    },
    {
      "inputs": [
        {
          "internalType": "uint256",
          "name": "_rewardLockupEpochs",
          "type": "uint256"
        }
      ],
      "name": "updateRewardLockupEpochs",
      "outputs": [],
      "stateMutability": "nonpayable",
      "type": "function"
    },
    {
      "inputs": [
        {
          "internalType": "uint256",
          "name": "_withdrawLockupEpochs",
          "type": "uint256"
        }
      ],
      "name": "updateWithdrawLockupEpochs",
      "outputs": [],
      "stateMutability": "nonpayable",
      "type": "function"
    },
    {
      "inputs": [
        {
          "internalType": "address",
          "name": "",
          "type": "address"
        }
      ],
      "name": "userRewardPerTokenPaid",
      "outputs": [
        {
          "internalType": "uint256",
          "name": "",
          "type": "uint256"
        }
      ],
      "stateMutability": "view",
      "type": "function",
      "constant": true
    },
    {
      "inputs": [],
      "name": "withdrawLockupEpochs",
      "outputs": [
        {
          "internalType": "uint256",
          "name": "",
          "type": "uint256"
        }
      ],
      "stateMutability": "view",
      "type": "function",
      "constant": true
    },
    {
      "inputs": [],
      "name": "getBlockTimestamp",
      "outputs": [
        {
          "internalType": "uint256",
          "name": "",
          "type": "uint256"
        }
      ],
      "stateMutability": "view",
      "type": "function",
      "constant": true
    },
    {
      "inputs": [],
      "name": "getPeriodFinish",
      "outputs": [
        {
          "internalType": "uint256",
          "name": "",
          "type": "uint256"
        }
      ],
      "stateMutability": "view",
      "type": "function",
      "constant": true
    },
    {
      "inputs": [],
      "name": "lastTimeRewardApplicable",
      "outputs": [
        {
          "internalType": "uint256",
          "name": "",
          "type": "uint256"
        }
      ],
      "stateMutability": "view",
      "type": "function",
      "constant": true
    },
    {
      "inputs": [],
      "name": "rewardPerToken",
      "outputs": [
        {
          "internalType": "uint256",
          "name": "",
          "type": "uint256"
        }
      ],
      "stateMutability": "view",
      "type": "function",
      "constant": true
    },
    {
      "inputs": [
        {
          "internalType": "address",
          "name": "account",
          "type": "address"
        }
      ],
      "name": "earned",
      "outputs": [
        {
          "internalType": "uint256",
          "name": "",
          "type": "uint256"
        }
      ],
      "stateMutability": "view",
      "type": "function",
      "constant": true
    },
    {
      "inputs": [
        {
          "internalType": "uint256",
          "name": "amount",
          "type": "uint256"
        }
      ],
      "name": "stake",
      "outputs": [],
      "stateMutability": "nonpayable",
      "type": "function"
    },
    {
      "inputs": [
        {
          "internalType": "uint256",
          "name": "amount",
          "type": "uint256"
        }
      ],
      "name": "withdraw",
      "outputs": [],
      "stateMutability": "nonpayable",
      "type": "function"
    },
    {
      "inputs": [],
      "name": "exit",
      "outputs": [],
      "stateMutability": "nonpayable",
      "type": "function"
    },
    {
      "inputs": [],
      "name": "getReward",
      "outputs": [],
      "stateMutability": "nonpayable",
      "type": "function"
    }
  ],
  "bytecode": "0x608060405260026006556002600755635fe59c0060085560b4600955600a600d5568056bc75e2d63100000600e55600060105560006011553480156200004457600080fd5b506040516200282c3803806200282c833981810160405260808110156200006a57600080fd5b5080516020820151604083015160609093015191929091620000956200008f620001bd565b620001c1565b6200009f620001bd565b600580546001600160a01b0319166001600160a01b0392831617908190556040519116906000907f74da04524d50c64947f5dd5381ef1a4dca5cba8ed1d816243f9e48aa0b5617ed908290a3600b80546001600160a01b03199081166001600160a01b0387811691909117909255600080548216868416179055600c8054909116918416919091179055600f819055600e546200014c9062278d0062000213602090811b62001ab117901c565b601155600f544211156200018757426012819055506200017e62278d00426200026460201b62001afa1790919060201c565b601055620001b3565b600f54601281905550620001af62278d00600f546200026460201b62001afa1790919060201c565b6010555b5050505062000366565b3390565b600380546001600160a01b038381166001600160a01b0319831681179093556040519116919082907f8be0079c531659141344cd1fd0a4f28419497f9722a3daafe3b4186f6b6457e090600090a35050565b60006200025d83836040518060400160405280601a81526020017f536166654d6174683a206469766973696f6e206279207a65726f000000000000815250620002bf60201b60201c565b9392505050565b6000828201838110156200025d576040805162461bcd60e51b815260206004820152601b60248201527f536166654d6174683a206164646974696f6e206f766572666c6f770000000000604482015290519081900360640190fd5b600081836200034f5760405162461bcd60e51b81526004018080602001828103825283818151815260200191508051906020019080838360005b8381101562000313578181015183820152602001620002f9565b50505050905090810190601f168015620003415780820380516001836020036101000a031916815260200191505b509250505060405180910390fd5b5060008385816200035c57fe5b0495945050505050565b6124b680620003766000396000f3fe608060405234801561001057600080fd5b50600436106103095760003560e01c8063715018a61161019c578063b5b7a184116100ee578063d2a6fbc111610097578063e9fad8ee11610071578063e9fad8ee14610702578063ebe2b12b1461070a578063f2fde38b1461071257610309565b8063d2a6fbc114610698578063d91e0ddc146106c7578063df136d65146106fa57610309565b8063cb17d14f116100c8578063cb17d14f14610680578063cd3daf9d14610688578063ce5fc8d01461069057610309565b8063b5b7a18414610653578063bb36c02a1461065b578063c8f33c911461067857610309565b806383825ced116101505780639c907b581161012a5780639c907b58146106265780639cb3ec1a1461062e578063a694fc3a1461063657610309565b806383825ced146105cb5780638b876347146105eb5780638da5cb5b1461061e57610309565b80637b0a47ee116101815780637b0a47ee146105d35780637d031ce4146105db57806380faa57d146105e357610309565b8063715018a6146105c3578063796b89b9146105cb57610309565b80631be2ff97116102605780634456eda2116102095780636705b509116101e35780636705b5091461056b578063708ae76e1461057357806370a082311461059057610309565b80634456eda214610528578063570ca735146105305780635b17e0eb1461053857610309565b80632e1a7d4d1161023a5780632e1a7d4d146104e657806331a0e832146105035780633d18b9121461052057610309565b80631be2ff97146104a35780631e85cd65146104ab57806329605e77146104b357610309565b80630d68b761116102c257806318160ddd1161029c57806318160ddd1461046057806319262d30146104685780631be052891461049b57610309565b80630d68b761146103f4578063101114cf1461042757806315d91fa11461045857610309565b8063046335d0116102f3578063046335d01461035b5780630700037d146103a25780630b7c8a3b146103d557610309565b80628cc2621461030e578063022ba18d14610353575b600080fd5b6103416004803603602081101561032457600080fd5b503573ffffffffffffffffffffffffffffffffffffffff16610745565b60408051918252519081900360200190f35b6103416107c0565b61038e6004803603602081101561037157600080fd5b503573ffffffffffffffffffffffffffffffffffffffff166107c6565b604080519115158252519081900360200190f35b610341600480360360208110156103b857600080fd5b503573ffffffffffffffffffffffffffffffffffffffff166107e1565b6103f2600480360360208110156103eb57600080fd5b50356107f3565b005b6103f26004803603602081101561040a57600080fd5b503573ffffffffffffffffffffffffffffffffffffffff166108d1565b61042f6109c0565b6040805173ffffffffffffffffffffffffffffffffffffffff9092168252519081900360200190f35b61042f6109dc565b6103416109f8565b61038e6004803603602081101561047e57600080fd5b503573ffffffffffffffffffffffffffffffffffffffff166109ff565b610341610a12565b610341610a19565b610341610a1f565b6103f2600480360360208110156104c957600080fd5b503573ffffffffffffffffffffffffffffffffffffffff16610a25565b6103f2600480360360208110156104fc57600080fd5b5035610ad9565b6103f26004803603602081101561051957600080fd5b5035610d56565b6103f2610e34565b61038e6110f9565b61042f611139565b6103416004803603602081101561054e57600080fd5b503573ffffffffffffffffffffffffffffffffffffffff16611155565b61042f61119d565b6103f26004803603602081101561058957600080fd5b50356111b9565b610341600480360360208110156105a657600080fd5b503573ffffffffffffffffffffffffffffffffffffffff16611297565b6103f26112bf565b610341611373565b610341611377565b61034161137d565b610341611383565b6103416004803603602081101561060157600080fd5b503573ffffffffffffffffffffffffffffffffffffffff16611396565b61042f6113a8565b6103416113c4565b6103416113ca565b6103f26004803603602081101561064c57600080fd5b50356113d0565b6103416115ef565b6103f26004803603602081101561067157600080fd5b50356115f5565b6103416116d3565b6103416116d9565b6103416116df565b61042f61172d565b6103f2600480360360808110156106ae57600080fd5b5080359060208101359060408101359060600135611749565b610341600480360360208110156106dd57600080fd5b503573ffffffffffffffffffffffffffffffffffffffff16611953565b61034161196f565b6103f2611975565b61034161198e565b6103f26004803603602081101561072857600080fd5b503573ffffffffffffffffffffffffffffffffffffffff16611994565b73ffffffffffffffffffffffffffffffffffffffff811660009081526015602090815260408083205460149092528220546107ba91906107b490670de0b6b3a7640000906107ae9061079f906107996116df565b90611b6e565b6107a888611297565b90611bb0565b90611ab1565b90611afa565b92915050565b60075481565b60006107d0611373565b6107d983611155565b111592915050565b60156020526000908152604090205481565b60055473ffffffffffffffffffffffffffffffffffffffff163314610863576040517f08c379a00000000000000000000000000000000000000000000000000000000081526004018080602001828103825260248152602001806124336024913960400191505060405180910390fd5b60408051602081018390528181526014818301527f77697468647261774c6f636b757045706f6368730000000000000000000000006060820152905133917f0a1457b359008e11b890e625753b8d7ec9f7397d31329f87e9f17d7d919c1370919081900360800190a2600655565b6108d9611c23565b73ffffffffffffffffffffffffffffffffffffffff166108f76113a8565b73ffffffffffffffffffffffffffffffffffffffff161461097957604080517f08c379a000000000000000000000000000000000000000000000000000000000815260206004820181905260248201527f4f776e61626c653a2063616c6c6572206973206e6f7420746865206f776e6572604482015290519081900360640190fd5b600480547fffffffffffffffffffffffff00000000000000000000000000000000000000001673ffffffffffffffffffffffffffffffffffffffff92909216919091179055565b60045473ffffffffffffffffffffffffffffffffffffffff1681565b600c5473ffffffffffffffffffffffffffffffffffffffff1681565b6001545b90565b6000610a09611373565b6107d983611953565b62278d0081565b60085481565b60065481565b610a2d611c23565b73ffffffffffffffffffffffffffffffffffffffff16610a4b6113a8565b73ffffffffffffffffffffffffffffffffffffffff1614610acd57604080517f08c379a000000000000000000000000000000000000000000000000000000000815260206004820181905260248201527f4f776e61626c653a2063616c6c6572206973206e6f7420746865206f776e6572604482015290519081900360640190fd5b610ad681611c27565b50565b33610ae26116df565b601355610aed611383565b60125573ffffffffffffffffffffffffffffffffffffffff811615610b4e57610b1581610745565b73ffffffffffffffffffffffffffffffffffffffff82166000908152601560209081526040808320939093556013546014909152919020555b6010544210610bcd57610b7260646107ae6014600e54611bb090919063ffffffff16565b600e819055610b849062278d00611ab1565b601155610b944262278d00611afa565b601055600e5460408051918252517fde88a922e0d3b88b24e9623efeb464919c6bf9f66857a65e2bfcf2ce87a9433d9181900360200190a15b600f54421015610c3e57604080517f08c379a000000000000000000000000000000000000000000000000000000000815260206004820152600960248201527f6e6f742073746172740000000000000000000000000000000000000000000000604482015290519081900360640190fd5b60008211610cad57604080517f08c379a000000000000000000000000000000000000000000000000000000000815260206004820152601160248201527f43616e6e6f742077697468647261772030000000000000000000000000000000604482015290519081900360640190fd5b610cb6336109ff565b610d0b576040517f08c379a000000000000000000000000000000000000000000000000000000000815260040180806020018281038252602181526020018061239e6021913960400191505060405180910390fd5b610d13611d1d565b610d1c82611d37565b60408051838152905133917f7084f5476618d8e60b11ef0d7d3f06914655adb8793e28ff7f018d4c76d505d5919081900360200190a25050565b60055473ffffffffffffffffffffffffffffffffffffffff163314610dc6576040517f08c379a00000000000000000000000000000000000000000000000000000000081526004018080602001828103825260248152602001806124336024913960400191505060405180910390fd5b60408051602081018390528181526013818301527f65706f6368416c69676e54696d657374616d70000000000000000000000000006060820152905133917f0a1457b359008e11b890e625753b8d7ec9f7397d31329f87e9f17d7d919c1370919081900360800190a2600855565b33610e3d6116df565b601355610e48611383565b60125573ffffffffffffffffffffffffffffffffffffffff811615610ea957610e7081610745565b73ffffffffffffffffffffffffffffffffffffffff82166000908152601560209081526040808320939093556013546014909152919020555b6010544210610f2857610ecd60646107ae6014600e54611bb090919063ffffffff16565b600e819055610edf9062278d00611ab1565b601155610eef4262278d00611afa565b601055600e5460408051918252517fde88a922e0d3b88b24e9623efeb464919c6bf9f66857a65e2bfcf2ce87a9433d9181900360200190a15b600f54421015610f9957604080517f08c379a000000000000000000000000000000000000000000000000000000000815260206004820152600960248201527f6e6f742073746172740000000000000000000000000000000000000000000000604482015290519081900360640190fd5b6000610fa433610745565b905080156110f557610fb5336109ff565b61102057604080517f08c379a000000000000000000000000000000000000000000000000000000000815260206004820152601f60248201527f424143574f4b543a207374696c6c20696e20726577617264206c6f636b757000604482015290519081900360640190fd5b611028611d1d565b33600081815260156020526040812055600d546110749190611054906064906107ae9086908303611bb0565b600b5473ffffffffffffffffffffffffffffffffffffffff169190611d95565b600061109060646107ae600d5485611bb090919063ffffffff16565b600c54600b549192506110bd9173ffffffffffffffffffffffffffffffffffffffff908116911683611d95565b60408051838152905133917fe2403640ba68fed3a2f88b7557551d1993f84b99bb10ff833f0cf8db0c5e0486919081900360200190a2505b5050565b60055460009073ffffffffffffffffffffffffffffffffffffffff1661111d611c23565b73ffffffffffffffffffffffffffffffffffffffff1614905090565b60055473ffffffffffffffffffffffffffffffffffffffff1690565b60006107ba611171600954600754611bb090919063ffffffff16565b73ffffffffffffffffffffffffffffffffffffffff84166000908152600a602052604090205490611afa565b600b5473ffffffffffffffffffffffffffffffffffffffff1681565b60055473ffffffffffffffffffffffffffffffffffffffff163314611229576040517f08c379a00000000000000000000000000000000000000000000000000000000081526004018080602001828103825260248152602001806124336024913960400191505060405180910390fd5b6040805160208101839052818152600b818301527f65706f6368506572696f640000000000000000000000000000000000000000006060820152905133917f0a1457b359008e11b890e625753b8d7ec9f7397d31329f87e9f17d7d919c1370919081900360800190a2600955565b73ffffffffffffffffffffffffffffffffffffffff1660009081526002602052604090205490565b6112c7611c23565b73ffffffffffffffffffffffffffffffffffffffff166112e56113a8565b73ffffffffffffffffffffffffffffffffffffffff161461136757604080517f08c379a000000000000000000000000000000000000000000000000000000000815260206004820181905260248201527f4f776e61626c653a2063616c6c6572206973206e6f7420746865206f776e6572604482015290519081900360640190fd5b6113716000611e27565b565b4290565b60115481565b600f5481565b600061139142601054611e9e565b905090565b60146020526000908152604090205481565b60035473ffffffffffffffffffffffffffffffffffffffff1690565b600e5481565b600d5481565b336113d96116df565b6013556113e4611383565b60125573ffffffffffffffffffffffffffffffffffffffff8116156114455761140c81610745565b73ffffffffffffffffffffffffffffffffffffffff82166000908152601560209081526040808320939093556013546014909152919020555b60105442106114c45761146960646107ae6014600e54611bb090919063ffffffff16565b600e81905561147b9062278d00611ab1565b60115561148b4262278d00611afa565b601055600e5460408051918252517fde88a922e0d3b88b24e9623efeb464919c6bf9f66857a65e2bfcf2ce87a9433d9181900360200190a15b600f5442101561153557604080517f08c379a000000000000000000000000000000000000000000000000000000000815260206004820152600960248201527f6e6f742073746172740000000000000000000000000000000000000000000000604482015290519081900360640190fd5b600082116115a457604080517f08c379a000000000000000000000000000000000000000000000000000000000815260206004820152600e60248201527f43616e6e6f74207374616b652030000000000000000000000000000000000000604482015290519081900360640190fd5b6115ad82611eb4565b6115b5611d1d565b60408051838152905133917f9e71bc8eea02a63969f509818f2dafb9254532904319f9dbda79b67bd34a5f3d919081900360200190a25050565b60095481565b60055473ffffffffffffffffffffffffffffffffffffffff163314611665576040517f08c379a00000000000000000000000000000000000000000000000000000000081526004018080602001828103825260248152602001806124336024913960400191505060405180910390fd5b60408051602081018390528181526012818301527f7265776172644c6f636b757045706f63687300000000000000000000000000006060820152905133917f0a1457b359008e11b890e625753b8d7ec9f7397d31329f87e9f17d7d919c1370919081900360800190a2600755565b60125481565b60105490565b60006116e96109f8565b6116f657506013546109fc565b6113916117246117046109f8565b6107ae670de0b6b3a76400006107a86011546107a8601254610799611383565b60135490611afa565b60005473ffffffffffffffffffffffffffffffffffffffff1681565b60055473ffffffffffffffffffffffffffffffffffffffff1633146117b9576040517f08c379a00000000000000000000000000000000000000000000000000000000081526004018080602001828103825260248152602001806124336024913960400191505060405180910390fd5b8284101580156117ca575060158411155b61183557604080517f08c379a000000000000000000000000000000000000000000000000000000000815260206004820152601a60248201527f4c6f636b757045706f6368733a206f7574206f662072616e6765000000000000604482015290519081900360640190fd5b620151808111156118a757604080517f08c379a000000000000000000000000000000000000000000000000000000000815260206004820152601960248201527f45706f6368506572696f643a206f7574206f662072616e676500000000000000604482015290519081900360640190fd5b426118bd6118b6836002611bb0565b8490611afa565b1061192957604080517f08c379a000000000000000000000000000000000000000000000000000000000815260206004820152601d60248201527f45706f6368416c69676e54696d657374616d703a20746f6f206c617465000000604482015290519081900360640190fd5b611932846107f3565b61193b836115f5565b61194482610d56565b61194d816111b9565b50505050565b60006107ba611171600954600654611bb090919063ffffffff16565b60135481565b61198661198133611297565b610ad9565b611371610e34565b60105481565b61199c611c23565b73ffffffffffffffffffffffffffffffffffffffff166119ba6113a8565b73ffffffffffffffffffffffffffffffffffffffff1614611a3c57604080517f08c379a000000000000000000000000000000000000000000000000000000000815260206004820181905260248201527f4f776e61626c653a2063616c6c6572206973206e6f7420746865206f776e6572604482015290519081900360640190fd5b73ffffffffffffffffffffffffffffffffffffffff8116611aa8576040517f08c379a00000000000000000000000000000000000000000000000000000000081526004018080602001828103825260268152602001806123bf6026913960400191505060405180910390fd5b610ad681611e27565b6000611af383836040518060400160405280601a81526020017f536166654d6174683a206469766973696f6e206279207a65726f000000000000815250611f17565b9392505050565b600082820183811015611af357604080517f08c379a000000000000000000000000000000000000000000000000000000000815260206004820152601b60248201527f536166654d6174683a206164646974696f6e206f766572666c6f770000000000604482015290519081900360640190fd5b6000611af383836040518060400160405280601e81526020017f536166654d6174683a207375627472616374696f6e206f766572666c6f770000815250611fd3565b600082611bbf575060006107ba565b82820282848281611bcc57fe5b0414611af3576040517f08c379a00000000000000000000000000000000000000000000000000000000081526004018080602001828103825260218152602001806124126021913960400191505060405180910390fd5b3390565b73ffffffffffffffffffffffffffffffffffffffff8116611c93576040517f08c379a000000000000000000000000000000000000000000000000000000000815260040180806020018281038252602d8152602001806123e5602d913960400191505060405180910390fd5b60405173ffffffffffffffffffffffffffffffffffffffff8216906000907f74da04524d50c64947f5dd5381ef1a4dca5cba8ed1d816243f9e48aa0b5617ed908290a3600580547fffffffffffffffffffffffff00000000000000000000000000000000000000001673ffffffffffffffffffffffffffffffffffffffff92909216919091179055565b611d25611373565b336000908152600a6020526040902055565b600154611d449082611b6e565b60015533600090815260026020526040902054611d619082611b6e565b336000818152600260205260408120929092559054610ad69173ffffffffffffffffffffffffffffffffffffffff90911690835b6040805173ffffffffffffffffffffffffffffffffffffffff8416602482015260448082018490528251808303909101815260649091019091526020810180517bffffffffffffffffffffffffffffffffffffffffffffffffffffffff167fa9059cbb00000000000000000000000000000000000000000000000000000000179052611e22908490612047565b505050565b6003805473ffffffffffffffffffffffffffffffffffffffff8381167fffffffffffffffffffffffff0000000000000000000000000000000000000000831681179093556040519116919082907f8be0079c531659141344cd1fd0a4f28419497f9722a3daafe3b4186f6b6457e090600090a35050565b6000818310611ead5781611af3565b5090919050565b600154611ec19082611afa565b60015533600090815260026020526040902054611ede9082611afa565b336000818152600260205260408120929092559054610ad69173ffffffffffffffffffffffffffffffffffffffff90911690308461211f565b60008183611fbd576040517f08c379a00000000000000000000000000000000000000000000000000000000081526004018080602001828103825283818151815260200191508051906020019080838360005b83811015611f82578181015183820152602001611f6a565b50505050905090810190601f168015611faf5780820380516001836020036101000a031916815260200191505b509250505060405180910390fd5b506000838581611fc957fe5b0495945050505050565b6000818484111561203f576040517f08c379a0000000000000000000000000000000000000000000000000000000008152602060048201818152835160248401528351909283926044909101919085019080838360008315611f82578181015183820152602001611f6a565b505050900390565b60606120a9826040518060400160405280602081526020017f5361666545524332303a206c6f772d6c6576656c2063616c6c206661696c65648152508573ffffffffffffffffffffffffffffffffffffffff166121b49092919063ffffffff16565b805190915015611e22578080602001905160208110156120c857600080fd5b5051611e22576040517f08c379a000000000000000000000000000000000000000000000000000000000815260040180806020018281038252602a815260200180612457602a913960400191505060405180910390fd5b6040805173ffffffffffffffffffffffffffffffffffffffff80861660248301528416604482015260648082018490528251808303909101815260849091019091526020810180517bffffffffffffffffffffffffffffffffffffffffffffffffffffffff167f23b872dd0000000000000000000000000000000000000000000000000000000017905261194d908590612047565b60606121c384846000856121cb565b949350505050565b60606121d685612397565b61224157604080517f08c379a000000000000000000000000000000000000000000000000000000000815260206004820152601d60248201527f416464726573733a2063616c6c20746f206e6f6e2d636f6e7472616374000000604482015290519081900360640190fd5b600060608673ffffffffffffffffffffffffffffffffffffffff1685876040518082805190602001908083835b602083106122ab57805182527fffffffffffffffffffffffffffffffffffffffffffffffffffffffffffffffe0909201916020918201910161226e565b6001836020036101000a03801982511681845116808217855250505050505090500191505060006040518083038185875af1925050503d806000811461230d576040519150601f19603f3d011682016040523d82523d6000602084013e612312565b606091505b509150915081156123265791506121c39050565b8051156123365780518082602001fd5b6040517f08c379a0000000000000000000000000000000000000000000000000000000008152602060048201818152865160248401528651879391928392604401919085019080838360008315611f82578181015183820152602001611f6a565b3b15159056fe424143574f4b543a207374696c6c20696e207769746864726177206c6f636b75704f776e61626c653a206e6577206f776e657220697320746865207a65726f20616464726573736f70657261746f723a207a65726f206164647265737320676976656e20666f72206e6577206f70657261746f72536166654d6174683a206d756c7469706c69636174696f6e206f766572666c6f776f70657261746f723a2063616c6c6572206973206e6f7420746865206f70657261746f725361666545524332303a204552433230206f7065726174696f6e20646964206e6f742073756363656564a2646970667358221220a782e34f8d8ac28d24c7619affd1e51b33f67e59984eab29e90a0d077d09db2864736f6c634300060c0033",
  "immutableReferences": {},
  "source": "// SPDX-License-Identifier: MIT\npragma solidity ^0.6.12;\n\nimport '../../Math/Math.sol';\nimport '../../Math/SafeMath.sol';\nimport '../../ERC20/IERC20.sol';\nimport '../../Utils/Address.sol';\nimport '../../ERC20/SafeERC20.sol';\nimport '../../Interfaces/IRewardDistributionRecipient.sol';\nimport '../../ERC20/LPTokenWrapper.sol';\nimport '../../Utils/PoolLock.sol';\nimport '../../owner/Operator.sol';\n\ncontract CSSWETHLPPool is\n    LPTokenWrapper,\n    IRewardDistributionRecipient,\n    PoolLock\n{\n    IERC20 public css;\n    \n    // add address FoundationA\n    address public foundationA; // TEST CASES DONE\n    // tax = cssAllocationPercentage = 10% in super cash\n    uint256 public cssAllocationPercentage = 10; // TEST CASES DONE\n\n    uint256 public constant DURATION = 30 days; // TEST CASES DONE\n\n    uint256 public initreward = 100 * 10**18; // 100 CSS // TEST CASES DONE\n    uint256 public startime; // TEST CASES DONE\n    uint256 public periodFinish = 0; // TEST CASES DONE\n    uint256 public rewardRate = 0; // TEST CASES DONE\n    uint256 public lastUpdateTime; // TEST CASES DONE\n    uint256 public rewardPerTokenStored; // TEST CASES DONE\n    mapping(address => uint256) public userRewardPerTokenPaid; // TEST CASES DONE\n    mapping(address => uint256) public rewards; // TEST CASES DONE\n\n    event RewardAdded(uint256 reward);\n    event Staked(address indexed user, uint256 amount);\n    event Withdrawn(address indexed user, uint256 amount);\n    event RewardPaid(address indexed user, uint256 reward);\n    // TEST CASES DONE\n    constructor(\n        address _css,\n        address lptoken_,\n        address foundationA_,\n        uint256 _startime\n    ) public {\n        css = IERC20(_css);\n        lpt = IERC20(lptoken_);\n        foundationA = foundationA_;\n        startime = _startime;\n\n        rewardRate = initreward.div(DURATION);\n        if (block.timestamp > startime) {\n            lastUpdateTime = block.timestamp;\n            periodFinish = block.timestamp.add(DURATION);\n        } else {\n            lastUpdateTime = startime;\n            periodFinish = startime.add(DURATION);\n        }\n    }\n\n    modifier updateReward(address account) {\n        rewardPerTokenStored = rewardPerToken();\n        lastUpdateTime = lastTimeRewardApplicable();\n        if (account != address(0)) {\n            rewards[account] = earned(account);\n            userRewardPerTokenPaid[account] = rewardPerTokenStored;\n        }\n        _;\n    }\n    // TEST CASES DONE\n    function getBlockTimestamp() public view returns (uint256) {\n        return block.timestamp;\n    }\n    // TEST CASES DONE\n    function getPeriodFinish() public view returns (uint256) {\n        return periodFinish;\n    }\n    // TEST CASES DONE\n    function lastTimeRewardApplicable() public view returns (uint256) {\n        return Math.min(block.timestamp, periodFinish);\n    }\n    // TEST CASES DONE\n    function rewardPerToken() public view returns (uint256) {\n        if (totalSupply() == 0) {\n            return rewardPerTokenStored;\n        }\n        return\n            rewardPerTokenStored.add(\n                lastTimeRewardApplicable()\n                    .sub(lastUpdateTime)\n                    .mul(rewardRate)\n                    .mul(1e18)\n                    .div(totalSupply())\n            );\n    }\n    // TEST CASES DONE\n    function earned(address account) public view returns (uint256) {\n        return\n            balanceOf(account)\n                .mul(rewardPerToken().sub(userRewardPerTokenPaid[account]))\n                .div(1e18)\n                .add(rewards[account]);\n    }\n\n    // stake visibility is public as overriding LPTokenWrapper's stake() function\n    // TEST CASES DONE\n    function stake(uint256 amount)\n        public\n        override\n        updateReward(msg.sender)\n        checkhalve\n        checkStart\n    {\n        require(amount > 0, 'Cannot stake 0');\n        super.stake(amount);\n        setLockTime();\n        emit Staked(msg.sender, amount);\n    }\n    // TEST CASES DONE\n    function withdraw(uint256 amount)\n        public\n        override\n        updateReward(msg.sender)\n        checkhalve\n        checkStart\n    {\n        require(amount > 0, 'Cannot withdraw 0');\n        require(canWithdraw(msg.sender), \"BACWOKT: still in withdraw lockup\");\n        setLockTime();\n        super.withdraw(amount);\n        emit Withdrawn(msg.sender, amount);\n    }\n    // TODO: [LATER] ADD TEST CASES\n    function exit() external {\n        withdraw(balanceOf(msg.sender));\n        getReward();\n    }\n    // TEST CASES DONE\n    function getReward() public updateReward(msg.sender) checkhalve checkStart {\n        uint256 reward = earned(msg.sender);\n        if (reward > 0) {\n            require(canWithdraw(msg.sender), \"BACWOKT: still in reward lockup\");\n            setLockTime();\n            rewards[msg.sender] = 0;\n            css.safeTransfer(msg.sender, reward.mul(100-cssAllocationPercentage).div(100));\n            uint256 totalFee = reward.mul(cssAllocationPercentage).div(100);\n            css.safeTransfer(foundationA, totalFee);\n            emit RewardPaid(msg.sender, reward);\n        }\n    }\n    // TEST CASES DONE\n    // function setRewardRate(uint256 _rewardRate) public onlyOperator {\n    //     rewardRate = _rewardRate;\n    //     if (block.timestamp > startime) {\n    //         lastUpdateTime = block.timestamp;\n    //         periodFinish = block.timestamp.add(DURATION);\n    //     } else {\n    //         lastUpdateTime = startime;\n    //         periodFinish = startime.add(DURATION);\n    //     }\n    // }\n\n    modifier checkhalve() {\n        if (block.timestamp >= periodFinish) {\n            initreward = initreward.mul(20).div(100);\n\n            rewardRate = initreward.div(DURATION);\n            periodFinish = block.timestamp.add(DURATION);\n            emit RewardAdded(initreward);\n        }\n        _;\n    }\n\n    modifier checkStart() {\n        require(block.timestamp >= startime, 'not start');\n        _;\n    }\n\n    // function notifyRewardAmount(uint256 reward)\n    //     external\n    //     override\n    //     onlyRewardDistribution\n    //     updateReward(address(0))\n    // {\n    //     if (block.timestamp > startime) {\n    //         if (block.timestamp >= periodFinish) {\n    //             rewardRate = reward.div(DURATION);\n    //         } else {\n    //             uint256 remaining = periodFinish.sub(block.timestamp);\n    //             uint256 leftover = remaining.mul(rewardRate);\n    //             rewardRate = reward.add(leftover).div(DURATION);\n    //         }\n    //         lastUpdateTime = block.timestamp;\n    //         periodFinish = block.timestamp.add(DURATION);\n    //         emit RewardAdded(reward);\n    //     } else {\n    //         rewardRate = initreward.div(DURATION);\n    //         lastUpdateTime = startime;\n    //         periodFinish = startime.add(DURATION);\n    //         emit RewardAdded(reward);\n    //     }\n    // }\n}",
  "sourcePath": "/Users/cooper/GitHub/Prigogine/Ceres-Protocol/contracts/Ceres/Pools/CSSWETHLPPool.sol",
  "compiler": {
    "name": "solc",
    "version": "0.6.12+commit.27d51765.Emscripten.clang"
  },
  "schemaVersion": "3.4.1",
  "updatedAt": "2021-07-29T03:47:51.332Z",
  "networkType": "ethereum",
  "devdoc": {
    "kind": "dev",
    "methods": {
      "owner()": {
        "details": "Returns the address of the current owner."
      },
      "renounceOwnership()": {
        "details": "Leaves the contract without owner. It will not be possible to call `onlyOwner` functions anymore. Can only be called by the current owner. NOTE: Renouncing ownership will leave the contract without an owner, thereby removing any functionality that is only available to the owner."
      },
      "transferOwnership(address)": {
        "details": "Transfers ownership of the contract to a new account (`newOwner`). Can only be called by the current owner."
      }
    },
    "version": 1
  },
  "userdoc": {
    "kind": "user",
    "methods": {},
    "version": 1
  }
}