{
  "contractName": "CSSWETHPool",
  "abi": [
    {
      "inputs": [
        {
          "internalType": "address",
          "name": "_css",
          "type": "address"
        },
        {
          "internalType": "address",
          "name": "lptoken_",
          "type": "address"
        },
        {
          "internalType": "address",
          "name": "foundationA_",
          "type": "address"
        },
        {
          "internalType": "uint256",
          "name": "_startime",
          "type": "uint256"
        }
      ],
      "stateMutability": "nonpayable",
      "type": "constructor"
    },
    {
      "anonymous": false,
      "inputs": [
        {
          "indexed": true,
          "internalType": "address",
          "name": "previousOperator",
          "type": "address"
        },
        {
          "indexed": true,
          "internalType": "address",
          "name": "newOperator",
          "type": "address"
        }
      ],
      "name": "OperatorTransferred",
      "type": "event"
    },
    {
      "anonymous": false,
      "inputs": [
        {
          "indexed": true,
          "internalType": "address",
          "name": "previousOwner",
          "type": "address"
        },
        {
          "indexed": true,
          "internalType": "address",
          "name": "newOwner",
          "type": "address"
        }
      ],
      "name": "OwnershipTransferred",
      "type": "event"
    },
    {
      "anonymous": false,
      "inputs": [
        {
          "indexed": false,
          "internalType": "uint256",
          "name": "reward",
          "type": "uint256"
        }
      ],
      "name": "RewardAdded",
      "type": "event"
    },
    {
      "anonymous": false,
      "inputs": [
        {
          "indexed": true,
          "internalType": "address",
          "name": "user",
          "type": "address"
        },
        {
          "indexed": false,
          "internalType": "uint256",
          "name": "reward",
          "type": "uint256"
        }
      ],
      "name": "RewardPaid",
      "type": "event"
    },
    {
      "anonymous": false,
      "inputs": [
        {
          "indexed": true,
          "internalType": "address",
          "name": "user",
          "type": "address"
        },
        {
          "indexed": false,
          "internalType": "uint256",
          "name": "amount",
          "type": "uint256"
        }
      ],
      "name": "Staked",
      "type": "event"
    },
    {
      "anonymous": false,
      "inputs": [
        {
          "indexed": true,
          "internalType": "address",
          "name": "user",
          "type": "address"
        },
        {
          "indexed": false,
          "internalType": "uint256",
          "name": "amount",
          "type": "uint256"
        }
      ],
      "name": "Withdrawn",
      "type": "event"
    },
    {
      "anonymous": false,
      "inputs": [
        {
          "indexed": true,
          "internalType": "address",
          "name": "",
          "type": "address"
        },
        {
          "indexed": false,
          "internalType": "string",
          "name": "propertyName",
          "type": "string"
        },
        {
          "indexed": false,
          "internalType": "uint256",
          "name": "propertyValue",
          "type": "uint256"
        }
      ],
      "name": "changeLockProperties",
      "type": "event"
    },
    {
      "inputs": [],
      "name": "CSS",
      "outputs": [
        {
          "internalType": "contract IERC20",
          "name": "",
          "type": "address"
        }
      ],
      "stateMutability": "view",
      "type": "function",
      "constant": true
    },
    {
      "inputs": [],
      "name": "DURATION",
      "outputs": [
        {
          "internalType": "uint256",
          "name": "",
          "type": "uint256"
        }
      ],
      "stateMutability": "view",
      "type": "function",
      "constant": true
    },
    {
      "inputs": [
        {
          "internalType": "address",
          "name": "account",
          "type": "address"
        }
      ],
      "name": "balanceOf",
      "outputs": [
        {
          "internalType": "uint256",
          "name": "",
          "type": "uint256"
        }
      ],
      "stateMutability": "view",
      "type": "function",
      "constant": true
    },
    {
      "inputs": [],
      "name": "basAllocationPercentage",
      "outputs": [
        {
          "internalType": "uint256",
          "name": "",
          "type": "uint256"
        }
      ],
      "stateMutability": "view",
      "type": "function",
      "constant": true
    },
    {
      "inputs": [
        {
          "internalType": "address",
          "name": "director",
          "type": "address"
        }
      ],
      "name": "canClaimReward",
      "outputs": [
        {
          "internalType": "bool",
          "name": "",
          "type": "bool"
        }
      ],
      "stateMutability": "view",
      "type": "function",
      "constant": true
    },
    {
      "inputs": [
        {
          "internalType": "address",
          "name": "director",
          "type": "address"
        }
      ],
      "name": "canWithdraw",
      "outputs": [
        {
          "internalType": "bool",
          "name": "",
          "type": "bool"
        }
      ],
      "stateMutability": "view",
      "type": "function",
      "constant": true
    },
    {
      "inputs": [],
      "name": "epochAlignTimestamp",
      "outputs": [
        {
          "internalType": "uint256",
          "name": "",
          "type": "uint256"
        }
      ],
      "stateMutability": "view",
      "type": "function",
      "constant": true
    },
    {
      "inputs": [],
      "name": "epochPeriod",
      "outputs": [
        {
          "internalType": "uint256",
          "name": "",
          "type": "uint256"
        }
      ],
      "stateMutability": "view",
      "type": "function",
      "constant": true
    },
    {
      "inputs": [],
      "name": "foundationA",
      "outputs": [
        {
          "internalType": "address",
          "name": "",
          "type": "address"
        }
      ],
      "stateMutability": "view",
      "type": "function",
      "constant": true
    },
    {
      "inputs": [
        {
          "internalType": "address",
          "name": "director",
          "type": "address"
        }
      ],
      "name": "getCanClaimTime",
      "outputs": [
        {
          "internalType": "uint256",
          "name": "",
          "type": "uint256"
        }
      ],
      "stateMutability": "view",
      "type": "function",
      "constant": true
    },
    {
      "inputs": [
        {
          "internalType": "address",
          "name": "director",
          "type": "address"
        }
      ],
      "name": "getCanWithdrawTime",
      "outputs": [
        {
          "internalType": "uint256",
          "name": "",
          "type": "uint256"
        }
      ],
      "stateMutability": "view",
      "type": "function",
      "constant": true
    },
    {
      "inputs": [],
      "name": "getCurrentEpochTimestamp",
      "outputs": [
        {
          "internalType": "uint256",
          "name": "",
          "type": "uint256"
        }
      ],
      "stateMutability": "view",
      "type": "function",
      "constant": true
    },
    {
      "inputs": [],
      "name": "isOperator",
      "outputs": [
        {
          "internalType": "bool",
          "name": "",
          "type": "bool"
        }
      ],
      "stateMutability": "view",
      "type": "function",
      "constant": true
    },
    {
      "inputs": [],
      "name": "lastUpdateTime",
      "outputs": [
        {
          "internalType": "uint256",
          "name": "",
          "type": "uint256"
        }
      ],
      "stateMutability": "view",
      "type": "function",
      "constant": true
    },
    {
      "inputs": [],
      "name": "lpt",
      "outputs": [
        {
          "internalType": "contract IERC20",
          "name": "",
          "type": "address"
        }
      ],
      "stateMutability": "view",
      "type": "function",
      "constant": true
    },
    {
      "inputs": [],
      "name": "operator",
      "outputs": [
        {
          "internalType": "address",
          "name": "",
          "type": "address"
        }
      ],
      "stateMutability": "view",
      "type": "function",
      "constant": true
    },
    {
      "inputs": [],
      "name": "owner",
      "outputs": [
        {
          "internalType": "address",
          "name": "",
          "type": "address"
        }
      ],
      "stateMutability": "view",
      "type": "function",
      "constant": true
    },
    {
      "inputs": [],
      "name": "periodFinish",
      "outputs": [
        {
          "internalType": "uint256",
          "name": "",
          "type": "uint256"
        }
      ],
      "stateMutability": "view",
      "type": "function",
      "constant": true
    },
    {
      "inputs": [],
      "name": "renounceOwnership",
      "outputs": [],
      "stateMutability": "nonpayable",
      "type": "function"
    },
    {
      "inputs": [],
      "name": "rewardDistribution",
      "outputs": [
        {
          "internalType": "address",
          "name": "",
          "type": "address"
        }
      ],
      "stateMutability": "view",
      "type": "function",
      "constant": true
    },
    {
      "inputs": [],
      "name": "rewardLockupEpochs",
      "outputs": [
        {
          "internalType": "uint256",
          "name": "",
          "type": "uint256"
        }
      ],
      "stateMutability": "view",
      "type": "function",
      "constant": true
    },
    {
      "inputs": [],
      "name": "rewardPerTokenStored",
      "outputs": [
        {
          "internalType": "uint256",
          "name": "",
          "type": "uint256"
        }
      ],
      "stateMutability": "view",
      "type": "function",
      "constant": true
    },
    {
      "inputs": [],
      "name": "rewardRate",
      "outputs": [
        {
          "internalType": "uint256",
          "name": "",
          "type": "uint256"
        }
      ],
      "stateMutability": "view",
      "type": "function",
      "constant": true
    },
    {
      "inputs": [
        {
          "internalType": "address",
          "name": "",
          "type": "address"
        }
      ],
      "name": "rewards",
      "outputs": [
        {
          "internalType": "uint256",
          "name": "",
          "type": "uint256"
        }
      ],
      "stateMutability": "view",
      "type": "function",
      "constant": true
    },
    {
      "inputs": [
        {
          "internalType": "uint256",
          "name": "_withdrawLockupEpochs",
          "type": "uint256"
        },
        {
          "internalType": "uint256",
          "name": "_rewardLockupEpochs",
          "type": "uint256"
        },
        {
          "internalType": "uint256",
          "name": "_epochAlignTimestamp",
          "type": "uint256"
        },
        {
          "internalType": "uint256",
          "name": "_epochPeriod",
          "type": "uint256"
        }
      ],
      "name": "setLockUp",
      "outputs": [],
      "stateMutability": "nonpayable",
      "type": "function"
    },
    {
      "inputs": [
        {
          "internalType": "address",
          "name": "_rewardDistribution",
          "type": "address"
        }
      ],
      "name": "setRewardDistribution",
      "outputs": [],
      "stateMutability": "nonpayable",
      "type": "function"
    },
    {
      "inputs": [],
      "name": "startime",
      "outputs": [
        {
          "internalType": "uint256",
          "name": "",
          "type": "uint256"
        }
      ],
      "stateMutability": "view",
      "type": "function",
      "constant": true
    },
    {
      "inputs": [],
      "name": "totalSupply",
      "outputs": [
        {
          "internalType": "uint256",
          "name": "",
          "type": "uint256"
        }
      ],
      "stateMutability": "view",
      "type": "function",
      "constant": true
    },
    {
      "inputs": [
        {
          "internalType": "address",
          "name": "newOperator_",
          "type": "address"
        }
      ],
      "name": "transferOperator",
      "outputs": [],
      "stateMutability": "nonpayable",
      "type": "function"
    },
    {
      "inputs": [
        {
          "internalType": "address",
          "name": "newOwner",
          "type": "address"
        }
      ],
      "name": "transferOwnership",
      "outputs": [],
      "stateMutability": "nonpayable",
      "type": "function"
    },
    {
      "inputs": [
        {
          "internalType": "uint256",
          "name": "_epochAlignTimestamp",
          "type": "uint256"
        }
      ],
      "name": "updateEpochAlignTimestamp",
      "outputs": [],
      "stateMutability": "nonpayable",
      "type": "function"
    },
    {
      "inputs": [
        {
          "internalType": "uint256",
          "name": "_epochPeriod",
          "type": "uint256"
        }
      ],
      "name": "updateEpochPeriod",
      "outputs": [],
      "stateMutability": "nonpayable",
      "type": "function"
    },
    {
      "inputs": [
        {
          "internalType": "uint256",
          "name": "_rewardLockupEpochs",
          "type": "uint256"
        }
      ],
      "name": "updateRewardLockupEpochs",
      "outputs": [],
      "stateMutability": "nonpayable",
      "type": "function"
    },
    {
      "inputs": [
        {
          "internalType": "uint256",
          "name": "_withdrawLockupEpochs",
          "type": "uint256"
        }
      ],
      "name": "updateWithdrawLockupEpochs",
      "outputs": [],
      "stateMutability": "nonpayable",
      "type": "function"
    },
    {
      "inputs": [
        {
          "internalType": "address",
          "name": "",
          "type": "address"
        }
      ],
      "name": "userRewardPerTokenPaid",
      "outputs": [
        {
          "internalType": "uint256",
          "name": "",
          "type": "uint256"
        }
      ],
      "stateMutability": "view",
      "type": "function",
      "constant": true
    },
    {
      "inputs": [],
      "name": "withdrawLockupEpochs",
      "outputs": [
        {
          "internalType": "uint256",
          "name": "",
          "type": "uint256"
        }
      ],
      "stateMutability": "view",
      "type": "function",
      "constant": true
    },
    {
      "inputs": [],
      "name": "lastTimeRewardApplicable",
      "outputs": [
        {
          "internalType": "uint256",
          "name": "",
          "type": "uint256"
        }
      ],
      "stateMutability": "view",
      "type": "function",
      "constant": true
    },
    {
      "inputs": [
        {
          "internalType": "uint256",
          "name": "_rewardRate",
          "type": "uint256"
        }
      ],
      "name": "setRewardRate",
      "outputs": [],
      "stateMutability": "nonpayable",
      "type": "function"
    },
    {
      "inputs": [],
      "name": "rewardPerToken",
      "outputs": [
        {
          "internalType": "uint256",
          "name": "",
          "type": "uint256"
        }
      ],
      "stateMutability": "view",
      "type": "function",
      "constant": true
    },
    {
      "inputs": [
        {
          "internalType": "address",
          "name": "account",
          "type": "address"
        }
      ],
      "name": "earned",
      "outputs": [
        {
          "internalType": "uint256",
          "name": "",
          "type": "uint256"
        }
      ],
      "stateMutability": "view",
      "type": "function",
      "constant": true
    },
    {
      "inputs": [
        {
          "internalType": "uint256",
          "name": "amount",
          "type": "uint256"
        }
      ],
      "name": "stake",
      "outputs": [],
      "stateMutability": "nonpayable",
      "type": "function"
    },
    {
      "inputs": [
        {
          "internalType": "uint256",
          "name": "amount",
          "type": "uint256"
        }
      ],
      "name": "withdraw",
      "outputs": [],
      "stateMutability": "nonpayable",
      "type": "function"
    },
    {
      "inputs": [],
      "name": "exit",
      "outputs": [],
      "stateMutability": "nonpayable",
      "type": "function"
    },
    {
      "inputs": [],
      "name": "getReward",
      "outputs": [],
      "stateMutability": "nonpayable",
      "type": "function"
    }
  ],
  "bytecode": "0x608060405260026006556002600755635fe59c0060085560b46009556001600d5562069780600e55600060105560006011553480156200003e57600080fd5b50604051620024d5380380620024d5833981810160405260808110156200006457600080fd5b50805160208201516040830151606090930151919290916200008f620000896200012b565b6200012f565b620000996200012b565b600580546001600160a01b0319166001600160a01b0392831617908190556040519116906000907f74da04524d50c64947f5dd5381ef1a4dca5cba8ed1d816243f9e48aa0b5617ed908290a3600b80546001600160a01b03199081166001600160a01b039687161790915560008054821694861694909417909355600c805490931691909316179055600f5562000181565b3390565b600380546001600160a01b038381166001600160a01b0319831681179093556040519116919082907f8be0079c531659141344cd1fd0a4f28419497f9722a3daafe3b4186f6b6457e090600090a35050565b61234480620001916000396000f3fe608060405234801561001057600080fd5b50600436106102f35760003560e01c806370a0823111610191578063bb36c02a116100e3578063d91e0ddc11610097578063ebe2b12b11610071578063ebe2b12b146106f9578063f28ffa7014610701578063f2fde38b14610709576102f3565b8063d91e0ddc146106b6578063df136d65146106e9578063e9fad8ee146106f1576102f3565b8063cd3daf9d116100c8578063cd3daf9d14610677578063ce5fc8d01461067f578063d2a6fbc114610687576102f3565b8063bb36c02a14610652578063c8f33c911461066f576102f3565b806383825ced116101455780639e447fc61161011f5780639e447fc614610610578063a694fc3a1461062d578063b5b7a1841461064a576102f3565b806383825ced146105cd5780638b876347146105d55780638da5cb5b14610608576102f3565b80637b0a47ee116101765780637b0a47ee146105b55780637d031ce4146105bd57806380faa57d146105c5576102f3565b806370a082311461057a578063715018a6146105ad576102f3565b80631be052891161024a57806331a0e832116101fe578063570ca735116101d8578063570ca735146105225780635b17e0eb1461052a578063708ae76e1461055d576102f3565b806331a0e832146104f55780633d18b912146105125780634456eda21461051a576102f3565b80631e85cd651161022f5780631e85cd651461049d57806329605e77146104a55780632e1a7d4d146104d8576102f3565b80631be052891461048d5780631be2ff9714610495576102f3565b80630d68b761116102ac57806318160ddd1161028657806318160ddd1461044a5780631912b3d71461045257806319262d301461045a576102f3565b80630d68b761146103de578063101114cf1461041157806315d91fa114610442576102f3565b8063046335d0116102dd578063046335d0146103455780630700037d1461038c5780630b7c8a3b146103bf576102f3565b80628cc262146102f8578063022ba18d1461033d575b600080fd5b61032b6004803603602081101561030e57600080fd5b503573ffffffffffffffffffffffffffffffffffffffff1661073c565b60408051918252519081900360200190f35b61032b6107b7565b6103786004803603602081101561035b57600080fd5b503573ffffffffffffffffffffffffffffffffffffffff166107bd565b604080519115158252519081900360200190f35b61032b600480360360208110156103a257600080fd5b503573ffffffffffffffffffffffffffffffffffffffff166107d8565b6103dc600480360360208110156103d557600080fd5b50356107ea565b005b6103dc600480360360208110156103f457600080fd5b503573ffffffffffffffffffffffffffffffffffffffff166108c8565b6104196109b7565b6040805173ffffffffffffffffffffffffffffffffffffffff9092168252519081900360200190f35b6104196109d3565b61032b6109ef565b6104196109f6565b6103786004803603602081101561047057600080fd5b503573ffffffffffffffffffffffffffffffffffffffff16610a12565b61032b610a25565b61032b610a2b565b61032b610a31565b6103dc600480360360208110156104bb57600080fd5b503573ffffffffffffffffffffffffffffffffffffffff16610a37565b6103dc600480360360208110156104ee57600080fd5b5035610aeb565b6103dc6004803603602081101561050b57600080fd5b5035610c62565b6103dc610d40565b610378610f7b565b610419610fbb565b61032b6004803603602081101561054057600080fd5b503573ffffffffffffffffffffffffffffffffffffffff16610fd7565b6103dc6004803603602081101561057357600080fd5b503561101f565b61032b6004803603602081101561059057600080fd5b503573ffffffffffffffffffffffffffffffffffffffff166110fd565b6103dc611125565b61032b6111d9565b61032b6111df565b61032b6111e5565b61032b611200565b61032b600480360360208110156105eb57600080fd5b503573ffffffffffffffffffffffffffffffffffffffff16611204565b610419611216565b6103dc6004803603602081101561062657600080fd5b5035611232565b6103dc6004803603602081101561064357600080fd5b50356112e7565b61032b61145e565b6103dc6004803603602081101561066857600080fd5b5035611464565b61032b611542565b61032b611548565b61041961159b565b6103dc6004803603608081101561069d57600080fd5b50803590602081013590604081013590606001356115b7565b61032b600480360360208110156106cc57600080fd5b503573ffffffffffffffffffffffffffffffffffffffff166117c1565b61032b6117dd565b6103dc6117e3565b61032b6117fc565b61032b611802565b6103dc6004803603602081101561071f57600080fd5b503573ffffffffffffffffffffffffffffffffffffffff16611808565b73ffffffffffffffffffffffffffffffffffffffff811660009081526015602090815260408083205460149092528220546107b191906107ab90670de0b6b3a7640000906107a59061079690610790611548565b90611925565b61079f886110fd565b9061196e565b906119e1565b90611a23565b92915050565b60075481565b60006107c7611200565b6107d083610fd7565b111592915050565b60156020526000908152604090205481565b60055473ffffffffffffffffffffffffffffffffffffffff16331461085a576040517f08c379a000000000000000000000000000000000000000000000000000000000815260040180806020018281038252602481526020018061229c6024913960400191505060405180910390fd5b60408051602081018390528181526014818301527f77697468647261774c6f636b757045706f6368730000000000000000000000006060820152905133917f0a1457b359008e11b890e625753b8d7ec9f7397d31329f87e9f17d7d919c1370919081900360800190a2600655565b6108d0611a97565b73ffffffffffffffffffffffffffffffffffffffff166108ee611216565b73ffffffffffffffffffffffffffffffffffffffff161461097057604080517f08c379a000000000000000000000000000000000000000000000000000000000815260206004820181905260248201527f4f776e61626c653a2063616c6c6572206973206e6f7420746865206f776e6572604482015290519081900360640190fd5b600480547fffffffffffffffffffffffff00000000000000000000000000000000000000001673ffffffffffffffffffffffffffffffffffffffff92909216919091179055565b60045473ffffffffffffffffffffffffffffffffffffffff1681565b600c5473ffffffffffffffffffffffffffffffffffffffff1681565b6001545b90565b600b5473ffffffffffffffffffffffffffffffffffffffff1681565b6000610a1c611200565b6107d0836117c1565b600e5481565b60085481565b60065481565b610a3f611a97565b73ffffffffffffffffffffffffffffffffffffffff16610a5d611216565b73ffffffffffffffffffffffffffffffffffffffff1614610adf57604080517f08c379a000000000000000000000000000000000000000000000000000000000815260206004820181905260248201527f4f776e61626c653a2063616c6c6572206973206e6f7420746865206f776e6572604482015290519081900360640190fd5b610ae881611a9b565b50565b33610af4611548565b60135573ffffffffffffffffffffffffffffffffffffffff811615610b5557610b1c8161073c565b73ffffffffffffffffffffffffffffffffffffffff82166000908152601560209081526040808320939093556013546014909152919020555b600f54421015610bc657604080517f08c379a000000000000000000000000000000000000000000000000000000000815260206004820181905260248201527f4441494241434c50546f6b656e43617368506f6f6c3a206e6f74207374617274604482015290519081900360640190fd5b60008211610c1f576040517f08c379a00000000000000000000000000000000000000000000000000000000081526004018080602001828103825260288152602001806122746028913960400191505060405180910390fd5b610c2882611b91565b60408051838152905133917f7084f5476618d8e60b11ef0d7d3f06914655adb8793e28ff7f018d4c76d505d5919081900360200190a25050565b60055473ffffffffffffffffffffffffffffffffffffffff163314610cd2576040517f08c379a000000000000000000000000000000000000000000000000000000000815260040180806020018281038252602481526020018061229c6024913960400191505060405180910390fd5b60408051602081018390528181526013818301527f65706f6368416c69676e54696d657374616d70000000000000000000000000006060820152905133917f0a1457b359008e11b890e625753b8d7ec9f7397d31329f87e9f17d7d919c1370919081900360800190a2600855565b33610d49611548565b60135573ffffffffffffffffffffffffffffffffffffffff811615610daa57610d718161073c565b73ffffffffffffffffffffffffffffffffffffffff82166000908152601560209081526040808320939093556013546014909152919020555b600f54421015610e1b57604080517f08c379a000000000000000000000000000000000000000000000000000000000815260206004820181905260248201527f4441494241434c50546f6b656e43617368506f6f6c3a206e6f74207374617274604482015290519081900360640190fd5b6000610e263361073c565b90508015610f7757610e3733610a12565b610ea257604080517f08c379a000000000000000000000000000000000000000000000000000000000815260206004820152601f60248201527f424143574f4b543a207374696c6c20696e20726577617264206c6f636b757000604482015290519081900360640190fd5b610eaa611bf3565b33600081815260156020526040812055600d54610ef69190610ed6906064906107a5908690830361196e565b600b5473ffffffffffffffffffffffffffffffffffffffff169190611c0d565b6000610f1260646107a5600d548561196e90919063ffffffff16565b600c54600b54919250610f3f9173ffffffffffffffffffffffffffffffffffffffff908116911683611c0d565b60408051838152905133917fe2403640ba68fed3a2f88b7557551d1993f84b99bb10ff833f0cf8db0c5e0486919081900360200190a2505b5050565b60055460009073ffffffffffffffffffffffffffffffffffffffff16610f9f611a97565b73ffffffffffffffffffffffffffffffffffffffff1614905090565b60055473ffffffffffffffffffffffffffffffffffffffff1690565b60006107b1610ff360095460075461196e90919063ffffffff16565b73ffffffffffffffffffffffffffffffffffffffff84166000908152600a602052604090205490611a23565b60055473ffffffffffffffffffffffffffffffffffffffff16331461108f576040517f08c379a000000000000000000000000000000000000000000000000000000000815260040180806020018281038252602481526020018061229c6024913960400191505060405180910390fd5b6040805160208101839052818152600b818301527f65706f6368506572696f640000000000000000000000000000000000000000006060820152905133917f0a1457b359008e11b890e625753b8d7ec9f7397d31329f87e9f17d7d919c1370919081900360800190a2600955565b73ffffffffffffffffffffffffffffffffffffffff1660009081526002602052604090205490565b61112d611a97565b73ffffffffffffffffffffffffffffffffffffffff1661114b611216565b73ffffffffffffffffffffffffffffffffffffffff16146111cd57604080517f08c379a000000000000000000000000000000000000000000000000000000000815260206004820181905260248201527f4f776e61626c653a2063616c6c6572206973206e6f7420746865206f776e6572604482015290519081900360640190fd5b6111d76000611c9f565b565b60115481565b600f5481565b601054600090156111f957506010546109f3565b50426109f3565b4290565b60146020526000908152604090205481565b60035473ffffffffffffffffffffffffffffffffffffffff1690565b60055473ffffffffffffffffffffffffffffffffffffffff1633146112a2576040517f08c379a000000000000000000000000000000000000000000000000000000000815260040180806020018281038252602481526020018061229c6024913960400191505060405180910390fd5b6011819055600f544211156112cc57426012819055600e546112c49190611a23565b601055610ae8565b600f546012819055600e546112e19190611a23565b60105550565b336112f0611548565b60135573ffffffffffffffffffffffffffffffffffffffff811615611351576113188161073c565b73ffffffffffffffffffffffffffffffffffffffff82166000908152601560209081526040808320939093556013546014909152919020555b600f544210156113c257604080517f08c379a000000000000000000000000000000000000000000000000000000000815260206004820181905260248201527f4441494241434c50546f6b656e43617368506f6f6c3a206e6f74207374617274604482015290519081900360640190fd5b6000821161141b576040517f08c379a00000000000000000000000000000000000000000000000000000000081526004018080602001828103825260258152602001806122ea6025913960400191505060405180910390fd5b61142482611d16565b60408051838152905133917f9e71bc8eea02a63969f509818f2dafb9254532904319f9dbda79b67bd34a5f3d919081900360200190a25050565b60095481565b60055473ffffffffffffffffffffffffffffffffffffffff1633146114d4576040517f08c379a000000000000000000000000000000000000000000000000000000000815260040180806020018281038252602481526020018061229c6024913960400191505060405180910390fd5b60408051602081018390528181526012818301527f7265776172644c6f636b757045706f63687300000000000000000000000000006060820152905133917f0a1457b359008e11b890e625753b8d7ec9f7397d31329f87e9f17d7d919c1370919081900360800190a2600755565b60125481565b60006115526109ef565b61155f57506013546109f3565b61159661158d61156d6109ef565b6107a5670de0b6b3a764000061079f60115461079f6012546107906111e5565b60135490611a23565b905090565b60005473ffffffffffffffffffffffffffffffffffffffff1681565b60055473ffffffffffffffffffffffffffffffffffffffff163314611627576040517f08c379a000000000000000000000000000000000000000000000000000000000815260040180806020018281038252602481526020018061229c6024913960400191505060405180910390fd5b828410158015611638575060158411155b6116a357604080517f08c379a000000000000000000000000000000000000000000000000000000000815260206004820152601a60248201527f4c6f636b757045706f6368733a206f7574206f662072616e6765000000000000604482015290519081900360640190fd5b6201518081111561171557604080517f08c379a000000000000000000000000000000000000000000000000000000000815260206004820152601960248201527f45706f6368506572696f643a206f7574206f662072616e676500000000000000604482015290519081900360640190fd5b4261172b61172483600261196e565b8490611a23565b1061179757604080517f08c379a000000000000000000000000000000000000000000000000000000000815260206004820152601d60248201527f45706f6368416c69676e54696d657374616d703a20746f6f206c617465000000604482015290519081900360640190fd5b6117a0846107ea565b6117a983611464565b6117b282610c62565b6117bb8161101f565b50505050565b60006107b1610ff360095460065461196e90919063ffffffff16565b60135481565b6117f46117ef336110fd565b610aeb565b6111d7610d40565b60105481565b600d5481565b611810611a97565b73ffffffffffffffffffffffffffffffffffffffff1661182e611216565b73ffffffffffffffffffffffffffffffffffffffff16146118b057604080517f08c379a000000000000000000000000000000000000000000000000000000000815260206004820181905260248201527f4f776e61626c653a2063616c6c6572206973206e6f7420746865206f776e6572604482015290519081900360640190fd5b73ffffffffffffffffffffffffffffffffffffffff811661191c576040517f08c379a00000000000000000000000000000000000000000000000000000000081526004018080602001828103825260268152602001806122006026913960400191505060405180910390fd5b610ae881611c9f565b600061196783836040518060400160405280601e81526020017f536166654d6174683a207375627472616374696f6e206f766572666c6f770000815250611d79565b9392505050565b60008261197d575060006107b1565b8282028284828161198a57fe5b0414611967576040517f08c379a00000000000000000000000000000000000000000000000000000000081526004018080602001828103825260218152602001806122536021913960400191505060405180910390fd5b600061196783836040518060400160405280601a81526020017f536166654d6174683a206469766973696f6e206279207a65726f000000000000815250611e2a565b60008282018381101561196757604080517f08c379a000000000000000000000000000000000000000000000000000000000815260206004820152601b60248201527f536166654d6174683a206164646974696f6e206f766572666c6f770000000000604482015290519081900360640190fd5b3390565b73ffffffffffffffffffffffffffffffffffffffff8116611b07576040517f08c379a000000000000000000000000000000000000000000000000000000000815260040180806020018281038252602d815260200180612226602d913960400191505060405180910390fd5b60405173ffffffffffffffffffffffffffffffffffffffff8216906000907f74da04524d50c64947f5dd5381ef1a4dca5cba8ed1d816243f9e48aa0b5617ed908290a3600580547fffffffffffffffffffffffff00000000000000000000000000000000000000001673ffffffffffffffffffffffffffffffffffffffff92909216919091179055565b600154611b9e9082611925565b60015533600090815260026020526040902054611bbb9082611925565b336000818152600260205260408120929092559054610ae89173ffffffffffffffffffffffffffffffffffffffff9091169083611c0d565b611bfb611200565b336000908152600a6020526040902055565b6040805173ffffffffffffffffffffffffffffffffffffffff8416602482015260448082018490528251808303909101815260649091019091526020810180517bffffffffffffffffffffffffffffffffffffffffffffffffffffffff167fa9059cbb00000000000000000000000000000000000000000000000000000000179052611c9a908490611ea9565b505050565b6003805473ffffffffffffffffffffffffffffffffffffffff8381167fffffffffffffffffffffffff0000000000000000000000000000000000000000831681179093556040519116919082907f8be0079c531659141344cd1fd0a4f28419497f9722a3daafe3b4186f6b6457e090600090a35050565b600154611d239082611a23565b60015533600090815260026020526040902054611d409082611a23565b336000818152600260205260408120929092559054610ae89173ffffffffffffffffffffffffffffffffffffffff909116903084611f81565b60008184841115611e22576040517f08c379a00000000000000000000000000000000000000000000000000000000081526004018080602001828103825283818151815260200191508051906020019080838360005b83811015611de7578181015183820152602001611dcf565b50505050905090810190601f168015611e145780820380516001836020036101000a031916815260200191505b509250505060405180910390fd5b505050900390565b60008183611e93576040517f08c379a0000000000000000000000000000000000000000000000000000000008152602060048201818152835160248401528351909283926044909101919085019080838360008315611de7578181015183820152602001611dcf565b506000838581611e9f57fe5b0495945050505050565b6060611f0b826040518060400160405280602081526020017f5361666545524332303a206c6f772d6c6576656c2063616c6c206661696c65648152508573ffffffffffffffffffffffffffffffffffffffff166120169092919063ffffffff16565b805190915015611c9a57808060200190516020811015611f2a57600080fd5b5051611c9a576040517f08c379a000000000000000000000000000000000000000000000000000000000815260040180806020018281038252602a8152602001806122c0602a913960400191505060405180910390fd5b6040805173ffffffffffffffffffffffffffffffffffffffff80861660248301528416604482015260648082018490528251808303909101815260849091019091526020810180517bffffffffffffffffffffffffffffffffffffffffffffffffffffffff167f23b872dd000000000000000000000000000000000000000000000000000000001790526117bb908590611ea9565b6060612025848460008561202d565b949350505050565b6060612038856121f9565b6120a357604080517f08c379a000000000000000000000000000000000000000000000000000000000815260206004820152601d60248201527f416464726573733a2063616c6c20746f206e6f6e2d636f6e7472616374000000604482015290519081900360640190fd5b600060608673ffffffffffffffffffffffffffffffffffffffff1685876040518082805190602001908083835b6020831061210d57805182527fffffffffffffffffffffffffffffffffffffffffffffffffffffffffffffffe090920191602091820191016120d0565b6001836020036101000a03801982511681845116808217855250505050505090500191505060006040518083038185875af1925050503d806000811461216f576040519150601f19603f3d011682016040523d82523d6000602084013e612174565b606091505b509150915081156121885791506120259050565b8051156121985780518082602001fd5b6040517f08c379a0000000000000000000000000000000000000000000000000000000008152602060048201818152865160248401528651879391928392604401919085019080838360008315611de7578181015183820152602001611dcf565b3b15159056fe4f776e61626c653a206e6577206f776e657220697320746865207a65726f20616464726573736f70657261746f723a207a65726f206164647265737320676976656e20666f72206e6577206f70657261746f72536166654d6174683a206d756c7469706c69636174696f6e206f766572666c6f774441494241434c50546f6b656e43617368506f6f6c3a2043616e6e6f7420776974686472617720306f70657261746f723a2063616c6c6572206973206e6f7420746865206f70657261746f725361666545524332303a204552433230206f7065726174696f6e20646964206e6f7420737563636565644441494241434c50546f6b656e43617368506f6f6c3a2043616e6e6f74207374616b652030a2646970667358221220052cc8041c74aa1911c420528d4d4869abdb58f04317ac84053efcb5b713852364736f6c634300060c0033",
  "immutableReferences": {},
  "source": "// SPDX-License-Identifier: MIT\npragma solidity ^0.6.12;\n\nimport '../../Math/Math.sol';\nimport '../../Math/SafeMath.sol';\nimport '../../ERC20/IERC20.sol';\nimport '../../Utils/Address.sol';\nimport '../../ERC20/SafeERC20.sol';\nimport '../../Interfaces/IRewardDistributionRecipient.sol';\nimport '../../ERC20/LPTokenWrapper.sol';\nimport '../../Utils/PoolLock.sol';\nimport '../../owner/Operator.sol';\n\ncontract CSSWETHPool is\n    LPTokenWrapper,\n    IRewardDistributionRecipient,\n    PoolLock\n{\n    IERC20 public CSS;\n    address public foundationA; //TEST CASES DONE\n    uint256 public basAllocationPercentage = 1; // TEST CASES DONE\n    uint256 public DURATION = 5 days; // TEST CASES DONE\n\n    uint256 public startime; //TEST CASES DONE \n    uint256 public periodFinish = 0; //TEST CASES DONE\n    uint256 public rewardRate = 0; //TEST CASES DONE\n    uint256 public lastUpdateTime; //TEST CASES DONE\n    uint256 public rewardPerTokenStored; //TEST CASES DONE\n    mapping(address => uint256) public userRewardPerTokenPaid; //TEST CASES DONE\n    mapping(address => uint256) public rewards; //TEST CASES DONE\n\n    event RewardAdded(uint256 reward);\n    event Staked(address indexed user, uint256 amount);\n    event Withdrawn(address indexed user, uint256 amount);\n    event RewardPaid(address indexed user, uint256 reward);\n    // TEST CASES DONE\n    constructor(\n        address _css,\n        address lptoken_,\n        address foundationA_,\n        uint256 _startime\n    ) public {\n        CSS = IERC20(_css);\n        lpt = IERC20(lptoken_);\n        foundationA = foundationA_;\n        startime = _startime;\n    }\n\n    modifier checkStart() {\n        require(\n            block.timestamp >= startime,\n            'DAIBACLPTokenCashPool: not start'\n        );\n        _;\n    }\n\n    modifier updateReward(address account) {\n        rewardPerTokenStored = rewardPerToken();\n        // TODO: [IMPORTANT][ADDED CODE] TO TUNING THE LASTUPDATETIME MECHANISM\n        // lastUpdateTime = lastTimeRewardApplicable();\n        if (account != address(0)) {\n            rewards[account] = earned(account);\n            userRewardPerTokenPaid[account] = rewardPerTokenStored;\n        }\n        _;\n    }\n    // TEST CASES DONE\n    function lastTimeRewardApplicable() public view returns (uint256) {\n        // TODO: [IMPORTANT][ADDED CODE] TO TUNING THE LASTUPDATETIME MECHANISM\n        // return Math.min(block.timestamp, periodFinish);\n        if (periodFinish>0) \n            return periodFinish;\n        else \n            return block.timestamp;\n    }\n    // TEST CASES DONE\n    function setRewardRate(uint256 _rewardRate) public onlyOperator {\n        rewardRate = _rewardRate;\n        if (block.timestamp > startime) {\n            lastUpdateTime = block.timestamp;\n            periodFinish = block.timestamp.add(DURATION);\n        } else {\n            lastUpdateTime = startime;\n            periodFinish = startime.add(DURATION);\n        }\n    }\n    // TEST CASES DONE\n    function rewardPerToken() public view returns (uint256) {\n        if (totalSupply() == 0) {\n            return rewardPerTokenStored;\n        }\n        return\n            rewardPerTokenStored.add(\n                lastTimeRewardApplicable()\n                    .sub(lastUpdateTime)\n                    .mul(rewardRate)\n                    .mul(1e18)\n                    .div(totalSupply())\n            );\n    }\n    // TEST CASES DONE\n    function earned(address account) public view returns (uint256) {\n        return\n            balanceOf(account)\n                .mul(rewardPerToken().sub(userRewardPerTokenPaid[account]))\n                .div(1e18)\n                .add(rewards[account]);\n    }\n\n    // stake visibility is public as overriding LPTokenWrapper's stake() function\n    // TEST CASES DONE\n    function stake(uint256 amount)\n        public\n        override\n        updateReward(msg.sender)\n        checkStart\n    {\n        require(amount > 0, 'DAIBACLPTokenCashPool: Cannot stake 0');\n        super.stake(amount);\n        // TODO: ADD CODE FOR SETLOCKTIME()\n        // setLockTime();\n        emit Staked(msg.sender, amount);\n    }\n    // TEST CASES DONE\n    function withdraw(uint256 amount)\n        public\n        override\n        updateReward(msg.sender)\n        checkStart\n    {\n        require(amount > 0, 'DAIBACLPTokenCashPool: Cannot withdraw 0');\n        // TODO: ADD CODE FOR LOCKUP\n        // require(canWithdraw(msg.sender), \"BACWOKT: still in withdraw lockup\");\n        // setLockTime();\n        super.withdraw(amount);\n        emit Withdrawn(msg.sender, amount);\n    }\n\n    function exit() external {\n        withdraw(balanceOf(msg.sender));\n        getReward();\n    }\n    // TEST CASES DONE\n    function getReward() public updateReward(msg.sender) checkStart {\n        uint256 reward = earned(msg.sender);\n        if (reward > 0) {\n            require(canWithdraw(msg.sender), \"BACWOKT: still in reward lockup\");\n            setLockTime();\n            rewards[msg.sender] = 0;\n            CSS.safeTransfer(msg.sender, reward.mul(100-basAllocationPercentage).div(100));\n            uint256 totalFee = reward.mul(basAllocationPercentage).div(100);\n            CSS.safeTransfer(foundationA, totalFee);\n            \n            emit RewardPaid(msg.sender, reward);\n        }\n    }\n\n    // function notifyRewardAmount(uint256 reward)\n    //     external\n    //     override\n    //     onlyRewardDistribution\n    //     updateReward(address(0))\n    // {\n    //     if (block.timestamp > startime) {\n    //         if (block.timestamp >= periodFinish) {\n    //             rewardRate = reward.div(DURATION);\n    //         } else {\n    //             uint256 remaining = periodFinish.sub(block.timestamp);\n    //             uint256 leftover = remaining.mul(rewardRate);\n    //             rewardRate = reward.add(leftover).div(DURATION);\n    //         }\n    //         lastUpdateTime = block.timestamp;\n    //         periodFinish = block.timestamp.add(DURATION);\n    //         emit RewardAdded(reward);\n    //     } else {\n    //         rewardRate = reward.div(DURATION);\n    //         lastUpdateTime = startime;\n    //         periodFinish = startime.add(DURATION);\n    //         emit RewardAdded(reward);\n    //     }\n    // }\n}\n",
  "sourcePath": "/Users/cooper/GitHub/Prigogine/Ceres-Protocol/contracts/Ceres/Pools/CSSWETHPool.sol",
  "compiler": {
    "name": "solc",
    "version": "0.6.12+commit.27d51765.Emscripten.clang"
  },
  "schemaVersion": "3.4.1",
  "updatedAt": "2021-07-29T03:47:51.324Z",
  "networkType": "ethereum",
  "devdoc": {
    "kind": "dev",
    "methods": {
      "owner()": {
        "details": "Returns the address of the current owner."
      },
      "renounceOwnership()": {
        "details": "Leaves the contract without owner. It will not be possible to call `onlyOwner` functions anymore. Can only be called by the current owner. NOTE: Renouncing ownership will leave the contract without an owner, thereby removing any functionality that is only available to the owner."
      },
      "transferOwnership(address)": {
        "details": "Transfers ownership of the contract to a new account (`newOwner`). Can only be called by the current owner."
      }
    },
    "version": 1
  },
  "userdoc": {
    "kind": "user",
    "methods": {},
    "version": 1
  }
}