{
  "contractName": "Epoch",
  "abi": [
    {
      "inputs": [
        {
          "internalType": "uint256",
          "name": "_period",
          "type": "uint256"
        },
        {
          "internalType": "uint256",
          "name": "_startTime",
          "type": "uint256"
        },
        {
          "internalType": "uint256",
          "name": "_startEpoch",
          "type": "uint256"
        }
      ],
      "stateMutability": "nonpayable",
      "type": "constructor"
    },
    {
      "anonymous": false,
      "inputs": [
        {
          "indexed": true,
          "internalType": "address",
          "name": "previousOperator",
          "type": "address"
        },
        {
          "indexed": true,
          "internalType": "address",
          "name": "newOperator",
          "type": "address"
        }
      ],
      "name": "OperatorTransferred",
      "type": "event"
    },
    {
      "anonymous": false,
      "inputs": [
        {
          "indexed": true,
          "internalType": "address",
          "name": "previousOwner",
          "type": "address"
        },
        {
          "indexed": true,
          "internalType": "address",
          "name": "newOwner",
          "type": "address"
        }
      ],
      "name": "OwnershipTransferred",
      "type": "event"
    },
    {
      "inputs": [],
      "name": "isOperator",
      "outputs": [
        {
          "internalType": "bool",
          "name": "",
          "type": "bool"
        }
      ],
      "stateMutability": "view",
      "type": "function"
    },
    {
      "inputs": [],
      "name": "operator",
      "outputs": [
        {
          "internalType": "address",
          "name": "",
          "type": "address"
        }
      ],
      "stateMutability": "view",
      "type": "function"
    },
    {
      "inputs": [],
      "name": "owner",
      "outputs": [
        {
          "internalType": "address",
          "name": "",
          "type": "address"
        }
      ],
      "stateMutability": "view",
      "type": "function"
    },
    {
      "inputs": [],
      "name": "renounceOwnership",
      "outputs": [],
      "stateMutability": "nonpayable",
      "type": "function"
    },
    {
      "inputs": [
        {
          "internalType": "address",
          "name": "newOperator_",
          "type": "address"
        }
      ],
      "name": "transferOperator",
      "outputs": [],
      "stateMutability": "nonpayable",
      "type": "function"
    },
    {
      "inputs": [
        {
          "internalType": "address",
          "name": "newOwner",
          "type": "address"
        }
      ],
      "name": "transferOwnership",
      "outputs": [],
      "stateMutability": "nonpayable",
      "type": "function"
    },
    {
      "inputs": [],
      "name": "getCurrentEpoch",
      "outputs": [
        {
          "internalType": "uint256",
          "name": "",
          "type": "uint256"
        }
      ],
      "stateMutability": "view",
      "type": "function"
    },
    {
      "inputs": [],
      "name": "getPeriod",
      "outputs": [
        {
          "internalType": "uint256",
          "name": "",
          "type": "uint256"
        }
      ],
      "stateMutability": "view",
      "type": "function"
    },
    {
      "inputs": [],
      "name": "getStartTime",
      "outputs": [
        {
          "internalType": "uint256",
          "name": "",
          "type": "uint256"
        }
      ],
      "stateMutability": "view",
      "type": "function"
    },
    {
      "inputs": [],
      "name": "nextEpochPoint",
      "outputs": [
        {
          "internalType": "uint256",
          "name": "",
          "type": "uint256"
        }
      ],
      "stateMutability": "view",
      "type": "function"
    },
    {
      "inputs": [
        {
          "internalType": "uint256",
          "name": "_period",
          "type": "uint256"
        }
      ],
      "name": "setPeriod",
      "outputs": [],
      "stateMutability": "nonpayable",
      "type": "function"
    }
  ],
  "bytecode": "0x608060405234801561001057600080fd5b506040516109d93803806109d98339818101604052606081101561003357600080fd5b508051602082015160409092015190919061005461004f6100b9565b6100bd565b61005c6100b9565b600180546001600160a01b0319166001600160a01b0392831617908190556040519116906000907f74da04524d50c64947f5dd5381ef1a4dca5cba8ed1d816243f9e48aa0b5617ed908290a360029290925560035560045561010d565b3390565b600080546001600160a01b038381166001600160a01b0319831681178455604051919092169283917f8be0079c531659141344cd1fd0a4f28419497f9722a3daafe3b4186f6b6457e09190a35050565b6108bd8061011c6000396000f3fe608060405234801561001057600080fd5b50600436106100c95760003560e01c8063715018a611610081578063c5967c261161005b578063c5967c261461019f578063c828371e146101a7578063f2fde38b146101af576100c9565b8063715018a6146101875780638da5cb5b1461018f578063b97dd9e214610197576100c9565b806329605e77116100b257806329605e77146101075780634456eda21461013a578063570ca73514610156576100c9565b80630f3a9f65146100ce5780631ed24195146100ed575b600080fd5b6100eb600480360360208110156100e457600080fd5b50356101e2565b005b6100f5610257565b60408051918252519081900360200190f35b6100eb6004803603602081101561011d57600080fd5b503573ffffffffffffffffffffffffffffffffffffffff1661025d565b610142610311565b604080519115158252519081900360200190f35b61015e610351565b6040805173ffffffffffffffffffffffffffffffffffffffff9092168252519081900360200190f35b6100eb61036d565b61015e610421565b6100f561043d565b6100f5610443565b6100f561046d565b6100eb600480360360208110156101c557600080fd5b503573ffffffffffffffffffffffffffffffffffffffff16610473565b60015473ffffffffffffffffffffffffffffffffffffffff163314610252576040517f08c379a00000000000000000000000000000000000000000000000000000000081526004018080602001828103825260248152602001806108646024913960400191505060405180910390fd5b600255565b60025490565b610265610590565b73ffffffffffffffffffffffffffffffffffffffff16610283610421565b73ffffffffffffffffffffffffffffffffffffffff161461030557604080517f08c379a000000000000000000000000000000000000000000000000000000000815260206004820181905260248201527f4f776e61626c653a2063616c6c6572206973206e6f7420746865206f776e6572604482015290519081900360640190fd5b61030e81610594565b50565b60015460009073ffffffffffffffffffffffffffffffffffffffff16610335610590565b73ffffffffffffffffffffffffffffffffffffffff1614905090565b60015473ffffffffffffffffffffffffffffffffffffffff1690565b610375610590565b73ffffffffffffffffffffffffffffffffffffffff16610393610421565b73ffffffffffffffffffffffffffffffffffffffff161461041557604080517f08c379a000000000000000000000000000000000000000000000000000000000815260206004820181905260248201527f4f776e61626c653a2063616c6c6572206973206e6f7420746865206f776e6572604482015290519081900360640190fd5b61041f600061068a565b565b60005473ffffffffffffffffffffffffffffffffffffffff1690565b60045490565b600061046861045f6002546004546106ff90919063ffffffff16565b6003549061077b565b905090565b60035490565b61047b610590565b73ffffffffffffffffffffffffffffffffffffffff16610499610421565b73ffffffffffffffffffffffffffffffffffffffff161461051b57604080517f08c379a000000000000000000000000000000000000000000000000000000000815260206004820181905260248201527f4f776e61626c653a2063616c6c6572206973206e6f7420746865206f776e6572604482015290519081900360640190fd5b73ffffffffffffffffffffffffffffffffffffffff8116610587576040517f08c379a00000000000000000000000000000000000000000000000000000000081526004018080602001828103825260268152602001806107f06026913960400191505060405180910390fd5b61030e8161068a565b3390565b73ffffffffffffffffffffffffffffffffffffffff8116610600576040517f08c379a000000000000000000000000000000000000000000000000000000000815260040180806020018281038252602d815260200180610816602d913960400191505060405180910390fd5b60405173ffffffffffffffffffffffffffffffffffffffff8216906000907f74da04524d50c64947f5dd5381ef1a4dca5cba8ed1d816243f9e48aa0b5617ed908290a3600180547fffffffffffffffffffffffff00000000000000000000000000000000000000001673ffffffffffffffffffffffffffffffffffffffff92909216919091179055565b6000805473ffffffffffffffffffffffffffffffffffffffff8381167fffffffffffffffffffffffff0000000000000000000000000000000000000000831681178455604051919092169283917f8be0079c531659141344cd1fd0a4f28419497f9722a3daafe3b4186f6b6457e09190a35050565b60008261070e57506000610775565b8282028284828161071b57fe5b0414610772576040517f08c379a00000000000000000000000000000000000000000000000000000000081526004018080602001828103825260218152602001806108436021913960400191505060405180910390fd5b90505b92915050565b60008282018381101561077257604080517f08c379a000000000000000000000000000000000000000000000000000000000815260206004820152601b60248201527f536166654d6174683a206164646974696f6e206f766572666c6f770000000000604482015290519081900360640190fdfe4f776e61626c653a206e6577206f776e657220697320746865207a65726f20616464726573736f70657261746f723a207a65726f206164647265737320676976656e20666f72206e6577206f70657261746f72536166654d6174683a206d756c7469706c69636174696f6e206f766572666c6f776f70657261746f723a2063616c6c6572206973206e6f7420746865206f70657261746f72a264697066735822122021057536e055c21e033904b2afb93dd802b70b5e84860600364279875760a8ba64736f6c634300060c0033",
  "immutableReferences": {},
  "source": "// SPDX-License-Identifier: MIT\npragma solidity ^0.6.12;\n\nimport '../Math/SafeMath.sol';\n\nimport '../owner/Operator.sol';\n\ncontract Epoch is Operator {\n    using SafeMath for uint256;\n\n    uint256 private period;\n    uint256 private startTime;\n    uint256 private epoch;\n\n    /* ========== CONSTRUCTOR ========== */\n\n    constructor(\n        uint256 _period,\n        uint256 _startTime,\n        uint256 _startEpoch\n    ) public {\n        period = _period;\n        startTime = _startTime;\n        epoch = _startEpoch;\n    }\n\n    /* ========== Modifier ========== */\n\n    modifier checkStartTime {\n        require(now >= startTime, 'Epoch: not started yet');\n\n        _;\n    }\n\n    modifier checkEpoch {\n        require(now >= nextEpochPoint(), 'Epoch: not allowed');\n\n        _;\n\n        epoch = epoch.add(1);\n    }\n\n    /* ========== VIEW FUNCTIONS ========== */\n\n    function getCurrentEpoch() public view returns (uint256) {\n        return epoch;\n    }\n\n    function getPeriod() public view returns (uint256) {\n        return period;\n    }\n\n    function getStartTime() public view returns (uint256) {\n        return startTime;\n    }\n\n    function nextEpochPoint() public view returns (uint256) {\n        return startTime.add(epoch.mul(period));\n    }\n\n    /* ========== GOVERNANCE ========== */\n\n    function setPeriod(uint256 _period) external onlyOperator {\n        period = _period;\n    }\n}\n",
  "sourcePath": "/Users/cooper/GitHub/Prigogine/Ceres-Protocol/contracts/Utils/Epoch.sol",
  "compiler": {
    "name": "solc",
    "version": "0.6.12+commit.27d51765.Emscripten.clang"
  },
  "schemaVersion": "3.4.1",
  "updatedAt": "2021-07-29T03:33:35.769Z",
  "devdoc": {
    "kind": "dev",
    "methods": {
      "owner()": {
        "details": "Returns the address of the current owner."
      },
      "renounceOwnership()": {
        "details": "Leaves the contract without owner. It will not be possible to call `onlyOwner` functions anymore. Can only be called by the current owner. NOTE: Renouncing ownership will leave the contract without an owner, thereby removing any functionality that is only available to the owner."
      },
      "transferOwnership(address)": {
        "details": "Transfers ownership of the contract to a new account (`newOwner`). Can only be called by the current owner."
      }
    },
    "version": 1
  },
  "userdoc": {
    "kind": "user",
    "methods": {},
    "version": 1
  }
}