{
  "contractName": "FakeCollateral_USDC",
  "abi": [
    {
      "inputs": [
        {
          "internalType": "address",
          "name": "_creator_address",
          "type": "address"
        },
        {
          "internalType": "uint256",
          "name": "_genesis_supply",
          "type": "uint256"
        },
        {
          "internalType": "string",
          "name": "_symbol",
          "type": "string"
        },
        {
          "internalType": "uint8",
          "name": "_decimals",
          "type": "uint8"
        }
      ],
      "stateMutability": "nonpayable",
      "type": "constructor"
    },
    {
      "anonymous": false,
      "inputs": [
        {
          "indexed": true,
          "internalType": "address",
          "name": "owner",
          "type": "address"
        },
        {
          "indexed": true,
          "internalType": "address",
          "name": "spender",
          "type": "address"
        },
        {
          "indexed": false,
          "internalType": "uint256",
          "name": "value",
          "type": "uint256"
        }
      ],
      "name": "Approval",
      "type": "event"
    },
    {
      "anonymous": false,
      "inputs": [
        {
          "indexed": true,
          "internalType": "address",
          "name": "from",
          "type": "address"
        },
        {
          "indexed": true,
          "internalType": "address",
          "name": "to",
          "type": "address"
        },
        {
          "indexed": false,
          "internalType": "uint256",
          "name": "value",
          "type": "uint256"
        }
      ],
      "name": "Transfer",
      "type": "event"
    },
    {
      "inputs": [
        {
          "internalType": "address",
          "name": "owner",
          "type": "address"
        },
        {
          "internalType": "address",
          "name": "spender",
          "type": "address"
        }
      ],
      "name": "allowance",
      "outputs": [
        {
          "internalType": "uint256",
          "name": "",
          "type": "uint256"
        }
      ],
      "stateMutability": "view",
      "type": "function",
      "constant": true
    },
    {
      "inputs": [
        {
          "internalType": "address",
          "name": "spender",
          "type": "address"
        },
        {
          "internalType": "uint256",
          "name": "amount",
          "type": "uint256"
        }
      ],
      "name": "approve",
      "outputs": [
        {
          "internalType": "bool",
          "name": "",
          "type": "bool"
        }
      ],
      "stateMutability": "nonpayable",
      "type": "function"
    },
    {
      "inputs": [
        {
          "internalType": "address",
          "name": "account",
          "type": "address"
        }
      ],
      "name": "balanceOf",
      "outputs": [
        {
          "internalType": "uint256",
          "name": "",
          "type": "uint256"
        }
      ],
      "stateMutability": "view",
      "type": "function",
      "constant": true
    },
    {
      "inputs": [
        {
          "internalType": "uint256",
          "name": "amount",
          "type": "uint256"
        }
      ],
      "name": "burn",
      "outputs": [],
      "stateMutability": "nonpayable",
      "type": "function"
    },
    {
      "inputs": [
        {
          "internalType": "address",
          "name": "account",
          "type": "address"
        },
        {
          "internalType": "uint256",
          "name": "amount",
          "type": "uint256"
        }
      ],
      "name": "burnFrom",
      "outputs": [],
      "stateMutability": "nonpayable",
      "type": "function"
    },
    {
      "inputs": [],
      "name": "creator_address",
      "outputs": [
        {
          "internalType": "address",
          "name": "",
          "type": "address"
        }
      ],
      "stateMutability": "view",
      "type": "function",
      "constant": true
    },
    {
      "inputs": [],
      "name": "decimals",
      "outputs": [
        {
          "internalType": "uint8",
          "name": "",
          "type": "uint8"
        }
      ],
      "stateMutability": "view",
      "type": "function",
      "constant": true
    },
    {
      "inputs": [
        {
          "internalType": "address",
          "name": "spender",
          "type": "address"
        },
        {
          "internalType": "uint256",
          "name": "subtractedValue",
          "type": "uint256"
        }
      ],
      "name": "decreaseAllowance",
      "outputs": [
        {
          "internalType": "bool",
          "name": "",
          "type": "bool"
        }
      ],
      "stateMutability": "nonpayable",
      "type": "function"
    },
    {
      "inputs": [],
      "name": "faucet",
      "outputs": [],
      "stateMutability": "nonpayable",
      "type": "function"
    },
    {
      "inputs": [],
      "name": "genesis_supply",
      "outputs": [
        {
          "internalType": "uint256",
          "name": "",
          "type": "uint256"
        }
      ],
      "stateMutability": "view",
      "type": "function",
      "constant": true
    },
    {
      "inputs": [
        {
          "internalType": "address",
          "name": "spender",
          "type": "address"
        },
        {
          "internalType": "uint256",
          "name": "addedValue",
          "type": "uint256"
        }
      ],
      "name": "increaseAllowance",
      "outputs": [
        {
          "internalType": "bool",
          "name": "",
          "type": "bool"
        }
      ],
      "stateMutability": "nonpayable",
      "type": "function"
    },
    {
      "inputs": [],
      "name": "symbol",
      "outputs": [
        {
          "internalType": "string",
          "name": "",
          "type": "string"
        }
      ],
      "stateMutability": "view",
      "type": "function",
      "constant": true
    },
    {
      "inputs": [],
      "name": "totalSupply",
      "outputs": [
        {
          "internalType": "uint256",
          "name": "",
          "type": "uint256"
        }
      ],
      "stateMutability": "view",
      "type": "function",
      "constant": true
    },
    {
      "inputs": [
        {
          "internalType": "address",
          "name": "recipient",
          "type": "address"
        },
        {
          "internalType": "uint256",
          "name": "amount",
          "type": "uint256"
        }
      ],
      "name": "transfer",
      "outputs": [
        {
          "internalType": "bool",
          "name": "",
          "type": "bool"
        }
      ],
      "stateMutability": "nonpayable",
      "type": "function"
    },
    {
      "inputs": [
        {
          "internalType": "address",
          "name": "sender",
          "type": "address"
        },
        {
          "internalType": "address",
          "name": "recipient",
          "type": "address"
        },
        {
          "internalType": "uint256",
          "name": "amount",
          "type": "uint256"
        }
      ],
      "name": "transferFrom",
      "outputs": [
        {
          "internalType": "bool",
          "name": "",
          "type": "bool"
        }
      ],
      "stateMutability": "nonpayable",
      "type": "function"
    }
  ],
  "bytecode": "0x60806040523480156200001157600080fd5b50604051620013f5380380620013f5833981810160405260808110156200003757600080fd5b815160208301516040808501805191519395929483019291846401000000008211156200006357600080fd5b9083019060208201858111156200007957600080fd5b82516401000000008111828201881017156200009457600080fd5b82525081516020918201929091019080838360005b83811015620000c3578181015183820152602001620000a9565b50505050905090810190601f168015620000f15780820380516001836020036101000a031916815260200191505b50604052602090810151600286905560018054610100600160a81b0319166101006001600160a01b038a160217905584519093508692508591859185916200013f91600091850190620002f6565b506001805460ff191660ff831617908190556002546200016e9161010090046001600160a01b0316906200017c565b505050505050505062000392565b6001600160a01b038216620001d8576040805162461bcd60e51b815260206004820152601f60248201527f45524332303a206d696e7420746f20746865207a65726f206164647265737300604482015290519081900360640190fd5b620001e6600083836200028f565b62000202816003546200029460201b620007ad1790919060201c565b6003556001600160a01b03821660009081526004602090815260409091205462000237918390620007ad62000294821b17901c565b6001600160a01b03831660008181526004602090815260408083209490945583518581529351929391927fddf252ad1be2c89b69c2b068fc378daa952ba7f163c4a11628f55a4df523b3ef9281900390910190a35050565b505050565b600082820183811015620002ef576040805162461bcd60e51b815260206004820152601b60248201527f536166654d6174683a206164646974696f6e206f766572666c6f770000000000604482015290519081900360640190fd5b9392505050565b828054600181600116156101000203166002900490600052602060002090601f016020900481019282601f106200033957805160ff191683800117855562000369565b8280016001018555821562000369579182015b82811115620003695782518255916020019190600101906200034c565b50620003779291506200037b565b5090565b5b808211156200037757600081556001016200037c565b61105380620003a26000396000f3fe608060405234801561001057600080fd5b50600436106100f55760003560e01c806351e238e311610097578063a457c2d711610066578063a457c2d71461033c578063a9059cbb14610375578063dd62ed3e146103ae578063de5f72fd146103e9576100f5565b806351e238e31461024b57806370a082311461025357806379cc67901461028657806395d89b41146102bf576100f5565b8063313ce567116100d3578063313ce567146101a457806339509351146101c257806342966c68146101fb5780634bd0be231461021a576100f5565b8063095ea7b3146100fa57806318160ddd1461014757806323b872dd14610161575b600080fd5b6101336004803603604081101561011057600080fd5b5073ffffffffffffffffffffffffffffffffffffffff81351690602001356103f1565b604080519115158252519081900360200190f35b61014f61040e565b60408051918252519081900360200190f35b6101336004803603606081101561017757600080fd5b5073ffffffffffffffffffffffffffffffffffffffff813581169160208101359091169060400135610414565b6101ac6104b5565b6040805160ff9092168252519081900360200190f35b610133600480360360408110156101d857600080fd5b5073ffffffffffffffffffffffffffffffffffffffff81351690602001356104be565b6102186004803603602081101561021157600080fd5b5035610519565b005b61022261052d565b6040805173ffffffffffffffffffffffffffffffffffffffff9092168252519081900360200190f35b61014f61054e565b61014f6004803603602081101561026957600080fd5b503573ffffffffffffffffffffffffffffffffffffffff16610554565b6102186004803603604081101561029c57600080fd5b5073ffffffffffffffffffffffffffffffffffffffff813516906020013561057c565b6102c76105d6565b6040805160208082528351818301528351919283929083019185019080838360005b838110156103015781810151838201526020016102e9565b50505050905090810190601f16801561032e5780820380516001836020036101000a031916815260200191505b509250505060405180910390f35b6101336004803603604081101561035257600080fd5b5073ffffffffffffffffffffffffffffffffffffffff8135169060200135610682565b6101336004803603604081101561038b57600080fd5b5073ffffffffffffffffffffffffffffffffffffffff81351690602001356106f7565b61014f600480360360408110156103c457600080fd5b5073ffffffffffffffffffffffffffffffffffffffff8135811691602001351661070b565b610218610743565b60006104056103fe610828565b848461082c565b50600192915050565b60035490565b6000610421848484610973565b6104ab8461042d610828565b6104a685604051806060016040528060288152602001610f436028913973ffffffffffffffffffffffffffffffffffffffff8a16600090815260056020526040812090610478610828565b73ffffffffffffffffffffffffffffffffffffffff1681526020810191909152604001600020549190610b45565b61082c565b5060019392505050565b60015460ff1681565b60006104056104cb610828565b846104a685600560006104dc610828565b73ffffffffffffffffffffffffffffffffffffffff908116825260208083019390935260409182016000908120918c1681529252902054906107ad565b61052a610524610828565b82610bf6565b50565b600154610100900473ffffffffffffffffffffffffffffffffffffffff1681565b60025481565b73ffffffffffffffffffffffffffffffffffffffff1660009081526004602052604090205490565b60006105b382604051806060016040528060248152602001610f6b602491396105ac866105a7610828565b61070b565b9190610b45565b90506105c7836105c1610828565b8361082c565b6105d18383610bf6565b505050565b6000805460408051602060026001851615610100027fffffffffffffffffffffffffffffffffffffffffffffffffffffffffffffffff0190941693909304601f8101849004840282018401909252818152929183018282801561067a5780601f1061064f5761010080835404028352916020019161067a565b820191906000526020600020905b81548152906001019060200180831161065d57829003601f168201915b505050505081565b600061040561068f610828565b846104a685604051806060016040528060258152602001610ff960259139600560006106b9610828565b73ffffffffffffffffffffffffffffffffffffffff908116825260208083019390935260409182016000908120918d16815292529020549190610b45565b6000610405610704610828565b8484610973565b73ffffffffffffffffffffffffffffffffffffffff918216600090815260056020908152604080832093909416825291909152205490565b3360009081526006602052604090205460ff166107ab57336000818152600660205260409020805460017fffffffffffffffffffffffffffffffffffffffffffffffffffffffffffffff009091168117909155546107ab919060ff16600a0a6103e802610d40565b565b60008282018381101561082157604080517f08c379a000000000000000000000000000000000000000000000000000000000815260206004820152601b60248201527f536166654d6174683a206164646974696f6e206f766572666c6f770000000000604482015290519081900360640190fd5b9392505050565b3390565b73ffffffffffffffffffffffffffffffffffffffff8316610898576040517f08c379a0000000000000000000000000000000000000000000000000000000008152600401808060200182810382526024815260200180610fd56024913960400191505060405180910390fd5b73ffffffffffffffffffffffffffffffffffffffff8216610904576040517f08c379a0000000000000000000000000000000000000000000000000000000008152600401808060200182810382526022815260200180610efb6022913960400191505060405180910390fd5b73ffffffffffffffffffffffffffffffffffffffff808416600081815260056020908152604080832094871680845294825291829020859055815185815291517f8c5be1e5ebec7d5bd14f71427d1e84f3dd0314c0f7b2291e5b200ac8c7c3b9259281900390910190a3505050565b73ffffffffffffffffffffffffffffffffffffffff83166109df576040517f08c379a0000000000000000000000000000000000000000000000000000000008152600401808060200182810382526025815260200180610fb06025913960400191505060405180910390fd5b73ffffffffffffffffffffffffffffffffffffffff8216610a4b576040517f08c379a0000000000000000000000000000000000000000000000000000000008152600401808060200182810382526023815260200180610eb66023913960400191505060405180910390fd5b610a568383836105d1565b610aa081604051806060016040528060268152602001610f1d6026913973ffffffffffffffffffffffffffffffffffffffff86166000908152600460205260409020549190610b45565b73ffffffffffffffffffffffffffffffffffffffff8085166000908152600460205260408082209390935590841681522054610adc90826107ad565b73ffffffffffffffffffffffffffffffffffffffff80841660008181526004602090815260409182902094909455805185815290519193928716927fddf252ad1be2c89b69c2b068fc378daa952ba7f163c4a11628f55a4df523b3ef92918290030190a3505050565b60008184841115610bee576040517f08c379a00000000000000000000000000000000000000000000000000000000081526004018080602001828103825283818151815260200191508051906020019080838360005b83811015610bb3578181015183820152602001610b9b565b50505050905090810190601f168015610be05780820380516001836020036101000a031916815260200191505b509250505060405180910390fd5b505050900390565b73ffffffffffffffffffffffffffffffffffffffff8216610c62576040517f08c379a0000000000000000000000000000000000000000000000000000000008152600401808060200182810382526021815260200180610f8f6021913960400191505060405180910390fd5b610c6e826000836105d1565b610cb881604051806060016040528060228152602001610ed96022913973ffffffffffffffffffffffffffffffffffffffff85166000908152600460205260409020549190610b45565b73ffffffffffffffffffffffffffffffffffffffff8316600090815260046020526040902055600354610ceb9082610e73565b60035560408051828152905160009173ffffffffffffffffffffffffffffffffffffffff8516917fddf252ad1be2c89b69c2b068fc378daa952ba7f163c4a11628f55a4df523b3ef9181900360200190a35050565b73ffffffffffffffffffffffffffffffffffffffff8216610dc257604080517f08c379a000000000000000000000000000000000000000000000000000000000815260206004820152601f60248201527f45524332303a206d696e7420746f20746865207a65726f206164647265737300604482015290519081900360640190fd5b610dce600083836105d1565b600354610ddb90826107ad565b60035573ffffffffffffffffffffffffffffffffffffffff8216600090815260046020526040902054610e0e90826107ad565b73ffffffffffffffffffffffffffffffffffffffff831660008181526004602090815260408083209490945583518581529351929391927fddf252ad1be2c89b69c2b068fc378daa952ba7f163c4a11628f55a4df523b3ef9281900390910190a35050565b600061082183836040518060400160405280601e81526020017f536166654d6174683a207375627472616374696f6e206f766572666c6f770000815250610b4556fe45524332303a207472616e7366657220746f20746865207a65726f206164647265737345524332303a206275726e20616d6f756e7420657863656564732062616c616e636545524332303a20617070726f766520746f20746865207a65726f206164647265737345524332303a207472616e7366657220616d6f756e7420657863656564732062616c616e636545524332303a207472616e7366657220616d6f756e74206578636565647320616c6c6f77616e636545524332303a206275726e20616d6f756e74206578636565647320616c6c6f77616e636545524332303a206275726e2066726f6d20746865207a65726f206164647265737345524332303a207472616e736665722066726f6d20746865207a65726f206164647265737345524332303a20617070726f76652066726f6d20746865207a65726f206164647265737345524332303a2064656372656173656420616c6c6f77616e63652062656c6f77207a65726fa2646970667358221220372c8becddd064d2db3731dd7b5ed9d202eb092782910cd557d061f7de097cf664736f6c634300060c0033",
  "immutableReferences": {},
  "source": "// SPDX-License-Identifier: MIT\npragma solidity 0.6.12;\n\nimport \"./FakeCollateral.sol\";\n\ncontract FakeCollateral_USDC is FakeCollateral {\n    constructor(\n        address _creator_address,\n        uint256 _genesis_supply,\n        string memory _symbol,\n        uint8 _decimals\n    ) \n    FakeCollateral(_creator_address, _genesis_supply, _symbol, _decimals)\n    public {}\n}",
  "sourcePath": "/Users/cooper/GitHub/Prigogine/Ceres-Protocol/contracts/FakeCollateral/FakeCollateral_USDC.sol",
  "compiler": {
    "name": "solc",
    "version": "0.6.12+commit.27d51765.Emscripten.clang"
  },
  "schemaVersion": "3.4.1",
  "updatedAt": "2021-07-29T03:47:51.408Z",
  "networkType": "ethereum",
  "devdoc": {
    "kind": "dev",
    "methods": {
      "allowance(address,address)": {
        "details": "See {IERC20-allowance}."
      },
      "approve(address,uint256)": {
        "details": "See {IERC20-approve}. Requirements: - `spender` cannot be the zero address.approve(address spender, uint256 amount)"
      },
      "balanceOf(address)": {
        "details": "See {IERC20-balanceOf}."
      },
      "burn(uint256)": {
        "details": "Destroys `amount` tokens from the caller. See {ERC20-_burn}."
      },
      "burnFrom(address,uint256)": {
        "details": "Destroys `amount` tokens from `account`, deducting from the caller's allowance. See {ERC20-_burn} and {ERC20-allowance}. Requirements: - the caller must have allowance for `accounts`'s tokens of at least `amount`."
      },
      "decreaseAllowance(address,uint256)": {
        "details": "Atomically decreases the allowance granted to `spender` by the caller. This is an alternative to {approve} that can be used as a mitigation for problems described in {IERC20-approve}. Emits an {Approval} event indicating the updated allowance. Requirements: - `spender` cannot be the zero address. - `spender` must have allowance for the caller of at least `subtractedValue`."
      },
      "increaseAllowance(address,uint256)": {
        "details": "Atomically increases the allowance granted to `spender` by the caller. This is an alternative to {approve} that can be used as a mitigation for problems described in {IERC20-approve}. Emits an {Approval} event indicating the updated allowance. Requirements: - `spender` cannot be the zero address."
      },
      "totalSupply()": {
        "details": "See {IERC20-totalSupply}."
      },
      "transfer(address,uint256)": {
        "details": "See {IERC20-transfer}. Requirements: - `recipient` cannot be the zero address. - the caller must have a balance of at least `amount`."
      },
      "transferFrom(address,address,uint256)": {
        "details": "See {IERC20-transferFrom}. Emits an {Approval} event indicating the updated allowance. This is not required by the EIP. See the note at the beginning of {ERC20}; Requirements: - `sender` and `recipient` cannot be the zero address. - `sender` must have a balance of at least `amount`. - the caller must have allowance for `sender`'s tokens of at least `amount`."
      }
    },
    "version": 1
  },
  "userdoc": {
    "kind": "user",
    "methods": {},
    "version": 1
  }
}