{
  "contractName": "FraxPoolInvestorForV2",
  "abi": [
    {
      "inputs": [
        {
          "internalType": "address",
          "name": "_frax_contract_address",
          "type": "address"
        },
        {
          "internalType": "address",
          "name": "_fxs_contract_address",
          "type": "address"
        },
        {
          "internalType": "address",
          "name": "_pool_address",
          "type": "address"
        },
        {
          "internalType": "address",
          "name": "_collateral_address",
          "type": "address"
        },
        {
          "internalType": "address",
          "name": "_creator_address",
          "type": "address"
        },
        {
          "internalType": "address",
          "name": "_custodian_address",
          "type": "address"
        },
        {
          "internalType": "address",
          "name": "_timelock_address",
          "type": "address"
        }
      ],
      "stateMutability": "nonpayable",
      "type": "constructor"
    },
    {
      "anonymous": false,
      "inputs": [
        {
          "indexed": false,
          "internalType": "address",
          "name": "oldOwner",
          "type": "address"
        },
        {
          "indexed": false,
          "internalType": "address",
          "name": "newOwner",
          "type": "address"
        }
      ],
      "name": "OwnerChanged",
      "type": "event"
    },
    {
      "anonymous": false,
      "inputs": [
        {
          "indexed": false,
          "internalType": "address",
          "name": "newOwner",
          "type": "address"
        }
      ],
      "name": "OwnerNominated",
      "type": "event"
    },
    {
      "anonymous": false,
      "inputs": [
        {
          "indexed": false,
          "internalType": "address",
          "name": "token",
          "type": "address"
        },
        {
          "indexed": false,
          "internalType": "uint256",
          "name": "amount",
          "type": "uint256"
        }
      ],
      "name": "Recovered",
      "type": "event"
    },
    {
      "anonymous": false,
      "inputs": [
        {
          "indexed": true,
          "internalType": "bytes32",
          "name": "role",
          "type": "bytes32"
        },
        {
          "indexed": true,
          "internalType": "bytes32",
          "name": "previousAdminRole",
          "type": "bytes32"
        },
        {
          "indexed": true,
          "internalType": "bytes32",
          "name": "newAdminRole",
          "type": "bytes32"
        }
      ],
      "name": "RoleAdminChanged",
      "type": "event"
    },
    {
      "anonymous": false,
      "inputs": [
        {
          "indexed": true,
          "internalType": "bytes32",
          "name": "role",
          "type": "bytes32"
        },
        {
          "indexed": true,
          "internalType": "address",
          "name": "account",
          "type": "address"
        },
        {
          "indexed": true,
          "internalType": "address",
          "name": "sender",
          "type": "address"
        }
      ],
      "name": "RoleGranted",
      "type": "event"
    },
    {
      "anonymous": false,
      "inputs": [
        {
          "indexed": true,
          "internalType": "bytes32",
          "name": "role",
          "type": "bytes32"
        },
        {
          "indexed": true,
          "internalType": "address",
          "name": "account",
          "type": "address"
        },
        {
          "indexed": true,
          "internalType": "address",
          "name": "sender",
          "type": "address"
        }
      ],
      "name": "RoleRevoked",
      "type": "event"
    },
    {
      "inputs": [],
      "name": "DEFAULT_ADMIN_ROLE",
      "outputs": [
        {
          "internalType": "bytes32",
          "name": "",
          "type": "bytes32"
        }
      ],
      "stateMutability": "view",
      "type": "function"
    },
    {
      "inputs": [],
      "name": "acceptOwnership",
      "outputs": [],
      "stateMutability": "nonpayable",
      "type": "function"
    },
    {
      "inputs": [],
      "name": "allow_aave",
      "outputs": [
        {
          "internalType": "bool",
          "name": "",
          "type": "bool"
        }
      ],
      "stateMutability": "view",
      "type": "function"
    },
    {
      "inputs": [],
      "name": "allow_compound",
      "outputs": [
        {
          "internalType": "bool",
          "name": "",
          "type": "bool"
        }
      ],
      "stateMutability": "view",
      "type": "function"
    },
    {
      "inputs": [],
      "name": "allow_yearn",
      "outputs": [
        {
          "internalType": "bool",
          "name": "",
          "type": "bool"
        }
      ],
      "stateMutability": "view",
      "type": "function"
    },
    {
      "inputs": [],
      "name": "borrow_cap",
      "outputs": [
        {
          "internalType": "uint256",
          "name": "",
          "type": "uint256"
        }
      ],
      "stateMutability": "view",
      "type": "function"
    },
    {
      "inputs": [],
      "name": "borrowed_balance",
      "outputs": [
        {
          "internalType": "uint256",
          "name": "",
          "type": "uint256"
        }
      ],
      "stateMutability": "view",
      "type": "function"
    },
    {
      "inputs": [],
      "name": "borrowed_historical",
      "outputs": [
        {
          "internalType": "uint256",
          "name": "",
          "type": "uint256"
        }
      ],
      "stateMutability": "view",
      "type": "function"
    },
    {
      "inputs": [],
      "name": "collateral_address",
      "outputs": [
        {
          "internalType": "address",
          "name": "",
          "type": "address"
        }
      ],
      "stateMutability": "view",
      "type": "function"
    },
    {
      "inputs": [],
      "name": "custodian_address",
      "outputs": [
        {
          "internalType": "address",
          "name": "",
          "type": "address"
        }
      ],
      "stateMutability": "view",
      "type": "function"
    },
    {
      "inputs": [
        {
          "internalType": "bytes32",
          "name": "role",
          "type": "bytes32"
        }
      ],
      "name": "getRoleAdmin",
      "outputs": [
        {
          "internalType": "bytes32",
          "name": "",
          "type": "bytes32"
        }
      ],
      "stateMutability": "view",
      "type": "function"
    },
    {
      "inputs": [
        {
          "internalType": "bytes32",
          "name": "role",
          "type": "bytes32"
        },
        {
          "internalType": "uint256",
          "name": "index",
          "type": "uint256"
        }
      ],
      "name": "getRoleMember",
      "outputs": [
        {
          "internalType": "address",
          "name": "",
          "type": "address"
        }
      ],
      "stateMutability": "view",
      "type": "function"
    },
    {
      "inputs": [
        {
          "internalType": "bytes32",
          "name": "role",
          "type": "bytes32"
        }
      ],
      "name": "getRoleMemberCount",
      "outputs": [
        {
          "internalType": "uint256",
          "name": "",
          "type": "uint256"
        }
      ],
      "stateMutability": "view",
      "type": "function"
    },
    {
      "inputs": [
        {
          "internalType": "bytes32",
          "name": "role",
          "type": "bytes32"
        },
        {
          "internalType": "address",
          "name": "account",
          "type": "address"
        }
      ],
      "name": "grantRole",
      "outputs": [],
      "stateMutability": "nonpayable",
      "type": "function"
    },
    {
      "inputs": [
        {
          "internalType": "bytes32",
          "name": "role",
          "type": "bytes32"
        },
        {
          "internalType": "address",
          "name": "account",
          "type": "address"
        }
      ],
      "name": "hasRole",
      "outputs": [
        {
          "internalType": "bool",
          "name": "",
          "type": "bool"
        }
      ],
      "stateMutability": "view",
      "type": "function"
    },
    {
      "inputs": [],
      "name": "missing_decimals",
      "outputs": [
        {
          "internalType": "uint256",
          "name": "",
          "type": "uint256"
        }
      ],
      "stateMutability": "view",
      "type": "function"
    },
    {
      "inputs": [
        {
          "internalType": "address",
          "name": "_owner",
          "type": "address"
        }
      ],
      "name": "nominateNewOwner",
      "outputs": [],
      "stateMutability": "nonpayable",
      "type": "function"
    },
    {
      "inputs": [],
      "name": "nominatedOwner",
      "outputs": [
        {
          "internalType": "address",
          "name": "",
          "type": "address"
        }
      ],
      "stateMutability": "view",
      "type": "function"
    },
    {
      "inputs": [],
      "name": "owner",
      "outputs": [
        {
          "internalType": "address",
          "name": "",
          "type": "address"
        }
      ],
      "stateMutability": "view",
      "type": "function"
    },
    {
      "inputs": [],
      "name": "paid_back_historical",
      "outputs": [
        {
          "internalType": "uint256",
          "name": "",
          "type": "uint256"
        }
      ],
      "stateMutability": "view",
      "type": "function"
    },
    {
      "inputs": [],
      "name": "pool_address",
      "outputs": [
        {
          "internalType": "address",
          "name": "",
          "type": "address"
        }
      ],
      "stateMutability": "view",
      "type": "function"
    },
    {
      "inputs": [
        {
          "internalType": "bytes32",
          "name": "role",
          "type": "bytes32"
        },
        {
          "internalType": "address",
          "name": "account",
          "type": "address"
        }
      ],
      "name": "renounceRole",
      "outputs": [],
      "stateMutability": "nonpayable",
      "type": "function"
    },
    {
      "inputs": [
        {
          "internalType": "bytes32",
          "name": "role",
          "type": "bytes32"
        },
        {
          "internalType": "address",
          "name": "account",
          "type": "address"
        }
      ],
      "name": "revokeRole",
      "outputs": [],
      "stateMutability": "nonpayable",
      "type": "function"
    },
    {
      "inputs": [],
      "name": "timelock_address",
      "outputs": [
        {
          "internalType": "address",
          "name": "",
          "type": "address"
        }
      ],
      "stateMutability": "view",
      "type": "function"
    },
    {
      "inputs": [],
      "name": "weth_address",
      "outputs": [
        {
          "internalType": "address",
          "name": "",
          "type": "address"
        }
      ],
      "stateMutability": "view",
      "type": "function"
    },
    {
      "inputs": [],
      "name": "showAllocations",
      "outputs": [
        {
          "internalType": "uint256[5]",
          "name": "allocations",
          "type": "uint256[5]"
        }
      ],
      "stateMutability": "view",
      "type": "function"
    },
    {
      "inputs": [],
      "name": "showRewards",
      "outputs": [
        {
          "internalType": "uint256[1]",
          "name": "rewards",
          "type": "uint256[1]"
        }
      ],
      "stateMutability": "view",
      "type": "function"
    },
    {
      "inputs": [],
      "name": "collatDollarBalance",
      "outputs": [
        {
          "internalType": "uint256",
          "name": "",
          "type": "uint256"
        }
      ],
      "stateMutability": "view",
      "type": "function"
    },
    {
      "inputs": [
        {
          "internalType": "uint256",
          "name": "frax_amount",
          "type": "uint256"
        }
      ],
      "name": "mintRedeemPart1",
      "outputs": [],
      "stateMutability": "nonpayable",
      "type": "function"
    },
    {
      "inputs": [],
      "name": "mintRedeemPart2",
      "outputs": [],
      "stateMutability": "nonpayable",
      "type": "function"
    },
    {
      "inputs": [
        {
          "internalType": "uint256",
          "name": "amount",
          "type": "uint256"
        }
      ],
      "name": "giveCollatBack",
      "outputs": [],
      "stateMutability": "nonpayable",
      "type": "function"
    },
    {
      "inputs": [
        {
          "internalType": "uint256",
          "name": "amount",
          "type": "uint256"
        }
      ],
      "name": "burnFXS",
      "outputs": [],
      "stateMutability": "nonpayable",
      "type": "function"
    },
    {
      "inputs": [
        {
          "internalType": "uint256",
          "name": "USDC_amount",
          "type": "uint256"
        }
      ],
      "name": "yDepositUSDC",
      "outputs": [],
      "stateMutability": "nonpayable",
      "type": "function"
    },
    {
      "inputs": [
        {
          "internalType": "uint256",
          "name": "yUSDC_amount",
          "type": "uint256"
        }
      ],
      "name": "yWithdrawUSDC",
      "outputs": [],
      "stateMutability": "nonpayable",
      "type": "function"
    },
    {
      "inputs": [
        {
          "internalType": "uint256",
          "name": "USDC_amount",
          "type": "uint256"
        }
      ],
      "name": "aaveDepositUSDC",
      "outputs": [],
      "stateMutability": "nonpayable",
      "type": "function"
    },
    {
      "inputs": [
        {
          "internalType": "uint256",
          "name": "aUSDC_amount",
          "type": "uint256"
        }
      ],
      "name": "aaveWithdrawUSDC",
      "outputs": [],
      "stateMutability": "nonpayable",
      "type": "function"
    },
    {
      "inputs": [
        {
          "internalType": "uint256",
          "name": "USDC_amount",
          "type": "uint256"
        }
      ],
      "name": "compoundMint_cUSDC",
      "outputs": [],
      "stateMutability": "nonpayable",
      "type": "function"
    },
    {
      "inputs": [
        {
          "internalType": "uint256",
          "name": "cUSDC_amount",
          "type": "uint256"
        }
      ],
      "name": "compoundRedeem_cUSDC",
      "outputs": [],
      "stateMutability": "nonpayable",
      "type": "function"
    },
    {
      "inputs": [],
      "name": "compoundCollectCOMP",
      "outputs": [],
      "stateMutability": "nonpayable",
      "type": "function"
    },
    {
      "inputs": [],
      "name": "withdrawRewards",
      "outputs": [],
      "stateMutability": "nonpayable",
      "type": "function"
    },
    {
      "inputs": [
        {
          "internalType": "address",
          "name": "new_timelock",
          "type": "address"
        }
      ],
      "name": "setTimelock",
      "outputs": [],
      "stateMutability": "nonpayable",
      "type": "function"
    },
    {
      "inputs": [
        {
          "internalType": "address",
          "name": "_weth_address",
          "type": "address"
        }
      ],
      "name": "setWethAddress",
      "outputs": [],
      "stateMutability": "nonpayable",
      "type": "function"
    },
    {
      "inputs": [
        {
          "internalType": "address",
          "name": "_custodian_address",
          "type": "address"
        }
      ],
      "name": "setCustodian",
      "outputs": [],
      "stateMutability": "nonpayable",
      "type": "function"
    },
    {
      "inputs": [
        {
          "internalType": "address",
          "name": "_pool_address",
          "type": "address"
        }
      ],
      "name": "setPool",
      "outputs": [],
      "stateMutability": "nonpayable",
      "type": "function"
    },
    {
      "inputs": [
        {
          "internalType": "uint256",
          "name": "_borrow_cap",
          "type": "uint256"
        }
      ],
      "name": "setBorrowCap",
      "outputs": [],
      "stateMutability": "nonpayable",
      "type": "function"
    },
    {
      "inputs": [
        {
          "internalType": "bool",
          "name": "_yearn",
          "type": "bool"
        },
        {
          "internalType": "bool",
          "name": "_aave",
          "type": "bool"
        },
        {
          "internalType": "bool",
          "name": "_compound",
          "type": "bool"
        }
      ],
      "name": "setAllowedStrategies",
      "outputs": [],
      "stateMutability": "nonpayable",
      "type": "function"
    },
    {
      "inputs": [
        {
          "internalType": "address",
          "name": "tokenAddress",
          "type": "address"
        },
        {
          "internalType": "uint256",
          "name": "tokenAmount",
          "type": "uint256"
        }
      ],
      "name": "emergencyRecoverERC20",
      "outputs": [],
      "stateMutability": "nonpayable",
      "type": "function"
    }
  ],
  "bytecode": "0x60a0604052600b80546001600160a01b031990811673c00e94cb662c3520282e6f5717214004a7f26888179091556010805490911673c02aaa39b223fe8d0a0e5c4f27ead9083c756cc21790556404a817c8006011556000601281905560138190556014556015805462ff00001961ff001960ff19909216600117919091166101001716620100001790553480156200009757600080fd5b5060405162003c7938038062003c79833981810160405260e0811015620000bd57600080fd5b508051602082015160408301516060840151608085015160a086015160c0909601519495939492939192909190826001600160a01b03811662000147576040805162461bcd60e51b815260206004820152601960248201527f4f776e657220616464726573732063616e6e6f74206265203000000000000000604482015290519081900360640190fd5b600180546001600160a01b0319166001600160a01b0383169081179091556040805160008152602081019290925280517fb532073b38c83145e3e5135377a08bf9aab55bc0fd7c1179cd4fb995d2a5159c9281900390910190a150600480546001600160a01b03199081166001600160a01b038a81169190911783556005805483168a8316179055600d805483168983169081179091556006805484169091179055600c8054831688831690811790915560038054841690911790819055600e80548416868416179055600f8054909316868316179092556040805163313ce56760e01b81529051620002a294939092169263313ce567928282019260209290829003018186803b1580156200025c57600080fd5b505afa15801562000271573d6000803e3d6000fd5b505050506040513d60208110156200028857600080fd5b505160129060ff16620002c8602090811b62002fbb17901c565b608052620002bb6000620002b56200031b565b6200031f565b50505050505050620004bb565b60006200031283836040518060400160405280601e81526020017f536166654d6174683a207375627472616374696f6e206f766572666c6f7700008152506200032f60201b60201c565b90505b92915050565b3390565b6200032b8282620003ca565b5050565b60008184841115620003c25760405162461bcd60e51b81526004018080602001828103825283818151815260200191508051906020019080838360005b83811015620003865781810151838201526020016200036c565b50505050905090810190601f168015620003b45780820380516001836020036101000a031916815260200191505b509250505060405180910390fd5b505050900390565b600082815260208181526040909120620003ef91839062002ffd62000443821b17901c565b156200032b57620003ff6200031b565b6001600160a01b0316816001600160a01b0316837f2f8788117e7eff1d82e926ec794901d17c78024a50270940304540a733656f0d60405160405180910390a45050565b600062000312836001600160a01b0384166000620004628383620004a3565b6200049a5750815460018181018455600084815260208082209093018490558454848252828601909352604090209190915562000315565b50600062000315565b60009081526001919091016020526040902054151590565b60805161378f620004ea60003980610f47528061110152806111a852806116675280611950525061378f6000f3fe608060405234801561001057600080fd5b50600436106103155760003560e01c806379ba5097116101a7578063c302e3d7116100ee578063edac61a911610097578063f9e9cc4111610071578063f9e9cc41146107b3578063fc48f7581461060d578063feed0ccd146107e257610315565b8063edac61a914610787578063f55149581461078f578063f6400a461461079757610315565b8063d547741f116100c8578063d547741f14610746578063dc6663c71461077f578063eb4fcf8d1461060d57610315565b8063c302e3d714610704578063c7b8981c14610721578063ca15c8731461072957610315565b80639010d07c11610150578063a96e24231161012a578063a96e242314610696578063b1c15397146106c9578063bdacb303146106d157610315565b80639010d07c1461063257806391d1485414610655578063a217fddf1461068e57610315565b80637e34026e116101815780637e34026e146105cd5780638a65924f1461060d5780638da5cb5b1461062a57610315565b806379ba5097146105b55780637bdfc32a146105bd5780637ce6112b146105c557610315565b806336568abe1161026b5780634ad0d00511610214578063670ff237116101ee578063670ff237146105885780636b7cf47914610590578063717186d11461059857610315565b80634ad0d0051461054757806353a47bb714610563578063593f47c81461056b57610315565b8063403f373111610245578063403f3731146104d95780634437152a1461050c5780634755abbb1461053f57610315565b806336568abe1461047b57806336d5a76d146104b45780633ed4e55c146104d157610315565b806317284c94116102cd578063246126bd116102a7578063246126bd1461041d578063248a9ca3146104255780632f2ff15d1461044257610315565b806317284c94146103dc5780631eaa0e17146103e4578063207302651461041557610315565b806302825d11116102fe57806302825d111461036f57806314af33801461038c5780631627540c146103a957610315565b80630125bb321461031a5780630205722414610355575b600080fd5b6103536004803603604081101561033057600080fd5b5073ffffffffffffffffffffffffffffffffffffffff81351690602001356107ff565b005b61035d6109a4565b60408051918252519081900360200190f35b6103536004803603602081101561038557600080fd5b50356109aa565b610353600480360360208110156103a257600080fd5b5035610b8c565b610353600480360360208110156103bf57600080fd5b503573ffffffffffffffffffffffffffffffffffffffff16610d16565b61035d610dff565b6103ec6111e4565b6040805173ffffffffffffffffffffffffffffffffffffffff9092168252519081900360200190f35b61035d611200565b6103ec611206565b61035d6004803603602081101561043b57600080fd5b5035611222565b6103536004803603604081101561045857600080fd5b508035906020013573ffffffffffffffffffffffffffffffffffffffff16611237565b6103536004803603604081101561049157600080fd5b508035906020013573ffffffffffffffffffffffffffffffffffffffff166112bd565b610353600480360360208110156104ca57600080fd5b5035611352565b61035d61194e565b610353600480360360208110156104ef57600080fd5b503573ffffffffffffffffffffffffffffffffffffffff16611972565b6103536004803603602081101561052257600080fd5b503573ffffffffffffffffffffffffffffffffffffffff16611ae3565b6103ec611bdc565b61054f611bf8565b604080519115158252519081900360200190f35b6103ec611c01565b6103536004803603602081101561058157600080fd5b5035611c1d565b61035d611db5565b61054f611dbb565b610353600480360360208110156105ae57600080fd5b5035611dc9565b610353611e76565b610353611f8b565b6103ec6120b7565b6105d56120d3565b604051808260a080838360005b838110156105fa5781810151838201526020016105e2565b5050505090500191505060405180910390f35b6103536004803603602081101561062357600080fd5b50356123af565b6103ec61245a565b6103ec6004803603604081101561064857600080fd5b5080359060200135612476565b61054f6004803603604081101561066b57600080fd5b508035906020013573ffffffffffffffffffffffffffffffffffffffff16612497565b61035d6124af565b610353600480360360208110156106ac57600080fd5b503573ffffffffffffffffffffffffffffffffffffffff166124b4565b61035d6125a3565b610353600480360360208110156106e757600080fd5b503573ffffffffffffffffffffffffffffffffffffffff166125a9565b6103536004803603602081101561071a57600080fd5b503561271a565b6103536128b7565b61035d6004803603602081101561073f57600080fd5b5035612a6f565b6103536004803603604081101561075c57600080fd5b508035906020013573ffffffffffffffffffffffffffffffffffffffff16612a86565b6103ec612af9565b610353612b15565b61054f612c43565b61079f612c52565b6040518151815280826020808383826105e2565b610353600480360360608110156107c957600080fd5b5080351515906020810135151590604001351515612cfc565b610353600480360360208110156107f857600080fd5b5035612e33565b600e5473ffffffffffffffffffffffffffffffffffffffff1633148061083c575060015473ffffffffffffffffffffffffffffffffffffffff1633145b6108a757604080517f08c379a000000000000000000000000000000000000000000000000000000000815260206004820152601560248201527f4e6f74206f776e6572206f722074696d656c6f636b0000000000000000000000604482015290519081900360640190fd5b600f54604080517fa9059cbb00000000000000000000000000000000000000000000000000000000815273ffffffffffffffffffffffffffffffffffffffff92831660048201526024810184905290519184169163a9059cbb916044808201926020929091908290030181600087803b15801561092357600080fd5b505af1158015610937573d6000803e3d6000fd5b505050506040513d602081101561094d57600080fd5b50506040805173ffffffffffffffffffffffffffffffffffffffff841681526020810183905281517f8c1256b8896378cd5044f80c202f9772b9d77dc85c8a6eb51967210b09bfaa28929181900390910190a15050565b60135481565b600e5473ffffffffffffffffffffffffffffffffffffffff163314806109e7575060015473ffffffffffffffffffffffffffffffffffffffff1633145b610a5257604080517f08c379a000000000000000000000000000000000000000000000000000000000815260206004820152601560248201527f4e6f74206f776e6572206f722074696d656c6f636b0000000000000000000000604482015290519081900360640190fd5b600554604080517f095ea7b300000000000000000000000000000000000000000000000000000000815230600482015260248101849052905173ffffffffffffffffffffffffffffffffffffffff9092169163095ea7b3916044808201926020929091908290030181600087803b158015610acc57600080fd5b505af1158015610ae0573d6000803e3d6000fd5b505050506040513d6020811015610af657600080fd5b5050600554604080517fa8a778ae00000000000000000000000000000000000000000000000000000000815230600482015260248101849052905173ffffffffffffffffffffffffffffffffffffffff9092169163a8a778ae9160448082019260009290919082900301818387803b158015610b7157600080fd5b505af1158015610b85573d6000803e3d6000fd5b5050505050565b600e5473ffffffffffffffffffffffffffffffffffffffff16331480610bc9575060015473ffffffffffffffffffffffffffffffffffffffff1633145b610c3457604080517f08c379a000000000000000000000000000000000000000000000000000000000815260206004820152601560248201527f4e6f74206f776e6572206f722074696d656c6f636b0000000000000000000000604482015290519081900360640190fd5b6012548111610c5257601254610c4a9082612fbb565b601255610c58565b60006012555b601454610c65908261301f565b601455600354600654604080517fa9059cbb00000000000000000000000000000000000000000000000000000000815273ffffffffffffffffffffffffffffffffffffffff9283166004820152602481018590529051919092169163a9059cbb9160448083019260209291908290030181600087803b158015610ce757600080fd5b505af1158015610cfb573d6000803e3d6000fd5b505050506040513d6020811015610d1157600080fd5b505050565b60015473ffffffffffffffffffffffffffffffffffffffff163314610d86576040517f08c379a000000000000000000000000000000000000000000000000000000000815260040180806020018281038252602f815260200180613698602f913960400191505060405180910390fd5b6002805473ffffffffffffffffffffffffffffffffffffffff83167fffffffffffffffffffffffff0000000000000000000000000000000000000000909116811790915560408051918252517f906a1c6bd7e3091ea86693dd029a831c19049ce77f1dce2ce0bab1cacbabce229181900360200190a150565b600654604080517f8d2ac7a4000000000000000000000000000000000000000000000000000000008152905160009273ffffffffffffffffffffffffffffffffffffffff1691638d2ac7a4916004808301926020929190829003018186803b158015610e6a57600080fd5b505afa158015610e7e573d6000803e3d6000fd5b505050506040513d6020811015610e9457600080fd5b5051151560011415610f8157610f7a620f4240610f74600660009054906101000a900473ffffffffffffffffffffffffffffffffffffffff1673ffffffffffffffffffffffffffffffffffffffff1663c74ec56a6040518163ffffffff1660e01b815260040160206040518083038186803b158015610f1257600080fd5b505afa158015610f26573d6000803e3d6000fd5b505050506040513d6020811015610f3c57600080fd5b5051601254610f6e907f0000000000000000000000000000000000000000000000000000000000000000600a0a613093565b90613093565b90613106565b90506111e1565b6000600460009054906101000a900473ffffffffffffffffffffffffffffffffffffffff1673ffffffffffffffffffffffffffffffffffffffff1663345ba24b6040518163ffffffff1660e01b815260040160206040518083038186803b158015610feb57600080fd5b505afa158015610fff573d6000803e3d6000fd5b505050506040513d602081101561101557600080fd5b5051600654604080517f8baa4b9f000000000000000000000000000000000000000000000000000000008152905192935060009273ffffffffffffffffffffffffffffffffffffffff90921691638baa4b9f91600480820192602092909190829003018186803b15801561108857600080fd5b505afa15801561109c573d6000803e3d6000fd5b505050506040513d60208110156110b257600080fd5b5051601054604080517f3ddac95300000000000000000000000000000000000000000000000000000000815273ffffffffffffffffffffffffffffffffffffffff9283166004820152620f42407f0000000000000000000000000000000000000000000000000000000000000000600a0a02602482015290519190921691633ddac953916044808301926020929190829003018186803b15801561115557600080fd5b505afa158015611169573d6000803e3d6000fd5b505050506040513d602081101561117f57600080fd5b50519050600061119682610f7485620f4240613093565b90506111db620f4240610f7483610f6e7f0000000000000000000000000000000000000000000000000000000000000000600a0a60125461309390919063ffffffff16565b93505050505b90565b600c5473ffffffffffffffffffffffffffffffffffffffff1681565b60145481565b60105473ffffffffffffffffffffffffffffffffffffffff1681565b60009081526020819052604090206002015490565b60008281526020819052604090206002015461125a90611255613148565b612497565b6112af576040517f08c379a000000000000000000000000000000000000000000000000000000000815260040180806020018281038252602f815260200180613604602f913960400191505060405180910390fd5b6112b9828261314c565b5050565b6112c5613148565b73ffffffffffffffffffffffffffffffffffffffff168173ffffffffffffffffffffffffffffffffffffffff1614611348576040517f08c379a000000000000000000000000000000000000000000000000000000000815260040180806020018281038252602f81526020018061372b602f913960400191505060405180910390fd5b6112b982826131cf565b600e5473ffffffffffffffffffffffffffffffffffffffff1633148061138f575060015473ffffffffffffffffffffffffffffffffffffffff1633145b6113fa57604080517f08c379a000000000000000000000000000000000000000000000000000000000815260206004820152601560248201527f4e6f74206f776e6572206f722074696d656c6f636b0000000000000000000000604482015290519081900360640190fd5b60155460ff16806114125750601554610100900460ff165b80611425575060155462010000900460ff165b61149057604080517f08c379a000000000000000000000000000000000000000000000000000000000815260206004820181905260248201527f416c6c2073747261746567696573206172652063757272656e746c79206f6666604482015290519081900360640190fd5b600654604080517fcb73999f000000000000000000000000000000000000000000000000000000008152905160009273ffffffffffffffffffffffffffffffffffffffff169163cb73999f916004808301926020929190829003018186803b1580156114fb57600080fd5b505afa15801561150f573d6000803e3d6000fd5b505050506040513d602081101561152557600080fd5b5051600654604080517ff7683bbc000000000000000000000000000000000000000000000000000000008152905192935060009273ffffffffffffffffffffffffffffffffffffffff9092169163f7683bbc91600480820192602092909190829003018186803b15801561159857600080fd5b505afa1580156115ac573d6000803e3d6000fd5b505050506040513d60208110156115c257600080fd5b505160048054604080517f2eb9771b000000000000000000000000000000000000000000000000000000008152905193945060009373ffffffffffffffffffffffffffffffffffffffff90921692632eb9771b928282019260209290829003018186803b15801561163257600080fd5b505afa158015611646573d6000803e3d6000fd5b505050506040513d602081101561165c57600080fd5b5051905060006116a27f0000000000000000000000000000000000000000000000000000000000000000600a0a610f74620f42408161169b828a612fbb565b8a90613093565b905060006116b7620f4240610f748486613093565b90506116ca84610f7483620f4240613093565b90506011546116e48260125461301f90919063ffffffff16565b111561175157604080517f08c379a000000000000000000000000000000000000000000000000000000000815260206004820152601260248201527f426f72726f772063617020726561636865640000000000000000000000000000604482015290519081900360640190fd5b60125461175e908261301f565b60125560135461176e908261301f565b60135560048054604080517fb4f56b260000000000000000000000000000000000000000000000000000000081523093810193909352602483018990525173ffffffffffffffffffffffffffffffffffffffff9091169163b4f56b2691604480830192600092919082900301818387803b1580156117eb57600080fd5b505af11580156117ff573d6000803e3d6000fd5b505060048054600654604080517f095ea7b300000000000000000000000000000000000000000000000000000000815273ffffffffffffffffffffffffffffffffffffffff92831694810194909452602484018c9052519116935063095ea7b3925060448083019260209291908290030181600087803b15801561188257600080fd5b505af1158015611896573d6000803e3d6000fd5b505050506040513d60208110156118ac57600080fd5b5050600654604080517f6f909ead0000000000000000000000000000000000000000000000000000000081526004810189905260006024820181905260448201819052915173ffffffffffffffffffffffffffffffffffffffff90931692636f909ead9260648084019391929182900301818387803b15801561192e57600080fd5b505af1158015611942573d6000803e3d6000fd5b50505050505050505050565b7f000000000000000000000000000000000000000000000000000000000000000081565b600e5473ffffffffffffffffffffffffffffffffffffffff163314806119af575060015473ffffffffffffffffffffffffffffffffffffffff1633145b611a1a57604080517f08c379a000000000000000000000000000000000000000000000000000000000815260206004820152601560248201527f4e6f74206f776e6572206f722074696d656c6f636b0000000000000000000000604482015290519081900360640190fd5b73ffffffffffffffffffffffffffffffffffffffff8116611a9c57604080517f08c379a000000000000000000000000000000000000000000000000000000000815260206004820152601d60248201527f437573746f6469616e20616464726573732063616e6e6f742062652030000000604482015290519081900360640190fd5b600f80547fffffffffffffffffffffffff00000000000000000000000000000000000000001673ffffffffffffffffffffffffffffffffffffffff92909216919091179055565b600e5473ffffffffffffffffffffffffffffffffffffffff16331480611b20575060015473ffffffffffffffffffffffffffffffffffffffff1633145b611b8b57604080517f08c379a000000000000000000000000000000000000000000000000000000000815260206004820152601560248201527f4e6f74206f776e6572206f722074696d656c6f636b0000000000000000000000604482015290519081900360640190fd5b600d805473ffffffffffffffffffffffffffffffffffffffff9092167fffffffffffffffffffffffff0000000000000000000000000000000000000000928316811790915560068054909216179055565b600d5473ffffffffffffffffffffffffffffffffffffffff1681565b60155460ff1681565b60025473ffffffffffffffffffffffffffffffffffffffff1681565b600e5473ffffffffffffffffffffffffffffffffffffffff16331480611c5a575060015473ffffffffffffffffffffffffffffffffffffffff1633145b611cc557604080517f08c379a000000000000000000000000000000000000000000000000000000000815260206004820152601560248201527f4e6f74206f776e6572206f722074696d656c6f636b0000000000000000000000604482015290519081900360640190fd5b60155460ff16611d3657604080517f08c379a000000000000000000000000000000000000000000000000000000000815260206004820152601f60248201527f796561726e2073747261746567792069732063757272656e746c79206f666600604482015290519081900360640190fd5b600354600954604080517f095ea7b300000000000000000000000000000000000000000000000000000000815273ffffffffffffffffffffffffffffffffffffffff9283166004820152602481018590529051919092169163095ea7b39160448083019260209291908290030181600087803b158015610ce757600080fd5b60115481565b601554610100900460ff1681565b600e5473ffffffffffffffffffffffffffffffffffffffff16331480611e06575060015473ffffffffffffffffffffffffffffffffffffffff1633145b611e7157604080517f08c379a000000000000000000000000000000000000000000000000000000000815260206004820152601560248201527f4e6f74206f776e6572206f722074696d656c6f636b0000000000000000000000604482015290519081900360640190fd5b601155565b60025473ffffffffffffffffffffffffffffffffffffffff163314611ee6576040517f08c379a00000000000000000000000000000000000000000000000000000000081526004018080602001828103825260358152602001806136336035913960400191505060405180910390fd5b6001546002546040805173ffffffffffffffffffffffffffffffffffffffff938416815292909116602083015280517fb532073b38c83145e3e5135377a08bf9aab55bc0fd7c1179cd4fb995d2a5159c9281900390910190a160028054600180547fffffffffffffffffffffffff000000000000000000000000000000000000000090811673ffffffffffffffffffffffffffffffffffffffff841617909155169055565b600e5473ffffffffffffffffffffffffffffffffffffffff16331480611fc8575060015473ffffffffffffffffffffffffffffffffffffffff1633145b61203357604080517f08c379a000000000000000000000000000000000000000000000000000000000815260206004820152601560248201527f4e6f74206f776e6572206f722074696d656c6f636b0000000000000000000000604482015290519081900360640190fd5b600660009054906101000a900473ffffffffffffffffffffffffffffffffffffffff1673ffffffffffffffffffffffffffffffffffffffff166312ace5a26040518163ffffffff1660e01b8152600401600060405180830381600087803b15801561209d57600080fd5b505af11580156120b1573d6000803e3d6000fd5b50505050565b600f5473ffffffffffffffffffffffffffffffffffffffff1681565b6120db6135a5565b600354604080517f70a08231000000000000000000000000000000000000000000000000000000008152306004820152905173ffffffffffffffffffffffffffffffffffffffff909216916370a0823191602480820192602092909190829003018186803b15801561214c57600080fd5b505afa158015612160573d6000803e3d6000fd5b505050506040513d602081101561217657600080fd5b50518152600954604080517f70a08231000000000000000000000000000000000000000000000000000000008152306004820152905161222992620f424092610f7492849273ffffffffffffffffffffffffffffffffffffffff16916370a08231916024808301926020929190829003018186803b1580156121f757600080fd5b505afa15801561220b573d6000803e3d6000fd5b505050506040513d602081101561222157600080fd5b505190613093565b602080830191909152600a54604080517f70a08231000000000000000000000000000000000000000000000000000000008152306004820152905173ffffffffffffffffffffffffffffffffffffffff909216926370a0823192602480840193829003018186803b15801561229d57600080fd5b505afa1580156122b1573d6000803e3d6000fd5b505050506040513d60208110156122c757600080fd5b505160408083019190915260075481517f70a08231000000000000000000000000000000000000000000000000000000008152306004820152915161235492670de0b6b3a764000092610f7492849273ffffffffffffffffffffffffffffffffffffffff909216916370a08231916024808301926020929190829003018186803b1580156121f757600080fd5b6060820152600060015b60058110156123a657600083826005811061237557fe5b6020020151111561239e5761239b83826005811061238f57fe5b6020020151839061301f565b91505b60010161235e565b50608082015290565b600e5473ffffffffffffffffffffffffffffffffffffffff163314806123ec575060015473ffffffffffffffffffffffffffffffffffffffff1633145b61245757604080517f08c379a000000000000000000000000000000000000000000000000000000000815260206004820152601560248201527f4e6f74206f776e6572206f722074696d656c6f636b0000000000000000000000604482015290519081900360640190fd5b50565b60015473ffffffffffffffffffffffffffffffffffffffff1681565b600082815260208190526040812061248e9083613252565b90505b92915050565b600082815260208190526040812061248e908361325e565b600081565b600e5473ffffffffffffffffffffffffffffffffffffffff163314806124f1575060015473ffffffffffffffffffffffffffffffffffffffff1633145b61255c57604080517f08c379a000000000000000000000000000000000000000000000000000000000815260206004820152601560248201527f4e6f74206f776e6572206f722074696d656c6f636b0000000000000000000000604482015290519081900360640190fd5b601080547fffffffffffffffffffffffff00000000000000000000000000000000000000001673ffffffffffffffffffffffffffffffffffffffff92909216919091179055565b60125481565b600e5473ffffffffffffffffffffffffffffffffffffffff163314806125e6575060015473ffffffffffffffffffffffffffffffffffffffff1633145b61265157604080517f08c379a000000000000000000000000000000000000000000000000000000000815260206004820152601560248201527f4e6f74206f776e6572206f722074696d656c6f636b0000000000000000000000604482015290519081900360640190fd5b73ffffffffffffffffffffffffffffffffffffffff81166126d357604080517f08c379a000000000000000000000000000000000000000000000000000000000815260206004820152601c60248201527f54696d656c6f636b20616464726573732063616e6e6f74206265203000000000604482015290519081900360640190fd5b600e80547fffffffffffffffffffffffff00000000000000000000000000000000000000001673ffffffffffffffffffffffffffffffffffffffff92909216919091179055565b600e5473ffffffffffffffffffffffffffffffffffffffff16331480612757575060015473ffffffffffffffffffffffffffffffffffffffff1633145b6127c257604080517f08c379a000000000000000000000000000000000000000000000000000000000815260206004820152601560248201527f4e6f74206f776e6572206f722074696d656c6f636b0000000000000000000000604482015290519081900360640190fd5b601554610100900460ff1661283857604080517f08c379a000000000000000000000000000000000000000000000000000000000815260206004820152601e60248201527f414156452073747261746567792069732063757272656e746c79206f66660000604482015290519081900360640190fd5b600354600854604080517f095ea7b300000000000000000000000000000000000000000000000000000000815273ffffffffffffffffffffffffffffffffffffffff9283166004820152602481018590529051919092169163095ea7b39160448083019260209291908290030181600087803b158015610ce757600080fd5b600f5473ffffffffffffffffffffffffffffffffffffffff163314612927576040517f08c379a000000000000000000000000000000000000000000000000000000000815260040180806020018281038252602181526020018061370a6021913960400191505060405180910390fd5b600b54600f54604080517f70a08231000000000000000000000000000000000000000000000000000000008152306004820152905173ffffffffffffffffffffffffffffffffffffffff9384169363a9059cbb93169184916370a0823191602480820192602092909190829003018186803b1580156129a557600080fd5b505afa1580156129b9573d6000803e3d6000fd5b505050506040513d60208110156129cf57600080fd5b5051604080517fffffffff0000000000000000000000000000000000000000000000000000000060e086901b16815273ffffffffffffffffffffffffffffffffffffffff909316600484015260248301919091525160448083019260209291908290030181600087803b158015612a4557600080fd5b505af1158015612a59573d6000803e3d6000fd5b505050506040513d60208110156112b957600080fd5b600081815260208190526040812061249190613280565b600082815260208190526040902060020154612aa490611255613148565b611348576040517f08c379a00000000000000000000000000000000000000000000000000000000081526004018080602001828103825260308152602001806136686030913960400191505060405180910390fd5b600e5473ffffffffffffffffffffffffffffffffffffffff1681565b600e5473ffffffffffffffffffffffffffffffffffffffff16331480612b52575060015473ffffffffffffffffffffffffffffffffffffffff1633145b612bbd57604080517f08c379a000000000000000000000000000000000000000000000000000000000815260206004820152601560248201527f4e6f74206f776e6572206f722074696d656c6f636b0000000000000000000000604482015290519081900360640190fd5b604080516001808252818301909252606091602080830190803683375050600754825192935073ffffffffffffffffffffffffffffffffffffffff1691839150600090612c0657fe5b602002602001019073ffffffffffffffffffffffffffffffffffffffff16908173ffffffffffffffffffffffffffffffffffffffff168152505050565b60155462010000900460ff1681565b612c5a6135c3565b600b54604080517f70a08231000000000000000000000000000000000000000000000000000000008152306004820152905173ffffffffffffffffffffffffffffffffffffffff909216916370a0823191602480820192602092909190829003018186803b158015612ccb57600080fd5b505afa158015612cdf573d6000803e3d6000fd5b505050506040513d6020811015612cf557600080fd5b5051815290565b600e5473ffffffffffffffffffffffffffffffffffffffff16331480612d39575060015473ffffffffffffffffffffffffffffffffffffffff1633145b612da457604080517f08c379a000000000000000000000000000000000000000000000000000000000815260206004820152601560248201527f4e6f74206f776e6572206f722074696d656c6f636b0000000000000000000000604482015290519081900360640190fd5b601580547fffffffffffffffffffffffffffffffffffffffffffffffffffffffffffffff0016931515939093177fffffffffffffffffffffffffffffffffffffffffffffffffffffffffffff00ff1661010092151592909202919091177fffffffffffffffffffffffffffffffffffffffffffffffffffffffffff00ffff166201000091151591909102179055565b600e5473ffffffffffffffffffffffffffffffffffffffff16331480612e70575060015473ffffffffffffffffffffffffffffffffffffffff1633145b612edb57604080517f08c379a000000000000000000000000000000000000000000000000000000000815260206004820152601560248201527f4e6f74206f776e6572206f722074696d656c6f636b0000000000000000000000604482015290519081900360640190fd5b60155462010000900460ff16612f3c576040517f08c379a00000000000000000000000000000000000000000000000000000000081526004018080602001828103825260228152602001806136e86022913960400191505060405180910390fd5b600354600754604080517f095ea7b300000000000000000000000000000000000000000000000000000000815273ffffffffffffffffffffffffffffffffffffffff9283166004820152602481018590529051919092169163095ea7b39160448083019260209291908290030181600087803b158015610ce757600080fd5b600061248e83836040518060400160405280601e81526020017f536166654d6174683a207375627472616374696f6e206f766572666c6f77000081525061328b565b600061248e8373ffffffffffffffffffffffffffffffffffffffff841661333c565b60008282018381101561248e57604080517f08c379a000000000000000000000000000000000000000000000000000000000815260206004820152601b60248201527f536166654d6174683a206164646974696f6e206f766572666c6f770000000000604482015290519081900360640190fd5b6000826130a257506000612491565b828202828482816130af57fe5b041461248e576040517f08c379a00000000000000000000000000000000000000000000000000000000081526004018080602001828103825260218152602001806136c76021913960400191505060405180910390fd5b600061248e83836040518060400160405280601a81526020017f536166654d6174683a206469766973696f6e206279207a65726f000000000000815250613386565b3390565b60008281526020819052604090206131649082612ffd565b156112b957613171613148565b73ffffffffffffffffffffffffffffffffffffffff168173ffffffffffffffffffffffffffffffffffffffff16837f2f8788117e7eff1d82e926ec794901d17c78024a50270940304540a733656f0d60405160405180910390a45050565b60008281526020819052604090206131e79082613405565b156112b9576131f4613148565b73ffffffffffffffffffffffffffffffffffffffff168173ffffffffffffffffffffffffffffffffffffffff16837ff6391f5c32d9c69d2a47ea670b442974b53935d1edc7fd64eb21e047a839171b60405160405180910390a45050565b600061248e8383613427565b600061248e8373ffffffffffffffffffffffffffffffffffffffff84166134a5565b6000612491826134bd565b60008184841115613334576040517f08c379a00000000000000000000000000000000000000000000000000000000081526004018080602001828103825283818151815260200191508051906020019080838360005b838110156132f95781810151838201526020016132e1565b50505050905090810190601f1680156133265780820380516001836020036101000a031916815260200191505b509250505060405180910390fd5b505050900390565b600061334883836134a5565b61337e57508154600181810184556000848152602080822090930184905584548482528286019093526040902091909155612491565b506000612491565b600081836133ef576040517f08c379a00000000000000000000000000000000000000000000000000000000081526020600482018181528351602484015283519092839260449091019190850190808383600083156132f95781810151838201526020016132e1565b5060008385816133fb57fe5b0495945050505050565b600061248e8373ffffffffffffffffffffffffffffffffffffffff84166134c1565b81546000908210613483576040517f08c379a00000000000000000000000000000000000000000000000000000000081526004018080602001828103825260228152602001806135e26022913960400191505060405180910390fd5b82600001828154811061349257fe5b9060005260206000200154905092915050565b60009081526001919091016020526040902054151590565b5490565b6000818152600183016020526040812054801561359b5783547fffffffffffffffffffffffffffffffffffffffffffffffffffffffffffffffff808301919081019060009087908390811061351257fe5b906000526020600020015490508087600001848154811061352f57fe5b60009182526020808320909101929092558281526001898101909252604090209084019055865487908061355f57fe5b60019003818190600052602060002001600090559055866001016000878152602001908152602001600020600090556001945050505050612491565b6000915050612491565b6040518060a001604052806005906020820280368337509192915050565b6040518060200160405280600190602082028036833750919291505056fe456e756d657261626c655365743a20696e646578206f7574206f6620626f756e6473416363657373436f6e74726f6c3a2073656e646572206d75737420626520616e2061646d696e20746f206772616e74596f75206d757374206265206e6f6d696e61746564206265666f726520796f752063616e20616363657074206f776e657273686970416363657373436f6e74726f6c3a2073656e646572206d75737420626520616e2061646d696e20746f207265766f6b654f6e6c792074686520636f6e7472616374206f776e6572206d617920706572666f726d207468697320616374696f6e536166654d6174683a206d756c7469706c69636174696f6e206f766572666c6f77436f6d706f756e642073747261746567792069732063757272656e746c79206f6666596f7520617265206e6f7420746865207265776172647320637573746f6469616e416363657373436f6e74726f6c3a2063616e206f6e6c792072656e6f756e636520726f6c657320666f722073656c66a2646970667358221220719ccb16764961f18097f96126902d8022fb0bd3a0532c43788767f116b0cbcf64736f6c634300060c0033",
  "immutableReferences": {
    "51": [
      {
        "length": 32,
        "start": 3911
      },
      {
        "length": 32,
        "start": 4353
      },
      {
        "length": 32,
        "start": 4520
      },
      {
        "length": 32,
        "start": 5735
      },
      {
        "length": 32,
        "start": 6480
      }
    ]
  },
  "source": "// SPDX-License-Identifier: GPL-2.0-or-later\npragma solidity ^0.6.12;\n\nimport \"../Math/SafeMath.sol\";\nimport \"../CSS/CSS.sol\";\nimport \"../Ceres/Ceres.sol\";\nimport \"../ERC20/ERC20.sol\";\nimport \"../ERC20/Variants/Comp.sol\";\nimport \"../Oracle/UniswapPairOracle.sol\";\nimport \"../Governance/AccessControl.sol\";\nimport \"../Ceres/Pools/CeresPool.sol\";\n// import \"./yearn/IyUSDC_V2_Partial.sol\";\n// import \"./aave/IAAVELendingPool_Partial.sol\";\n// import \"./aave/IAAVE_aUSDC_Partial.sol\";\n// import \"./compound/ICompComptrollerPartial.sol\";\n// import \"./compound/IcUSDC_Partial.sol\";\nimport \"../Staking/Owned.sol\";\n\n// Lower APY: yearn, AAVE, Compound\n// Higher APY: KeeperDAO, BZX, Harvest\n\ncontract FraxPoolInvestorForV2 is AccessControl, Owned {\n    using SafeMath for uint256;\n\n    /* ========== STATE VARIABLES ========== */\n\n    ERC20 private collateral_token;\n    CEREStable private CERES;\n    CEREShares private CSS;\n    CeresPool private pool;\n    ERC20 private cUSDC;\n    ERC20 private aaveUSDC_Pool;\n    ERC20 private yUSDC_V2;\n    ERC20 private aaveUSDC_Token;\n\n    // Pools and vaults\n    // IyUSDC_V2_Partial private yUSDC_V2 = IyUSDC_V2_Partial(0x5f18C75AbDAe578b483E5F43f12a39cF75b973a9);\n    // IAAVELendingPool_Partial private aaveUSDC_Pool = IAAVELendingPool_Partial(0x7d2768dE32b0b80b7a3454c06BdAc94A69DDc7A9);\n    // IAAVE_aUSDC_Partial private aaveUSDC_Token = IAAVE_aUSDC_Partial(0xBcca60bB61934080951369a648Fb03DF4F96263C);\n    // IcUSDC_Partial private cUSDC = IcUSDC_Partial(0x39AA39c021dfbaE8faC545936693aC917d5E7563);\n\n    // Reward Tokens\n    Comp private COMP = Comp(0xc00e94Cb662C3520282E6f5717214004A7f26888);\n    // ICompComptrollerPartial private CompController = ICompComptrollerPartial(0x3d9819210A31b4961b30EF54bE2aeD79B9c9Cd3B);\n\n    address public collateral_address;\n    address public pool_address;\n    address public timelock_address;\n    address public custodian_address;\n    address public weth_address = 0xC02aaA39b223FE8D0A0e5C4F27eAD9083C756Cc2;\n\n    uint256 public immutable missing_decimals;\n    uint256 private constant PRICE_PRECISION = 1e6;\n\n    // Max amount of collateral this contract can borrow from the FraxPool\n    uint256 public borrow_cap = uint256(20000e6);\n\n    // Amount the contract borrowed\n    uint256 public borrowed_balance = 0;\n    uint256 public borrowed_historical = 0;\n    uint256 public paid_back_historical = 0;\n\n    // Allowed strategies (can eventually be made into an array)\n    bool public allow_yearn = true;\n    bool public allow_aave = true;\n    bool public allow_compound = true;\n\n    /* ========== MODIFIERS ========== */\n\n    modifier onlyByOwnerOrGovernance() {\n        require(msg.sender == timelock_address || msg.sender == owner, \"Not owner or timelock\");\n        _;\n    }\n\n    modifier onlyCustodian() {\n        require(msg.sender == custodian_address, \"You are not the rewards custodian\");\n        _;\n    }\n\n    /* ========== CONSTRUCTOR ========== */\n    \n    constructor(\n        address _frax_contract_address,\n        address _fxs_contract_address,\n        address _pool_address,\n        address _collateral_address,\n        address _creator_address,\n        address _custodian_address,\n        address _timelock_address\n    ) public Owned(_creator_address) {\n        CERES = CEREStable(_frax_contract_address);\n        CSS = CEREShares(_fxs_contract_address);\n        pool_address = _pool_address;\n        pool = CeresPool(_pool_address);\n        collateral_address = _collateral_address;\n        collateral_token = ERC20(_collateral_address);\n        timelock_address = _timelock_address;\n        custodian_address = _custodian_address;\n        missing_decimals = uint(18).sub(collateral_token.decimals());\n        \n        _setupRole(DEFAULT_ADMIN_ROLE, _msgSender());\n    }\n\n    /* ========== VIEWS ========== */\n\n    function showAllocations() external view returns (uint256[5] memory allocations) {\n        // IMPORTANT\n        // Should ONLY be used externally, because it may fail if any one of the functions below fail\n\n        // All numbers given are assuming xyzUSDC, etc. is converted back to actual USDC\n        allocations[0] = collateral_token.balanceOf(address(this)); // Unallocated\n        // allocations[1] = (yUSDC_V2.balanceOf(address(this))).mul(yUSDC_V2.pricePerShare()).div(1e6); // yearn\n        allocations[1] = (yUSDC_V2.balanceOf(address(this))).mul(1e6).div(1e6); // TODO: ADD CODE TO GET pricePerShare();\n        allocations[2] = aaveUSDC_Token.balanceOf(address(this)); // AAVE\n        // allocations[3] = (cUSDC.balanceOf(address(this)).mul(cUSDC.exchangeRateStored()).div(1e18)); // Compound. Note that cUSDC is E8\n        allocations[3] = (cUSDC.balanceOf(address(this)).mul(1e18).div(1e18)); // Compound. Note that cUSDC is E8 // TODO: ADD CODE FOR cUSDC.exchangeRateStored()\n\n        uint256 sum_tally = 0;\n        for (uint i = 1; i < 5; i++){ \n            if (allocations[i] > 0){\n                sum_tally = sum_tally.add(allocations[i]);\n            }\n        }\n\n        allocations[4] = sum_tally; // Total Staked\n    }\n\n    function showRewards() external view returns (uint256[1] memory rewards) {\n        // IMPORTANT\n        // Should ONLY be used externally, because it may fail if COMP.balanceOf() fails\n        rewards[0] = COMP.balanceOf(address(this)); // COMP\n    }\n\n    /* ========== PUBLIC FUNCTIONS ========== */\n\n    // Needed for the Frax contract to function \n    function collatDollarBalance() external view returns (uint256) {\n        // Needs to mimic the FraxPool value and return in E18\n        // Only thing different should be borrowed_balance vs balanceOf()\n        if(pool.collateralPricePaused() == true){\n            return borrowed_balance.mul(10 ** missing_decimals).mul(pool.pausedPrice()).div(PRICE_PRECISION);\n        } else {\n            uint256 eth_usd_price = CERES.eth_usd_price();\n            uint256 eth_collat_price = UniswapPairOracle(pool.collat_eth_oracle_address()).consult(weth_address, (PRICE_PRECISION * (10 ** missing_decimals)));\n\n            uint256 collat_usd_price = eth_usd_price.mul(PRICE_PRECISION).div(eth_collat_price);\n            return borrowed_balance.mul(10 ** missing_decimals).mul(collat_usd_price).div(PRICE_PRECISION); //.mul(getCollateralPrice()).div(1e6);    \n        }\n    }\n\n    // This is basically a workaround to transfer USDC from the FraxPool to this investor contract\n    // This contract is essentially marked as a 'pool' so it can call OnlyPools functions like pool_mint and pool_burn_from\n    // on the main FRAX contract\n    // It mints FRAX from nothing, and redeems it on the target pool for collateral and FXS\n    // The burn can be called separately later on\n    function mintRedeemPart1(uint256 frax_amount) public onlyByOwnerOrGovernance {\n        require(allow_yearn || allow_aave || allow_compound, 'All strategies are currently off');\n        uint256 redemption_fee = pool.redemption_fee();\n        uint256 col_price_usd = pool.getCollateralPrice();\n        uint256 global_collateral_ratio = CERES.global_collateral_ratio();\n        uint256 redeem_amount_E6 = (frax_amount.mul(uint256(1e6).sub(redemption_fee))).div(1e6).div(10 ** missing_decimals);\n        uint256 expected_collat_amount = redeem_amount_E6.mul(global_collateral_ratio).div(1e6);\n        expected_collat_amount = expected_collat_amount.mul(1e6).div(col_price_usd);\n\n        require(borrowed_balance.add(expected_collat_amount) <= borrow_cap, \"Borrow cap reached\");\n        borrowed_balance = borrowed_balance.add(expected_collat_amount);\n        borrowed_historical = borrowed_historical.add(expected_collat_amount);\n\n        // Mint the frax \n        CERES.pool_mint(address(this), frax_amount);\n\n        // Redeem the frax\n        CERES.approve(address(pool), frax_amount);\n        pool.redeemFractionalCERES(frax_amount, 0, 0);\n    }\n\n    function mintRedeemPart2() public onlyByOwnerOrGovernance {\n        pool.collectRedemption();\n    }\n\n    function giveCollatBack(uint256 amount) public onlyByOwnerOrGovernance {\n        // Still paying back principal\n        if (amount <= borrowed_balance) {\n            borrowed_balance = borrowed_balance.sub(amount);\n        }\n        // Pure profits\n        else {\n            borrowed_balance = 0;\n        }\n        paid_back_historical = paid_back_historical.add(amount);\n        collateral_token.transfer(address(pool), amount);\n    }\n   \n    function burnFXS(uint256 amount) public onlyByOwnerOrGovernance {\n        CSS.approve(address(this), amount);\n        CSS.pool_burn_from(address(this), amount);\n    }\n\n    /* ========== yearn V2 ========== */\n\n    function yDepositUSDC(uint256 USDC_amount) public onlyByOwnerOrGovernance {\n        require(allow_yearn, 'yearn strategy is currently off');\n        collateral_token.approve(address(yUSDC_V2), USDC_amount);\n        // yUSDC_V2.deposit(USDC_amount);\n    }\n\n    // E6\n    function yWithdrawUSDC(uint256 yUSDC_amount) public onlyByOwnerOrGovernance {\n        // yUSDC_V2.withdraw(yUSDC_amount);\n    }\n\n    /* ========== AAVE V2 ========== */\n\n    function aaveDepositUSDC(uint256 USDC_amount) public onlyByOwnerOrGovernance {\n        require(allow_aave, 'AAVE strategy is currently off');\n        collateral_token.approve(address(aaveUSDC_Pool), USDC_amount);\n        // aaveUSDC_Pool.deposit(collateral_address, USDC_amount, address(this), 0);\n    }\n\n    // E6\n    function aaveWithdrawUSDC(uint256 aUSDC_amount) public onlyByOwnerOrGovernance {\n        // aaveUSDC_Pool.withdraw(collateral_address, aUSDC_amount, address(this));\n    }\n\n    /* ========== Compound cUSDC + COMP ========== */\n\n    function compoundMint_cUSDC(uint256 USDC_amount) public onlyByOwnerOrGovernance {\n        require(allow_compound, 'Compound strategy is currently off');\n        collateral_token.approve(address(cUSDC), USDC_amount);\n        // cUSDC.mint(USDC_amount);\n    }\n\n    // E8\n    function compoundRedeem_cUSDC(uint256 cUSDC_amount) public onlyByOwnerOrGovernance {\n        // NOTE that cUSDC is E8, NOT E6\n        // cUSDC.redeem(cUSDC_amount);\n    }\n\n    function compoundCollectCOMP() public onlyByOwnerOrGovernance {\n        address[] memory cTokens = new address[](1);\n        cTokens[0] = address(cUSDC);\n        // CompController.claimComp(address(this), cTokens);\n\n        // CompController.claimComp(address(this), );\n    }\n\n    /* ========== Custodian ========== */\n\n    function withdrawRewards() public onlyCustodian {\n        COMP.transfer(custodian_address, COMP.balanceOf(address(this)));\n    }\n\n    /* ========== RESTRICTED FUNCTIONS ========== */\n\n    function setTimelock(address new_timelock) external onlyByOwnerOrGovernance {\n        require(new_timelock != address(0), \"Timelock address cannot be 0\");\n        timelock_address = new_timelock;\n    }\n\n    function setWethAddress(address _weth_address) external onlyByOwnerOrGovernance {\n        weth_address = _weth_address;\n    }\n\n    function setCustodian(address _custodian_address) external onlyByOwnerOrGovernance {\n        require(_custodian_address != address(0), \"Custodian address cannot be 0\");        \n        custodian_address = _custodian_address;\n    }\n\n    function setPool(address _pool_address) external onlyByOwnerOrGovernance {\n        pool_address = _pool_address;\n        pool = CeresPool(_pool_address);\n    }\n\n    function setBorrowCap(uint256 _borrow_cap) external onlyByOwnerOrGovernance {\n        borrow_cap = _borrow_cap;\n    }\n\n    function setAllowedStrategies(bool _yearn, bool _aave, bool _compound) external onlyByOwnerOrGovernance {\n        allow_yearn = _yearn;\n        allow_aave = _aave;\n        allow_compound = _compound;\n    }\n\n    function emergencyRecoverERC20(address tokenAddress, uint256 tokenAmount) external onlyByOwnerOrGovernance {\n        // Can only be triggered by owner or governance, not custodian\n        // Tokens are sent to the custodian, as a sort of safeguard\n\n        ERC20(tokenAddress).transfer(custodian_address, tokenAmount);\n        emit Recovered(tokenAddress, tokenAmount);\n    }\n\n\n    /* ========== EVENTS ========== */\n\n    event Recovered(address token, uint256 amount);\n\n}",
  "sourcePath": "/Users/cooper/GitHub/Prigogine/Ceres-Protocol/contracts/AMOs/CERESPoolInvestorForV2.sol",
  "compiler": {
    "name": "solc",
    "version": "0.6.12+commit.27d51765.Emscripten.clang"
  },
  "schemaVersion": "3.4.1",
  "updatedAt": "2021-07-29T08:29:12.884Z",
  "devdoc": {
    "kind": "dev",
    "methods": {
      "getRoleAdmin(bytes32)": {
        "details": "Returns the admin role that controls `role`. See {grantRole} and {revokeRole}. To change a role's admin, use {_setRoleAdmin}."
      },
      "getRoleMember(bytes32,uint256)": {
        "details": "Returns one of the accounts that have `role`. `index` must be a value between 0 and {getRoleMemberCount}, non-inclusive. Role bearers are not sorted in any particular way, and their ordering may change at any point. WARNING: When using {getRoleMember} and {getRoleMemberCount}, make sure you perform all queries on the same block. See the following https://forum.openzeppelin.com/t/iterating-over-elements-on-enumerableset-in-openzeppelin-contracts/2296[forum post] for more information."
      },
      "getRoleMemberCount(bytes32)": {
        "details": "Returns the number of accounts that have `role`. Can be used together with {getRoleMember} to enumerate all bearers of a role."
      },
      "grantRole(bytes32,address)": {
        "details": "Grants `role` to `account`. If `account` had not been already granted `role`, emits a {RoleGranted} event. Requirements: - the caller must have ``role``'s admin role."
      },
      "hasRole(bytes32,address)": {
        "details": "Returns `true` if `account` has been granted `role`."
      },
      "renounceRole(bytes32,address)": {
        "details": "Revokes `role` from the calling account. Roles are often managed via {grantRole} and {revokeRole}: this function's purpose is to provide a mechanism for accounts to lose their privileges if they are compromised (such as when a trusted device is misplaced). If the calling account had been granted `role`, emits a {RoleRevoked} event. Requirements: - the caller must be `account`."
      },
      "revokeRole(bytes32,address)": {
        "details": "Revokes `role` from `account`. If `account` had been granted `role`, emits a {RoleRevoked} event. Requirements: - the caller must have ``role``'s admin role."
      }
    },
    "version": 1
  },
  "userdoc": {
    "kind": "user",
    "methods": {},
    "version": 1
  }
}