{
  "contractName": "LPTokenWrapper",
  "abi": [
    {
      "inputs": [],
      "name": "lpt",
      "outputs": [
        {
          "internalType": "contract IERC20",
          "name": "",
          "type": "address"
        }
      ],
      "stateMutability": "view",
      "type": "function"
    },
    {
      "inputs": [],
      "name": "totalSupply",
      "outputs": [
        {
          "internalType": "uint256",
          "name": "",
          "type": "uint256"
        }
      ],
      "stateMutability": "view",
      "type": "function"
    },
    {
      "inputs": [
        {
          "internalType": "address",
          "name": "account",
          "type": "address"
        }
      ],
      "name": "balanceOf",
      "outputs": [
        {
          "internalType": "uint256",
          "name": "",
          "type": "uint256"
        }
      ],
      "stateMutability": "view",
      "type": "function"
    },
    {
      "inputs": [
        {
          "internalType": "uint256",
          "name": "amount",
          "type": "uint256"
        }
      ],
      "name": "stake",
      "outputs": [],
      "stateMutability": "nonpayable",
      "type": "function"
    },
    {
      "inputs": [
        {
          "internalType": "uint256",
          "name": "amount",
          "type": "uint256"
        }
      ],
      "name": "withdraw",
      "outputs": [],
      "stateMutability": "nonpayable",
      "type": "function"
    }
  ],
  "bytecode": "0x608060405234801561001057600080fd5b506107f4806100206000396000f3fe608060405234801561001057600080fd5b50600436106100675760003560e01c806370a082311161005057806370a08231146100a5578063a694fc3a146100d8578063ce5fc8d0146100f557610067565b806318160ddd1461006c5780632e1a7d4d14610086575b600080fd5b610074610126565b60408051918252519081900360200190f35b6100a36004803603602081101561009c57600080fd5b503561012c565b005b610074600480360360208110156100bb57600080fd5b503573ffffffffffffffffffffffffffffffffffffffff16610191565b6100a3600480360360208110156100ee57600080fd5b50356101b9565b6100fd61021c565b6040805173ffffffffffffffffffffffffffffffffffffffff9092168252519081900360200190f35b60015490565b6001546101399082610238565b600155336000908152600260205260409020546101569082610238565b33600081815260026020526040812092909255905461018e9173ffffffffffffffffffffffffffffffffffffffff9091169083610281565b50565b73ffffffffffffffffffffffffffffffffffffffff1660009081526002602052604090205490565b6001546101c69082610313565b600155336000908152600260205260409020546101e39082610313565b33600081815260026020526040812092909255905461018e9173ffffffffffffffffffffffffffffffffffffffff909116903084610387565b60005473ffffffffffffffffffffffffffffffffffffffff1681565b600061027a83836040518060400160405280601e81526020017f536166654d6174683a207375627472616374696f6e206f766572666c6f770000815250610422565b9392505050565b6040805173ffffffffffffffffffffffffffffffffffffffff8416602482015260448082018490528251808303909101815260649091019091526020810180517bffffffffffffffffffffffffffffffffffffffffffffffffffffffff167fa9059cbb0000000000000000000000000000000000000000000000000000000017905261030e9084906104d3565b505050565b60008282018381101561027a57604080517f08c379a000000000000000000000000000000000000000000000000000000000815260206004820152601b60248201527f536166654d6174683a206164646974696f6e206f766572666c6f770000000000604482015290519081900360640190fd5b6040805173ffffffffffffffffffffffffffffffffffffffff80861660248301528416604482015260648082018490528251808303909101815260849091019091526020810180517bffffffffffffffffffffffffffffffffffffffffffffffffffffffff167f23b872dd0000000000000000000000000000000000000000000000000000000017905261041c9085906104d3565b50505050565b600081848411156104cb576040517f08c379a00000000000000000000000000000000000000000000000000000000081526004018080602001828103825283818151815260200191508051906020019080838360005b83811015610490578181015183820152602001610478565b50505050905090810190601f1680156104bd5780820380516001836020036101000a031916815260200191505b509250505060405180910390fd5b505050900390565b6060610535826040518060400160405280602081526020017f5361666545524332303a206c6f772d6c6576656c2063616c6c206661696c65648152508573ffffffffffffffffffffffffffffffffffffffff166105ab9092919063ffffffff16565b80519091501561030e5780806020019051602081101561055457600080fd5b505161030e576040517f08c379a000000000000000000000000000000000000000000000000000000000815260040180806020018281038252602a815260200180610795602a913960400191505060405180910390fd5b60606105ba84846000856105c2565b949350505050565b60606105cd8561078e565b61063857604080517f08c379a000000000000000000000000000000000000000000000000000000000815260206004820152601d60248201527f416464726573733a2063616c6c20746f206e6f6e2d636f6e7472616374000000604482015290519081900360640190fd5b600060608673ffffffffffffffffffffffffffffffffffffffff1685876040518082805190602001908083835b602083106106a257805182527fffffffffffffffffffffffffffffffffffffffffffffffffffffffffffffffe09092019160209182019101610665565b6001836020036101000a03801982511681845116808217855250505050505090500191505060006040518083038185875af1925050503d8060008114610704576040519150601f19603f3d011682016040523d82523d6000602084013e610709565b606091505b5091509150811561071d5791506105ba9050565b80511561072d5780518082602001fd5b6040517f08c379a0000000000000000000000000000000000000000000000000000000008152602060048201818152865160248401528651879391928392604401919085019080838360008315610490578181015183820152602001610478565b3b15159056fe5361666545524332303a204552433230206f7065726174696f6e20646964206e6f742073756363656564a2646970667358221220ef0d509f5052e710e1434eb9ed8b080576f8690879483d0561b099d473b6ea5664736f6c634300060c0033",
  "immutableReferences": {},
  "source": "// SPDX-License-Identifier: MIT\npragma solidity ^0.6.12;\n\nimport '../Math/SafeMath.sol';\nimport '../ERC20/SafeERC20.sol';\nimport '../ERC20/IERC20.sol';\n\ncontract LPTokenWrapper {\n    using SafeMath for uint256;\n    using SafeERC20 for IERC20;\n    // TEST CASES DONE\n    IERC20 public lpt;\n\n    uint256 private _totalSupply;\n    mapping(address => uint256) private _balances;\n    // TEST CASES DONE\n    function totalSupply() public view returns (uint256) {\n        return _totalSupply;\n    }\n    // TEST CASES DONE\n    function balanceOf(address account) public view returns (uint256) {\n        return _balances[account];\n    }\n\n    function stake(uint256 amount) public virtual {\n        _totalSupply = _totalSupply.add(amount);\n        _balances[msg.sender] = _balances[msg.sender].add(amount);\n        lpt.safeTransferFrom(msg.sender, address(this), amount);\n    }\n\n    function withdraw(uint256 amount) public virtual {\n        _totalSupply = _totalSupply.sub(amount);\n        _balances[msg.sender] = _balances[msg.sender].sub(amount);\n        lpt.safeTransfer(msg.sender, amount);\n    }\n}\n",
  "sourcePath": "/Users/cooper/GitHub/Prigogine/Ceres-Protocol/contracts/ERC20/LPTokenWrapper.sol",
  "compiler": {
    "name": "solc",
    "version": "0.6.12+commit.27d51765.Emscripten.clang"
  },
  "schemaVersion": "3.4.1",
  "updatedAt": "2021-07-29T03:32:44.760Z",
  "devdoc": {
    "kind": "dev",
    "methods": {},
    "version": 1
  },
  "userdoc": {
    "kind": "user",
    "methods": {},
    "version": 1
  }
}