{
  "contractName": "MigrationHelper",
  "abi": [
    {
      "inputs": [
        {
          "internalType": "address",
          "name": "_owner",
          "type": "address"
        }
      ],
      "stateMutability": "nonpayable",
      "type": "constructor"
    },
    {
      "inputs": [],
      "name": "gov_to_timelock_eta",
      "outputs": [
        {
          "internalType": "uint256",
          "name": "",
          "type": "uint256"
        }
      ],
      "stateMutability": "view",
      "type": "function"
    },
    {
      "inputs": [],
      "name": "owner",
      "outputs": [
        {
          "internalType": "address",
          "name": "",
          "type": "address"
        }
      ],
      "stateMutability": "view",
      "type": "function"
    },
    {
      "inputs": [
        {
          "internalType": "uint256",
          "name": "_eta",
          "type": "uint256"
        }
      ],
      "name": "setGovToTimeLockETA",
      "outputs": [],
      "stateMutability": "nonpayable",
      "type": "function"
    }
  ],
  "bytecode": "0x608060405234801561001057600080fd5b506040516101893803806101898339818101604052602081101561003357600080fd5b5051600080546001600160a01b039092166001600160a01b0319909216919091179055610124806100656000396000f3fe6080604052348015600f57600080fd5b5060043610603c5760003560e01c806324403c991460415780638da5cb5b14605d578063b179bafc14608c575b600080fd5b605b60048036036020811015605557600080fd5b503560a4565b005b606360cc565b6040805173ffffffffffffffffffffffffffffffffffffffff9092168252519081900360200190f35b609260e8565b60408051918252519081900360200190f35b60005473ffffffffffffffffffffffffffffffffffffffff1633141560c95760018190555b50565b60005473ffffffffffffffffffffffffffffffffffffffff1681565b6001548156fea26469706673582212203b1bf5a29b953c1f7d041839c1fc94ab3d5d58402878990349104edd35107ae764736f6c634300060c0033",
  "immutableReferences": {},
  "source": "// SPDX-License-Identifier: MIT\npragma solidity 0.6.12;\n\ncontract MigrationHelper {\n  address public owner;\n  uint256 public gov_to_timelock_eta;\n\n  modifier restricted() {\n    if (msg.sender == owner) _;\n  }\n\n  constructor(address _owner) public {\n    owner = _owner;\n  }\n\n  function setGovToTimeLockETA(uint256 _eta) public restricted {\n    gov_to_timelock_eta = _eta;\n  }\n}\n",
  "sourcePath": "/Users/cooper/GitHub/Prigogine/Ceres-Protocol/contracts/Utils/MigrationHelper.sol",
  "compiler": {
    "name": "solc",
    "version": "0.6.12+commit.27d51765.Emscripten.clang"
  },
  "schemaVersion": "3.4.1",
  "updatedAt": "2021-07-29T07:51:31.599Z",
  "devdoc": {
    "kind": "dev",
    "methods": {},
    "version": 1
  },
  "userdoc": {
    "kind": "user",
    "methods": {},
    "version": 1
  }
}