{
  "contractName": "Pool_USDC",
  "abi": [
    {
      "inputs": [
        {
          "internalType": "address",
          "name": "_ceres_contract_address",
          "type": "address"
        },
        {
          "internalType": "address",
          "name": "_css_contract_address",
          "type": "address"
        },
        {
          "internalType": "address",
          "name": "_collateral_address",
          "type": "address"
        },
        {
          "internalType": "address",
          "name": "_creator_address",
          "type": "address"
        },
        {
          "internalType": "address",
          "name": "_timelock_address",
          "type": "address"
        },
        {
          "internalType": "uint256",
          "name": "_pool_ceiling",
          "type": "uint256"
        }
      ],
      "stateMutability": "nonpayable",
      "type": "constructor"
    },
    {
      "anonymous": false,
      "inputs": [
        {
          "indexed": true,
          "internalType": "bytes32",
          "name": "role",
          "type": "bytes32"
        },
        {
          "indexed": true,
          "internalType": "bytes32",
          "name": "previousAdminRole",
          "type": "bytes32"
        },
        {
          "indexed": true,
          "internalType": "bytes32",
          "name": "newAdminRole",
          "type": "bytes32"
        }
      ],
      "name": "RoleAdminChanged",
      "type": "event"
    },
    {
      "anonymous": false,
      "inputs": [
        {
          "indexed": true,
          "internalType": "bytes32",
          "name": "role",
          "type": "bytes32"
        },
        {
          "indexed": true,
          "internalType": "address",
          "name": "account",
          "type": "address"
        },
        {
          "indexed": true,
          "internalType": "address",
          "name": "sender",
          "type": "address"
        }
      ],
      "name": "RoleGranted",
      "type": "event"
    },
    {
      "anonymous": false,
      "inputs": [
        {
          "indexed": true,
          "internalType": "bytes32",
          "name": "role",
          "type": "bytes32"
        },
        {
          "indexed": true,
          "internalType": "address",
          "name": "account",
          "type": "address"
        },
        {
          "indexed": true,
          "internalType": "address",
          "name": "sender",
          "type": "address"
        }
      ],
      "name": "RoleRevoked",
      "type": "event"
    },
    {
      "inputs": [],
      "name": "CERES",
      "outputs": [
        {
          "internalType": "contract CEREStable",
          "name": "",
          "type": "address"
        }
      ],
      "stateMutability": "view",
      "type": "function"
    },
    {
      "inputs": [],
      "name": "COLLATERAL_RATIO_MAX",
      "outputs": [
        {
          "internalType": "uint256",
          "name": "",
          "type": "uint256"
        }
      ],
      "stateMutability": "view",
      "type": "function"
    },
    {
      "inputs": [],
      "name": "COLLATERAL_RATIO_PRECISION",
      "outputs": [
        {
          "internalType": "uint256",
          "name": "",
          "type": "uint256"
        }
      ],
      "stateMutability": "view",
      "type": "function"
    },
    {
      "inputs": [],
      "name": "CSS",
      "outputs": [
        {
          "internalType": "contract CEREShares",
          "name": "",
          "type": "address"
        }
      ],
      "stateMutability": "view",
      "type": "function"
    },
    {
      "inputs": [],
      "name": "DEFAULT_ADMIN_ROLE",
      "outputs": [
        {
          "internalType": "bytes32",
          "name": "",
          "type": "bytes32"
        }
      ],
      "stateMutability": "view",
      "type": "function"
    },
    {
      "inputs": [],
      "name": "PRICE_PRECISION",
      "outputs": [
        {
          "internalType": "uint256",
          "name": "",
          "type": "uint256"
        }
      ],
      "stateMutability": "view",
      "type": "function"
    },
    {
      "inputs": [],
      "name": "USDC_address",
      "outputs": [
        {
          "internalType": "address",
          "name": "",
          "type": "address"
        }
      ],
      "stateMutability": "view",
      "type": "function"
    },
    {
      "inputs": [],
      "name": "availableExcessCollatDV",
      "outputs": [
        {
          "internalType": "uint256",
          "name": "",
          "type": "uint256"
        }
      ],
      "stateMutability": "view",
      "type": "function"
    },
    {
      "inputs": [],
      "name": "bonus_rate",
      "outputs": [
        {
          "internalType": "uint256",
          "name": "",
          "type": "uint256"
        }
      ],
      "stateMutability": "view",
      "type": "function"
    },
    {
      "inputs": [
        {
          "internalType": "uint256",
          "name": "CSS_amount",
          "type": "uint256"
        },
        {
          "internalType": "uint256",
          "name": "COLLATERAL_out_min",
          "type": "uint256"
        }
      ],
      "name": "buyBackCSS",
      "outputs": [],
      "stateMutability": "nonpayable",
      "type": "function"
    },
    {
      "inputs": [],
      "name": "buyBackPaused",
      "outputs": [
        {
          "internalType": "bool",
          "name": "",
          "type": "bool"
        }
      ],
      "stateMutability": "view",
      "type": "function"
    },
    {
      "inputs": [],
      "name": "buyback_fee",
      "outputs": [
        {
          "internalType": "uint256",
          "name": "",
          "type": "uint256"
        }
      ],
      "stateMutability": "view",
      "type": "function"
    },
    {
      "inputs": [],
      "name": "ceres_contract_address",
      "outputs": [
        {
          "internalType": "address",
          "name": "",
          "type": "address"
        }
      ],
      "stateMutability": "view",
      "type": "function"
    },
    {
      "inputs": [],
      "name": "collatDollarBalance",
      "outputs": [
        {
          "internalType": "uint256",
          "name": "",
          "type": "uint256"
        }
      ],
      "stateMutability": "view",
      "type": "function"
    },
    {
      "inputs": [],
      "name": "collatEthOracle",
      "outputs": [
        {
          "internalType": "contract UniswapPairOracle",
          "name": "",
          "type": "address"
        }
      ],
      "stateMutability": "view",
      "type": "function"
    },
    {
      "inputs": [],
      "name": "collat_eth_oracle_address",
      "outputs": [
        {
          "internalType": "address",
          "name": "",
          "type": "address"
        }
      ],
      "stateMutability": "view",
      "type": "function"
    },
    {
      "inputs": [],
      "name": "collateralPricePaused",
      "outputs": [
        {
          "internalType": "bool",
          "name": "",
          "type": "bool"
        }
      ],
      "stateMutability": "view",
      "type": "function"
    },
    {
      "inputs": [],
      "name": "collateral_address",
      "outputs": [
        {
          "internalType": "address",
          "name": "",
          "type": "address"
        }
      ],
      "stateMutability": "view",
      "type": "function"
    },
    {
      "inputs": [],
      "name": "collateral_token",
      "outputs": [
        {
          "internalType": "contract ERC20",
          "name": "",
          "type": "address"
        }
      ],
      "stateMutability": "view",
      "type": "function"
    },
    {
      "inputs": [],
      "name": "collectRedemption",
      "outputs": [],
      "stateMutability": "nonpayable",
      "type": "function"
    },
    {
      "inputs": [],
      "name": "css_contract_address",
      "outputs": [
        {
          "internalType": "address",
          "name": "",
          "type": "address"
        }
      ],
      "stateMutability": "view",
      "type": "function"
    },
    {
      "inputs": [],
      "name": "getCollateralPrice",
      "outputs": [
        {
          "internalType": "uint256",
          "name": "",
          "type": "uint256"
        }
      ],
      "stateMutability": "view",
      "type": "function"
    },
    {
      "inputs": [
        {
          "internalType": "bytes32",
          "name": "role",
          "type": "bytes32"
        }
      ],
      "name": "getRoleAdmin",
      "outputs": [
        {
          "internalType": "bytes32",
          "name": "",
          "type": "bytes32"
        }
      ],
      "stateMutability": "view",
      "type": "function"
    },
    {
      "inputs": [
        {
          "internalType": "bytes32",
          "name": "role",
          "type": "bytes32"
        },
        {
          "internalType": "uint256",
          "name": "index",
          "type": "uint256"
        }
      ],
      "name": "getRoleMember",
      "outputs": [
        {
          "internalType": "address",
          "name": "",
          "type": "address"
        }
      ],
      "stateMutability": "view",
      "type": "function"
    },
    {
      "inputs": [
        {
          "internalType": "bytes32",
          "name": "role",
          "type": "bytes32"
        }
      ],
      "name": "getRoleMemberCount",
      "outputs": [
        {
          "internalType": "uint256",
          "name": "",
          "type": "uint256"
        }
      ],
      "stateMutability": "view",
      "type": "function"
    },
    {
      "inputs": [
        {
          "internalType": "bytes32",
          "name": "role",
          "type": "bytes32"
        },
        {
          "internalType": "address",
          "name": "account",
          "type": "address"
        }
      ],
      "name": "grantRole",
      "outputs": [],
      "stateMutability": "nonpayable",
      "type": "function"
    },
    {
      "inputs": [
        {
          "internalType": "bytes32",
          "name": "role",
          "type": "bytes32"
        },
        {
          "internalType": "address",
          "name": "account",
          "type": "address"
        }
      ],
      "name": "hasRole",
      "outputs": [
        {
          "internalType": "bool",
          "name": "",
          "type": "bool"
        }
      ],
      "stateMutability": "view",
      "type": "function"
    },
    {
      "inputs": [
        {
          "internalType": "address",
          "name": "",
          "type": "address"
        }
      ],
      "name": "lastRedeemed",
      "outputs": [
        {
          "internalType": "uint256",
          "name": "",
          "type": "uint256"
        }
      ],
      "stateMutability": "view",
      "type": "function"
    },
    {
      "inputs": [
        {
          "internalType": "uint256",
          "name": "collateral_amount",
          "type": "uint256"
        },
        {
          "internalType": "uint256",
          "name": "CERES_out_min",
          "type": "uint256"
        }
      ],
      "name": "mint1t1CERES",
      "outputs": [],
      "stateMutability": "nonpayable",
      "type": "function"
    },
    {
      "inputs": [
        {
          "internalType": "uint256",
          "name": "css_amount_d18",
          "type": "uint256"
        },
        {
          "internalType": "uint256",
          "name": "CERES_out_min",
          "type": "uint256"
        }
      ],
      "name": "mintAlgorithmicCERES",
      "outputs": [],
      "stateMutability": "nonpayable",
      "type": "function"
    },
    {
      "inputs": [
        {
          "internalType": "uint256",
          "name": "collateral_amount",
          "type": "uint256"
        },
        {
          "internalType": "uint256",
          "name": "css_amount",
          "type": "uint256"
        },
        {
          "internalType": "uint256",
          "name": "CERES_out_min",
          "type": "uint256"
        }
      ],
      "name": "mintFractionalCERES",
      "outputs": [],
      "stateMutability": "nonpayable",
      "type": "function"
    },
    {
      "inputs": [],
      "name": "mintPaused",
      "outputs": [
        {
          "internalType": "bool",
          "name": "",
          "type": "bool"
        }
      ],
      "stateMutability": "view",
      "type": "function"
    },
    {
      "inputs": [],
      "name": "minting_fee",
      "outputs": [
        {
          "internalType": "uint256",
          "name": "",
          "type": "uint256"
        }
      ],
      "stateMutability": "view",
      "type": "function"
    },
    {
      "inputs": [],
      "name": "missing_decimals",
      "outputs": [
        {
          "internalType": "uint256",
          "name": "",
          "type": "uint256"
        }
      ],
      "stateMutability": "view",
      "type": "function"
    },
    {
      "inputs": [],
      "name": "owner_address",
      "outputs": [
        {
          "internalType": "address",
          "name": "",
          "type": "address"
        }
      ],
      "stateMutability": "view",
      "type": "function"
    },
    {
      "inputs": [],
      "name": "pausedPrice",
      "outputs": [
        {
          "internalType": "uint256",
          "name": "",
          "type": "uint256"
        }
      ],
      "stateMutability": "view",
      "type": "function"
    },
    {
      "inputs": [],
      "name": "pool_ceiling",
      "outputs": [
        {
          "internalType": "uint256",
          "name": "",
          "type": "uint256"
        }
      ],
      "stateMutability": "view",
      "type": "function"
    },
    {
      "inputs": [],
      "name": "recollat_fee",
      "outputs": [
        {
          "internalType": "uint256",
          "name": "",
          "type": "uint256"
        }
      ],
      "stateMutability": "view",
      "type": "function"
    },
    {
      "inputs": [
        {
          "internalType": "uint256",
          "name": "collateral_amount",
          "type": "uint256"
        },
        {
          "internalType": "uint256",
          "name": "CSS_out_min",
          "type": "uint256"
        }
      ],
      "name": "recollateralizeCSS",
      "outputs": [],
      "stateMutability": "nonpayable",
      "type": "function"
    },
    {
      "inputs": [],
      "name": "recollateralizePaused",
      "outputs": [
        {
          "internalType": "bool",
          "name": "",
          "type": "bool"
        }
      ],
      "stateMutability": "view",
      "type": "function"
    },
    {
      "inputs": [
        {
          "internalType": "uint256",
          "name": "CERES_amount",
          "type": "uint256"
        },
        {
          "internalType": "uint256",
          "name": "COLLATERAL_out_min",
          "type": "uint256"
        }
      ],
      "name": "redeem1t1CERES",
      "outputs": [],
      "stateMutability": "nonpayable",
      "type": "function"
    },
    {
      "inputs": [
        {
          "internalType": "uint256",
          "name": "CERES_amount",
          "type": "uint256"
        },
        {
          "internalType": "uint256",
          "name": "CSS_out_min",
          "type": "uint256"
        }
      ],
      "name": "redeemAlgorithmicCERES",
      "outputs": [],
      "stateMutability": "nonpayable",
      "type": "function"
    },
    {
      "inputs": [
        {
          "internalType": "address",
          "name": "",
          "type": "address"
        }
      ],
      "name": "redeemCSSBalances",
      "outputs": [
        {
          "internalType": "uint256",
          "name": "",
          "type": "uint256"
        }
      ],
      "stateMutability": "view",
      "type": "function"
    },
    {
      "inputs": [
        {
          "internalType": "address",
          "name": "",
          "type": "address"
        }
      ],
      "name": "redeemCollateralBalances",
      "outputs": [
        {
          "internalType": "uint256",
          "name": "",
          "type": "uint256"
        }
      ],
      "stateMutability": "view",
      "type": "function"
    },
    {
      "inputs": [
        {
          "internalType": "uint256",
          "name": "CERES_amount",
          "type": "uint256"
        },
        {
          "internalType": "uint256",
          "name": "CSS_out_min",
          "type": "uint256"
        },
        {
          "internalType": "uint256",
          "name": "COLLATERAL_out_min",
          "type": "uint256"
        }
      ],
      "name": "redeemFractionalCERES",
      "outputs": [],
      "stateMutability": "nonpayable",
      "type": "function"
    },
    {
      "inputs": [],
      "name": "redeemPaused",
      "outputs": [
        {
          "internalType": "bool",
          "name": "",
          "type": "bool"
        }
      ],
      "stateMutability": "view",
      "type": "function"
    },
    {
      "inputs": [],
      "name": "redemption_delay",
      "outputs": [
        {
          "internalType": "uint256",
          "name": "",
          "type": "uint256"
        }
      ],
      "stateMutability": "view",
      "type": "function"
    },
    {
      "inputs": [],
      "name": "redemption_fee",
      "outputs": [
        {
          "internalType": "uint256",
          "name": "",
          "type": "uint256"
        }
      ],
      "stateMutability": "view",
      "type": "function"
    },
    {
      "inputs": [
        {
          "internalType": "bytes32",
          "name": "role",
          "type": "bytes32"
        },
        {
          "internalType": "address",
          "name": "account",
          "type": "address"
        }
      ],
      "name": "renounceRole",
      "outputs": [],
      "stateMutability": "nonpayable",
      "type": "function"
    },
    {
      "inputs": [
        {
          "internalType": "bytes32",
          "name": "role",
          "type": "bytes32"
        },
        {
          "internalType": "address",
          "name": "account",
          "type": "address"
        }
      ],
      "name": "revokeRole",
      "outputs": [],
      "stateMutability": "nonpayable",
      "type": "function"
    },
    {
      "inputs": [
        {
          "internalType": "uint256",
          "name": "_bonus_rate",
          "type": "uint256"
        }
      ],
      "name": "setBonus_rate",
      "outputs": [],
      "stateMutability": "nonpayable",
      "type": "function"
    },
    {
      "inputs": [
        {
          "internalType": "uint256",
          "name": "_buyback_fee",
          "type": "uint256"
        }
      ],
      "name": "setBuyback_fee",
      "outputs": [],
      "stateMutability": "nonpayable",
      "type": "function"
    },
    {
      "inputs": [
        {
          "internalType": "address",
          "name": "_collateral_weth_oracle_address",
          "type": "address"
        },
        {
          "internalType": "address",
          "name": "_weth_address",
          "type": "address"
        }
      ],
      "name": "setCollatETHOracle",
      "outputs": [],
      "stateMutability": "nonpayable",
      "type": "function"
    },
    {
      "inputs": [
        {
          "internalType": "uint256",
          "name": "_minting_fee",
          "type": "uint256"
        }
      ],
      "name": "setMinting_fee",
      "outputs": [],
      "stateMutability": "nonpayable",
      "type": "function"
    },
    {
      "inputs": [
        {
          "internalType": "address",
          "name": "_owner_address",
          "type": "address"
        }
      ],
      "name": "setOwner",
      "outputs": [],
      "stateMutability": "nonpayable",
      "type": "function"
    },
    {
      "inputs": [
        {
          "internalType": "uint256",
          "name": "new_ceiling",
          "type": "uint256"
        }
      ],
      "name": "setPoolParameters",
      "outputs": [],
      "stateMutability": "nonpayable",
      "type": "function"
    },
    {
      "inputs": [
        {
          "internalType": "uint256",
          "name": "_recollat_fee",
          "type": "uint256"
        }
      ],
      "name": "setRecollat_fee",
      "outputs": [],
      "stateMutability": "nonpayable",
      "type": "function"
    },
    {
      "inputs": [
        {
          "internalType": "uint256",
          "name": "_redemption_fee",
          "type": "uint256"
        }
      ],
      "name": "setRedemption_fee",
      "outputs": [],
      "stateMutability": "nonpayable",
      "type": "function"
    },
    {
      "inputs": [
        {
          "internalType": "address",
          "name": "new_timelock",
          "type": "address"
        }
      ],
      "name": "setTimelock",
      "outputs": [],
      "stateMutability": "nonpayable",
      "type": "function"
    },
    {
      "inputs": [],
      "name": "timelock_address",
      "outputs": [
        {
          "internalType": "address",
          "name": "",
          "type": "address"
        }
      ],
      "stateMutability": "view",
      "type": "function"
    },
    {
      "inputs": [],
      "name": "toggleCollateralPricePaused",
      "outputs": [],
      "stateMutability": "nonpayable",
      "type": "function"
    },
    {
      "inputs": [],
      "name": "toggleMinting",
      "outputs": [],
      "stateMutability": "nonpayable",
      "type": "function"
    },
    {
      "inputs": [],
      "name": "toggleRecollateralize",
      "outputs": [],
      "stateMutability": "nonpayable",
      "type": "function"
    },
    {
      "inputs": [],
      "name": "toggleRedeeming",
      "outputs": [],
      "stateMutability": "nonpayable",
      "type": "function"
    },
    {
      "inputs": [],
      "name": "unclaimedPoolCSS",
      "outputs": [
        {
          "internalType": "uint256",
          "name": "",
          "type": "uint256"
        }
      ],
      "stateMutability": "view",
      "type": "function"
    },
    {
      "inputs": [],
      "name": "unclaimedPoolCollateral",
      "outputs": [
        {
          "internalType": "uint256",
          "name": "",
          "type": "uint256"
        }
      ],
      "stateMutability": "view",
      "type": "function"
    },
    {
      "inputs": [],
      "name": "weth_address",
      "outputs": [
        {
          "internalType": "address",
          "name": "",
          "type": "address"
        }
      ],
      "stateMutability": "view",
      "type": "function"
    }
  ],
  "bytecode": "0x60a060405260006009819055600a8190556010556011805464ffffffffff1916905561012c60145561019060155560646016819055601755611d4c6018553480156200004a57600080fd5b506040516200586838038062005868833981810160405260c08110156200007057600080fd5b5080516020808301516040808501516060860151608087015160a090970151600880546001600160a01b03199081166001600160a01b03808b16918217909355600780548316848a1690811790915560018054841685891690811791829055600480548616909417845560058054861690931790925560028054851690921790915560038054841685881617905560068054909316848d16179092556009849055865163313ce56760e01b81529651999a9799959894979693958b958b958b958b958b958b95620001a895929093169363313ce5679381830193929091829003018186803b1580156200016257600080fd5b505afa15801562000177573d6000803e3d6000fd5b505050506040513d60208110156200018e57600080fd5b505160129060ff16620001f8602090811b620049e017901c565b60805250620001cb945060009350620001c59250506200024b9050565b6200024f565b5050601980546001600160a01b0319166001600160a01b03939093169290921790915550620003eb915050565b60006200024283836040518060400160405280601e81526020017f536166654d6174683a207375627472616374696f6e206f766572666c6f7700008152506200025f60201b60201c565b90505b92915050565b3390565b6200025b8282620002fa565b5050565b60008184841115620002f25760405162461bcd60e51b81526004018080602001828103825283818151815260200191508051906020019080838360005b83811015620002b65781810151838201526020016200029c565b50505050905090810190601f168015620002e45780820380516001836020036101000a031916815260200191505b509250505060405180910390fd5b505050900390565b6000828152602081815260409091206200031f91839062004a2262000373821b17901c565b156200025b576200032f6200024b565b6001600160a01b0316816001600160a01b0316837f2f8788117e7eff1d82e926ec794901d17c78024a50270940304540a733656f0d60405160405180910390a45050565b600062000242836001600160a01b0384166000620003928383620003d3565b620003ca5750815460018181018455600084815260208082209093018490558454848252828601909352604090209190915562000245565b50600062000245565b60009081526001919091016020526040902054151590565b60805161542b6200043d6000398061141e52806115f152806116ac5280611b185280611f8352806121bb52806128a45280612df8528061311c5280613d33528061428c5280614902525061542b6000f3fe608060405234801561001057600080fd5b50600436106104215760003560e01c80637f877f8511610235578063cb73999f11610135578063e0bad1af116100c8578063f61adab211610097578063f9abd26c1161007c578063f9abd26c146109b1578063fdc5c7ab146109b9578063fede5c9c146109ec57610421565b8063f61adab2146109a1578063f7683bbc146109a957610421565b8063e0bad1af1461096c578063ee13118014610974578063efadaf8a1461097c578063f46f4de01461098457610421565b8063daa5048511610104578063daa5048514610939578063dc6663c714610941578063dd89fe0a146107ff578063e02f4d2c1461094957610421565b8063cb73999f146108d5578063d07ac67e146107ff578063d547741f146108dd578063d855edf41461091657610421565b80639e14e7ee116101c8578063b442927f11610197578063c3355b8d1161017c578063c3355b8d146108a8578063c74ec56a146108b0578063ca15c873146108b857610421565b8063b442927f1461086d578063bdacb3031461087557610421565b80639e14e7ee14610807578063a217fddf1461082a578063abae2c4c14610832578063b235d4681461086557610421565b80638d2ac7a4116102045780638d2ac7a41461079b5780639010d07c146107a357806391d14854146107c657806395082d25146107ff57610421565b80637f877f851461074857806380edef8e1461075057806388d42cf2146107585780638baa4b9f1461079357610421565b80632621db2f1161034057806365046439116102d35780636f909ead116102a25780637b0461e9116102875780637b0461e9146107305780637d55094d146107385780637e4831d31461074057610421565b80636f909ead146106e4578063785a82df1461070d57610421565b806365046439146106805780636526a12a1461069d5780636c26317f146106a55780636d2c5615146106c857610421565b806336568abe1161030f57806336568abe1461062f5780633ed4e55c1461066857806342d15aec146106705780634c6349341461067857610421565b80632621db2f146105bd57806328138f2f146105c55780632a01851f146105cd5780632f2ff15d146105f657610421565b806315128425116103b85780631915d5f8116103875780631915d5f8146105885780631eaa0e1714610590578063246126bd14610598578063248a9ca3146105a057610421565b80631512842514610524578063169c9eeb1461052c57806317284c941461054f5780631912b3d71461055757610421565b8063101197c7116103f4578063101197c7146104c457806312ace5a2146104cc5780631308bad3146104d457806313af4035146104f157610421565b8063029662f61461042657806308a7493d146104455780630d037cfa1461048a5780630fe02a3a146104a7575b600080fd5b6104436004803603602081101561043c57600080fd5b50356109f4565b005b6104786004803603602081101561045b57600080fd5b503573ffffffffffffffffffffffffffffffffffffffff16610a8b565b60408051918252519081900360200190f35b610443600480360360208110156104a057600080fd5b5035610a9d565b610443600480360360208110156104bd57600080fd5b5035610b34565b610478610bcb565b610443610bd1565b610443600480360360208110156104ea57600080fd5b5035610e37565b6104436004803603602081101561050757600080fd5b503573ffffffffffffffffffffffffffffffffffffffff16610ece565b610478610fa7565b6104436004803603604081101561054257600080fd5b5080359060200135610fad565b6104786113f9565b61055f611766565b6040805173ffffffffffffffffffffffffffffffffffffffff9092168252519081900360200190f35b61055f611782565b61055f61179e565b61055f6117ba565b610478600480360360208110156105b657600080fd5b50356117d6565b61055f6117eb565b61055f611807565b610443600480360360608110156105e357600080fd5b5080359060208101359060400135611823565b6104436004803603604081101561060c57600080fd5b508035906020013573ffffffffffffffffffffffffffffffffffffffff16611e66565b6104436004803603604081101561064557600080fd5b508035906020013573ffffffffffffffffffffffffffffffffffffffff16611eec565b610478611f81565b610443611fa5565b610478612073565b6104436004803603602081101561069657600080fd5b5035612079565b610478612110565b610443600480360360408110156106bb57600080fd5b5080359060200135612116565b6106d061260a565b604080519115158252519081900360200190f35b610443600480360360608110156106fa57600080fd5b508035906020810135906040013561261a565b6104436004803603604081101561072357600080fd5b5080359060200135612d51565b610478613334565b61044361333a565b6106d0613406565b6106d0613414565b61055f613425565b6104436004803603604081101561076e57600080fd5b5073ffffffffffffffffffffffffffffffffffffffff81358116916020013516613441565b61055f613560565b6106d061357c565b61055f600480360360408110156107b957600080fd5b5080359060200135613585565b6106d0600480360360408110156107dc57600080fd5b508035906020013573ffffffffffffffffffffffffffffffffffffffff166135a6565b6104786135be565b6104436004803603604081101561081d57600080fd5b50803590602001356135c5565b6104786139f7565b6104786004803603602081101561084857600080fd5b503573ffffffffffffffffffffffffffffffffffffffff166139fc565b6106d0613a0e565b61055f613a1d565b6104436004803603602081101561088b57600080fd5b503573ffffffffffffffffffffffffffffffffffffffff16613a39565b610478613b12565b610478613b18565b610478600480360360208110156108ce57600080fd5b5035613b1e565b610478613b35565b610443600480360360408110156108f357600080fd5b508035906020013573ffffffffffffffffffffffffffffffffffffffff16613b3b565b6104436004803603604081101561092c57600080fd5b5080359060200135613bae565b610443614020565b61055f6140ed565b6104436004803603604081101561095f57600080fd5b5080359060200135614109565b610443614459565b61055f61451d565b610478614542565b6104436004803603602081101561099a57600080fd5b5035614548565b6104786145df565b610478614803565b61055f6149ac565b610478600480360360208110156109cf57600080fd5b503573ffffffffffffffffffffffffffffffffffffffff166149c8565b6104786149da565b60065473ffffffffffffffffffffffffffffffffffffffff16331480610a31575060035473ffffffffffffffffffffffffffffffffffffffff1633145b610a86576040517f08c379a00000000000000000000000000000000000000000000000000000000081526004018080602001828103825260308152602001806153766030913960400191505060405180910390fd5b601655565b600e6020526000908152604090205481565b60065473ffffffffffffffffffffffffffffffffffffffff16331480610ada575060035473ffffffffffffffffffffffffffffffffffffffff1633145b610b2f576040517f08c379a00000000000000000000000000000000000000000000000000000000081526004018080602001828103825260308152602001806153766030913960400191505060405180910390fd5b601755565b60065473ffffffffffffffffffffffffffffffffffffffff16331480610b71575060035473ffffffffffffffffffffffffffffffffffffffff1633145b610bc6576040517f08c379a00000000000000000000000000000000000000000000000000000000081526004018080602001828103825260308152602001806153766030913960400191505060405180910390fd5b601855565b60165481565b601054336000908152600d60205260409020544391610bf09190614a44565b1115610c47576040517f08c379a00000000000000000000000000000000000000000000000000000000081526004018080602001828103825260428152602001806152e36042913960600191505060405180910390fd5b336000908152600f602052604081205481908190819015610c8e57336000908152600f602052604081208054919055600c54909250610c8690836149e0565b600c55600193505b336000908152600e602052604090205415610ccd5750336000908152600e602052604081208054919055600b54610cc590826149e0565b600b55600192505b60018415151415610d7f57600754604080517fa9059cbb00000000000000000000000000000000000000000000000000000000815233600482015260248101859052905173ffffffffffffffffffffffffffffffffffffffff9092169163a9059cbb916044808201926020929091908290030181600087803b158015610d5257600080fd5b505af1158015610d66573d6000803e3d6000fd5b505050506040513d6020811015610d7c57600080fd5b50505b60018315151415610e3157600154604080517fa9059cbb00000000000000000000000000000000000000000000000000000000815233600482015260248101849052905173ffffffffffffffffffffffffffffffffffffffff9092169163a9059cbb916044808201926020929091908290030181600087803b158015610e0457600080fd5b505af1158015610e18573d6000803e3d6000fd5b505050506040513d6020811015610e2e57600080fd5b50505b50505050565b60065473ffffffffffffffffffffffffffffffffffffffff16331480610e74575060035473ffffffffffffffffffffffffffffffffffffffff1633145b610ec9576040517f08c379a00000000000000000000000000000000000000000000000000000000081526004018080602001828103825260308152602001806153766030913960400191505060405180910390fd5b601555565b60065473ffffffffffffffffffffffffffffffffffffffff16331480610f0b575060035473ffffffffffffffffffffffffffffffffffffffff1633145b610f60576040517f08c379a00000000000000000000000000000000000000000000000000000000081526004018080602001828103825260308152602001806153766030913960400191505060405180910390fd5b600380547fffffffffffffffffffffffff00000000000000000000000000000000000000001673ffffffffffffffffffffffffffffffffffffffff92909216919091179055565b60105481565b60115462010000900460ff161561102557604080517f08c379a000000000000000000000000000000000000000000000000000000000815260206004820152601360248201527f52656465656d696e672069732070617573656400000000000000000000000000604482015290519081900360640190fd5b600854604080517f07281b3b000000000000000000000000000000000000000000000000000000008152905160009273ffffffffffffffffffffffffffffffffffffffff16916307281b3b916004808301926020929190829003018186803b15801561109057600080fd5b505afa1580156110a4573d6000803e3d6000fd5b505050506040513d60208110156110ba57600080fd5b5051600854604080517f2eb9771b000000000000000000000000000000000000000000000000000000008152905192935060009273ffffffffffffffffffffffffffffffffffffffff90921691632eb9771b91600480820192602092909190829003018186803b15801561112d57600080fd5b505afa158015611141573d6000803e3d6000fd5b505050506040513d602081101561115757600080fd5b5051905080156111c857604080517f08c379a000000000000000000000000000000000000000000000000000000000815260206004820152601a60248201527f436f6c6c61746572616c20726174696f206d7573742062652030000000000000604482015290519081900360640190fd5b60008490506111fc620f42406111f66111ef601554620f42406149e090919063ffffffff16565b8490614ab8565b90614b2b565b90506000611211846111f684620f4240614ab8565b336000908152600f602052604090205490915061122e9082614a44565b336000908152600f6020526040902055600c5461124b9082614a44565b600c55336000908152600d60205260409020439055808511156112cf57604080517f08c379a000000000000000000000000000000000000000000000000000000000815260206004820152601660248201527f536c697070616765206c696d6974207265616368656400000000000000000000604482015290519081900360640190fd5b600854604080517fa8a778ae00000000000000000000000000000000000000000000000000000000815233600482015260248101899052905173ffffffffffffffffffffffffffffffffffffffff9092169163a8a778ae9160448082019260009290919082900301818387803b15801561134857600080fd5b505af115801561135c573d6000803e3d6000fd5b5050600754604080517fb4f56b2600000000000000000000000000000000000000000000000000000000815230600482015260248101869052905173ffffffffffffffffffffffffffffffffffffffff909216935063b4f56b26925060448082019260009290919082900301818387803b1580156113d957600080fd5b505af11580156113ed573d6000803e3d6000fd5b50505050505050505050565b60115460009060ff1615156001141561150e57611507620f42406111f6600a546115017f0000000000000000000000000000000000000000000000000000000000000000600a0a611501600b54600160009054906101000a900473ffffffffffffffffffffffffffffffffffffffff1673ffffffffffffffffffffffffffffffffffffffff166370a08231306040518263ffffffff1660e01b8152600401808273ffffffffffffffffffffffffffffffffffffffff16815260200191505060206040518083038186803b1580156114cf57600080fd5b505afa1580156114e3573d6000803e3d6000fd5b505050506040513d60208110156114f957600080fd5b5051906149e0565b90614ab8565b9050611763565b600854604080517f345ba24b000000000000000000000000000000000000000000000000000000008152905160009273ffffffffffffffffffffffffffffffffffffffff169163345ba24b916004808301926020929190829003018186803b15801561157957600080fd5b505afa15801561158d573d6000803e3d6000fd5b505050506040513d60208110156115a357600080fd5b5051601154601354604080517f3ddac95300000000000000000000000000000000000000000000000000000000815273ffffffffffffffffffffffffffffffffffffffff92831660048201527f0000000000000000000000000000000000000000000000000000000000000000600a0a620f424002602482015290519394506000936501000000000090930490911691633ddac95391604480820192602092909190829003018186803b15801561165957600080fd5b505afa15801561166d573d6000803e3d6000fd5b505050506040513d602081101561168357600080fd5b50519050600061169a826111f685620f4240614ab8565b905061175d620f42406111f6836115017f0000000000000000000000000000000000000000000000000000000000000000600a0a611501600b54600160009054906101000a900473ffffffffffffffffffffffffffffffffffffffff1673ffffffffffffffffffffffffffffffffffffffff166370a08231306040518263ffffffff1660e01b8152600401808273ffffffffffffffffffffffffffffffffffffffff16815260200191505060206040518083038186803b1580156114cf57600080fd5b93505050505b90565b60075473ffffffffffffffffffffffffffffffffffffffff1681565b60045473ffffffffffffffffffffffffffffffffffffffff1681565b60025473ffffffffffffffffffffffffffffffffffffffff1681565b60135473ffffffffffffffffffffffffffffffffffffffff1681565b60009081526020819052604090206002015490565b60015473ffffffffffffffffffffffffffffffffffffffff1681565b60055473ffffffffffffffffffffffffffffffffffffffff1681565b601154610100900460ff161561189a57604080517f08c379a000000000000000000000000000000000000000000000000000000000815260206004820152601160248201527f4d696e74696e6720697320706175736564000000000000000000000000000000604482015290519081900360640190fd5b600854604080517f07281b3b000000000000000000000000000000000000000000000000000000008152905160009273ffffffffffffffffffffffffffffffffffffffff16916307281b3b916004808301926020929190829003018186803b15801561190557600080fd5b505afa158015611919573d6000803e3d6000fd5b505050506040513d602081101561192f57600080fd5b5051600854604080517f2eb9771b000000000000000000000000000000000000000000000000000000008152905192935060009273ffffffffffffffffffffffffffffffffffffffff90921691632eb9771b91600480820192602092909190829003018186803b1580156119a257600080fd5b505afa1580156119b6573d6000803e3d6000fd5b505050506040513d60208110156119cc57600080fd5b50519050620f4240811080156119e25750600081115b611a37576040517f08c379a00000000000000000000000000000000000000000000000000000000081526004018080602001828103825260388152602001806152426038913960400191505060405180910390fd5b600954600b54600154604080517f70a082310000000000000000000000000000000000000000000000000000000081523060048201529051611abf938a93611ab993919273ffffffffffffffffffffffffffffffffffffffff909116916370a08231916024808301926020929190829003018186803b1580156114cf57600080fd5b90614a44565b1115611b16576040517f08c379a000000000000000000000000000000000000000000000000000000000815260040180806020018281038252604681526020018061529d6046913960600191505060405180910390fd5b7f0000000000000000000000000000000000000000000000000000000000000000600a0a8502611b44615169565b6040518060a00160405280858152602001611b5d614803565b8152602001878152602001838152602001848152509050600080611b8083614b6d565b91509150611bad620f42406111f6611ba6601454620f42406149e090919063ffffffff16565b8590614ab8565b915081871115611c1e57604080517f08c379a000000000000000000000000000000000000000000000000000000000815260206004820152601660248201527f536c697070616765206c696d6974207265616368656400000000000000000000604482015290519081900360640190fd5b87811115611c8d57604080517f08c379a000000000000000000000000000000000000000000000000000000000815260206004820152601760248201527f4e6f7420656e6f7567682043535320696e707574746564000000000000000000604482015290519081900360640190fd5b600754604080517fa8a778ae00000000000000000000000000000000000000000000000000000000815233600482015260248101849052905173ffffffffffffffffffffffffffffffffffffffff9092169163a8a778ae9160448082019260009290919082900301818387803b158015611d0657600080fd5b505af1158015611d1a573d6000803e3d6000fd5b5050600154604080517f23b872dd000000000000000000000000000000000000000000000000000000008152336004820152306024820152604481018e9052905173ffffffffffffffffffffffffffffffffffffffff90921693506323b872dd92506064808201926020929091908290030181600087803b158015611d9e57600080fd5b505af1158015611db2573d6000803e3d6000fd5b505050506040513d6020811015611dc857600080fd5b5050600854604080517fb4f56b2600000000000000000000000000000000000000000000000000000000815233600482015260248101859052905173ffffffffffffffffffffffffffffffffffffffff9092169163b4f56b269160448082019260009290919082900301818387803b158015611e4357600080fd5b505af1158015611e57573d6000803e3d6000fd5b50505050505050505050505050565b600082815260208190526040902060020154611e8990611e84614c10565b6135a6565b611ede576040517f08c379a000000000000000000000000000000000000000000000000000000000815260040180806020018281038252602f8152602001806151e3602f913960400191505060405180910390fd5b611ee88282614c14565b5050565b611ef4614c10565b73ffffffffffffffffffffffffffffffffffffffff168173ffffffffffffffffffffffffffffffffffffffff1614611f77576040517f08c379a000000000000000000000000000000000000000000000000000000000815260040180806020018281038252602f8152602001806153c7602f913960400191505060405180910390fd5b611ee88282614c97565b7f000000000000000000000000000000000000000000000000000000000000000081565b60065473ffffffffffffffffffffffffffffffffffffffff16331480611fe2575060035473ffffffffffffffffffffffffffffffffffffffff1633145b612037576040517f08c379a00000000000000000000000000000000000000000000000000000000081526004018080602001828103825260308152602001806153766030913960400191505060405180910390fd5b601180547fffffffffffffffffffffffffffffffffffffffffffffffffffffffff00ffffff811663010000009182900460ff1615909102179055565b60185481565b60065473ffffffffffffffffffffffffffffffffffffffff163314806120b6575060035473ffffffffffffffffffffffffffffffffffffffff1633145b61210b576040517f08c379a00000000000000000000000000000000000000000000000000000000081526004018080602001828103825260308152602001806153766030913960400191505060405180910390fd5b601455565b60095481565b601154610100900460ff161561218d57604080517f08c379a000000000000000000000000000000000000000000000000000000000815260206004820152601160248201527f4d696e74696e6720697320706175736564000000000000000000000000000000604482015290519081900360640190fd5b600854604080517f2eb9771b00000000000000000000000000000000000000000000000000000000815290517f0000000000000000000000000000000000000000000000000000000000000000600a0a850292620f42409273ffffffffffffffffffffffffffffffffffffffff90911691632eb9771b91600480820192602092909190829003018186803b15801561222457600080fd5b505afa158015612238573d6000803e3d6000fd5b505050506040513d602081101561224e57600080fd5b505110156122bd57604080517f08c379a000000000000000000000000000000000000000000000000000000000815260206004820152601d60248201527f436f6c6c61746572616c20726174696f206d757374206265203e3d2031000000604482015290519081900360640190fd5b600954600b54600154604080517f70a08231000000000000000000000000000000000000000000000000000000008152306004820152905161233f938893611ab993919273ffffffffffffffffffffffffffffffffffffffff909116916370a08231916024808301926020929190829003018186803b1580156114cf57600080fd5b11156123ac57604080517f08c379a000000000000000000000000000000000000000000000000000000000815260206004820181905260248201527f5b506f6f6c277320436c6f7365645d3a204365696c696e672072656163686564604482015290519081900360640190fd5b600073__CERESPoolLibrary______________________63bdf2c23b6123d0614803565b846040518363ffffffff1660e01b8152600401808381526020018281526020019250505060206040518083038186803b15801561240c57600080fd5b505af4158015612420573d6000803e3d6000fd5b505050506040513d602081101561243657600080fd5b505160145490915061245690620f4240906111f6906111ef9083906149e0565b9050808311156124c757604080517f08c379a000000000000000000000000000000000000000000000000000000000815260206004820152601660248201527f536c697070616765206c696d6974207265616368656400000000000000000000604482015290519081900360640190fd5b600154604080517f23b872dd00000000000000000000000000000000000000000000000000000000815233600482015230602482015260448101879052905173ffffffffffffffffffffffffffffffffffffffff909216916323b872dd916064808201926020929091908290030181600087803b15801561254757600080fd5b505af115801561255b573d6000803e3d6000fd5b505050506040513d602081101561257157600080fd5b5050600854604080517fb4f56b2600000000000000000000000000000000000000000000000000000000815233600482015260248101849052905173ffffffffffffffffffffffffffffffffffffffff9092169163b4f56b269160448082019260009290919082900301818387803b1580156125ec57600080fd5b505af1158015612600573d6000803e3d6000fd5b5050505050505050565b6011546301000000900460ff1681565b60115462010000900460ff161561269257604080517f08c379a000000000000000000000000000000000000000000000000000000000815260206004820152601360248201527f52656465656d696e672069732070617573656400000000000000000000000000604482015290519081900360640190fd5b600854604080517f07281b3b000000000000000000000000000000000000000000000000000000008152905160009273ffffffffffffffffffffffffffffffffffffffff16916307281b3b916004808301926020929190829003018186803b1580156126fd57600080fd5b505afa158015612711573d6000803e3d6000fd5b505050506040513d602081101561272757600080fd5b5051600854604080517f2eb9771b000000000000000000000000000000000000000000000000000000008152905192935060009273ffffffffffffffffffffffffffffffffffffffff90921691632eb9771b91600480820192602092909190829003018186803b15801561279a57600080fd5b505afa1580156127ae573d6000803e3d6000fd5b505050506040513d60208110156127c457600080fd5b50519050620f4240811080156127da5750600081115b61282f576040517f08c379a00000000000000000000000000000000000000000000000000000000081526004018080602001828103825260388152602001806152426038913960400191505060405180910390fd5b6000612839614803565b90506000612866620f42406111f661285f601554620f42406149e090919063ffffffff16565b8a90614ab8565b9050600061288561287e620f42406111f68588614ab8565b83906149e0565b9050600061289a866111f684620f4240614ab8565b905060006128cb847f0000000000000000000000000000000000000000000000000000000000000000600a0a614b2b565b905060006128e0620f42406111f6848a614ab8565b905060006128f5876111f684620f4240614ab8565b600b54600154604080517f70a0823100000000000000000000000000000000000000000000000000000000815230600482015290519394506129709373ffffffffffffffffffffffffffffffffffffffff909216916370a0823191602480820192602092909190829003018186803b1580156114cf57600080fd5b8111156129de57604080517f08c379a000000000000000000000000000000000000000000000000000000000815260206004820152601d60248201527f4e6f7420656e6f75676820636f6c6c61746572616c20696e20706f6f6c000000604482015290519081900360640190fd5b808a1115612a37576040517f08c379a000000000000000000000000000000000000000000000000000000000815260040180806020018281038252602381526020018061527a6023913960400191505060405180910390fd5b838b1115612aa657604080517f08c379a000000000000000000000000000000000000000000000000000000000815260206004820152601c60248201527f536c697070616765206c696d69742072656163686564205b4353535d00000000604482015290519081900360640190fd5b336000908152600e6020526040902054612ac09082614a44565b336000908152600e6020526040902055600b54612add9082614a44565b600b55336000908152600f6020526040902054612afa9085614a44565b336000908152600f6020526040902055600c54612b179085614a44565b600c8190555043600d60003373ffffffffffffffffffffffffffffffffffffffff1673ffffffffffffffffffffffffffffffffffffffff16815260200190815260200160002081905550600860009054906101000a900473ffffffffffffffffffffffffffffffffffffffff1673ffffffffffffffffffffffffffffffffffffffff1663a8a778ae338e6040518363ffffffff1660e01b8152600401808373ffffffffffffffffffffffffffffffffffffffff16815260200182815260200192505050600060405180830381600087803b158015612bf457600080fd5b505af1158015612c08573d6000803e3d6000fd5b5050600154604080517fa9059cbb00000000000000000000000000000000000000000000000000000000815233600482015260248101869052905173ffffffffffffffffffffffffffffffffffffffff909216935063a9059cbb92506044808201926020929091908290030181600087803b158015612c8657600080fd5b505af1158015612c9a573d6000803e3d6000fd5b505050506040513d6020811015612cb057600080fd5b5050600754604080517fb4f56b2600000000000000000000000000000000000000000000000000000000815230600482015260248101879052905173ffffffffffffffffffffffffffffffffffffffff9092169163b4f56b269160448082019260009290919082900301818387803b158015612d2b57600080fd5b505af1158015612d3f573d6000803e3d6000fd5b50505050505050505050505050505050565b6011546301000000900460ff1615612dca57604080517f08c379a000000000000000000000000000000000000000000000000000000000815260206004820152601960248201527f5265636f6c6c61746572616c697a652069732070617573656400000000000000604482015290519081900360640190fd5b600854604080517f07281b3b00000000000000000000000000000000000000000000000000000000815290517f0000000000000000000000000000000000000000000000000000000000000000600a0a85029260009273ffffffffffffffffffffffffffffffffffffffff909116916307281b3b91600480820192602092909190829003018186803b158015612e5f57600080fd5b505afa158015612e73573d6000803e3d6000fd5b505050506040513d6020811015612e8957600080fd5b5051600854604080517f18160ddd000000000000000000000000000000000000000000000000000000008152905192935060009273ffffffffffffffffffffffffffffffffffffffff909216916318160ddd91600480820192602092909190829003018186803b158015612efc57600080fd5b505afa158015612f10573d6000803e3d6000fd5b505050506040513d6020811015612f2657600080fd5b5051600854604080517f2eb9771b000000000000000000000000000000000000000000000000000000008152905192935060009273ffffffffffffffffffffffffffffffffffffffff90921691632eb9771b91600480820192602092909190829003018186803b158015612f9957600080fd5b505afa158015612fad573d6000803e3d6000fd5b505050506040513d6020811015612fc357600080fd5b5051600854604080517fd2d97b06000000000000000000000000000000000000000000000000000000008152905192935060009273ffffffffffffffffffffffffffffffffffffffff9092169163d2d97b0691600480820192602092909190829003018186803b15801561303657600080fd5b505afa15801561304a573d6000803e3d6000fd5b505050506040513d602081101561306057600080fd5b5051905060008073__CERESPoolLibrary______________________63816260618861308a614803565b8689896040518663ffffffff1660e01b81526004018086815260200185815260200184815260200183815260200182815260200195505050505050604080518083038186803b1580156130dc57600080fd5b505af41580156130f0573d6000803e3d6000fd5b505050506040513d604081101561310657600080fd5b50805160209091015190925090506000613143837f0000000000000000000000000000000000000000000000000000000000000000600a0a614b2b565b90506000613179886111f661317260175461316c601854620f4240614a4490919063ffffffff16565b906149e0565b8690614ab8565b9050808a11156131ea57604080517f08c379a000000000000000000000000000000000000000000000000000000000815260206004820152601660248201527f536c697070616765206c696d6974207265616368656400000000000000000000604482015290519081900360640190fd5b600154604080517f23b872dd00000000000000000000000000000000000000000000000000000000815233600482015230602482015260448101859052905173ffffffffffffffffffffffffffffffffffffffff909216916323b872dd916064808201926020929091908290030181600087803b15801561326a57600080fd5b505af115801561327e573d6000803e3d6000fd5b505050506040513d602081101561329457600080fd5b5050600754604080517fb4f56b2600000000000000000000000000000000000000000000000000000000815233600482015260248101849052905173ffffffffffffffffffffffffffffffffffffffff9092169163b4f56b269160448082019260009290919082900301818387803b15801561330f57600080fd5b505af1158015613323573d6000803e3d6000fd5b505050505050505050505050505050565b600b5481565b60065473ffffffffffffffffffffffffffffffffffffffff16331480613377575060035473ffffffffffffffffffffffffffffffffffffffff1633145b6133cc576040517f08c379a00000000000000000000000000000000000000000000000000000000081526004018080602001828103825260308152602001806153766030913960400191505060405180910390fd5b601180547fffffffffffffffffffffffffffffffffffffffffffffffffffffffffffff00ff81166101009182900460ff1615909102179055565b601154610100900460ff1681565b601154640100000000900460ff1681565b60035473ffffffffffffffffffffffffffffffffffffffff1681565b60065473ffffffffffffffffffffffffffffffffffffffff1633148061347e575060035473ffffffffffffffffffffffffffffffffffffffff1633145b6134d3576040517f08c379a00000000000000000000000000000000000000000000000000000000081526004018080602001828103825260308152602001806153766030913960400191505060405180910390fd5b6012805473ffffffffffffffffffffffffffffffffffffffff9384167fffffffffffffffffffffffff0000000000000000000000000000000000000000918216811790925560118054650100000000009093027fffffffffffffff0000000000000000000000000000000000000000ffffffffff9093169290921790915560138054929093169116179055565b60125473ffffffffffffffffffffffffffffffffffffffff1681565b60115460ff1681565b600082815260208190526040812061359d9083614d1a565b90505b92915050565b600082815260208190526040812061359d9083614d26565b620f424081565b601154610100900460ff161561363c57604080517f08c379a000000000000000000000000000000000000000000000000000000000815260206004820152601160248201527f4d696e74696e6720697320706175736564000000000000000000000000000000604482015290519081900360640190fd5b600854604080517f07281b3b000000000000000000000000000000000000000000000000000000008152905160009273ffffffffffffffffffffffffffffffffffffffff16916307281b3b916004808301926020929190829003018186803b1580156136a757600080fd5b505afa1580156136bb573d6000803e3d6000fd5b505050506040513d60208110156136d157600080fd5b5051600854604080517f2eb9771b000000000000000000000000000000000000000000000000000000008152905192935073ffffffffffffffffffffffffffffffffffffffff90911691632eb9771b91600480820192602092909190829003018186803b15801561374157600080fd5b505afa158015613755573d6000803e3d6000fd5b505050506040513d602081101561376b57600080fd5b5051156137d957604080517f08c379a000000000000000000000000000000000000000000000000000000000815260206004820152601a60248201527f436f6c6c61746572616c20726174696f206d7573742062652030000000000000604482015290519081900360640190fd5b600073__CERESPoolLibrary______________________63bfe14e2e83866040518363ffffffff1660e01b8152600401808381526020018281526020019250505060206040518083038186803b15801561383257600080fd5b505af4158015613846573d6000803e3d6000fd5b505050506040513d602081101561385c57600080fd5b505160145490915061387c90620f4240906111f6906111ef9083906149e0565b9050808311156138ed57604080517f08c379a000000000000000000000000000000000000000000000000000000000815260206004820152601660248201527f536c697070616765206c696d6974207265616368656400000000000000000000604482015290519081900360640190fd5b600754604080517fa8a778ae00000000000000000000000000000000000000000000000000000000815233600482015260248101879052905173ffffffffffffffffffffffffffffffffffffffff9092169163a8a778ae9160448082019260009290919082900301818387803b15801561396657600080fd5b505af115801561397a573d6000803e3d6000fd5b5050600854604080517fb4f56b2600000000000000000000000000000000000000000000000000000000815233600482015260248101869052905173ffffffffffffffffffffffffffffffffffffffff909216935063b4f56b26925060448082019260009290919082900301818387803b1580156125ec57600080fd5b600081565b600d6020526000908152604090205481565b60115462010000900460ff1681565b60085473ffffffffffffffffffffffffffffffffffffffff1681565b60065473ffffffffffffffffffffffffffffffffffffffff16331480613a76575060035473ffffffffffffffffffffffffffffffffffffffff1633145b613acb576040517f08c379a00000000000000000000000000000000000000000000000000000000081526004018080602001828103825260308152602001806153766030913960400191505060405180910390fd5b600680547fffffffffffffffffffffffff00000000000000000000000000000000000000001673ffffffffffffffffffffffffffffffffffffffff92909216919091179055565b60145481565b600a5481565b60008181526020819052604081206135a090614d48565b60155481565b600082815260208190526040902060020154613b5990611e84614c10565b611f77576040517f08c379a00000000000000000000000000000000000000000000000000000000081526004018080602001828103825260308152602001806153466030913960400191505060405180910390fd5b60115462010000900460ff1615613c2657604080517f08c379a000000000000000000000000000000000000000000000000000000000815260206004820152601360248201527f52656465656d696e672069732070617573656400000000000000000000000000604482015290519081900360640190fd5b600854604080517f2eb9771b0000000000000000000000000000000000000000000000000000000081529051620f42409273ffffffffffffffffffffffffffffffffffffffff1691632eb9771b916004808301926020929190829003018186803b158015613c9357600080fd5b505afa158015613ca7573d6000803e3d6000fd5b505050506040513d6020811015613cbd57600080fd5b505114613d2b57604080517f08c379a000000000000000000000000000000000000000000000000000000000815260206004820152601d60248201527f436f6c6c61746572616c20726174696f206d757374206265203d3d2031000000604482015290519081900360640190fd5b6000613d5a837f0000000000000000000000000000000000000000000000000000000000000000600a0a614b2b565b9050600073__CERESPoolLibrary______________________63f1d6d407613d80614803565b846040518363ffffffff1660e01b8152600401808381526020018281526020019250505060206040518083038186803b158015613dbc57600080fd5b505af4158015613dd0573d6000803e3d6000fd5b505050506040513d6020811015613de657600080fd5b5051601554909150613e0690620f4240906111f6906111ef9083906149e0565b600b54600154604080517f70a082310000000000000000000000000000000000000000000000000000000081523060048201529051939450613e819373ffffffffffffffffffffffffffffffffffffffff909216916370a0823191602480820192602092909190829003018186803b1580156114cf57600080fd5b811115613eef57604080517f08c379a000000000000000000000000000000000000000000000000000000000815260206004820152601d60248201527f4e6f7420656e6f75676820636f6c6c61746572616c20696e20706f6f6c000000604482015290519081900360640190fd5b80831115613f5e57604080517f08c379a000000000000000000000000000000000000000000000000000000000815260206004820152601660248201527f536c697070616765206c696d6974207265616368656400000000000000000000604482015290519081900360640190fd5b336000908152600e6020526040902054613f789082614a44565b336000908152600e6020526040902055600b54613f959082614a44565b600b55336000818152600d602052604080822043905560085481517fa8a778ae000000000000000000000000000000000000000000000000000000008152600481019490945260248401889052905173ffffffffffffffffffffffffffffffffffffffff9091169263a8a778ae92604480830193919282900301818387803b1580156125ec57600080fd5b60065473ffffffffffffffffffffffffffffffffffffffff1633148061405d575060035473ffffffffffffffffffffffffffffffffffffffff1633145b6140b2576040517f08c379a00000000000000000000000000000000000000000000000000000000081526004018080602001828103825260308152602001806153766030913960400191505060405180910390fd5b601180547fffffffffffffffffffffffffffffffffffffffffffffffffffffffffff00ffff8116620100009182900460ff1615909102179055565b60065473ffffffffffffffffffffffffffffffffffffffff1681565b601154640100000000900460ff161561418357604080517f08c379a000000000000000000000000000000000000000000000000000000000815260206004820152601160248201527f4275796261636b20697320706175736564000000000000000000000000000000604482015290519081900360640190fd5b600854604080517f07281b3b000000000000000000000000000000000000000000000000000000008152905160009273ffffffffffffffffffffffffffffffffffffffff16916307281b3b916004808301926020929190829003018186803b1580156141ee57600080fd5b505afa158015614202573d6000803e3d6000fd5b505050506040513d602081101561421857600080fd5b50519050614224615198565b60405180608001604052806142376145df565b815260200183815260200161424a614803565b81526020018581525090506000614282620f42406111f6614279601654620f42406149e090919063ffffffff16565b61150186614d53565b905060006142b3827f0000000000000000000000000000000000000000000000000000000000000000600a0a614b2b565b90508085111561432457604080517f08c379a000000000000000000000000000000000000000000000000000000000815260206004820152601660248201527f536c697070616765206c696d6974207265616368656400000000000000000000604482015290519081900360640190fd5b600754604080517fa8a778ae00000000000000000000000000000000000000000000000000000000815233600482015260248101899052905173ffffffffffffffffffffffffffffffffffffffff9092169163a8a778ae9160448082019260009290919082900301818387803b15801561439d57600080fd5b505af11580156143b1573d6000803e3d6000fd5b5050600154604080517fa9059cbb00000000000000000000000000000000000000000000000000000000815233600482015260248101869052905173ffffffffffffffffffffffffffffffffffffffff909216935063a9059cbb92506044808201926020929091908290030181600087803b15801561442f57600080fd5b505af1158015614443573d6000803e3d6000fd5b505050506040513d602081101561260057600080fd5b60065473ffffffffffffffffffffffffffffffffffffffff16331480614496575060035473ffffffffffffffffffffffffffffffffffffffff1633145b6144eb576040517f08c379a00000000000000000000000000000000000000000000000000000000081526004018080602001828103825260308152602001806153766030913960400191505060405180910390fd5b601180547fffffffffffffffffffffffffffffffffffffffffffffffffffffffffffffff00811660ff90911615179055565b60115465010000000000900473ffffffffffffffffffffffffffffffffffffffff1681565b600c5481565b60065473ffffffffffffffffffffffffffffffffffffffff16331480614585575060035473ffffffffffffffffffffffffffffffffffffffff1633145b6145da576040517f08c379a00000000000000000000000000000000000000000000000000000000081526004018080602001828103825260308152602001806153766030913960400191505060405180910390fd5b600955565b600080600860009054906101000a900473ffffffffffffffffffffffffffffffffffffffff1673ffffffffffffffffffffffffffffffffffffffff166318160ddd6040518163ffffffff1660e01b815260040160206040518083038186803b15801561464a57600080fd5b505afa15801561465e573d6000803e3d6000fd5b505050506040513d602081101561467457600080fd5b5051600854604080517f2eb9771b000000000000000000000000000000000000000000000000000000008152905192935060009273ffffffffffffffffffffffffffffffffffffffff90921691632eb9771b91600480820192602092909190829003018186803b1580156146e757600080fd5b505afa1580156146fb573d6000803e3d6000fd5b505050506040513d602081101561471157600080fd5b5051600854604080517fd2d97b06000000000000000000000000000000000000000000000000000000008152905192935060009273ffffffffffffffffffffffffffffffffffffffff9092169163d2d97b0691600480820192602092909190829003018186803b15801561478457600080fd5b505afa158015614798573d6000803e3d6000fd5b505050506040513d60208110156147ae57600080fd5b50519050620f42408211156147c457620f424091505b60006147d7620f42406111f68686614ab8565b9050808211156147f6576147eb82826149e0565b945050505050611763565b6000945050505050611763565b60115460009060ff1615156001141561481f5750600a54611763565b600854604080517f345ba24b000000000000000000000000000000000000000000000000000000008152905160009273ffffffffffffffffffffffffffffffffffffffff169163345ba24b916004808301926020929190829003018186803b15801561488a57600080fd5b505afa15801561489e573d6000803e3d6000fd5b505050506040513d60208110156148b457600080fd5b5051601154601354604080517f3ddac95300000000000000000000000000000000000000000000000000000000815273ffffffffffffffffffffffffffffffffffffffff92831660048201527f0000000000000000000000000000000000000000000000000000000000000000600a0a620f424002602482015290519394506149a4936501000000000090930490911691633ddac95391604480820192602092909190829003018186803b15801561496b57600080fd5b505afa15801561497f573d6000803e3d6000fd5b505050506040513d602081101561499557600080fd5b50516111f683620f4240614ab8565b915050611763565b60195473ffffffffffffffffffffffffffffffffffffffff1681565b600f6020526000908152604090205481565b60175481565b600061359d83836040518060400160405280601e81526020017f536166654d6174683a207375627472616374696f6e206f766572666c6f770000815250614e4f565b600061359d8373ffffffffffffffffffffffffffffffffffffffff8416614f00565b60008282018381101561359d57604080517f08c379a000000000000000000000000000000000000000000000000000000000815260206004820152601b60248201527f536166654d6174683a206164646974696f6e206f766572666c6f770000000000604482015290519081900360640190fd5b600082614ac7575060006135a0565b82820282848281614ad457fe5b041461359d576040517f08c379a00000000000000000000000000000000000000000000000000000000081526004018080602001828103825260218152602001806153a66021913960400191505060405180910390fd5b600061359d83836040518060400160405280601a81526020017f536166654d6174683a206469766973696f6e206279207a65726f000000000000815250614f4a565b600080600080614b95620f42406111f687600001518860400151614ab890919063ffffffff16565b9150614bb9620f42406111f687602001518860600151614ab890919063ffffffff16565b90506000614bdf8261316c88608001516111f6620f424087614ab890919063ffffffff16565b8651909150600090614bf8906111f684620f4240614ab8565b9050614c048383614a44565b95509350505050915091565b3390565b6000828152602081905260409020614c2c9082614a22565b15611ee857614c39614c10565b73ffffffffffffffffffffffffffffffffffffffff168173ffffffffffffffffffffffffffffffffffffffff16837f2f8788117e7eff1d82e926ec794901d17c78024a50270940304540a733656f0d60405160405180910390a45050565b6000828152602081905260409020614caf9082614fc9565b15611ee857614cbc614c10565b73ffffffffffffffffffffffffffffffffffffffff168173ffffffffffffffffffffffffffffffffffffffff16837ff6391f5c32d9c69d2a47ea670b442974b53935d1edc7fd64eb21e047a839171b60405160405180910390a45050565b600061359d8383614feb565b600061359d8373ffffffffffffffffffffffffffffffffffffffff8416615069565b60006135a082615081565b8051600090614dad576040517f08c379a00000000000000000000000000000000000000000000000000000000081526004018080602001828103825260218152602001806153256021913960400191505060405180910390fd5b6000614dd1620f42406111f685602001518660600151614ab890919063ffffffff16565b8351909150811115614e2e576040517f08c379a00000000000000000000000000000000000000000000000000000000081526004018080602001828103825260308152602001806152126030913960400191505060405180910390fd5b6040830151600090614e47906111f684620f4240614ab8565b949350505050565b60008184841115614ef8576040517f08c379a00000000000000000000000000000000000000000000000000000000081526004018080602001828103825283818151815260200191508051906020019080838360005b83811015614ebd578181015183820152602001614ea5565b50505050905090810190601f168015614eea5780820380516001836020036101000a031916815260200191505b509250505060405180910390fd5b505050900390565b6000614f0c8383615069565b614f42575081546001818101845560008481526020808220909301849055845484825282860190935260409020919091556135a0565b5060006135a0565b60008183614fb3576040517f08c379a0000000000000000000000000000000000000000000000000000000008152602060048201818152835160248401528351909283926044909101919085019080838360008315614ebd578181015183820152602001614ea5565b506000838581614fbf57fe5b0495945050505050565b600061359d8373ffffffffffffffffffffffffffffffffffffffff8416615085565b81546000908210615047576040517f08c379a00000000000000000000000000000000000000000000000000000000081526004018080602001828103825260228152602001806151c16022913960400191505060405180910390fd5b82600001828154811061505657fe5b9060005260206000200154905092915050565b60009081526001919091016020526040902054151590565b5490565b6000818152600183016020526040812054801561515f5783547fffffffffffffffffffffffffffffffffffffffffffffffffffffffffffffffff80830191908101906000908790839081106150d657fe5b90600052602060002001549050808760000184815481106150f357fe5b60009182526020808320909101929092558281526001898101909252604090209084019055865487908061512357fe5b600190038181906000526020600020016000905590558660010160008781526020019081526020016000206000905560019450505050506135a0565b60009150506135a0565b6040518060a0016040528060008152602001600081526020016000815260200160008152602001600081525090565b604051806080016040528060008152602001600081526020016000815260200160008152509056fe456e756d657261626c655365743a20696e646578206f7574206f6620626f756e6473416363657373436f6e74726f6c3a2073656e646572206d75737420626520616e2061646d696e20746f206772616e74596f752061726520747279696e6720746f20627579206261636b206d6f7265207468616e207468652065786365737321436f6c6c61746572616c20726174696f206e6565647320746f206265206265747765656e202e30303030303120616e64202e393939393939536c697070616765206c696d69742072656163686564205b636f6c6c61746572616c5d506f6f6c206365696c696e6720726561636865642c206e6f206d6f72652043455245532063616e206265206d696e7465642077697468207468697320636f6c6c61746572616c4d757374207761697420666f7220726564656d7074696f6e5f64656c617920626c6f636b73206265666f726520636f6c6c656374696e6720726564656d7074696f6e4e6f2065786365737320636f6c6c61746572616c20746f20627579206261636b21416363657373436f6e74726f6c3a2073656e646572206d75737420626520616e2061646d696e20746f207265766f6b65596f7520617265206e6f7420746865206f776e6572206f722074686520676f7665726e616e63652074696d656c6f636b536166654d6174683a206d756c7469706c69636174696f6e206f766572666c6f77416363657373436f6e74726f6c3a2063616e206f6e6c792072656e6f756e636520726f6c657320666f722073656c66a264697066735822122099ece1d15480f6b994184f73c44660aeaf231b5c046fea98c07b1fec4edd335c64736f6c634300060c0033",
  "immutableReferences": {
    "6959": [
      {
        "length": 32,
        "start": 5150
      },
      {
        "length": 32,
        "start": 5617
      },
      {
        "length": 32,
        "start": 5804
      },
      {
        "length": 32,
        "start": 6936
      },
      {
        "length": 32,
        "start": 8067
      },
      {
        "length": 32,
        "start": 8635
      },
      {
        "length": 32,
        "start": 10404
      },
      {
        "length": 32,
        "start": 11768
      },
      {
        "length": 32,
        "start": 12572
      },
      {
        "length": 32,
        "start": 15667
      },
      {
        "length": 32,
        "start": 17036
      },
      {
        "length": 32,
        "start": 18690
      }
    ]
  },
  "source": "// SPDX-License-Identifier: MIT\npragma solidity 0.6.12;\n\nimport \"./CeresPool.sol\";\n\ncontract Pool_USDC is CeresPool {\n    address public USDC_address;\n    constructor(\n        address _ceres_contract_address,\n        address _css_contract_address,\n        address _collateral_address,\n        address _creator_address,\n        address _timelock_address,\n        uint256 _pool_ceiling\n    ) \n    CeresPool(_ceres_contract_address, _css_contract_address, _collateral_address, _creator_address, _timelock_address, _pool_ceiling)\n    public {\n        _setupRole(DEFAULT_ADMIN_ROLE, _msgSender());\n        USDC_address = _collateral_address;\n    }\n}\n",
  "sourcePath": "/Users/cooper/GitHub/Prigogine/Ceres-Protocol/contracts/Ceres/Pools/Pool_USDC.sol",
  "compiler": {
    "name": "solc",
    "version": "0.6.12+commit.27d51765.Emscripten.clang"
  },
  "schemaVersion": "3.4.1",
  "updatedAt": "2021-07-29T07:51:31.467Z",
  "devdoc": {
    "kind": "dev",
    "methods": {
      "getRoleAdmin(bytes32)": {
        "details": "Returns the admin role that controls `role`. See {grantRole} and {revokeRole}. To change a role's admin, use {_setRoleAdmin}."
      },
      "getRoleMember(bytes32,uint256)": {
        "details": "Returns one of the accounts that have `role`. `index` must be a value between 0 and {getRoleMemberCount}, non-inclusive. Role bearers are not sorted in any particular way, and their ordering may change at any point. WARNING: When using {getRoleMember} and {getRoleMemberCount}, make sure you perform all queries on the same block. See the following https://forum.openzeppelin.com/t/iterating-over-elements-on-enumerableset-in-openzeppelin-contracts/2296[forum post] for more information."
      },
      "getRoleMemberCount(bytes32)": {
        "details": "Returns the number of accounts that have `role`. Can be used together with {getRoleMember} to enumerate all bearers of a role."
      },
      "grantRole(bytes32,address)": {
        "details": "Grants `role` to `account`. If `account` had not been already granted `role`, emits a {RoleGranted} event. Requirements: - the caller must have ``role``'s admin role."
      },
      "hasRole(bytes32,address)": {
        "details": "Returns `true` if `account` has been granted `role`."
      },
      "renounceRole(bytes32,address)": {
        "details": "Revokes `role` from the calling account. Roles are often managed via {grantRole} and {revokeRole}: this function's purpose is to provide a mechanism for accounts to lose their privileges if they are compromised (such as when a trusted device is misplaced). If the calling account had been granted `role`, emits a {RoleRevoked} event. Requirements: - the caller must be `account`."
      },
      "revokeRole(bytes32,address)": {
        "details": "Revokes `role` from `account`. If `account` had been granted `role`, emits a {RoleRevoked} event. Requirements: - the caller must have ``role``'s admin role."
      }
    },
    "version": 1
  },
  "userdoc": {
    "kind": "user",
    "methods": {},
    "version": 1
  }
}