{
  "contractName": "PoolLock",
  "abi": [
    {
      "anonymous": false,
      "inputs": [
        {
          "indexed": true,
          "internalType": "address",
          "name": "previousOperator",
          "type": "address"
        },
        {
          "indexed": true,
          "internalType": "address",
          "name": "newOperator",
          "type": "address"
        }
      ],
      "name": "OperatorTransferred",
      "type": "event"
    },
    {
      "anonymous": false,
      "inputs": [
        {
          "indexed": true,
          "internalType": "address",
          "name": "previousOwner",
          "type": "address"
        },
        {
          "indexed": true,
          "internalType": "address",
          "name": "newOwner",
          "type": "address"
        }
      ],
      "name": "OwnershipTransferred",
      "type": "event"
    },
    {
      "anonymous": false,
      "inputs": [
        {
          "indexed": true,
          "internalType": "address",
          "name": "",
          "type": "address"
        },
        {
          "indexed": false,
          "internalType": "string",
          "name": "propertyName",
          "type": "string"
        },
        {
          "indexed": false,
          "internalType": "uint256",
          "name": "propertyValue",
          "type": "uint256"
        }
      ],
      "name": "changeLockProperties",
      "type": "event"
    },
    {
      "inputs": [],
      "name": "epochAlignTimestamp",
      "outputs": [
        {
          "internalType": "uint256",
          "name": "",
          "type": "uint256"
        }
      ],
      "stateMutability": "view",
      "type": "function"
    },
    {
      "inputs": [],
      "name": "epochPeriod",
      "outputs": [
        {
          "internalType": "uint256",
          "name": "",
          "type": "uint256"
        }
      ],
      "stateMutability": "view",
      "type": "function"
    },
    {
      "inputs": [],
      "name": "isOperator",
      "outputs": [
        {
          "internalType": "bool",
          "name": "",
          "type": "bool"
        }
      ],
      "stateMutability": "view",
      "type": "function"
    },
    {
      "inputs": [],
      "name": "operator",
      "outputs": [
        {
          "internalType": "address",
          "name": "",
          "type": "address"
        }
      ],
      "stateMutability": "view",
      "type": "function"
    },
    {
      "inputs": [],
      "name": "owner",
      "outputs": [
        {
          "internalType": "address",
          "name": "",
          "type": "address"
        }
      ],
      "stateMutability": "view",
      "type": "function"
    },
    {
      "inputs": [],
      "name": "renounceOwnership",
      "outputs": [],
      "stateMutability": "nonpayable",
      "type": "function"
    },
    {
      "inputs": [],
      "name": "rewardLockupEpochs",
      "outputs": [
        {
          "internalType": "uint256",
          "name": "",
          "type": "uint256"
        }
      ],
      "stateMutability": "view",
      "type": "function"
    },
    {
      "inputs": [
        {
          "internalType": "address",
          "name": "newOperator_",
          "type": "address"
        }
      ],
      "name": "transferOperator",
      "outputs": [],
      "stateMutability": "nonpayable",
      "type": "function"
    },
    {
      "inputs": [
        {
          "internalType": "address",
          "name": "newOwner",
          "type": "address"
        }
      ],
      "name": "transferOwnership",
      "outputs": [],
      "stateMutability": "nonpayable",
      "type": "function"
    },
    {
      "inputs": [],
      "name": "withdrawLockupEpochs",
      "outputs": [
        {
          "internalType": "uint256",
          "name": "",
          "type": "uint256"
        }
      ],
      "stateMutability": "view",
      "type": "function"
    },
    {
      "inputs": [
        {
          "internalType": "uint256",
          "name": "_withdrawLockupEpochs",
          "type": "uint256"
        }
      ],
      "name": "updateWithdrawLockupEpochs",
      "outputs": [],
      "stateMutability": "nonpayable",
      "type": "function"
    },
    {
      "inputs": [
        {
          "internalType": "uint256",
          "name": "_rewardLockupEpochs",
          "type": "uint256"
        }
      ],
      "name": "updateRewardLockupEpochs",
      "outputs": [],
      "stateMutability": "nonpayable",
      "type": "function"
    },
    {
      "inputs": [
        {
          "internalType": "uint256",
          "name": "_epochAlignTimestamp",
          "type": "uint256"
        }
      ],
      "name": "updateEpochAlignTimestamp",
      "outputs": [],
      "stateMutability": "nonpayable",
      "type": "function"
    },
    {
      "inputs": [
        {
          "internalType": "uint256",
          "name": "_epochPeriod",
          "type": "uint256"
        }
      ],
      "name": "updateEpochPeriod",
      "outputs": [],
      "stateMutability": "nonpayable",
      "type": "function"
    },
    {
      "inputs": [
        {
          "internalType": "uint256",
          "name": "_withdrawLockupEpochs",
          "type": "uint256"
        },
        {
          "internalType": "uint256",
          "name": "_rewardLockupEpochs",
          "type": "uint256"
        },
        {
          "internalType": "uint256",
          "name": "_epochAlignTimestamp",
          "type": "uint256"
        },
        {
          "internalType": "uint256",
          "name": "_epochPeriod",
          "type": "uint256"
        }
      ],
      "name": "setLockUp",
      "outputs": [],
      "stateMutability": "nonpayable",
      "type": "function"
    },
    {
      "inputs": [],
      "name": "getCurrentEpochTimestamp",
      "outputs": [
        {
          "internalType": "uint256",
          "name": "",
          "type": "uint256"
        }
      ],
      "stateMutability": "view",
      "type": "function"
    },
    {
      "inputs": [
        {
          "internalType": "address",
          "name": "director",
          "type": "address"
        }
      ],
      "name": "getCanWithdrawTime",
      "outputs": [
        {
          "internalType": "uint256",
          "name": "",
          "type": "uint256"
        }
      ],
      "stateMutability": "view",
      "type": "function"
    },
    {
      "inputs": [
        {
          "internalType": "address",
          "name": "director",
          "type": "address"
        }
      ],
      "name": "getCanClaimTime",
      "outputs": [
        {
          "internalType": "uint256",
          "name": "",
          "type": "uint256"
        }
      ],
      "stateMutability": "view",
      "type": "function"
    },
    {
      "inputs": [
        {
          "internalType": "address",
          "name": "director",
          "type": "address"
        }
      ],
      "name": "canWithdraw",
      "outputs": [
        {
          "internalType": "bool",
          "name": "",
          "type": "bool"
        }
      ],
      "stateMutability": "view",
      "type": "function"
    },
    {
      "inputs": [
        {
          "internalType": "address",
          "name": "director",
          "type": "address"
        }
      ],
      "name": "canClaimReward",
      "outputs": [
        {
          "internalType": "bool",
          "name": "",
          "type": "bool"
        }
      ],
      "stateMutability": "view",
      "type": "function"
    }
  ],
  "bytecode": "0x6080604052600280556002600355635fe59c0060045560b460055534801561002657600080fd5b50610037610032610090565b610094565b61003f610090565b600180546001600160a01b0319166001600160a01b0392831617908190556040519116906000907f74da04524d50c64947f5dd5381ef1a4dca5cba8ed1d816243f9e48aa0b5617ed908290a36100e4565b3390565b600080546001600160a01b038381166001600160a01b0319831681178455604051919092169283917f8be0079c531659141344cd1fd0a4f28419497f9722a3daafe3b4186f6b6457e09190a35050565b61103d806100f36000396000f3fe608060405234801561001057600080fd5b506004361061016c5760003560e01c80635b17e0eb116100cd578063b5b7a18411610081578063d2a6fbc111610066578063d2a6fbc11461034a578063d91e0ddc14610379578063f2fde38b146103ac5761016c565b8063b5b7a18414610325578063bb36c02a1461032d5761016c565b8063715018a6116100b2578063715018a61461030d57806383825ced146103155780638da5cb5b1461031d5761016c565b80635b17e0eb146102bd578063708ae76e146102f05761016c565b80631e85cd651161012457806331a0e8321161010957806331a0e832146102675780634456eda214610284578063570ca7351461028c5761016c565b80631e85cd651461022c57806329605e77146102345761016c565b80630b7c8a3b116101555780630b7c8a3b146101d257806319262d30146101f15780631be2ff97146102245761016c565b8063022ba18d14610171578063046335d01461018b575b600080fd5b6101796103df565b60408051918252519081900360200190f35b6101be600480360360208110156101a157600080fd5b503573ffffffffffffffffffffffffffffffffffffffff166103e5565b604080519115158252519081900360200190f35b6101ef600480360360208110156101e857600080fd5b5035610400565b005b6101be6004803603602081101561020757600080fd5b503573ffffffffffffffffffffffffffffffffffffffff166104de565b6101796104f1565b6101796104f7565b6101ef6004803603602081101561024a57600080fd5b503573ffffffffffffffffffffffffffffffffffffffff166104fd565b6101ef6004803603602081101561027d57600080fd5b50356105b1565b6101be61068f565b6102946106cf565b6040805173ffffffffffffffffffffffffffffffffffffffff9092168252519081900360200190f35b610179600480360360208110156102d357600080fd5b503573ffffffffffffffffffffffffffffffffffffffff166106eb565b6101ef6004803603602081101561030657600080fd5b5035610739565b6101ef610817565b6101796108cb565b6102946108cf565b6101796108eb565b6101ef6004803603602081101561034357600080fd5b50356108f1565b6101ef6004803603608081101561036057600080fd5b50803590602081013590604081013590606001356109cf565b6101796004803603602081101561038f57600080fd5b503573ffffffffffffffffffffffffffffffffffffffff16610bd9565b6101ef600480360360208110156103c257600080fd5b503573ffffffffffffffffffffffffffffffffffffffff16610bf5565b60035481565b60006103ef6108cb565b6103f8836106eb565b111592915050565b60015473ffffffffffffffffffffffffffffffffffffffff163314610470576040517f08c379a0000000000000000000000000000000000000000000000000000000008152600401808060200182810382526024815260200180610fe46024913960400191505060405180910390fd5b60408051602081018390528181526014818301527f77697468647261774c6f636b757045706f6368730000000000000000000000006060820152905133917f0a1457b359008e11b890e625753b8d7ec9f7397d31329f87e9f17d7d919c1370919081900360800190a2600255565b60006104e86108cb565b6103f883610bd9565b60045481565b60025481565b610505610d12565b73ffffffffffffffffffffffffffffffffffffffff166105236108cf565b73ffffffffffffffffffffffffffffffffffffffff16146105a557604080517f08c379a000000000000000000000000000000000000000000000000000000000815260206004820181905260248201527f4f776e61626c653a2063616c6c6572206973206e6f7420746865206f776e6572604482015290519081900360640190fd5b6105ae81610d16565b50565b60015473ffffffffffffffffffffffffffffffffffffffff163314610621576040517f08c379a0000000000000000000000000000000000000000000000000000000008152600401808060200182810382526024815260200180610fe46024913960400191505060405180910390fd5b60408051602081018390528181526013818301527f65706f6368416c69676e54696d657374616d70000000000000000000000000006060820152905133917f0a1457b359008e11b890e625753b8d7ec9f7397d31329f87e9f17d7d919c1370919081900360800190a2600455565b60015460009073ffffffffffffffffffffffffffffffffffffffff166106b3610d12565b73ffffffffffffffffffffffffffffffffffffffff1614905090565b60015473ffffffffffffffffffffffffffffffffffffffff1690565b6000610733610707600554600354610e0c90919063ffffffff16565b73ffffffffffffffffffffffffffffffffffffffff841660009081526006602052604090205490610e86565b92915050565b60015473ffffffffffffffffffffffffffffffffffffffff1633146107a9576040517f08c379a0000000000000000000000000000000000000000000000000000000008152600401808060200182810382526024815260200180610fe46024913960400191505060405180910390fd5b6040805160208101839052818152600b818301527f65706f6368506572696f640000000000000000000000000000000000000000006060820152905133917f0a1457b359008e11b890e625753b8d7ec9f7397d31329f87e9f17d7d919c1370919081900360800190a2600555565b61081f610d12565b73ffffffffffffffffffffffffffffffffffffffff1661083d6108cf565b73ffffffffffffffffffffffffffffffffffffffff16146108bf57604080517f08c379a000000000000000000000000000000000000000000000000000000000815260206004820181905260248201527f4f776e61626c653a2063616c6c6572206973206e6f7420746865206f776e6572604482015290519081900360640190fd5b6108c96000610efa565b565b4290565b60005473ffffffffffffffffffffffffffffffffffffffff1690565b60055481565b60015473ffffffffffffffffffffffffffffffffffffffff163314610961576040517f08c379a0000000000000000000000000000000000000000000000000000000008152600401808060200182810382526024815260200180610fe46024913960400191505060405180910390fd5b60408051602081018390528181526012818301527f7265776172644c6f636b757045706f63687300000000000000000000000000006060820152905133917f0a1457b359008e11b890e625753b8d7ec9f7397d31329f87e9f17d7d919c1370919081900360800190a2600355565b60015473ffffffffffffffffffffffffffffffffffffffff163314610a3f576040517f08c379a0000000000000000000000000000000000000000000000000000000008152600401808060200182810382526024815260200180610fe46024913960400191505060405180910390fd5b828410158015610a50575060158411155b610abb57604080517f08c379a000000000000000000000000000000000000000000000000000000000815260206004820152601a60248201527f4c6f636b757045706f6368733a206f7574206f662072616e6765000000000000604482015290519081900360640190fd5b62015180811115610b2d57604080517f08c379a000000000000000000000000000000000000000000000000000000000815260206004820152601960248201527f45706f6368506572696f643a206f7574206f662072616e676500000000000000604482015290519081900360640190fd5b42610b43610b3c836002610e0c565b8490610e86565b10610baf57604080517f08c379a000000000000000000000000000000000000000000000000000000000815260206004820152601d60248201527f45706f6368416c69676e54696d657374616d703a20746f6f206c617465000000604482015290519081900360640190fd5b610bb884610400565b610bc1836108f1565b610bca826105b1565b610bd381610739565b50505050565b6000610733610707600554600254610e0c90919063ffffffff16565b610bfd610d12565b73ffffffffffffffffffffffffffffffffffffffff16610c1b6108cf565b73ffffffffffffffffffffffffffffffffffffffff1614610c9d57604080517f08c379a000000000000000000000000000000000000000000000000000000000815260206004820181905260248201527f4f776e61626c653a2063616c6c6572206973206e6f7420746865206f776e6572604482015290519081900360640190fd5b73ffffffffffffffffffffffffffffffffffffffff8116610d09576040517f08c379a0000000000000000000000000000000000000000000000000000000008152600401808060200182810382526026815260200180610f706026913960400191505060405180910390fd5b6105ae81610efa565b3390565b73ffffffffffffffffffffffffffffffffffffffff8116610d82576040517f08c379a000000000000000000000000000000000000000000000000000000000815260040180806020018281038252602d815260200180610f96602d913960400191505060405180910390fd5b60405173ffffffffffffffffffffffffffffffffffffffff8216906000907f74da04524d50c64947f5dd5381ef1a4dca5cba8ed1d816243f9e48aa0b5617ed908290a3600180547fffffffffffffffffffffffff00000000000000000000000000000000000000001673ffffffffffffffffffffffffffffffffffffffff92909216919091179055565b600082610e1b57506000610733565b82820282848281610e2857fe5b0414610e7f576040517f08c379a0000000000000000000000000000000000000000000000000000000008152600401808060200182810382526021815260200180610fc36021913960400191505060405180910390fd5b9392505050565b600082820183811015610e7f57604080517f08c379a000000000000000000000000000000000000000000000000000000000815260206004820152601b60248201527f536166654d6174683a206164646974696f6e206f766572666c6f770000000000604482015290519081900360640190fd5b6000805473ffffffffffffffffffffffffffffffffffffffff8381167fffffffffffffffffffffffff0000000000000000000000000000000000000000831681178455604051919092169283917f8be0079c531659141344cd1fd0a4f28419497f9722a3daafe3b4186f6b6457e09190a3505056fe4f776e61626c653a206e6577206f776e657220697320746865207a65726f20616464726573736f70657261746f723a207a65726f206164647265737320676976656e20666f72206e6577206f70657261746f72536166654d6174683a206d756c7469706c69636174696f6e206f766572666c6f776f70657261746f723a2063616c6c6572206973206e6f7420746865206f70657261746f72a2646970667358221220707cf094794d602b951d0e3d3745e877eb7c52f668421e39a2e25ffc7671714764736f6c634300060c0033",
  "immutableReferences": {},
  "source": "// SPDX-License-Identifier: MIT\npragma solidity ^0.6.12;\n\nimport '../Math/SafeMath.sol';\nimport '../owner/Operator.sol';\n\ncontract PoolLock is Operator {\n    using SafeMath for uint256;\n\n    // uint256 withdrawLockupEpochs;\n    // uint256 rewardLockupEpochs;\n    // uint256 epochAlignTimestamp;\n    // uint256 epochPeriod;\n    \n    uint256 public withdrawLockupEpochs = 2; // TEST CASES DONE\n    uint256 public rewardLockupEpochs = 2; // TEST CASES DONE\n    uint256 public epochAlignTimestamp = 1608883200; // TEST CASES DONE\n    uint256 public epochPeriod = 180; // TEST CASES DONE\n\n    struct Lockup {\n        uint256 epochTimerStart;\n    }\n\n    mapping(address => Lockup) private directors;\n\n    event changeLockProperties(address indexed, string propertyName, uint256 propertyValue);\n\n    /* ========== GOVERNANCE ================== */\n    // TEST CASES DONE\n    function updateWithdrawLockupEpochs(uint256 _withdrawLockupEpochs) public onlyOperator {\n        emit changeLockProperties(msg.sender, \"withdrawLockupEpochs\", _withdrawLockupEpochs);\n        withdrawLockupEpochs = _withdrawLockupEpochs;\n    }\n    // TEST CASES DONE\n    function updateRewardLockupEpochs(uint256 _rewardLockupEpochs) public onlyOperator {\n        emit changeLockProperties(msg.sender, \"rewardLockupEpochs\", _rewardLockupEpochs);\n        rewardLockupEpochs = _rewardLockupEpochs;\n    }\n    // TEST CASES DONE\n    function updateEpochAlignTimestamp(uint256 _epochAlignTimestamp) public onlyOperator {\n        emit changeLockProperties(msg.sender, \"epochAlignTimestamp\", _epochAlignTimestamp);\n        epochAlignTimestamp = _epochAlignTimestamp;\n    }\n    // TEST CASES DONE\n    function updateEpochPeriod(uint256 _epochPeriod) public onlyOperator {\n        emit changeLockProperties(msg.sender, \"epochPeriod\", _epochPeriod);\n        epochPeriod = _epochPeriod;\n    }\n    // TEST CASES DONE\n    function setLockUp(\n        uint256 _withdrawLockupEpochs,\n        uint256 _rewardLockupEpochs,\n        uint256 _epochAlignTimestamp,\n        uint256 _epochPeriod\n    )\n    external\n    onlyOperator\n    {\n        require(\n            _withdrawLockupEpochs >= _rewardLockupEpochs\n            && _withdrawLockupEpochs <= 21,\n            \"LockupEpochs: out of range\"\n        );\n        require(_epochPeriod <= 1 days, \"EpochPeriod: out of range\");\n        require(\n            _epochAlignTimestamp.add(_epochPeriod.mul(2)) < block.timestamp,\n            \"EpochAlignTimestamp: too late\"\n        );\n\n        updateWithdrawLockupEpochs(_withdrawLockupEpochs);\n        updateRewardLockupEpochs(_rewardLockupEpochs);\n        updateEpochAlignTimestamp(_epochAlignTimestamp);\n        updateEpochPeriod(_epochPeriod);\n    }\n\n    /* ========== Set Lock For Address ================== */\n    function setLockTime() internal {\n        directors[msg.sender].epochTimerStart = getCurrentEpochTimestamp();\n    }\n\n    /* ========== Check Lock ================== */\n    // TEST CASES DONE\n    function getCurrentEpochTimestamp() public view returns(uint256) {\n        return block.timestamp;\n    }\n    // TEST CASES DONE\n    function getCanWithdrawTime(address director) public view returns(uint256) {\n        return directors[director].epochTimerStart.add(\n            withdrawLockupEpochs.mul(epochPeriod)\n        );\n    }\n    // TEST CASES DONE\n    function getCanClaimTime(address director) public view returns(uint256) {\n        return directors[director].epochTimerStart.add(\n            rewardLockupEpochs.mul(epochPeriod)\n        );\n    }\n\n    function canWithdraw(address director) public view returns (bool) {\n        return getCanWithdrawTime(director) <= getCurrentEpochTimestamp();\n    }\n\n    function canClaimReward(address director) public view returns (bool) {\n        return getCanClaimTime(director) <= getCurrentEpochTimestamp();\n    }\n\n} ",
  "sourcePath": "/Users/cooper/GitHub/Prigogine/Ceres-Protocol/contracts/Utils/PoolLock.sol",
  "compiler": {
    "name": "solc",
    "version": "0.6.12+commit.27d51765.Emscripten.clang"
  },
  "schemaVersion": "3.4.1",
  "updatedAt": "2021-07-29T07:51:31.599Z",
  "devdoc": {
    "kind": "dev",
    "methods": {
      "owner()": {
        "details": "Returns the address of the current owner."
      },
      "renounceOwnership()": {
        "details": "Leaves the contract without owner. It will not be possible to call `onlyOwner` functions anymore. Can only be called by the current owner. NOTE: Renouncing ownership will leave the contract without an owner, thereby removing any functionality that is only available to the owner."
      },
      "transferOwnership(address)": {
        "details": "Transfers ownership of the contract to a new account (`newOwner`). Can only be called by the current owner."
      }
    },
    "version": 1
  },
  "userdoc": {
    "kind": "user",
    "methods": {},
    "version": 1
  }
}