{
  "contractName": "ShareWrapper2",
  "abi": [
    {
      "inputs": [],
      "name": "share",
      "outputs": [
        {
          "internalType": "contract IERC20",
          "name": "",
          "type": "address"
        }
      ],
      "stateMutability": "view",
      "type": "function"
    },
    {
      "inputs": [],
      "name": "totalSupply",
      "outputs": [
        {
          "internalType": "uint256",
          "name": "",
          "type": "uint256"
        }
      ],
      "stateMutability": "view",
      "type": "function"
    },
    {
      "inputs": [
        {
          "internalType": "address",
          "name": "account",
          "type": "address"
        }
      ],
      "name": "balanceOf",
      "outputs": [
        {
          "internalType": "uint256",
          "name": "",
          "type": "uint256"
        }
      ],
      "stateMutability": "view",
      "type": "function"
    },
    {
      "inputs": [
        {
          "internalType": "uint256",
          "name": "amount",
          "type": "uint256"
        }
      ],
      "name": "stake",
      "outputs": [],
      "stateMutability": "nonpayable",
      "type": "function"
    },
    {
      "inputs": [
        {
          "internalType": "uint256",
          "name": "amount",
          "type": "uint256"
        }
      ],
      "name": "withdraw",
      "outputs": [],
      "stateMutability": "nonpayable",
      "type": "function"
    }
  ],
  "bytecode": "0x608060405234801561001057600080fd5b5061088a806100206000396000f3fe608060405234801561001057600080fd5b50600436106100675760003560e01c806370a082311161005057806370a082311461009f578063a694fc3a146100b2578063a8d5fd65146100c557610067565b806318160ddd1461006c5780632e1a7d4d1461008a575b600080fd5b6100746100da565b604051610081919061081f565b60405180910390f35b61009d6100983660046105fa565b6100e0565b005b6100746100ad3660046105a6565b610189565b61009d6100c03660046105fa565b6101b1565b6100cd610217565b6040516100819190610685565b60015490565b3360009081526002602052604090205481811015610133576040517f08c379a000000000000000000000000000000000000000000000000000000000815260040161012a906107c2565b60405180910390fd5b6001546101409083610233565b60015561014d8183610233565b3360008181526002602052604081209290925590546101859173ffffffffffffffffffffffffffffffffffffffff909116908461027c565b5050565b73ffffffffffffffffffffffffffffffffffffffff1660009081526002602052604090205490565b6001546101be9082610322565b600155336000908152600260205260409020546101db9082610322565b3360008181526002602052604081209290925590546102149173ffffffffffffffffffffffffffffffffffffffff909116903084610361565b50565b60005473ffffffffffffffffffffffffffffffffffffffff1681565b600061027583836040518060400160405280601e81526020017f536166654d6174683a207375627472616374696f6e206f766572666c6f770000815250610388565b9392505050565b61031d8363a9059cbb60e01b848460405160240161029b92919061065f565b604080517fffffffffffffffffffffffffffffffffffffffffffffffffffffffffffffffe08184030181529190526020810180517bffffffffffffffffffffffffffffffffffffffffffffffffffffffff167fffffffff00000000000000000000000000000000000000000000000000000000909316929092179091526103ce565b505050565b600082820183811015610275576040517f08c379a000000000000000000000000000000000000000000000000000000000815260040161012a906106f7565b610382846323b872dd60e01b85858560405160240161029b9392919061062e565b50505050565b600081848411156103c6576040517f08c379a000000000000000000000000000000000000000000000000000000000815260040161012a91906106a6565b505050900390565b6060610430826040518060400160405280602081526020017f5361666545524332303a206c6f772d6c6576656c2063616c6c206661696c65648152508573ffffffffffffffffffffffffffffffffffffffff166104849092919063ffffffff16565b80519091501561031d578080602001905181019061044e91906105da565b61031d576040517f08c379a000000000000000000000000000000000000000000000000000000000815260040161012a90610765565b6060610493848460008561049b565b949350505050565b60606104a6856105a0565b6104dc576040517f08c379a000000000000000000000000000000000000000000000000000000000815260040161012a9061072e565b600060608673ffffffffffffffffffffffffffffffffffffffff1685876040516105069190610612565b60006040518083038185875af1925050503d8060008114610543576040519150601f19603f3d011682016040523d82523d6000602084013e610548565b606091505b5091509150811561055c5791506104939050565b80511561056c5780518082602001fd5b836040517f08c379a000000000000000000000000000000000000000000000000000000000815260040161012a91906106a6565b3b151590565b6000602082840312156105b7578081fd5b813573ffffffffffffffffffffffffffffffffffffffff81168114610275578182fd5b6000602082840312156105eb578081fd5b81518015158114610275578182fd5b60006020828403121561060b578081fd5b5035919050565b60008251610624818460208701610828565b9190910192915050565b73ffffffffffffffffffffffffffffffffffffffff9384168152919092166020820152604081019190915260600190565b73ffffffffffffffffffffffffffffffffffffffff929092168252602082015260400190565b73ffffffffffffffffffffffffffffffffffffffff91909116815260200190565b60006020825282518060208401526106c5816040850160208701610828565b601f017fffffffffffffffffffffffffffffffffffffffffffffffffffffffffffffffe0169190910160400192915050565b6020808252601b908201527f536166654d6174683a206164646974696f6e206f766572666c6f770000000000604082015260600190565b6020808252601d908201527f416464726573733a2063616c6c20746f206e6f6e2d636f6e7472616374000000604082015260600190565b6020808252602a908201527f5361666545524332303a204552433230206f7065726174696f6e20646964206e60408201527f6f74207375636365656400000000000000000000000000000000000000000000606082015260800190565b60208082526036908201527f426f617264726f6f6d3a2077697468647261772072657175657374206772656160408201527f746572207468616e207374616b656420616d6f756e7400000000000000000000606082015260800190565b90815260200190565b60005b8381101561084357818101518382015260200161082b565b83811115610382575050600091015256fea2646970667358221220c1a60dbec3c2caf61fe602468e3a2c27181d94fe1282aeb82364b424c91a03ce64736f6c634300060c0033",
  "immutableReferences": {},
  "source": "// SPDX-License-Identifier: MIT\npragma solidity ^0.6.12;\npragma experimental ABIEncoderV2;\n\nimport './ERC20/IERC20.sol';\nimport './ERC20/SafeERC20.sol';\n\nimport './Math/Safe112.sol';\n// [IMPORTANT] ADD ADMIN & OPERATOR.SOL\nimport './owner/Operator.sol';\nimport './owner/Admin.sol';\nimport './Utils/ContractGuard.sol';\nimport './Interfaces/IBasisAsset.sol';\nimport './Interfaces/IReferral.sol';\n\ncontract ShareWrapper2 {\n    using SafeMath for uint256;\n    using SafeERC20 for IERC20;\n\n    IERC20 public share;\n\n    uint256 private _totalSupply;\n    mapping(address => uint256) private _balances;\n\n    function totalSupply() public view returns (uint256) {\n        return _totalSupply;\n    }\n\n    function balanceOf(address account) public view returns (uint256) {\n        return _balances[account];\n    }\n\n    function stake(uint256 amount) public virtual {\n        _totalSupply = _totalSupply.add(amount);\n        _balances[msg.sender] = _balances[msg.sender].add(amount);\n        share.safeTransferFrom(msg.sender, address(this), amount);\n    }\n\n    // function stake(uint256 amount, address referral ) public virtual {\n    //     _totalSupply = _totalSupply.add(amount);\n    //     _balances[msg.sender] = _balances[msg.sender].add(amount);\n    //     share.safeTransferFrom(msg.sender, address(this), amount);\n    // }\n\n    function withdraw(uint256 amount) public virtual {\n        uint256 directorShare = _balances[msg.sender];\n        require(\n            directorShare >= amount,\n            'Boardroom: withdraw request greater than staked amount'\n        );\n        _totalSupply = _totalSupply.sub(amount);\n        _balances[msg.sender] = directorShare.sub(amount);\n        share.safeTransfer(msg.sender, amount);\n    }\n}\n\ncontract Boardroom is ShareWrapper2, ContractGuard, IReferral {\n    using SafeERC20 for IERC20;\n    using Address for address;\n    using SafeMath for uint256;\n    using Safe112 for uint112;\n\n\n    // timelock_Duration for DEPOSIT & WITHDRAW\n    // TIMELOCK_DURATION FOR S = 12 HOURS & C = 4 HOURS\n    /* ========== PARAMETERS =============== */\n    uint256 public withdrawLockupEpochs = 2; //TEST CASES DONE\n    uint256 public rewardLockupEpochs = 2; //TEST CASES DONE\n    uint256 public epochAlignTimestamp = 1608883200; //TEST CASES DONE\n    uint256 public epochPeriod = 300; //TEST CASES DONE\n\n    /* ========== DATA STRUCTURES ========== */\n\n    struct Boardseat {\n        uint256 lastSnapshotIndex;\n        uint256 rewardEarned;\n        uint256 epochTimerStart;\n    }\n\n    struct BoardSnapshot {\n        uint256 time;\n        uint256 rewardReceived;\n        uint256 rewardPerShare;\n    }\n\n    /* ========== STATE VARIABLES ========== */\n\n    IERC20 public cash; //TEST CASES DONE\n\n    mapping(address => Boardseat) private directors;\n    BoardSnapshot[] private boardHistory;\n\n    /* ========== whitelist for referral ======= */\n    // TODO: [IMPORTANT]: REMOVE REFERRAL FUNC LATER & ADD THEM TO LIBRARY\n    address[] public referralList; //TEST CASES DONE\n    string[] public referralNameList; //TEST CASES DONE\n    mapping(address => uint256) public referralAmount;\n    uint256 public totalReferralAmount;\n\n    /* ========== CONSTRUCTOR ========== */\n\n    constructor(IERC20 _cash, IERC20 _share) public {\n        cash = _cash;\n        share = _share;\n\n        BoardSnapshot memory genesisSnapshot = BoardSnapshot({\n            time: block.number,\n            rewardReceived: 0,\n            rewardPerShare: 0\n        });\n        boardHistory.push(genesisSnapshot);\n    }\n\n    /* ========== Modifiers =============== */\n    modifier directorExists {\n        require(\n            balanceOf(msg.sender) > 0,\n            'Boardroom: The director does not exist'\n        );\n        _;\n    }\n\n    modifier updateReward(address director) {\n        if (director != address(0)) {\n            Boardseat memory seat = directors[director];\n            seat.rewardEarned = earned(director);\n            seat.lastSnapshotIndex = latestSnapshotIndex();\n            directors[director] = seat;\n        }\n        _;\n    }\n\n    /* ========== VIEW FUNCTIONS ========== */\n\n    // =========== Snapshot getters\n    // TEST CASES DONE\n    function latestSnapshotIndex() public view returns (uint256) {\n        return boardHistory.length.sub(1);\n    }\n    // TEST CASES DONE\n    function getLatestSnapshot() internal view returns (BoardSnapshot memory) {\n        return boardHistory[latestSnapshotIndex()];\n    }\n    // TEST CASES DONE\n    function getLastSnapshotIndexOf(address director)\n        public\n        view\n        returns (uint256)\n    {\n        return directors[director].lastSnapshotIndex;\n    }\n    // TEST CASES DONE\n    function getLastSnapshotOf(address director)\n        internal\n        view\n        returns (BoardSnapshot memory)\n    {\n        return boardHistory[getLastSnapshotIndexOf(director)];\n    }\n\n    // TEST CASES DONE\n    function getCurrentEpochTimestamp() public view returns(uint256) {\n        // return epochAlignTimestamp.add(\n        //         block.timestamp\n        //         .sub(epochAlignTimestamp)\n        //         .div(epochPeriod)\n        //         .mul(epochPeriod)\n        //     );\n        return block.timestamp;\n    }\n    // TEST CASES DONE\n    function getCanWithdrawTime(address director) public view returns(uint256) {\n        return directors[director].epochTimerStart.add(\n                    withdrawLockupEpochs.mul(epochPeriod)\n                );\n    }\n    // TEST CASES DONE\n    function getCanClaimTime(address director) public view returns(uint256) {\n        return directors[director].epochTimerStart.add(\n                    rewardLockupEpochs.mul(epochPeriod)\n                );\n    }\n    // TEST CASES DONE\n    function canWithdraw(address director) public view returns (bool) {\n        return getCanWithdrawTime(director) <= getCurrentEpochTimestamp();\n    }\n    // TEST CASES DONE\n    function canClaimReward(address director) public view returns (bool) {\n        return getCanClaimTime(director) <= getCurrentEpochTimestamp();\n    }\n\n    // =========== Director getters\n    // TEST CASES DONE\n    function rewardPerShare() public view returns (uint256) {\n        return getLatestSnapshot().rewardPerShare;\n    }\n    // TEST CASES DONE\n    function earned(address director) public view returns (uint256) {\n        uint256 latestRPS = getLatestSnapshot().rewardPerShare;\n        uint256 storedRPS = getLastSnapshotOf(director).rewardPerShare;\n\n        return\n            balanceOf(director).mul(latestRPS.sub(storedRPS)).div(1e18).add(\n                directors[director].rewardEarned\n            );\n    }\n\n    /* ========== GOVERNANCE ================== */\n    // TEST CASES DONE\n    function setLockUp(\n        uint256 _withdrawLockupEpochs,\n        uint256 _rewardLockupEpochs,\n        uint256 _epochAlignTimestamp,\n        uint256 _epochPeriod\n    )\n        external\n    {\n        require(\n            _withdrawLockupEpochs >= _rewardLockupEpochs\n            && _withdrawLockupEpochs <= 21,\n            \"LockupEpochs: out of range\"\n        );\n        require(_epochPeriod <= 1 days, \"EpochPeriod: out of range\");\n        require(\n            _epochAlignTimestamp.add(_epochPeriod.mul(2)) < block.timestamp,\n            \"EpochAlignTimestamp: too late\"\n        );\n        withdrawLockupEpochs = _withdrawLockupEpochs;\n        rewardLockupEpochs = _rewardLockupEpochs;\n        epochAlignTimestamp = _epochAlignTimestamp;\n        epochPeriod = _epochPeriod;\n    }\n\n\n    /* ========== MUTATIVE FUNCTIONS ========== */\n    // TEST CASES DONE\n    function stake(uint256 amount)\n        public\n        override\n        updateReward(msg.sender)\n    {\n        require(amount > 0, 'Boardroom: Cannot stake 0');\n        super.stake(amount);\n        directors[msg.sender].epochTimerStart = getCurrentEpochTimestamp();\n        emit Staked(msg.sender, amount);\n    }\n\n    // function stake(uint256 amount, address referral)\n    //     public\n    //     override\n    //     onlyOneBlock\n    //     updateReward(msg.sender)\n    // {\n    //     require(amount > 0, 'Boardroom: Cannot stake 0');\n    //     super.stake(amount, referral);\n    //     directors[msg.sender].epochTimerStart = getCurrentEpochTimestamp();\n    //     _addAmountToReferral(amount, referral);\n    //     emit Staked(msg.sender, amount);\n    // }\n    // TEST CASES DONE\n    function withdraw(uint256 amount)\n        public\n        override\n        directorExists\n        updateReward(msg.sender)\n    {\n        require(amount > 0, 'Boardroom: Cannot withdraw 0');\n        require(canWithdraw(msg.sender), \"Boardroom: still in withdraw lockup\");\n        super.withdraw(amount);\n        directors[msg.sender].epochTimerStart = getCurrentEpochTimestamp();\n        emit Withdrawn(msg.sender, amount);\n    }\n\n    function exit() external {\n        withdraw(balanceOf(msg.sender));\n        claimReward();\n    }\n    // TEST CASES DONE\n    function claimReward() public updateReward(msg.sender) {\n        uint256 reward = directors[msg.sender].rewardEarned;\n        if (reward > 0) {\n            require(canClaimReward(msg.sender), \"Boardroom: still in claimReward lockup\");\n            directors[msg.sender].rewardEarned = 0;\n            cash.safeTransfer(msg.sender, reward);\n            directors[msg.sender].epochTimerStart = getCurrentEpochTimestamp();\n            emit RewardPaid(msg.sender, reward);\n        }\n    }\n    // TEST CASES DONE\n    function allocateSeigniorage(uint256 amount)\n        external\n    {\n        require(amount > 0, 'Boardroom: Cannot allocate 0');\n        require(\n            totalSupply() > 0,\n            'Boardroom: Cannot allocate when totalSupply is 0'\n        );\n\n        // Create & add new snapshot\n        uint256 prevRPS = getLatestSnapshot().rewardPerShare;\n        uint256 nextRPS = prevRPS.add(amount.mul(1e18).div(totalSupply()));\n\n        BoardSnapshot memory newSnapshot = BoardSnapshot({\n            time: block.number,\n            rewardReceived: amount,\n            rewardPerShare: nextRPS\n        });\n        boardHistory.push(newSnapshot);\n\n        cash.safeTransferFrom(msg.sender, address(this), amount);\n        emit RewardAdded(msg.sender, amount);\n    }\n\n    /* =============== REFERRAL ================= */\n    // NO NEED TO ADD TEST SCRIPTS\n    function addReferral(address _referral,string memory _name) external {\n        referralList.push(_referral);\n        referralNameList.push(_name);\n        referralAmount[_referral] = 0;\n    }\n    // NO NEED TO ADD TEST SCRIPTS\n    function _addAmountToReferral(uint256 _amount, address _referral) internal {\n        if (_referral != address(0)) {\n            uint isFound = 0;\n            for (uint i = 0; i < referralList.length; i++) {\n                if (referralList[i] == _referral) {\n                    isFound = 1;\n                    break;\n                }\n            }\n            require(isFound > 0, \"The referral address is not correct\");\n            referralAmount[_referral] = referralAmount[_referral].add(_amount);\n            totalReferralAmount = totalReferralAmount.add(_amount);\n        }\n    }\n    // NO NEED TO ADD TEST SCRIPTS\n    function getReferralList() external view override returns (address[] memory) {\n        return referralList;\n    }\n    // NO NEED TO ADD TEST SCRIPTS\n    function getReferralNameList() external view override returns (string[] memory) {\n        return referralNameList;\n    }\n    // NO NEED TO ADD TEST SCRIPTS\n    function getReferralAmount(address _referral) external view override returns (uint256) {\n        return referralAmount[_referral];\n    }\n    // NO NEED TO ADD TEST SCRIPTS\n    function getTotalReferralAmount() external view override returns (uint256) {\n        return totalReferralAmount;\n    }\n\n    /* ========== EVENTS ========== */\n\n    event Staked(address indexed user, uint256 amount);\n    event Withdrawn(address indexed user, uint256 amount);\n    event RewardPaid(address indexed user, uint256 reward);\n    event RewardAdded(address indexed user, uint256 reward);\n}\n",
  "sourcePath": "/Users/cooper/GitHub/Prigogine/Ceres-Protocol/contracts/Boardroom.sol",
  "compiler": {
    "name": "solc",
    "version": "0.6.12+commit.27d51765.Emscripten.clang"
  },
  "schemaVersion": "3.4.1",
  "updatedAt": "2021-07-29T07:51:31.379Z",
  "devdoc": {
    "kind": "dev",
    "methods": {},
    "version": 1
  },
  "userdoc": {
    "kind": "user",
    "methods": {},
    "version": 1
  }
}