{
  "contractName": "SimpleERCFund",
  "abi": [
    {
      "anonymous": false,
      "inputs": [
        {
          "indexed": true,
          "internalType": "address",
          "name": "from",
          "type": "address"
        },
        {
          "indexed": true,
          "internalType": "uint256",
          "name": "at",
          "type": "uint256"
        },
        {
          "indexed": false,
          "internalType": "string",
          "name": "reason",
          "type": "string"
        }
      ],
      "name": "Deposit",
      "type": "event"
    },
    {
      "anonymous": false,
      "inputs": [
        {
          "indexed": true,
          "internalType": "address",
          "name": "previousOperator",
          "type": "address"
        },
        {
          "indexed": true,
          "internalType": "address",
          "name": "newOperator",
          "type": "address"
        }
      ],
      "name": "OperatorTransferred",
      "type": "event"
    },
    {
      "anonymous": false,
      "inputs": [
        {
          "indexed": true,
          "internalType": "address",
          "name": "previousOwner",
          "type": "address"
        },
        {
          "indexed": true,
          "internalType": "address",
          "name": "newOwner",
          "type": "address"
        }
      ],
      "name": "OwnershipTransferred",
      "type": "event"
    },
    {
      "anonymous": false,
      "inputs": [
        {
          "indexed": true,
          "internalType": "address",
          "name": "from",
          "type": "address"
        },
        {
          "indexed": true,
          "internalType": "address",
          "name": "to",
          "type": "address"
        },
        {
          "indexed": true,
          "internalType": "uint256",
          "name": "at",
          "type": "uint256"
        },
        {
          "indexed": false,
          "internalType": "string",
          "name": "reason",
          "type": "string"
        }
      ],
      "name": "Withdrawal",
      "type": "event"
    },
    {
      "inputs": [],
      "name": "isOperator",
      "outputs": [
        {
          "internalType": "bool",
          "name": "",
          "type": "bool"
        }
      ],
      "stateMutability": "view",
      "type": "function"
    },
    {
      "inputs": [],
      "name": "operator",
      "outputs": [
        {
          "internalType": "address",
          "name": "",
          "type": "address"
        }
      ],
      "stateMutability": "view",
      "type": "function"
    },
    {
      "inputs": [],
      "name": "owner",
      "outputs": [
        {
          "internalType": "address",
          "name": "",
          "type": "address"
        }
      ],
      "stateMutability": "view",
      "type": "function"
    },
    {
      "inputs": [],
      "name": "renounceOwnership",
      "outputs": [],
      "stateMutability": "nonpayable",
      "type": "function"
    },
    {
      "inputs": [
        {
          "internalType": "address",
          "name": "newOperator_",
          "type": "address"
        }
      ],
      "name": "transferOperator",
      "outputs": [],
      "stateMutability": "nonpayable",
      "type": "function"
    },
    {
      "inputs": [
        {
          "internalType": "address",
          "name": "newOwner",
          "type": "address"
        }
      ],
      "name": "transferOwnership",
      "outputs": [],
      "stateMutability": "nonpayable",
      "type": "function"
    },
    {
      "inputs": [
        {
          "internalType": "address",
          "name": "token",
          "type": "address"
        },
        {
          "internalType": "uint256",
          "name": "amount",
          "type": "uint256"
        },
        {
          "internalType": "string",
          "name": "reason",
          "type": "string"
        }
      ],
      "name": "deposit",
      "outputs": [],
      "stateMutability": "nonpayable",
      "type": "function"
    },
    {
      "inputs": [
        {
          "internalType": "address",
          "name": "token",
          "type": "address"
        },
        {
          "internalType": "uint256",
          "name": "amount",
          "type": "uint256"
        },
        {
          "internalType": "address",
          "name": "to",
          "type": "address"
        },
        {
          "internalType": "string",
          "name": "reason",
          "type": "string"
        }
      ],
      "name": "withdraw",
      "outputs": [],
      "stateMutability": "nonpayable",
      "type": "function"
    }
  ],
  "bytecode": "0x608060405234801561001057600080fd5b5061002161001c61007a565b61007e565b61002961007a565b600180546001600160a01b0319166001600160a01b0392831617908190556040519116906000907f74da04524d50c64947f5dd5381ef1a4dca5cba8ed1d816243f9e48aa0b5617ed908290a36100ce565b3390565b600080546001600160a01b038381166001600160a01b0319831681178455604051919092169283917f8be0079c531659141344cd1fd0a4f28419497f9722a3daafe3b4186f6b6457e09190a35050565b610e92806100dd6000396000f3fe608060405234801561001057600080fd5b50600436106100885760003560e01c80638da5cb5b1161005b5780638da5cb5b1461011757806395c66ddb1461011f578063bfe07da6146101f1578063f2fde38b146102b957610088565b806329605e771461008d5780634456eda2146100c2578063570ca735146100de578063715018a61461010f575b600080fd5b6100c0600480360360208110156100a357600080fd5b503573ffffffffffffffffffffffffffffffffffffffff166102ec565b005b6100ca6103a0565b604080519115158252519081900360200190f35b6100e66103e0565b6040805173ffffffffffffffffffffffffffffffffffffffff9092168252519081900360200190f35b6100c06103fc565b6100e66104b0565b6100c06004803603608081101561013557600080fd5b73ffffffffffffffffffffffffffffffffffffffff823581169260208101359260408201359092169181019060808101606082013564010000000081111561017c57600080fd5b82018360208201111561018e57600080fd5b803590602001918460018302840111640100000000831117156101b057600080fd5b91908080601f0160208091040260200160405190810160405280939291908181526020018383808284376000920191909152509295506104cc945050505050565b6100c06004803603606081101561020757600080fd5b73ffffffffffffffffffffffffffffffffffffffff8235169160208101359181019060608101604082013564010000000081111561024457600080fd5b82018360208201111561025657600080fd5b8035906020019184600183028401116401000000008311171561027857600080fd5b91908080601f01602080910402602001604051908101604052809392919081815260200183838082843760009201919091525092955061062b945050505050565b6100c0600480360360208110156102cf57600080fd5b503573ffffffffffffffffffffffffffffffffffffffff16610703565b6102f4610820565b73ffffffffffffffffffffffffffffffffffffffff166103126104b0565b73ffffffffffffffffffffffffffffffffffffffff161461039457604080517f08c379a000000000000000000000000000000000000000000000000000000000815260206004820181905260248201527f4f776e61626c653a2063616c6c6572206973206e6f7420746865206f776e6572604482015290519081900360640190fd5b61039d81610824565b50565b60015460009073ffffffffffffffffffffffffffffffffffffffff166103c4610820565b73ffffffffffffffffffffffffffffffffffffffff1614905090565b60015473ffffffffffffffffffffffffffffffffffffffff1690565b610404610820565b73ffffffffffffffffffffffffffffffffffffffff166104226104b0565b73ffffffffffffffffffffffffffffffffffffffff16146104a457604080517f08c379a000000000000000000000000000000000000000000000000000000000815260206004820181905260248201527f4f776e61626c653a2063616c6c6572206973206e6f7420746865206f776e6572604482015290519081900360640190fd5b6104ae600061091a565b565b60005473ffffffffffffffffffffffffffffffffffffffff1690565b60015473ffffffffffffffffffffffffffffffffffffffff16331461053c576040517f08c379a0000000000000000000000000000000000000000000000000000000008152600401808060200182810382526024815260200180610e0f6024913960400191505060405180910390fd5b61055d73ffffffffffffffffffffffffffffffffffffffff8516838561098f565b428273ffffffffffffffffffffffffffffffffffffffff163373ffffffffffffffffffffffffffffffffffffffff167f2b0d35cc55a37536a00cf056f44b5f4b453659ddd18bc131a978463523ad3a1f846040518080602001828103825283818151815260200191508051906020019080838360005b838110156105eb5781810151838201526020016105d3565b50505050905090810190601f1680156106185780820380516001836020036101000a031916815260200191505b509250505060405180910390a450505050565b61064d73ffffffffffffffffffffffffffffffffffffffff8416333085610a21565b423373ffffffffffffffffffffffffffffffffffffffff167f643e927b32d5bfd08eccd2fcbd97057ad413850f857a2359639114e8e8dd3d7b836040518080602001828103825283818151815260200191508051906020019080838360005b838110156106c45781810151838201526020016106ac565b50505050905090810190601f1680156106f15780820380516001836020036101000a031916815260200191505b509250505060405180910390a3505050565b61070b610820565b73ffffffffffffffffffffffffffffffffffffffff166107296104b0565b73ffffffffffffffffffffffffffffffffffffffff16146107ab57604080517f08c379a000000000000000000000000000000000000000000000000000000000815260206004820181905260248201527f4f776e61626c653a2063616c6c6572206973206e6f7420746865206f776e6572604482015290519081900360640190fd5b73ffffffffffffffffffffffffffffffffffffffff8116610817576040517f08c379a0000000000000000000000000000000000000000000000000000000008152600401808060200182810382526026815260200180610dbc6026913960400191505060405180910390fd5b61039d8161091a565b3390565b73ffffffffffffffffffffffffffffffffffffffff8116610890576040517f08c379a000000000000000000000000000000000000000000000000000000000815260040180806020018281038252602d815260200180610de2602d913960400191505060405180910390fd5b60405173ffffffffffffffffffffffffffffffffffffffff8216906000907f74da04524d50c64947f5dd5381ef1a4dca5cba8ed1d816243f9e48aa0b5617ed908290a3600180547fffffffffffffffffffffffff00000000000000000000000000000000000000001673ffffffffffffffffffffffffffffffffffffffff92909216919091179055565b6000805473ffffffffffffffffffffffffffffffffffffffff8381167fffffffffffffffffffffffff0000000000000000000000000000000000000000831681178455604051919092169283917f8be0079c531659141344cd1fd0a4f28419497f9722a3daafe3b4186f6b6457e09190a35050565b6040805173ffffffffffffffffffffffffffffffffffffffff8416602482015260448082018490528251808303909101815260649091019091526020810180517bffffffffffffffffffffffffffffffffffffffffffffffffffffffff167fa9059cbb00000000000000000000000000000000000000000000000000000000179052610a1c908490610abc565b505050565b6040805173ffffffffffffffffffffffffffffffffffffffff80861660248301528416604482015260648082018490528251808303909101815260849091019091526020810180517bffffffffffffffffffffffffffffffffffffffffffffffffffffffff167f23b872dd00000000000000000000000000000000000000000000000000000000179052610ab6908590610abc565b50505050565b6060610b1e826040518060400160405280602081526020017f5361666545524332303a206c6f772d6c6576656c2063616c6c206661696c65648152508573ffffffffffffffffffffffffffffffffffffffff16610b949092919063ffffffff16565b805190915015610a1c57808060200190516020811015610b3d57600080fd5b5051610a1c576040517f08c379a000000000000000000000000000000000000000000000000000000000815260040180806020018281038252602a815260200180610e33602a913960400191505060405180910390fd5b6060610ba38484600085610bab565b949350505050565b6060610bb685610db5565b610c2157604080517f08c379a000000000000000000000000000000000000000000000000000000000815260206004820152601d60248201527f416464726573733a2063616c6c20746f206e6f6e2d636f6e7472616374000000604482015290519081900360640190fd5b600060608673ffffffffffffffffffffffffffffffffffffffff1685876040518082805190602001908083835b60208310610c8b57805182527fffffffffffffffffffffffffffffffffffffffffffffffffffffffffffffffe09092019160209182019101610c4e565b6001836020036101000a03801982511681845116808217855250505050505090500191505060006040518083038185875af1925050503d8060008114610ced576040519150601f19603f3d011682016040523d82523d6000602084013e610cf2565b606091505b50915091508115610d06579150610ba39050565b805115610d165780518082602001fd5b836040517f08c379a00000000000000000000000000000000000000000000000000000000081526004018080602001828103825283818151815260200191508051906020019080838360005b83811015610d7a578181015183820152602001610d62565b50505050905090810190601f168015610da75780820380516001836020036101000a031916815260200191505b509250505060405180910390fd5b3b15159056fe4f776e61626c653a206e6577206f776e657220697320746865207a65726f20616464726573736f70657261746f723a207a65726f206164647265737320676976656e20666f72206e6577206f70657261746f726f70657261746f723a2063616c6c6572206973206e6f7420746865206f70657261746f725361666545524332303a204552433230206f7065726174696f6e20646964206e6f742073756363656564a264697066735822122065d01da35fb0a35497d2b2a22eac63ec9595fca786602e724f841b16360b52cc64736f6c634300060c0033",
  "immutableReferences": {},
  "source": "// SPDX-License-Identifier: MIT\npragma solidity ^0.6.12;\n\nimport './ERC20/IERC20.sol';\nimport './ERC20/SafeERC20.sol';\n\nimport './owner/Operator.sol';\nimport './Interfaces/ISimpleERCFund.sol';\n\ncontract SimpleERCFund is ISimpleERCFund, Operator {\n    using SafeERC20 for IERC20;\n\n    function deposit(\n        address token,\n        uint256 amount,\n        string memory reason\n    ) public override {\n        IERC20(token).safeTransferFrom(msg.sender, address(this), amount);\n        emit Deposit(msg.sender, now, reason);\n    }\n\n    function withdraw(\n        address token,\n        uint256 amount,\n        address to,\n        string memory reason\n    ) public override onlyOperator {\n        IERC20(token).safeTransfer(to, amount);\n        emit Withdrawal(msg.sender, to, now, reason);\n    }\n\n    event Deposit(address indexed from, uint256 indexed at, string reason);\n    event Withdrawal(\n        address indexed from,\n        address indexed to,\n        uint256 indexed at,\n        string reason\n    );\n}\n",
  "sourcePath": "/Users/cooper/GitHub/Prigogine/Ceres-Protocol/contracts/SimpleERCFund.sol",
  "compiler": {
    "name": "solc",
    "version": "0.6.12+commit.27d51765.Emscripten.clang"
  },
  "schemaVersion": "3.4.1",
  "updatedAt": "2021-07-29T07:51:31.523Z",
  "devdoc": {
    "kind": "dev",
    "methods": {
      "owner()": {
        "details": "Returns the address of the current owner."
      },
      "renounceOwnership()": {
        "details": "Leaves the contract without owner. It will not be possible to call `onlyOwner` functions anymore. Can only be called by the current owner. NOTE: Renouncing ownership will leave the contract without an owner, thereby removing any functionality that is only available to the owner."
      },
      "transferOwnership(address)": {
        "details": "Transfers ownership of the contract to a new account (`newOwner`). Can only be called by the current owner."
      }
    },
    "version": 1
  },
  "userdoc": {
    "kind": "user",
    "methods": {},
    "version": 1
  }
}