{
  "contractName": "StakingRewards",
  "abi": [
    {
      "inputs": [
        {
          "internalType": "address",
          "name": "_owner",
          "type": "address"
        },
        {
          "internalType": "address",
          "name": "_rewardsDistribution",
          "type": "address"
        },
        {
          "internalType": "address",
          "name": "_rewardsToken",
          "type": "address"
        },
        {
          "internalType": "address",
          "name": "_stakingToken",
          "type": "address"
        },
        {
          "internalType": "address",
          "name": "_ceres_address",
          "type": "address"
        },
        {
          "internalType": "address",
          "name": "_timelock_address",
          "type": "address"
        },
        {
          "internalType": "uint256",
          "name": "_pool_weight",
          "type": "uint256"
        }
      ],
      "stateMutability": "nonpayable",
      "type": "constructor"
    },
    {
      "anonymous": false,
      "inputs": [],
      "name": "DefaultInitialization",
      "type": "event"
    },
    {
      "anonymous": false,
      "inputs": [
        {
          "indexed": false,
          "internalType": "uint256",
          "name": "multiplier",
          "type": "uint256"
        }
      ],
      "name": "LockedStakeMaxMultiplierUpdated",
      "type": "event"
    },
    {
      "anonymous": false,
      "inputs": [
        {
          "indexed": false,
          "internalType": "uint256",
          "name": "secs",
          "type": "uint256"
        }
      ],
      "name": "LockedStakeMinTime",
      "type": "event"
    },
    {
      "anonymous": false,
      "inputs": [
        {
          "indexed": false,
          "internalType": "uint256",
          "name": "secs",
          "type": "uint256"
        }
      ],
      "name": "LockedStakeTimeForMaxMultiplier",
      "type": "event"
    },
    {
      "anonymous": false,
      "inputs": [
        {
          "indexed": false,
          "internalType": "uint256",
          "name": "multiplier",
          "type": "uint256"
        }
      ],
      "name": "MaxCRBoostMultiplier",
      "type": "event"
    },
    {
      "anonymous": false,
      "inputs": [
        {
          "indexed": false,
          "internalType": "address",
          "name": "oldOwner",
          "type": "address"
        },
        {
          "indexed": false,
          "internalType": "address",
          "name": "newOwner",
          "type": "address"
        }
      ],
      "name": "OwnerChanged",
      "type": "event"
    },
    {
      "anonymous": false,
      "inputs": [
        {
          "indexed": false,
          "internalType": "address",
          "name": "newOwner",
          "type": "address"
        }
      ],
      "name": "OwnerNominated",
      "type": "event"
    },
    {
      "anonymous": false,
      "inputs": [
        {
          "indexed": false,
          "internalType": "bool",
          "name": "isPaused",
          "type": "bool"
        }
      ],
      "name": "PauseChanged",
      "type": "event"
    },
    {
      "anonymous": false,
      "inputs": [
        {
          "indexed": false,
          "internalType": "address",
          "name": "token",
          "type": "address"
        },
        {
          "indexed": false,
          "internalType": "uint256",
          "name": "amount",
          "type": "uint256"
        }
      ],
      "name": "Recovered",
      "type": "event"
    },
    {
      "anonymous": false,
      "inputs": [
        {
          "indexed": false,
          "internalType": "uint256",
          "name": "reward",
          "type": "uint256"
        }
      ],
      "name": "RewardAdded",
      "type": "event"
    },
    {
      "anonymous": false,
      "inputs": [
        {
          "indexed": true,
          "internalType": "address",
          "name": "user",
          "type": "address"
        },
        {
          "indexed": false,
          "internalType": "uint256",
          "name": "reward",
          "type": "uint256"
        }
      ],
      "name": "RewardPaid",
      "type": "event"
    },
    {
      "anonymous": false,
      "inputs": [
        {
          "indexed": false,
          "internalType": "uint256",
          "name": "newDuration",
          "type": "uint256"
        }
      ],
      "name": "RewardsDurationUpdated",
      "type": "event"
    },
    {
      "anonymous": false,
      "inputs": [
        {
          "indexed": false,
          "internalType": "address",
          "name": "token",
          "type": "address"
        }
      ],
      "name": "RewardsPeriodRenewed",
      "type": "event"
    },
    {
      "anonymous": false,
      "inputs": [
        {
          "indexed": true,
          "internalType": "address",
          "name": "user",
          "type": "address"
        },
        {
          "indexed": false,
          "internalType": "uint256",
          "name": "amount",
          "type": "uint256"
        },
        {
          "indexed": false,
          "internalType": "uint256",
          "name": "secs",
          "type": "uint256"
        }
      ],
      "name": "StakeLocked",
      "type": "event"
    },
    {
      "anonymous": false,
      "inputs": [
        {
          "indexed": true,
          "internalType": "address",
          "name": "user",
          "type": "address"
        },
        {
          "indexed": false,
          "internalType": "uint256",
          "name": "amount",
          "type": "uint256"
        }
      ],
      "name": "Staked",
      "type": "event"
    },
    {
      "anonymous": false,
      "inputs": [
        {
          "indexed": true,
          "internalType": "address",
          "name": "user",
          "type": "address"
        },
        {
          "indexed": false,
          "internalType": "uint256",
          "name": "amount",
          "type": "uint256"
        }
      ],
      "name": "Withdrawn",
      "type": "event"
    },
    {
      "anonymous": false,
      "inputs": [
        {
          "indexed": true,
          "internalType": "address",
          "name": "user",
          "type": "address"
        },
        {
          "indexed": false,
          "internalType": "uint256",
          "name": "amount",
          "type": "uint256"
        },
        {
          "indexed": false,
          "internalType": "bytes32",
          "name": "kek_id",
          "type": "bytes32"
        }
      ],
      "name": "WithdrawnLocked",
      "type": "event"
    },
    {
      "inputs": [],
      "name": "CERES",
      "outputs": [
        {
          "internalType": "contract CEREStable",
          "name": "",
          "type": "address"
        }
      ],
      "stateMutability": "view",
      "type": "function"
    },
    {
      "inputs": [],
      "name": "MULTIPLIER_BASE",
      "outputs": [
        {
          "internalType": "uint256",
          "name": "",
          "type": "uint256"
        }
      ],
      "stateMutability": "view",
      "type": "function"
    },
    {
      "inputs": [],
      "name": "PRICE_PRECISION",
      "outputs": [
        {
          "internalType": "uint256",
          "name": "",
          "type": "uint256"
        }
      ],
      "stateMutability": "view",
      "type": "function"
    },
    {
      "inputs": [],
      "name": "acceptOwnership",
      "outputs": [],
      "stateMutability": "nonpayable",
      "type": "function"
    },
    {
      "inputs": [],
      "name": "cr_boost_max_multiplier",
      "outputs": [
        {
          "internalType": "uint256",
          "name": "",
          "type": "uint256"
        }
      ],
      "stateMutability": "view",
      "type": "function"
    },
    {
      "inputs": [
        {
          "internalType": "address",
          "name": "",
          "type": "address"
        }
      ],
      "name": "greylist",
      "outputs": [
        {
          "internalType": "bool",
          "name": "",
          "type": "bool"
        }
      ],
      "stateMutability": "view",
      "type": "function"
    },
    {
      "inputs": [],
      "name": "lastPauseTime",
      "outputs": [
        {
          "internalType": "uint256",
          "name": "",
          "type": "uint256"
        }
      ],
      "stateMutability": "view",
      "type": "function"
    },
    {
      "inputs": [],
      "name": "lastUpdateTime",
      "outputs": [
        {
          "internalType": "uint256",
          "name": "",
          "type": "uint256"
        }
      ],
      "stateMutability": "view",
      "type": "function"
    },
    {
      "inputs": [],
      "name": "locked_stake_max_multiplier",
      "outputs": [
        {
          "internalType": "uint256",
          "name": "",
          "type": "uint256"
        }
      ],
      "stateMutability": "view",
      "type": "function"
    },
    {
      "inputs": [],
      "name": "locked_stake_min_time",
      "outputs": [
        {
          "internalType": "uint256",
          "name": "",
          "type": "uint256"
        }
      ],
      "stateMutability": "view",
      "type": "function"
    },
    {
      "inputs": [],
      "name": "locked_stake_min_time_str",
      "outputs": [
        {
          "internalType": "string",
          "name": "",
          "type": "string"
        }
      ],
      "stateMutability": "view",
      "type": "function"
    },
    {
      "inputs": [],
      "name": "locked_stake_time_for_max_multiplier",
      "outputs": [
        {
          "internalType": "uint256",
          "name": "",
          "type": "uint256"
        }
      ],
      "stateMutability": "view",
      "type": "function"
    },
    {
      "inputs": [
        {
          "internalType": "address",
          "name": "_owner",
          "type": "address"
        }
      ],
      "name": "nominateNewOwner",
      "outputs": [],
      "stateMutability": "nonpayable",
      "type": "function"
    },
    {
      "inputs": [],
      "name": "nominatedOwner",
      "outputs": [
        {
          "internalType": "address",
          "name": "",
          "type": "address"
        }
      ],
      "stateMutability": "view",
      "type": "function"
    },
    {
      "inputs": [],
      "name": "owner",
      "outputs": [
        {
          "internalType": "address",
          "name": "",
          "type": "address"
        }
      ],
      "stateMutability": "view",
      "type": "function"
    },
    {
      "inputs": [],
      "name": "owner_address",
      "outputs": [
        {
          "internalType": "address",
          "name": "",
          "type": "address"
        }
      ],
      "stateMutability": "view",
      "type": "function"
    },
    {
      "inputs": [],
      "name": "paused",
      "outputs": [
        {
          "internalType": "bool",
          "name": "",
          "type": "bool"
        }
      ],
      "stateMutability": "view",
      "type": "function"
    },
    {
      "inputs": [],
      "name": "periodFinish",
      "outputs": [
        {
          "internalType": "uint256",
          "name": "",
          "type": "uint256"
        }
      ],
      "stateMutability": "view",
      "type": "function"
    },
    {
      "inputs": [],
      "name": "pool_weight",
      "outputs": [
        {
          "internalType": "uint256",
          "name": "",
          "type": "uint256"
        }
      ],
      "stateMutability": "view",
      "type": "function"
    },
    {
      "inputs": [],
      "name": "rewardPerTokenStored",
      "outputs": [
        {
          "internalType": "uint256",
          "name": "",
          "type": "uint256"
        }
      ],
      "stateMutability": "view",
      "type": "function"
    },
    {
      "inputs": [],
      "name": "rewardRate",
      "outputs": [
        {
          "internalType": "uint256",
          "name": "",
          "type": "uint256"
        }
      ],
      "stateMutability": "view",
      "type": "function"
    },
    {
      "inputs": [
        {
          "internalType": "address",
          "name": "",
          "type": "address"
        }
      ],
      "name": "rewards",
      "outputs": [
        {
          "internalType": "uint256",
          "name": "",
          "type": "uint256"
        }
      ],
      "stateMutability": "view",
      "type": "function"
    },
    {
      "inputs": [],
      "name": "rewardsDistribution",
      "outputs": [
        {
          "internalType": "address",
          "name": "",
          "type": "address"
        }
      ],
      "stateMutability": "view",
      "type": "function"
    },
    {
      "inputs": [],
      "name": "rewardsDuration",
      "outputs": [
        {
          "internalType": "uint256",
          "name": "",
          "type": "uint256"
        }
      ],
      "stateMutability": "view",
      "type": "function"
    },
    {
      "inputs": [],
      "name": "rewardsToken",
      "outputs": [
        {
          "internalType": "contract ERC20",
          "name": "",
          "type": "address"
        }
      ],
      "stateMutability": "view",
      "type": "function"
    },
    {
      "inputs": [
        {
          "internalType": "bool",
          "name": "_paused",
          "type": "bool"
        }
      ],
      "name": "setPaused",
      "outputs": [],
      "stateMutability": "nonpayable",
      "type": "function"
    },
    {
      "inputs": [
        {
          "internalType": "address",
          "name": "_rewardsDistribution",
          "type": "address"
        }
      ],
      "name": "setRewardsDistribution",
      "outputs": [],
      "stateMutability": "nonpayable",
      "type": "function"
    },
    {
      "inputs": [],
      "name": "stakingToken",
      "outputs": [
        {
          "internalType": "contract ERC20",
          "name": "",
          "type": "address"
        }
      ],
      "stateMutability": "view",
      "type": "function"
    },
    {
      "inputs": [],
      "name": "timelock_address",
      "outputs": [
        {
          "internalType": "address",
          "name": "",
          "type": "address"
        }
      ],
      "stateMutability": "view",
      "type": "function"
    },
    {
      "inputs": [],
      "name": "unlockedStakes",
      "outputs": [
        {
          "internalType": "bool",
          "name": "",
          "type": "bool"
        }
      ],
      "stateMutability": "view",
      "type": "function"
    },
    {
      "inputs": [
        {
          "internalType": "address",
          "name": "",
          "type": "address"
        }
      ],
      "name": "userRewardPerTokenPaid",
      "outputs": [
        {
          "internalType": "uint256",
          "name": "",
          "type": "uint256"
        }
      ],
      "stateMutability": "view",
      "type": "function"
    },
    {
      "inputs": [],
      "name": "totalSupply",
      "outputs": [
        {
          "internalType": "uint256",
          "name": "",
          "type": "uint256"
        }
      ],
      "stateMutability": "view",
      "type": "function"
    },
    {
      "inputs": [],
      "name": "totalBoostedSupply",
      "outputs": [
        {
          "internalType": "uint256",
          "name": "",
          "type": "uint256"
        }
      ],
      "stateMutability": "view",
      "type": "function"
    },
    {
      "inputs": [
        {
          "internalType": "uint256",
          "name": "secs",
          "type": "uint256"
        }
      ],
      "name": "stakingMultiplier",
      "outputs": [
        {
          "internalType": "uint256",
          "name": "",
          "type": "uint256"
        }
      ],
      "stateMutability": "view",
      "type": "function"
    },
    {
      "inputs": [],
      "name": "crBoostMultiplier",
      "outputs": [
        {
          "internalType": "uint256",
          "name": "",
          "type": "uint256"
        }
      ],
      "stateMutability": "view",
      "type": "function"
    },
    {
      "inputs": [
        {
          "internalType": "address",
          "name": "account",
          "type": "address"
        }
      ],
      "name": "balanceOf",
      "outputs": [
        {
          "internalType": "uint256",
          "name": "",
          "type": "uint256"
        }
      ],
      "stateMutability": "view",
      "type": "function"
    },
    {
      "inputs": [
        {
          "internalType": "address",
          "name": "account",
          "type": "address"
        }
      ],
      "name": "unlockedBalanceOf",
      "outputs": [
        {
          "internalType": "uint256",
          "name": "",
          "type": "uint256"
        }
      ],
      "stateMutability": "view",
      "type": "function"
    },
    {
      "inputs": [
        {
          "internalType": "address",
          "name": "account",
          "type": "address"
        }
      ],
      "name": "lockedBalanceOf",
      "outputs": [
        {
          "internalType": "uint256",
          "name": "",
          "type": "uint256"
        }
      ],
      "stateMutability": "view",
      "type": "function"
    },
    {
      "inputs": [
        {
          "internalType": "address",
          "name": "account",
          "type": "address"
        }
      ],
      "name": "boostedBalanceOf",
      "outputs": [
        {
          "internalType": "uint256",
          "name": "",
          "type": "uint256"
        }
      ],
      "stateMutability": "view",
      "type": "function"
    },
    {
      "inputs": [
        {
          "internalType": "address",
          "name": "account",
          "type": "address"
        }
      ],
      "name": "lockedStakesOf",
      "outputs": [
        {
          "components": [
            {
              "internalType": "bytes32",
              "name": "kek_id",
              "type": "bytes32"
            },
            {
              "internalType": "uint256",
              "name": "start_timestamp",
              "type": "uint256"
            },
            {
              "internalType": "uint256",
              "name": "amount",
              "type": "uint256"
            },
            {
              "internalType": "uint256",
              "name": "ending_timestamp",
              "type": "uint256"
            },
            {
              "internalType": "uint256",
              "name": "multiplier",
              "type": "uint256"
            }
          ],
          "internalType": "struct StakingRewards.LockedStake[]",
          "name": "",
          "type": "tuple[]"
        }
      ],
      "stateMutability": "view",
      "type": "function"
    },
    {
      "inputs": [],
      "name": "stakingDecimals",
      "outputs": [
        {
          "internalType": "uint256",
          "name": "",
          "type": "uint256"
        }
      ],
      "stateMutability": "view",
      "type": "function"
    },
    {
      "inputs": [
        {
          "internalType": "address",
          "name": "account",
          "type": "address"
        }
      ],
      "name": "rewardsFor",
      "outputs": [
        {
          "internalType": "uint256",
          "name": "",
          "type": "uint256"
        }
      ],
      "stateMutability": "view",
      "type": "function"
    },
    {
      "inputs": [],
      "name": "lastTimeRewardApplicable",
      "outputs": [
        {
          "internalType": "uint256",
          "name": "",
          "type": "uint256"
        }
      ],
      "stateMutability": "view",
      "type": "function"
    },
    {
      "inputs": [],
      "name": "rewardPerToken",
      "outputs": [
        {
          "internalType": "uint256",
          "name": "",
          "type": "uint256"
        }
      ],
      "stateMutability": "view",
      "type": "function"
    },
    {
      "inputs": [
        {
          "internalType": "address",
          "name": "account",
          "type": "address"
        }
      ],
      "name": "earned",
      "outputs": [
        {
          "internalType": "uint256",
          "name": "",
          "type": "uint256"
        }
      ],
      "stateMutability": "view",
      "type": "function"
    },
    {
      "inputs": [],
      "name": "getRewardForDuration",
      "outputs": [
        {
          "internalType": "uint256",
          "name": "",
          "type": "uint256"
        }
      ],
      "stateMutability": "view",
      "type": "function"
    },
    {
      "inputs": [
        {
          "internalType": "uint256",
          "name": "amount",
          "type": "uint256"
        }
      ],
      "name": "stake",
      "outputs": [],
      "stateMutability": "nonpayable",
      "type": "function"
    },
    {
      "inputs": [
        {
          "internalType": "uint256",
          "name": "amount",
          "type": "uint256"
        },
        {
          "internalType": "uint256",
          "name": "secs",
          "type": "uint256"
        }
      ],
      "name": "stakeLocked",
      "outputs": [],
      "stateMutability": "nonpayable",
      "type": "function"
    },
    {
      "inputs": [
        {
          "internalType": "uint256",
          "name": "amount",
          "type": "uint256"
        }
      ],
      "name": "withdraw",
      "outputs": [],
      "stateMutability": "nonpayable",
      "type": "function"
    },
    {
      "inputs": [
        {
          "internalType": "bytes32",
          "name": "kek_id",
          "type": "bytes32"
        }
      ],
      "name": "withdrawLocked",
      "outputs": [],
      "stateMutability": "nonpayable",
      "type": "function"
    },
    {
      "inputs": [],
      "name": "getReward",
      "outputs": [],
      "stateMutability": "nonpayable",
      "type": "function"
    },
    {
      "inputs": [],
      "name": "renewIfApplicable",
      "outputs": [],
      "stateMutability": "nonpayable",
      "type": "function"
    },
    {
      "inputs": [],
      "name": "rewardsToken_balance",
      "outputs": [
        {
          "internalType": "uint256",
          "name": "",
          "type": "uint256"
        }
      ],
      "stateMutability": "view",
      "type": "function"
    },
    {
      "inputs": [
        {
          "internalType": "address",
          "name": "tokenAddress",
          "type": "address"
        },
        {
          "internalType": "uint256",
          "name": "tokenAmount",
          "type": "uint256"
        }
      ],
      "name": "recoverERC20",
      "outputs": [],
      "stateMutability": "nonpayable",
      "type": "function"
    },
    {
      "inputs": [
        {
          "internalType": "uint256",
          "name": "_rewardsDuration",
          "type": "uint256"
        }
      ],
      "name": "setRewardsDuration",
      "outputs": [],
      "stateMutability": "nonpayable",
      "type": "function"
    },
    {
      "inputs": [
        {
          "internalType": "uint256",
          "name": "_locked_stake_max_multiplier",
          "type": "uint256"
        },
        {
          "internalType": "uint256",
          "name": "_cr_boost_max_multiplier",
          "type": "uint256"
        }
      ],
      "name": "setMultipliers",
      "outputs": [],
      "stateMutability": "nonpayable",
      "type": "function"
    },
    {
      "inputs": [
        {
          "internalType": "uint256",
          "name": "_locked_stake_time_for_max_multiplier",
          "type": "uint256"
        },
        {
          "internalType": "uint256",
          "name": "_locked_stake_min_time",
          "type": "uint256"
        }
      ],
      "name": "setLockedStakeTimeForMinAndMaxMultiplier",
      "outputs": [],
      "stateMutability": "nonpayable",
      "type": "function"
    },
    {
      "inputs": [],
      "name": "initializeDefault",
      "outputs": [],
      "stateMutability": "nonpayable",
      "type": "function"
    },
    {
      "inputs": [
        {
          "internalType": "address",
          "name": "_address",
          "type": "address"
        }
      ],
      "name": "greylistAddress",
      "outputs": [],
      "stateMutability": "nonpayable",
      "type": "function"
    },
    {
      "inputs": [],
      "name": "unlockStakes",
      "outputs": [],
      "stateMutability": "nonpayable",
      "type": "function"
    },
    {
      "inputs": [
        {
          "internalType": "uint256",
          "name": "_new_rate",
          "type": "uint256"
        }
      ],
      "name": "setRewardRate",
      "outputs": [],
      "stateMutability": "nonpayable",
      "type": "function"
    },
    {
      "inputs": [
        {
          "internalType": "uint256",
          "name": "_periodFinish",
          "type": "uint256"
        }
      ],
      "name": "setPeriodFinish",
      "outputs": [],
      "stateMutability": "nonpayable",
      "type": "function"
    },
    {
      "inputs": [
        {
          "internalType": "address",
          "name": "_owner_address",
          "type": "address"
        }
      ],
      "name": "setOwner",
      "outputs": [],
      "stateMutability": "nonpayable",
      "type": "function"
    },
    {
      "inputs": [
        {
          "internalType": "address",
          "name": "_timelock_address",
          "type": "address"
        }
      ],
      "name": "setTimelock",
      "outputs": [],
      "stateMutability": "nonpayable",
      "type": "function"
    }
  ],
  "bytecode": "0x62093a80600a8190556000600c55622dc6c06010556305a39a8060115560125560c0604052600660808190526503630343830360d41b60a0908152620000499160139190620002e8565b50622dc6c0601455600060175560006018553480156200006857600080fd5b5060405162004468380380620044688339810160408190526200008b916200039c565b866001600160a01b038116620000be5760405162461bcd60e51b8152600401620000b59062000509565b60405180910390fd5b600080546001600160a01b0319166001600160a01b0383161781556040517fb532073b38c83145e3e5135377a08bf9aab55bc0fd7c1179cd4fb995d2a5159c916200010b9184906200042d565b60405180910390a15060016003556000546001600160a01b0316620001445760405162461bcd60e51b8152600401620000b590620004de565b600e80546001600160a01b03199081166001600160a01b038a81169190911790925560068054821688841617905560078054821687841617905560058054610100600160a81b0319166101008785160217905560028054821689841617905542600b55600f8054909116918416919091179055600d819055660d84c95a7385a66009819055620001ff90620f424090620001eb90846200021a602090811b62002cde17901c565b6200026360201b62002d3b1790919060201c565b6009555050601e805460ff1916905550620005409350505050565b6000826200022b575060006200025d565b828202828482816200023957fe5b04146200025a5760405162461bcd60e51b8152600401620000b5906200049d565b90505b92915050565b60006200025a83836040518060400160405280601a81526020017f536166654d6174683a206469766973696f6e206279207a65726f000000000000815250620002ad60201b60201c565b60008183620002d15760405162461bcd60e51b8152600401620000b5919062000447565b506000838581620002de57fe5b0495945050505050565b828054600181600116156101000203166002900490600052602060002090601f016020900481019282601f106200032b57805160ff19168380011785556200035b565b828001600101855582156200035b579182015b828111156200035b5782518255916020019190600101906200033e565b50620003699291506200036d565b5090565b5b808211156200036957600081556001016200036e565b80516001600160a01b03811681146200025d57600080fd5b600080600080600080600060e0888a031215620003b7578283fd5b620003c3898962000384565b9650620003d48960208a0162000384565b9550620003e58960408a0162000384565b9450620003f68960608a0162000384565b9350620004078960808a0162000384565b9250620004188960a08a0162000384565b915060c0880151905092959891949750929550565b6001600160a01b0392831681529116602082015260400190565b6000602080835283518082850152825b81811015620004755785810183015185820160400152820162000457565b81811115620004875783604083870101525b50601f01601f1916929092016040019392505050565b60208082526021908201527f536166654d6174683a206d756c7469706c69636174696f6e206f766572666c6f6040820152607760f81b606082015260800190565b60208082526011908201527013dddb995c881b5d5cdd081899481cd95d607a1b604082015260600190565b60208082526019908201527f4f776e657220616464726573732063616e6e6f74206265203000000000000000604082015260600190565b613f1880620005506000396000f3fe608060405234801561001057600080fd5b50600436106103cf5760003560e01c806384955c88116101ff578063c11f53441161011a578063df136d65116100ad578063ebe2b12b1161007c578063ebe2b12b1461071c578063f97136af14610637578063fd7379e114610724578063fee2eae614610739576103cf565b8063df136d65146106f1578063df4e4e58146106f9578063e0c18f701461070c578063e1ba95d214610714576103cf565b8063ce08bf13116100e9578063ce08bf13146106d1578063d1af0c7d146106d9578063d4b91f55146106e1578063dc6663c7146106e9576103cf565b8063c11f5344146106a6578063c8f33c91146106ae578063cc1a378f146106b6578063cd3daf9d146106c9576103cf565b8063948de6ad11610192578063af00f4e211610161578063af00f4e214610665578063b442927f14610678578063b51f790214610680578063bdacb30314610693576103cf565b8063948de6ad1461062f57806395082d25146106375780639e447fc61461063f578063a694fc3a14610652576103cf565b806391b4ded9116101ce57806391b4ded91461060457806393b52be81461060c578063941d9f65146106145780639477eb1c14610627576103cf565b806384955c88146105c35780638980f11f146105d65780638b876347146105e95780638da5cb5b146105fc576103cf565b8063386a9525116102ef5780635c975abb1161028257806379ba50971161025157806379ba5097146105a35780637b0a47ee146105ab57806380edef8e146105b357806380faa57d146105bb576103cf565b80635c975abb1461056d5780636f50f5071461057557806370a082311461058857806372f702f31461059b576103cf565b80634f232d50116102be5780634f232d501461052c57806351e3fc171461053f57806353a47bb714610552578063593557361461055a576103cf565b8063386a9525146104ff578063399f5467146105075780633d18b9121461050f5780633fc6df6e14610517576103cf565b806318160ddd116103675780631e090f01116103365780631e090f01146104a45780632e1a7d4d146104c4578063306792ea146104d757806331ca208c146104df576103cf565b806318160ddd1461046e57806319762143146104765780631beabcd2146104895780631c1f78eb1461049c576103cf565b80631627540c116103a35780631627540c1461042d578063169d27ef1461044057806316c38b3c1461044857806317b18c891461045b576103cf565b80628cc262146103d45780630700037d146103fd5780630dda72991461041057806313af403514610418575b600080fd5b6103e76103e2366004613571565b610741565b6040516103f49190613ebd565b60405180910390f35b6103e761040b366004613571565b6107db565b6103e76107ed565b61042b610426366004613571565b6107f4565b005b61042b61043b366004613571565b6108b7565b61042b610983565b61042b6104563660046135b6565b610a37565b61042b61046936600461361e565b610b13565b6103e76110b5565b61042b610484366004613571565b6110bb565b6103e7610497366004613571565b611153565b6103e761117b565b6104b76104b2366004613571565b6111a9565b6040516103f4919061373c565b61042b6104d23660046135ee565b61125d565b6103e76114d9565b6104f26104ed366004613571565b6114df565b6040516103f491906137aa565b6103e76114f4565b6104f26114fa565b61042b611503565b61051f6116f5565b6040516103f4919061369d565b6103e761053a3660046135ee565b611711565b61042b61054d3660046135ee565b61175f565b61051f611b7b565b6103e7610568366004613571565b611b97565b6104f2611bbf565b61042b61058336600461361e565b611bc8565b6103e7610596366004613571565b611d30565b61051f611d6a565b61042b611d86565b6103e7611e7b565b61051f611e81565b6103e7611e9d565b6103e76105d1366004613571565b611eab565b61042b6105e436600461358c565b611ed3565b6103e76105f7366004613571565b61204c565b61051f61205e565b6103e761207a565b6103e7612080565b61042b610622366004613571565b61215b565b6103e7612222565b6103e7612228565b6103e761222e565b61042b61064d3660046135ee565b612235565b61042b6106603660046135ee565b6122ad565b61042b61067336600461361e565b61258e565b61051f612707565b6103e761068e366004613571565b612728565b61042b6106a1366004613571565b612750565b6103e761280a565b6103e76128b5565b61042b6106c43660046135ee565b6128bb565b6103e76129a9565b6103e7612a0a565b61051f612a10565b6103e7612a2c565b61051f612ad3565b6103e7612aef565b61042b6107073660046135ee565b612af5565b6103e7612b6d565b61042b612b73565b6103e7612c18565b61072c612c1e565b6040516103f491906137b5565b61042b612cca565b73ffffffffffffffffffffffffffffffffffffffff811660009081526016602090815260408083205460159092528220546107d391906107cd90670de0b6b3a7640000906107c79061079b906107956129a9565b90612d7d565b73ffffffffffffffffffffffffffffffffffffffff88166000908152601b602052604090205490612cde565b90612d3b565b90612dbf565b90505b919050565b60166020526000908152604090205481565b6018545b90565b600e5473ffffffffffffffffffffffffffffffffffffffff163314806108315750600f5473ffffffffffffffffffffffffffffffffffffffff1633145b610870576040517f08c379a000000000000000000000000000000000000000000000000000000000815260040161086790613a76565b60405180910390fd5b600e80547fffffffffffffffffffffffff00000000000000000000000000000000000000001673ffffffffffffffffffffffffffffffffffffffff92909216919091179055565b60005473ffffffffffffffffffffffffffffffffffffffff163314610908576040517f08c379a000000000000000000000000000000000000000000000000000000000815260040161086790613b30565b600180547fffffffffffffffffffffffff00000000000000000000000000000000000000001673ffffffffffffffffffffffffffffffffffffffff83161790556040517f906a1c6bd7e3091ea86693dd029a831c19049ce77f1dce2ce0bab1cacbabce229061097890839061369d565b60405180910390a150565b600e5473ffffffffffffffffffffffffffffffffffffffff163314806109c05750600f5473ffffffffffffffffffffffffffffffffffffffff1633145b6109f6576040517f08c379a000000000000000000000000000000000000000000000000000000000815260040161086790613a76565b42600b819055600a54610a099190612dbf565b6008556040517fb5cfe3ccd03847076864f081609024cbc2eb98c38da4d8b2cebe9479a9a1ef3790600090a1565b60005473ffffffffffffffffffffffffffffffffffffffff163314610a88576040517f08c379a000000000000000000000000000000000000000000000000000000000815260040161086790613b30565b60055460ff1615158115151415610a9e57610b10565b600580547fffffffffffffffffffffffffffffffffffffffffffffffffffffffffffffff0016821515179081905560ff1615610ad957426004555b6005546040517f8fb6c181ee25a520cf3dd6565006ef91229fcfe5a989566c2a3b8c115570cec5916109789160ff909116906137aa565b50565b60026003541415610b50576040517f08c379a000000000000000000000000000000000000000000000000000000000815260040161086790613dcc565b600260035560055460ff1615610b92576040517f08c379a000000000000000000000000000000000000000000000000000000000815260040161086790613c21565b33600854421115610baa57610ba5612dfe565b610bc1565b610bb26129a9565b600c55610bbd611e9d565b600b555b73ffffffffffffffffffffffffffffffffffffffff811615610c1f57610be681610741565b73ffffffffffffffffffffffffffffffffffffffff8216600090815260166020908152604080832093909355600c546015909152919020555b60008311610c59576040517f08c379a0000000000000000000000000000000000000000000000000000000008152600401610867906139d1565b60008211610c93576040517f08c379a000000000000000000000000000000000000000000000000000000000815260040161086790613e03565b336000908152601d602052604090205460ff1615610cdd576040517f08c379a000000000000000000000000000000000000000000000000000000000815260040161086790613826565b601254604080518082018252601c81527f4d696e696d756d207374616b652074696d65206e6f74206d6574202800000000602080830191909152601380548451601f60027fffffffffffffffffffffffffffffffffffffffffffffffffffffffffffffffff61010060018616150201909316929092049182018490048402810184019095528085529487101594610e009492830182828015610dc05780601f10610d9557610100808354040283529160200191610dc0565b820191906000526020600020905b815481529060010190602001808311610da357829003601f168201915b50505050506040518060400160405280600181526020017f2900000000000000000000000000000000000000000000000000000000000000815250612fdf565b90610e38576040517f08c379a000000000000000000000000000000000000000000000000000000000815260040161086791906137b5565b50601154821115610e75576040517f08c379a000000000000000000000000000000000000000000000000000000000815260040161086790613ad3565b6000610e8083611711565b90506000610e95620f42406107c78785612cde565b336000818152601c602052604090819020815160a08101909252929350908190610ec490428a60c08501613660565b604051602081830303815290604052805190602001208152602001428152602001878152602001610efe8742612dbf90919063ffffffff16565b815260209081018590528254600181810185556000948552938290208351600590920201908155908201519281019290925560408082015160028401556060820151600384015560809091015160049283015560075490517f23b872dd00000000000000000000000000000000000000000000000000000000815273ffffffffffffffffffffffffffffffffffffffff909116916323b872dd91610fa891339130918b91016136be565b602060405180830381600087803b158015610fc257600080fd5b505af1158015610fd6573d6000803e3d6000fd5b505050506040513d601f19601f82011682018060405250810190610ffa91906135d2565b506017546110089086612dbf565b6017556018546110189082612dbf565b601855336000908152601a60205260409020546110359086612dbf565b336000908152601a6020908152604080832093909355601b9052205461105b9082612dbf565b336000818152601b6020526040908190209290925590517fa5ae833d0bb1dcd632d98a8b70973e8516812898e19bf27b70071ebc8dc52c01906110a19088908890613ec6565b60405180910390a250506001600355505050565b60175490565b60005473ffffffffffffffffffffffffffffffffffffffff16331461110c576040517f08c379a000000000000000000000000000000000000000000000000000000000815260040161086790613b30565b600280547fffffffffffffffffffffffff00000000000000000000000000000000000000001673ffffffffffffffffffffffffffffffffffffffff92909216919091179055565b73ffffffffffffffffffffffffffffffffffffffff166000908152601b602052604090205490565b60006111a4620f42406107c761118f612080565b600a5460095461119e91612cde565b90612cde565b905090565b73ffffffffffffffffffffffffffffffffffffffff81166000908152601c60209081526040808320805482518185028101850190935280835260609492939192909184015b8282101561125257838290600052602060002090600502016040518060a001604052908160008201548152602001600182015481526020016002820154815260200160038201548152602001600482015481525050815260200190600101906111ee565b505050509050919050565b6002600354141561129a576040517f08c379a000000000000000000000000000000000000000000000000000000000815260040161086790613dcc565b600260035560085433904211156112b8576112b3612dfe565b6112cf565b6112c06129a9565b600c556112cb611e9d565b600b555b73ffffffffffffffffffffffffffffffffffffffff81161561132d576112f481610741565b73ffffffffffffffffffffffffffffffffffffffff8216600090815260166020908152604080832093909355600c546015909152919020555b60008211611367576040517f08c379a000000000000000000000000000000000000000000000000000000000815260040161086790613b8d565b336000908152601960205260409020546113819083612d7d565b33600090815260196020908152604080832093909355601b905220546113a79083612d7d565b336000908152601b60205260409020556017546113c49083612d7d565b6017556018546113d49083612d7d565b6018556007546040517fa9059cbb00000000000000000000000000000000000000000000000000000000815273ffffffffffffffffffffffffffffffffffffffff9091169063a9059cbb9061142f90339086906004016136ef565b602060405180830381600087803b15801561144957600080fd5b505af115801561145d573d6000803e3d6000fd5b505050506040513d601f19601f8201168201806040525081019061148191906135d2565b503373ffffffffffffffffffffffffffffffffffffffff167f7084f5476618d8e60b11ef0d7d3f06914655adb8793e28ff7f018d4c76d505d5836040516114c89190613ebd565b60405180910390a250506001600355565b600d5481565b601d6020526000908152604090205460ff1681565b600a5481565b601e5460ff1681565b60026003541415611540576040517f08c379a000000000000000000000000000000000000000000000000000000000815260040161086790613dcc565b6002600355600854339042111561155e57611559612dfe565b611575565b6115666129a9565b600c55611571611e9d565b600b555b73ffffffffffffffffffffffffffffffffffffffff8116156115d35761159a81610741565b73ffffffffffffffffffffffffffffffffffffffff8216600090815260166020908152604080832093909355600c546015909152919020555b3360009081526016602052604090205480156116ec57336000818152601660205260408082209190915560065490517fa9059cbb00000000000000000000000000000000000000000000000000000000815273ffffffffffffffffffffffffffffffffffffffff9091169163a9059cbb91611653919085906004016136ef565b602060405180830381600087803b15801561166d57600080fd5b505af1158015611681573d6000803e3d6000fd5b505050506040513d601f19601f820116820180604052508101906116a591906135d2565b503373ffffffffffffffffffffffffffffffffffffffff167fe2403640ba68fed3a2f88b7557551d1993f84b99bb10ff833f0cf8db0c5e0486826040516114c89190613ebd565b50506001600355565b60025473ffffffffffffffffffffffffffffffffffffffff1681565b60008061174961173f6011546107c7611738620f4240601054612d7d90919063ffffffff16565b8790612cde565b620f424090612dbf565b90506010548111156107d3575060105492915050565b6002600354141561179c576040517f08c379a000000000000000000000000000000000000000000000000000000000815260040161086790613dcc565b600260035560085433904211156117ba576117b5612dfe565b6117d1565b6117c26129a9565b600c556117cd611e9d565b600b555b73ffffffffffffffffffffffffffffffffffffffff81161561182f576117f681610741565b73ffffffffffffffffffffffffffffffffffffffff8216600090815260166020908152604080832093909355600c546015909152919020555b611837613488565b600060408201819052805b336000908152601c602052604090205481101561190557336000908152601c6020526040902080548290811061187457fe5b9060005260206000209060050201600001548514156118fd57336000908152601c602052604090208054829081106118a857fe5b90600052602060002090600502016040518060a0016040529081600082015481526020016001820154815260200160028201548152602001600382015481526020016004820154815250509250809150611905565b600101611842565b5081518414611940576040517f08c379a000000000000000000000000000000000000000000000000000000000815260040161086790613cdb565b81606001514210158061195a5750601e5460ff1615156001145b611990576040517f08c379a00000000000000000000000000000000000000000000000000000000081526004016108679061393d565b604082015160808301516000906119b190620f4240906107c7908590612cde565b90508115611b6e57336000908152601a60205260409020546119d39083612d7d565b336000908152601a6020908152604080832093909355601b905220546119f99082612d7d565b336000908152601b6020526040902055601754611a169083612d7d565b601755601854611a269082612d7d565b601855336000908152601c60205260409020805484908110611a4457fe5b6000918252602082206005909102018181556001810182905560028101829055600381018290556004908101919091556007546040517fa9059cbb00000000000000000000000000000000000000000000000000000000815273ffffffffffffffffffffffffffffffffffffffff9091169163a9059cbb91611aca9133918791016136ef565b602060405180830381600087803b158015611ae457600080fd5b505af1158015611af8573d6000803e3d6000fd5b505050506040513d601f19601f82011682018060405250810190611b1c91906135d2565b503373ffffffffffffffffffffffffffffffffffffffff167f1f70bda8ea2447de035db87c33fe8f03f7514d49c394293e5cffdb4c34352cf68388604051611b65929190613ec6565b60405180910390a25b5050600160035550505050565b60015473ffffffffffffffffffffffffffffffffffffffff1681565b73ffffffffffffffffffffffffffffffffffffffff166000908152601a602052604090205490565b60055460ff1681565b600e5473ffffffffffffffffffffffffffffffffffffffff16331480611c055750600f5473ffffffffffffffffffffffffffffffffffffffff1633145b611c3b576040517f08c379a000000000000000000000000000000000000000000000000000000000815260040161086790613a76565b6001821015611c76576040517f08c379a000000000000000000000000000000000000000000000000000000000815260040161086790613c7e565b6001811015611cb1576040517f08c379a000000000000000000000000000000000000000000000000000000000815260040161086790613d6f565b601082905560148190556040517f687125c69e38f71137de9edade0dac562abc4f76d751bb1330f16c0ffd51fd5890611ceb908390613ebd565b60405180910390a17fa1676084a9eea08c6f205b60799323b364a1bd8e10aba89f0fbd94cfbf68b5dd601054604051611d249190613ebd565b60405180910390a15050565b73ffffffffffffffffffffffffffffffffffffffff81166000908152601a602090815260408083205460199092528220546107d391612dbf565b60075473ffffffffffffffffffffffffffffffffffffffff1681565b60015473ffffffffffffffffffffffffffffffffffffffff163314611dd7576040517f08c379a0000000000000000000000000000000000000000000000000000000008152600401610867906138e0565b6000546001546040517fb532073b38c83145e3e5135377a08bf9aab55bc0fd7c1179cd4fb995d2a5159c92611e279273ffffffffffffffffffffffffffffffffffffffff91821692911690613715565b60405180910390a160018054600080547fffffffffffffffffffffffff000000000000000000000000000000000000000090811673ffffffffffffffffffffffffffffffffffffffff841617909155169055565b60095481565b600e5473ffffffffffffffffffffffffffffffffffffffff1681565b60006111a442600854613014565b73ffffffffffffffffffffffffffffffffffffffff1660009081526019602052604090205490565b600e5473ffffffffffffffffffffffffffffffffffffffff16331480611f105750600f5473ffffffffffffffffffffffffffffffffffffffff1633145b611f46576040517f08c379a000000000000000000000000000000000000000000000000000000000815260040161086790613a76565b60075473ffffffffffffffffffffffffffffffffffffffff83811691161415611f6e57600080fd5b600e546040517fa9059cbb00000000000000000000000000000000000000000000000000000000815273ffffffffffffffffffffffffffffffffffffffff8481169263a9059cbb92611fc8929091169085906004016136ef565b602060405180830381600087803b158015611fe257600080fd5b505af1158015611ff6573d6000803e3d6000fd5b505050506040513d601f19601f8201168201806040525081019061201a91906135d2565b507f8c1256b8896378cd5044f80c202f9772b9d77dc85c8a6eb51967210b09bfaa288282604051611d249291906136ef565b60156020526000908152604090205481565b60005473ffffffffffffffffffffffffffffffffffffffff1681565b60045481565b60008061215561173f620f42406107c76120a8620f4240601454612d7d90919063ffffffff16565b61119e600560019054906101000a900473ffffffffffffffffffffffffffffffffffffffff1673ffffffffffffffffffffffffffffffffffffffff16632eb9771b6040518163ffffffff1660e01b815260040160206040518083038186803b15801561211357600080fd5b505afa158015612127573d6000803e3d6000fd5b505050506040513d601f19601f8201168201806040525081019061214b9190613606565b620f424090612d7d565b91505090565b600e5473ffffffffffffffffffffffffffffffffffffffff163314806121985750600f5473ffffffffffffffffffffffffffffffffffffffff1633145b6121ce576040517f08c379a000000000000000000000000000000000000000000000000000000000815260040161086790613a76565b73ffffffffffffffffffffffffffffffffffffffff166000908152601d6020526040902080547fffffffffffffffffffffffffffffffffffffffffffffffffffffffffffffff00811660ff90911615179055565b60125481565b60105481565b620f424081565b600e5473ffffffffffffffffffffffffffffffffffffffff163314806122725750600f5473ffffffffffffffffffffffffffffffffffffffff1633145b6122a8576040517f08c379a000000000000000000000000000000000000000000000000000000000815260040161086790613a76565b600955565b600260035414156122ea576040517f08c379a000000000000000000000000000000000000000000000000000000000815260040161086790613dcc565b600260035560055460ff161561232c576040517f08c379a000000000000000000000000000000000000000000000000000000000815260040161086790613c21565b336008544211156123445761233f612dfe565b61235b565b61234c6129a9565b600c55612357611e9d565b600b555b73ffffffffffffffffffffffffffffffffffffffff8116156123b95761238081610741565b73ffffffffffffffffffffffffffffffffffffffff8216600090815260166020908152604080832093909355600c546015909152919020555b600082116123f3576040517f08c379a0000000000000000000000000000000000000000000000000000000008152600401610867906139d1565b336000908152601d602052604090205460ff161561243d576040517f08c379a000000000000000000000000000000000000000000000000000000000815260040161086790613826565b6007546040517f23b872dd00000000000000000000000000000000000000000000000000000000815273ffffffffffffffffffffffffffffffffffffffff909116906323b872dd90612497903390309087906004016136be565b602060405180830381600087803b1580156124b157600080fd5b505af11580156124c5573d6000803e3d6000fd5b505050506040513d601f19601f820116820180604052508101906124e991906135d2565b506017546124f79083612dbf565b6017556018546125079083612dbf565b601855336000908152601960205260409020546125249083612dbf565b33600090815260196020908152604080832093909355601b9052205461254a9083612dbf565b336000818152601b6020526040908190209290925590517f9e71bc8eea02a63969f509818f2dafb9254532904319f9dbda79b67bd34a5f3d906114c8908590613ebd565b600e5473ffffffffffffffffffffffffffffffffffffffff163314806125cb5750600f5473ffffffffffffffffffffffffffffffffffffffff1633145b612601576040517f08c379a000000000000000000000000000000000000000000000000000000000815260040161086790613a76565b600182101561263c576040517f08c379a000000000000000000000000000000000000000000000000000000000815260040161086790613d12565b6001811015612677576040517f08c379a000000000000000000000000000000000000000000000000000000000815260040161086790613e60565b6011829055601281905561268a8161302a565b805161269e916013916020909101906134ba565b507f0e3e3fae480c6f92291358a02bc83f04ee1971d5488596bffda7929d57ab470f6011546040516126d09190613ebd565b60405180910390a17f0534d208d75dfdbfacc1204745dd9b3c4c37e8cfc05eb5e8e3ae538aedb0a9fa81604051611d249190613ebd565b600554610100900473ffffffffffffffffffffffffffffffffffffffff1681565b73ffffffffffffffffffffffffffffffffffffffff1660009081526016602052604090205490565b600e5473ffffffffffffffffffffffffffffffffffffffff1633148061278d5750600f5473ffffffffffffffffffffffffffffffffffffffff1633145b6127c3576040517f08c379a000000000000000000000000000000000000000000000000000000000815260040161086790613a76565b600f80547fffffffffffffffffffffffff00000000000000000000000000000000000000001673ffffffffffffffffffffffffffffffffffffffff92909216919091179055565b600754604080517f313ce567000000000000000000000000000000000000000000000000000000008152905160009273ffffffffffffffffffffffffffffffffffffffff169163313ce567916004808301926020929190829003018186803b15801561287557600080fd5b505afa158015612889573d6000803e3d6000fd5b505050506040513d601f19601f820116820180604052508101906128ad919061363f565b60ff16905090565b600b5481565b600e5473ffffffffffffffffffffffffffffffffffffffff163314806128f85750600f5473ffffffffffffffffffffffffffffffffffffffff1633145b61292e576040517f08c379a000000000000000000000000000000000000000000000000000000000815260040161086790613a76565b600854158061293e575060085442115b612974576040517f08c379a00000000000000000000000000000000000000000000000000000000081526004016108679061385d565b600a8190556040517ffb46ca5a5e06d4540d6387b930a7c978bce0db5f449ec6b3f5d07c6e1d44f2d390610978908390613ebd565b6000601754600014156129bf5750600c546107f1565b612a036129fa6018546107c7620f42406107c7670de0b6b3a764000061119e6129e6612080565b61119e60095461119e600b54610795611e9d565b600c5490612dbf565b90506107f1565b60145481565b60065473ffffffffffffffffffffffffffffffffffffffff1681565b6006546040517f70a0823100000000000000000000000000000000000000000000000000000000815260009173ffffffffffffffffffffffffffffffffffffffff16906370a0823190612a8390309060040161369d565b60206040518083038186803b158015612a9b57600080fd5b505afa158015612aaf573d6000803e3d6000fd5b505050506040513d601f19601f820116820180604052508101906111a49190613606565b600f5473ffffffffffffffffffffffffffffffffffffffff1681565b600c5481565b600e5473ffffffffffffffffffffffffffffffffffffffff16331480612b325750600f5473ffffffffffffffffffffffffffffffffffffffff1633145b612b68576040517f08c379a000000000000000000000000000000000000000000000000000000000815260040161086790613a76565b600855565b60115481565b600e5473ffffffffffffffffffffffffffffffffffffffff16331480612bb05750600f5473ffffffffffffffffffffffffffffffffffffffff1633145b612be6576040517f08c379a000000000000000000000000000000000000000000000000000000000815260040161086790613a76565b601e80547fffffffffffffffffffffffffffffffffffffffffffffffffffffffffffffff00811660ff90911615179055565b60085481565b6013805460408051602060026001851615610100027fffffffffffffffffffffffffffffffffffffffffffffffffffffffffffffffff0190941693909304601f81018490048402820184019092528181529291830182828015612cc25780601f10612c9757610100808354040283529160200191612cc2565b820191906000526020600020905b815481529060010190602001808311612ca557829003601f168201915b505050505081565b600854421115612cdc57612cdc612dfe565b565b600082612ced57506000612d35565b82820282848281612cfa57fe5b0414612d32576040517f08c379a000000000000000000000000000000000000000000000000000000000815260040161086790613bc4565b90505b92915050565b6000612d3283836040518060400160405280601a81526020017f536166654d6174683a206469766973696f6e206279207a65726f000000000000815250613154565b6000612d3283836040518060400160405280601e81526020017f536166654d6174683a207375627472616374696f6e206f766572666c6f7700008152506131a5565b600082820183811015612d32576040517f08c379a000000000000000000000000000000000000000000000000000000000815260040161086790613a08565b6008544211612e39576040517f08c379a000000000000000000000000000000000000000000000000000000000815260040161086790613a3f565b6000600a54612e5360085442612d7d90919063ffffffff16565b81612e5a57fe5b6006546040517f70a0823100000000000000000000000000000000000000000000000000000000815292909104925060009173ffffffffffffffffffffffffffffffffffffffff909116906370a0823190612eb990309060040161369d565b60206040518083038186803b158015612ed157600080fd5b505afa158015612ee5573d6000803e3d6000fd5b505050506040513d601f19601f82011682018060405250810190612f099190613606565b905080612f25620f42406107c78560010161119e61118f612080565b1115612f5d576040517f08c379a000000000000000000000000000000000000000000000000000000000815260040161086790613974565b600a54612f7c90612f739061119e856001612dbf565b60085490612dbf565b600855612f876129a9565b600c55612f92611e9d565b600b556007546040517f6f2b3b3aaf1881d69a5d40565500f93ea73df36e7b6a29bf48b21479a9237fe991611d249173ffffffffffffffffffffffffffffffffffffffff9091169061369d565b606061300c84848460405180602001604052806000815250604051806020016040528060008152506131eb565b949350505050565b60008183106130235781612d32565b5090919050565b60608161306b575060408051808201909152600181527f300000000000000000000000000000000000000000000000000000000000000060208201526107d6565b8160005b811561308357600101600a8204915061306f565b60608167ffffffffffffffff8111801561309c57600080fd5b506040519080825280601f01601f1916602001820160405280156130c7576020820181803683370190505b5090507fffffffffffffffffffffffffffffffffffffffffffffffffffffffffffffffff82015b851561314b57600a860660300160f81b8282806001900393508151811061311157fe5b60200101907effffffffffffffffffffffffffffffffffffffffffffffffffffffffffffff1916908160001a905350600a860495506130ee565b50949350505050565b6000818361318f576040517f08c379a000000000000000000000000000000000000000000000000000000000815260040161086791906137b5565b50600083858161319b57fe5b0495945050505050565b600081848411156131e3576040517f08c379a000000000000000000000000000000000000000000000000000000000815260040161086791906137b5565b505050900390565b805182518451865188516060948a948a948a948a948a948a94919092019092019091010167ffffffffffffffff8111801561322557600080fd5b506040519080825280601f01601f191660200182016040528015613250576020820181803683370190505b509050806000805b88518110156132c15788818151811061326d57fe5b602001015160f81c60f81b83838060010194508151811061328a57fe5b60200101907effffffffffffffffffffffffffffffffffffffffffffffffffffffffffffff1916908160001a905350600101613258565b5060005b875181101561332e578781815181106132da57fe5b602001015160f81c60f81b8383806001019450815181106132f757fe5b60200101907effffffffffffffffffffffffffffffffffffffffffffffffffffffffffffff1916908160001a9053506001016132c5565b5060005b865181101561339b5786818151811061334757fe5b602001015160f81c60f81b83838060010194508151811061336457fe5b60200101907effffffffffffffffffffffffffffffffffffffffffffffffffffffffffffff1916908160001a905350600101613332565b5060005b8551811015613408578581815181106133b457fe5b602001015160f81c60f81b8383806001019450815181106133d157fe5b60200101907effffffffffffffffffffffffffffffffffffffffffffffffffffffffffffff1916908160001a90535060010161339f565b5060005b84518110156134755784818151811061342157fe5b602001015160f81c60f81b83838060010194508151811061343e57fe5b60200101907effffffffffffffffffffffffffffffffffffffffffffffffffffffffffffff1916908160001a90535060010161340c565b50909d9c50505050505050505050505050565b6040518060a0016040528060008019168152602001600081526020016000815260200160008152602001600081525090565b828054600181600116156101000203166002900490600052602060002090601f016020900481019282601f106134fb57805160ff1916838001178555613528565b82800160010185558215613528579182015b8281111561352857825182559160200191906001019061350d565b50613534929150613538565b5090565b5b808211156135345760008155600101613539565b803573ffffffffffffffffffffffffffffffffffffffff81168114612d3557600080fd5b600060208284031215613582578081fd5b612d32838361354d565b6000806040838503121561359e578081fd5b6135a8848461354d565b946020939093013593505050565b6000602082840312156135c7578081fd5b8135612d3281613ed4565b6000602082840312156135e3578081fd5b8151612d3281613ed4565b6000602082840312156135ff578081fd5b5035919050565b600060208284031215613617578081fd5b5051919050565b60008060408385031215613630578182fd5b50508035926020909101359150565b600060208284031215613650578081fd5b815160ff81168114612d32578182fd5b60609390931b7fffffffffffffffffffffffffffffffffffffffff0000000000000000000000001683526014830191909152603482015260540190565b73ffffffffffffffffffffffffffffffffffffffff91909116815260200190565b73ffffffffffffffffffffffffffffffffffffffff9384168152919092166020820152604081019190915260600190565b73ffffffffffffffffffffffffffffffffffffffff929092168252602082015260400190565b73ffffffffffffffffffffffffffffffffffffffff92831681529116602082015260400190565b602080825282518282018190526000919060409081850190868401855b8281101561379d5781518051855286810151878601528581015186860152606080820151908601526080908101519085015260a09093019290850190600101613759565b5091979650505050505050565b901515815260200190565b6000602080835283518082850152825b818110156137e1578581018301518582016040015282016137c5565b818111156137f25783604083870101525b50601f017fffffffffffffffffffffffffffffffffffffffffffffffffffffffffffffffe016929092016040019392505050565b6020808252601b908201527f6164647265737320686173206265656e20677265796c69737465640000000000604082015260600190565b60208082526058908201527f50726576696f7573207265776172647320706572696f64206d7573742062652060408201527f636f6d706c657465206265666f7265206368616e67696e67207468652064757260608201527f6174696f6e20666f7220746865206e657720706572696f640000000000000000608082015260a00190565b60208082526035908201527f596f75206d757374206265206e6f6d696e61746564206265666f726520796f7560408201527f2063616e20616363657074206f776e6572736869700000000000000000000000606082015260800190565b60208082526016908201527f5374616b65206973207374696c6c206c6f636b65642100000000000000000000604082015260600190565b60208082526025908201527f4e6f7420656e6f7567682043535320617661696c61626c6520666f722072657760408201527f6172647321000000000000000000000000000000000000000000000000000000606082015260800190565b6020808252600e908201527f43616e6e6f74207374616b652030000000000000000000000000000000000000604082015260600190565b6020808252601b908201527f536166654d6174683a206164646974696f6e206f766572666c6f770000000000604082015260600190565b6020808252601b908201527f506572696f6420686173206e6f74206578706972656420796574210000000000604082015260600190565b60208082526030908201527f596f7520617265206e6f7420746865206f776e6572206f722074686520676f7660408201527f65726e616e63652074696d656c6f636b00000000000000000000000000000000606082015260800190565b60208082526024908201527f596f752061726520747279696e6720746f207374616b6520666f7220746f6f2060408201527f6c6f6e6700000000000000000000000000000000000000000000000000000000606082015260800190565b6020808252602f908201527f4f6e6c792074686520636f6e7472616374206f776e6572206d6179207065726660408201527f6f726d207468697320616374696f6e0000000000000000000000000000000000606082015260800190565b60208082526011908201527f43616e6e6f742077697468647261772030000000000000000000000000000000604082015260600190565b60208082526021908201527f536166654d6174683a206d756c7469706c69636174696f6e206f766572666c6f60408201527f7700000000000000000000000000000000000000000000000000000000000000606082015260800190565b6020808252603c908201527f5468697320616374696f6e2063616e6e6f7420626520706572666f726d65642060408201527f7768696c652074686520636f6e74726163742069732070617573656400000000606082015260800190565b6020808252602d908201527f4d756c7469706c696572206d7573742062652067726561746572207468616e2060408201527f6f7220657175616c20746f203100000000000000000000000000000000000000606082015260800190565b6020808252600f908201527f5374616b65206e6f7420666f756e640000000000000000000000000000000000604082015260600190565b60208082526036908201527f4d756c7469706c696572204d61782054696d65206d757374206265206772656160408201527f746572207468616e206f7220657175616c20746f203100000000000000000000606082015260800190565b6020808252602f908201527f4d617820435220426f6f7374206d75737420626520677265617465722074686160408201527f6e206f7220657175616c20746f20310000000000000000000000000000000000606082015260800190565b6020808252601f908201527f5265656e7472616e637947756172643a207265656e7472616e742063616c6c00604082015260600190565b60208082526021908201527f43616e6e6f74207761697420666f722061206e65676174697665206e756d626560408201527f7200000000000000000000000000000000000000000000000000000000000000606082015260800190565b60208082526036908201527f4d756c7469706c696572204d696e2054696d65206d757374206265206772656160408201527f746572207468616e206f7220657175616c20746f203100000000000000000000606082015260800190565b90815260200190565b918252602082015260400190565b8015158114610b1057600080fdfea26469706673582212206921bb99241f179da60f3c5c3a5e8de5a023c6c7641665a1fabb71d87181c49c64736f6c634300060c0033",
  "immutableReferences": {},
  "source": "// SPDX-License-Identifier: MIT\npragma solidity 0.6.12;\npragma experimental ABIEncoderV2;\n\n// Modified from Synthetixio\n// https://raw.githubusercontent.com/Synthetixio/synthetix/develop/contracts/StakingRewards.sol\n\nimport \"../Math/Math.sol\";\nimport \"../Math/SafeMath.sol\";\nimport \"../ERC20/ERC20.sol\";\nimport '../Uniswap/TransferHelper.sol';\nimport \"../ERC20/SafeERC20.sol\";\nimport \"../Ceres/Ceres.sol\";\nimport \"../Utils/ReentrancyGuard.sol\";\nimport \"../Utils/StringHelpers.sol\";\n\n// Inheritance\nimport \"./IStakingRewards.sol\";\nimport \"./RewardsDistributionRecipient.sol\";\nimport \"./Pausable.sol\";\n\ncontract StakingRewards is IStakingRewards, RewardsDistributionRecipient, ReentrancyGuard, Pausable {\n    using SafeMath for uint256;\n    using SafeERC20 for ERC20;\n\n    /* ========== STATE VARIABLES ========== */\n    CEREStable public CERES; //TEST CASE DONE\n    ERC20 public rewardsToken; //TEST CASE DONE\n    ERC20 public stakingToken; //TEST CASE DONE\n    uint256 public periodFinish; //TEST CASE DONE\n\n    // Constant for various precisions\n    // NOTHING TO DO FOR PRIVATE\n    uint256 public constant PRICE_PRECISION = 1e6; //TEST CASE DONE\n    uint256 public constant MULTIPLIER_BASE = 1e6; //TEST CASE DONE\n\n    // Max reward per second IN DEC18\n    uint256 public rewardRate; //TEST CASES DONE\n\n    // uint256 public rewardsDuration = 86400 hours; \n    uint256 public rewardsDuration = 604800; // 7 * 86400  (7 days) //TEST CASES DONE\n\n    uint256 public lastUpdateTime; //TEST CASES DONE\n    uint256 public rewardPerTokenStored = 0;  //TEST CASES DONE\n    uint256 public pool_weight; //TEST CASES DONE // This staking pool's percentage of the total CSS being distributed by all pools, 6 decimals of precision\n\n    address public owner_address; //TEST CASES DONE\n    address public timelock_address;  //TEST CASES DONE // Governance timelock address\n\n    uint256 public locked_stake_max_multiplier = 3000000; // 6 decimals of precision. 1x = 1000000 //TEST CASES DONE\n    uint256 public locked_stake_time_for_max_multiplier = 3 * 365 * 86400; // 3 years //TEST CASES DONE\n    uint256 public locked_stake_min_time = 604800; // 7 * 86400  (7 days) //TEST CASES DONE\n    string public locked_stake_min_time_str = \"604800\"; // 7 days on genesis //TEST CASES DONE\n    uint256 public cr_boost_max_multiplier = 3000000; // 6 decimals of precision. 1x = 1000000 //TEST CASES DONE\n\n    mapping(address => uint256) public userRewardPerTokenPaid; // TEST CASE DONE\n    mapping(address => uint256) public rewards; // TEST CASE DONE\n\n    // NOTHING TO DO FOR PRIVATE\n    uint256 private _staking_token_supply = 0;\n    uint256 private _staking_token_boosted_supply = 0;\n    mapping(address => uint256) private _unlocked_balances;\n    mapping(address => uint256) private _locked_balances;\n    mapping(address => uint256) private _boosted_balances;\n    mapping(address => LockedStake[]) private lockedStakes;\n\n    mapping(address => bool) public greylist; // TEST CASE DONE\n\n    bool public unlockedStakes; // Release lock stakes in case of system migration // TEST CASE DONE\n\n    struct LockedStake {\n        bytes32 kek_id;\n        uint256 start_timestamp;\n        uint256 amount;\n        uint256 ending_timestamp;\n        uint256 multiplier; // 6 decimals of precision. 1x = 1000000\n    }\n\n    /* ========== CONSTRUCTOR ========== */\n\n    constructor(\n        address _owner,\n        address _rewardsDistribution,\n        address _rewardsToken,\n        address _stakingToken,\n        address _ceres_address,\n        address _timelock_address,\n        uint256 _pool_weight\n    ) public Owned(_owner){\n        owner_address = _owner;\n        rewardsToken = ERC20(_rewardsToken);\n        stakingToken = ERC20(_stakingToken);\n        CERES = CEREStable(_ceres_address);\n        rewardsDistribution = _rewardsDistribution;\n        lastUpdateTime = block.timestamp;\n        timelock_address = _timelock_address;\n        pool_weight = _pool_weight;\n        // rewardRate = 380517503805175038; // (uint256(12000000e18)).div(365 * 86400); // Base emission rate of 12M FXS over the first year\n        rewardRate = 3805175038051750; // (uint256(12000000e18)).div(365 * 86400); // Base emission rate of 12M FXS over the first year\n        rewardRate = rewardRate.mul(pool_weight).div(1e6);\n        unlockedStakes = false;\n    }\n\n    /* ========== VIEWS ========== */\n    // TEST CASES DONE\n    function totalSupply() external override view returns (uint256) {\n        return _staking_token_supply;\n    }\n    // TEST CASES DONE\n    function totalBoostedSupply() external view returns (uint256) {\n        return _staking_token_boosted_supply;\n    }\n    // TEST CASES DONE\n    function stakingMultiplier(uint256 secs) public view returns (uint256) {\n        uint256 multiplier = uint(MULTIPLIER_BASE).add(secs.mul(locked_stake_max_multiplier.sub(MULTIPLIER_BASE)).div(locked_stake_time_for_max_multiplier));\n        if (multiplier > locked_stake_max_multiplier) multiplier = locked_stake_max_multiplier;\n        return multiplier;\n    }\n    // TEST CASES DONE\n    function crBoostMultiplier() public view returns (uint256) {\n        uint256 multiplier = uint(MULTIPLIER_BASE).add((uint(MULTIPLIER_BASE).sub(CERES.global_collateral_ratio())).mul(cr_boost_max_multiplier.sub(MULTIPLIER_BASE)).div(MULTIPLIER_BASE) );\n        return multiplier;\n    }\n    // TEST CASES DONE\n    // Total unlocked and locked liquidity tokens\n    function balanceOf(address account) external override view returns (uint256) {\n        return (_unlocked_balances[account]).add(_locked_balances[account]);\n    }\n    // TEST CASES DONE\n    // Total unlocked liquidity tokens\n    function unlockedBalanceOf(address account) external view returns (uint256) {\n        return _unlocked_balances[account];\n    }\n    // TEST CASES DONE\n    // Total locked liquidity tokens\n    function lockedBalanceOf(address account) public view returns (uint256) {\n        return _locked_balances[account];\n    }\n\n    // Total 'balance' used for calculating the percent of the pool the account owns\n    // Takes into account the locked stake time multiplier\n    // TEST CASES DONE\n    function boostedBalanceOf(address account) external view returns (uint256) {\n        return _boosted_balances[account];\n    }\n\n    // [ADD][TEST CASES] ADD TEST CASES\n    // TEST CASES DONE\n    function lockedStakesOf(address account) external view returns (LockedStake[] memory) {\n        return lockedStakes[account];\n    }\n    // TEST CASES DONE\n    function stakingDecimals() external view returns (uint256) {\n        return stakingToken.decimals();\n    }\n    // TEST CASES DONE\n    function rewardsFor(address account) external view returns (uint256) {\n        // You may have use earned() instead, because of the order in which the contract executes \n        return rewards[account];\n    }\n    // TEST CASES DONE\n    function lastTimeRewardApplicable() public override view returns (uint256) {\n        return Math.min(block.timestamp, periodFinish);\n    }\n    // TEST CASES DONE\n    function rewardPerToken() public override view returns (uint256) {\n        if (_staking_token_supply == 0) {\n            return rewardPerTokenStored;\n        }\n        else {\n            return rewardPerTokenStored.add(\n                lastTimeRewardApplicable().sub(lastUpdateTime).mul(rewardRate).mul(crBoostMultiplier()).mul(1e18).div(PRICE_PRECISION).div(_staking_token_boosted_supply)\n            );\n        }\n    }\n    // TEST CASES DONE\n    function earned(address account) public override view returns (uint256) {\n        return _boosted_balances[account].mul(rewardPerToken().sub(userRewardPerTokenPaid[account])).div(1e18).add(rewards[account]);\n    }\n\n    // function earned(address account) public override view returns (uint256) {\n    //     return _balances[account].mul(rewardPerToken().sub(userRewardPerTokenPaid[account])).add(rewards[account]);\n    // }\n    \n    function getRewardForDuration() external override view returns (uint256) {\n        return rewardRate.mul(rewardsDuration).mul(crBoostMultiplier()).div(PRICE_PRECISION);\n    }\n\n    // CURRENT RATE IS 1140 CSS/WEEK\n    // TODO: [CORE][ADD][NEW FUNC]: ADD RATE CHANGES, THE RATE WILL BE REDUCED AFTER EACH WEEK (SUCH AS 2-5% PERWEEK)\n    // TODO: [CORE][ADD][NEW FUNC]: ADD VIP LEVEL, STAKING MORE AND GET MORE REWARDSTOKEN(CSS)\n\n    /* ========== MUTATIVE FUNCTIONS ========== */\n    // [ADD][TEST CASES][P2][CORE]: ADD TEST CASES IN [Stake_CERES_WETH_P2.test.js]\n    // TEST CASES DOEN\n    function stake(uint256 amount) external override nonReentrant notPaused updateReward(msg.sender) {\n        require(amount > 0, \"Cannot stake 0\");\n        require(greylist[msg.sender] == false, \"address has been greylisted\");\n\n        // Pull the tokens from the staker\n        // TransferHelper.safeTransferFrom(address(stakingToken), msg.sender, address(this), amount);\n        stakingToken.transferFrom(msg.sender, address(this), amount);\n\n        // Staking token supply and boosted supply\n        _staking_token_supply = _staking_token_supply.add(amount);\n        _staking_token_boosted_supply = _staking_token_boosted_supply.add(amount);\n\n        // Staking token balance and boosted balance\n        _unlocked_balances[msg.sender] = _unlocked_balances[msg.sender].add(amount);\n        _boosted_balances[msg.sender] = _boosted_balances[msg.sender].add(amount);\n\n        emit Staked(msg.sender, amount);\n    }\n    // [ADD][TEST CASES][P2][CORE]: ADD TEST CASES IN [Stake_CERES_WETH_P2.test.js]\n    // TEST CASES DONE\n    function stakeLocked(uint256 amount, uint256 secs) external nonReentrant notPaused updateReward(msg.sender) {\n        require(amount > 0, \"Cannot stake 0\");\n        require(secs > 0, \"Cannot wait for a negative number\");\n        require(greylist[msg.sender] == false, \"address has been greylisted\");\n        require(secs >= locked_stake_min_time, StringHelpers.strConcat(\"Minimum stake time not met (\", locked_stake_min_time_str, \")\") );\n        require(secs <= locked_stake_time_for_max_multiplier, \"You are trying to stake for too long\");\n\n\n        uint256 multiplier = stakingMultiplier(secs);\n        uint256 boostedAmount = amount.mul(multiplier).div(PRICE_PRECISION);\n        lockedStakes[msg.sender].push(LockedStake(\n            keccak256(abi.encodePacked(msg.sender, block.timestamp, amount)),\n            block.timestamp,\n            amount,\n            block.timestamp.add(secs),\n            multiplier\n        ));\n\n        // Pull the tokens from the staker\n        // TransferHelper.safeTransferFrom(address(stakingToken), msg.sender, address(this), amount);\n        stakingToken.transferFrom(msg.sender, address(this), amount);\n\n        // Staking token supply and boosted supply\n        _staking_token_supply = _staking_token_supply.add(amount);\n        _staking_token_boosted_supply = _staking_token_boosted_supply.add(boostedAmount);\n\n        // Staking token balance and boosted balance\n        _locked_balances[msg.sender] = _locked_balances[msg.sender].add(amount);\n        _boosted_balances[msg.sender] = _boosted_balances[msg.sender].add(boostedAmount);\n\n        emit StakeLocked(msg.sender, amount, secs);\n    }\n    // [ADD][TEST CASES][P2][CORE]: ADD TEST CASES IN [Stake_CERES_WETH_P2.test.js]\n    // TEST CASES DONE\n    function withdraw(uint256 amount) public override nonReentrant updateReward(msg.sender) {\n        require(amount > 0, \"Cannot withdraw 0\");\n\n        // Staking token balance and boosted balance\n        _unlocked_balances[msg.sender] = _unlocked_balances[msg.sender].sub(amount);\n        _boosted_balances[msg.sender] = _boosted_balances[msg.sender].sub(amount);\n\n        // Staking token supply and boosted supply\n        _staking_token_supply = _staking_token_supply.sub(amount);\n        _staking_token_boosted_supply = _staking_token_boosted_supply.sub(amount);\n\n        // Give the tokens to the withdrawer\n        // stakingToken.safeTransfer(msg.sender, amount);\n        stakingToken.transfer(msg.sender, amount);\n        emit Withdrawn(msg.sender, amount);\n    }\n    // TODO: [ADD][TEST CASES][P2][CORE]: ADD TEST CASES IN [Stake_CERES_WETH_P2.test.js]\n    function withdrawLocked(bytes32 kek_id) public nonReentrant updateReward(msg.sender) {\n        LockedStake memory thisStake;\n        thisStake.amount = 0;\n        uint theIndex;\n        for (uint i = 0; i < lockedStakes[msg.sender].length; i++){ \n            if (kek_id == lockedStakes[msg.sender][i].kek_id){\n                thisStake = lockedStakes[msg.sender][i];\n                theIndex = i;\n                break;\n            }\n        }\n        require(thisStake.kek_id == kek_id, \"Stake not found\");\n        require(block.timestamp >= thisStake.ending_timestamp || unlockedStakes == true, \"Stake is still locked!\");\n\n        uint256 theAmount = thisStake.amount;\n        uint256 boostedAmount = theAmount.mul(thisStake.multiplier).div(PRICE_PRECISION);\n        if (theAmount > 0){\n            // Staking token balance and boosted balance\n            _locked_balances[msg.sender] = _locked_balances[msg.sender].sub(theAmount);\n            _boosted_balances[msg.sender] = _boosted_balances[msg.sender].sub(boostedAmount);\n\n            // Staking token supply and boosted supply\n            _staking_token_supply = _staking_token_supply.sub(theAmount);\n            _staking_token_boosted_supply = _staking_token_boosted_supply.sub(boostedAmount);\n\n            // Remove the stake from the array\n            delete lockedStakes[msg.sender][theIndex];\n\n            // Give the tokens to the withdrawer\n            // stakingToken.safeTransfer(msg.sender, theAmount);\n            stakingToken.transfer(msg.sender, theAmount);\n\n            emit WithdrawnLocked(msg.sender, theAmount, kek_id);\n        }\n\n    }\n    // [ADD][TEST CASES][P2][CORE]: ADD TEST CASES IN [Stake_CERES_WETH_P2.test.js]\n    // TEST CASES DONE\n    function getReward() public override nonReentrant updateReward(msg.sender) {\n        uint256 reward = rewards[msg.sender];\n        if (reward > 0) {\n            rewards[msg.sender] = 0;\n            rewardsToken.transfer(msg.sender, reward);\n            emit RewardPaid(msg.sender, reward);\n        }\n    }\n/*\n    function exit() external override {\n        withdraw(_balances[msg.sender]);\n\n        // Add locked stakes too?\n\n        getReward();\n    }\n*/\n    // [ADD][TEST CASES][P2][CORE]: ADD TEST CASES IN [Stake_CERES_WETH_P2.test.js]\n    // TEST CASES DONE\n    function renewIfApplicable() external {\n        if (block.timestamp > periodFinish) {\n            retroCatchUp();\n        }\n    }\n    // TEST CASES DONE\n    function rewardsToken_balance() external view returns (uint256) {\n        return rewardsToken.balanceOf(address(this));\n    }\n\n    // If the period expired, renew it\n    // NO TEST CASES FOR INTERNAL FUNC()\n    function retroCatchUp() internal {\n        // Failsafe check\n        require(block.timestamp > periodFinish, \"Period has not expired yet!\");\n\n        // Ensure the provided reward amount is not more than the balance in the contract.\n        // This keeps the reward rate in the right range, preventing overflows due to\n        // very high values of rewardRate in the earned and rewardsPerToken functions;\n        // Reward + leftover must be less than 2^256 / 10^18 to avoid overflow.\n        uint256 num_periods_elapsed = uint256(block.timestamp.sub(periodFinish)) / rewardsDuration; // Floor division to the nearest period\n        uint balance = rewardsToken.balanceOf(address(this));\n        require(rewardRate.mul(rewardsDuration).mul(crBoostMultiplier()).mul(num_periods_elapsed + 1).div(PRICE_PRECISION) <= balance, \"Not enough CSS available for rewards!\");\n\n        // uint256 old_lastUpdateTime = lastUpdateTime;\n        // uint256 new_lastUpdateTime = block.timestamp;\n\n        // lastUpdateTime = periodFinish;\n        periodFinish = periodFinish.add((num_periods_elapsed.add(1)).mul(rewardsDuration));\n\n        rewardPerTokenStored = rewardPerToken();\n        lastUpdateTime = lastTimeRewardApplicable();\n\n        emit RewardsPeriodRenewed(address(stakingToken));\n    }\n\n    /* ========== RESTRICTED FUNCTIONS ========== */\n/*\n    // This notifies people that the reward is being changed\n    function notifyRewardAmount(uint256 reward) external override onlyRewardsDistribution updateReward(address(0)) {\n        // Needed to make compiler happy\n\n        \n        // if (block.timestamp >= periodFinish) {\n        //     rewardRate = reward.mul(crBoostMultiplier()).div(rewardsDuration).div(PRICE_PRECISION);\n        // } else {\n        //     uint256 remaining = periodFinish.sub(block.timestamp);\n        //     uint256 leftover = remaining.mul(rewardRate);\n        //     rewardRate = reward.mul(crBoostMultiplier()).add(leftover).div(rewardsDuration).div(PRICE_PRECISION);\n        // }\n\n        // // Ensure the provided reward amount is not more than the balance in the contract.\n        // // This keeps the reward rate in the right range, preventing overflows due to\n        // // very high values of rewardRate in the earned and rewardsPerToken functions;\n        // // Reward + leftover must be less than 2^256 / 10^18 to avoid overflow.\n        // uint balance = rewardsToken.balanceOf(address(this));\n        // require(rewardRate <= balance.div(rewardsDuration), \"Provided reward too high\");\n\n        // lastUpdateTime = block.timestamp;\n        // periodFinish = block.timestamp.add(rewardsDuration);\n        // emit RewardAdded(reward);\n    }\n*/\n    // Added to support recovering LP Rewards from other systems to be distributed to holders\n    // TODO: [ADD][TEST CASES] (NOT TOTALLY UNDERSTAND, DO INVESTIGATE LATER)\n    function recoverERC20(address tokenAddress, uint256 tokenAmount) external onlyByOwnerOrGovernance {\n        // Admin cannot withdraw the staking token from the contract\n        require(tokenAddress != address(stakingToken));\n        ERC20(tokenAddress).transfer(owner_address, tokenAmount);\n        emit Recovered(tokenAddress, tokenAmount);\n    }\n    // TEST CASES DONE\n    function setRewardsDuration(uint256 _rewardsDuration) external onlyByOwnerOrGovernance {\n        require(\n            periodFinish == 0 || block.timestamp > periodFinish,\n            \"Previous rewards period must be complete before changing the duration for the new period\"\n        );\n        rewardsDuration = _rewardsDuration;\n        emit RewardsDurationUpdated(rewardsDuration);\n    }\n    // [ADD][TEST CASES]\n    function setMultipliers(uint256 _locked_stake_max_multiplier, uint256 _cr_boost_max_multiplier) external onlyByOwnerOrGovernance {\n        require(_locked_stake_max_multiplier >= 1, \"Multiplier must be greater than or equal to 1\");\n        require(_cr_boost_max_multiplier >= 1, \"Max CR Boost must be greater than or equal to 1\");\n\n        locked_stake_max_multiplier = _locked_stake_max_multiplier;\n        cr_boost_max_multiplier = _cr_boost_max_multiplier;\n        \n        emit MaxCRBoostMultiplier(cr_boost_max_multiplier);\n        emit LockedStakeMaxMultiplierUpdated(locked_stake_max_multiplier);\n    }\n    // [ADD][TEST CASES]\n    function setLockedStakeTimeForMinAndMaxMultiplier(uint256 _locked_stake_time_for_max_multiplier, uint256 _locked_stake_min_time) external onlyByOwnerOrGovernance {\n        require(_locked_stake_time_for_max_multiplier >= 1, \"Multiplier Max Time must be greater than or equal to 1\");\n        require(_locked_stake_min_time >= 1, \"Multiplier Min Time must be greater than or equal to 1\");\n        \n        locked_stake_time_for_max_multiplier = _locked_stake_time_for_max_multiplier;\n\n        locked_stake_min_time = _locked_stake_min_time;\n        locked_stake_min_time_str = StringHelpers.uint2str(_locked_stake_min_time);\n\n        emit LockedStakeTimeForMaxMultiplier(locked_stake_time_for_max_multiplier);\n        emit LockedStakeMinTime(_locked_stake_min_time);\n    }\n    // TEST CASES DONE\n    function initializeDefault() external onlyByOwnerOrGovernance {\n        lastUpdateTime = block.timestamp;\n        periodFinish = block.timestamp.add(rewardsDuration);\n        emit DefaultInitialization();\n    }\n    // TEST CASES DONE\n    function greylistAddress(address _address) external onlyByOwnerOrGovernance {\n        greylist[_address] = !(greylist[_address]);\n    }\n    // TEST CASES DONE\n    function unlockStakes() external onlyByOwnerOrGovernance {\n        unlockedStakes = !unlockedStakes;\n    }\n    // TEST CASES DONE\n    function setRewardRate(uint256 _new_rate) external onlyByOwnerOrGovernance {\n        rewardRate = _new_rate;\n    }\n    // TEST CASES DONE\n    function setPeriodFinish(uint256 _periodFinish) external onlyByOwnerOrGovernance {\n        periodFinish = _periodFinish;\n    }\n    // TEST CASES DONE\n    function setOwner(address _owner_address) external onlyByOwnerOrGovernance {\n        owner_address = _owner_address;\n    }\n    // TEST CASES DONE\n    function setTimelock(address _timelock_address) external onlyByOwnerOrGovernance {\n        timelock_address = _timelock_address;\n    }\n\n    /* ========== MODIFIERS ========== */\n\n    modifier updateReward(address account) {\n        // Need to retro-adjust some things if the period hasn't been renewed, then start a new one\n        if (block.timestamp > periodFinish) {\n            retroCatchUp();\n        }\n        else {\n            rewardPerTokenStored = rewardPerToken();\n            lastUpdateTime = lastTimeRewardApplicable();\n        }\n        if (account != address(0)) {\n            rewards[account] = earned(account);\n            userRewardPerTokenPaid[account] = rewardPerTokenStored;\n        }\n        _;\n    }\n\n    modifier onlyByOwnerOrGovernance() {\n        require(msg.sender == owner_address || msg.sender == timelock_address, \"You are not the owner or the governance timelock\");\n        _;\n    }\n\n    /* ========== EVENTS ========== */\n\n    event RewardAdded(uint256 reward);\n    event Staked(address indexed user, uint256 amount);\n    event StakeLocked(address indexed user, uint256 amount, uint256 secs);\n    event Withdrawn(address indexed user, uint256 amount);\n    event WithdrawnLocked(address indexed user, uint256 amount, bytes32 kek_id);\n    event RewardPaid(address indexed user, uint256 reward);\n    event RewardsDurationUpdated(uint256 newDuration);\n    event Recovered(address token, uint256 amount);\n    event RewardsPeriodRenewed(address token);\n    event DefaultInitialization();\n    event LockedStakeMaxMultiplierUpdated(uint256 multiplier);\n    event LockedStakeTimeForMaxMultiplier(uint256 secs);\n    event LockedStakeMinTime(uint256 secs);\n    event MaxCRBoostMultiplier(uint256 multiplier);\n}\n",
  "sourcePath": "/Users/cooper/GitHub/Prigogine/Ceres-Protocol/contracts/Staking/StakingRewards.sol",
  "compiler": {
    "name": "solc",
    "version": "0.6.12+commit.27d51765.Emscripten.clang"
  },
  "schemaVersion": "3.4.1",
  "updatedAt": "2021-07-29T07:51:31.528Z",
  "devdoc": {
    "kind": "dev",
    "methods": {
      "setPaused(bool)": {
        "details": "Only the contract owner may call this."
      }
    },
    "version": 1
  },
  "userdoc": {
    "kind": "user",
    "methods": {
      "setPaused(bool)": {
        "notice": "Change the paused state of the contract"
      }
    },
    "version": 1
  }
}