{
  "contractName": "SwapToPrice",
  "abi": [
    {
      "inputs": [
        {
          "internalType": "address",
          "name": "factory_",
          "type": "address"
        },
        {
          "internalType": "contract IUniswapV2Router01",
          "name": "router_",
          "type": "address"
        }
      ],
      "stateMutability": "nonpayable",
      "type": "constructor"
    },
    {
      "inputs": [],
      "name": "factory",
      "outputs": [
        {
          "internalType": "address",
          "name": "",
          "type": "address"
        }
      ],
      "stateMutability": "view",
      "type": "function"
    },
    {
      "inputs": [],
      "name": "router",
      "outputs": [
        {
          "internalType": "contract IUniswapV2Router01",
          "name": "",
          "type": "address"
        }
      ],
      "stateMutability": "view",
      "type": "function"
    },
    {
      "inputs": [
        {
          "internalType": "uint256",
          "name": "truePriceTokenA",
          "type": "uint256"
        },
        {
          "internalType": "uint256",
          "name": "truePriceTokenB",
          "type": "uint256"
        },
        {
          "internalType": "uint256",
          "name": "reserveA",
          "type": "uint256"
        },
        {
          "internalType": "uint256",
          "name": "reserveB",
          "type": "uint256"
        }
      ],
      "name": "computeProfitMaximizingTrade",
      "outputs": [
        {
          "internalType": "bool",
          "name": "aToB",
          "type": "bool"
        },
        {
          "internalType": "uint256",
          "name": "amountIn",
          "type": "uint256"
        }
      ],
      "stateMutability": "pure",
      "type": "function"
    },
    {
      "inputs": [
        {
          "internalType": "address",
          "name": "tokenA",
          "type": "address"
        },
        {
          "internalType": "address",
          "name": "tokenB",
          "type": "address"
        },
        {
          "internalType": "uint256",
          "name": "truePriceTokenA",
          "type": "uint256"
        },
        {
          "internalType": "uint256",
          "name": "truePriceTokenB",
          "type": "uint256"
        },
        {
          "internalType": "uint256",
          "name": "maxSpendTokenA",
          "type": "uint256"
        },
        {
          "internalType": "uint256",
          "name": "maxSpendTokenB",
          "type": "uint256"
        },
        {
          "internalType": "address",
          "name": "to",
          "type": "address"
        },
        {
          "internalType": "uint256",
          "name": "deadline",
          "type": "uint256"
        }
      ],
      "name": "swapToPrice",
      "outputs": [],
      "stateMutability": "nonpayable",
      "type": "function"
    }
  ],
  "bytecode": "0x60c060405234801561001057600080fd5b506040516110203803806110208339818101604052604081101561003357600080fd5b5080516020909101516001600160601b0319606092831b811660a052911b1660805260805160601c60a05160601c610f9361008d60003980610234528061057b5250806102c4528061039b528061059f5250610f936000f3fe608060405234801561001057600080fd5b506004361061004c5760003560e01c8063bef90fd314610051578063c45a0155146100b5578063f887ea40146100e6578063fa653154146100ee575b600080fd5b6100b3600480360361010081101561006857600080fd5b5073ffffffffffffffffffffffffffffffffffffffff8135811691602081013582169160408201359160608101359160808201359160a08101359160c0820135169060e00135610138565b005b6100bd610579565b6040805173ffffffffffffffffffffffffffffffffffffffff9092168252519081900360200190f35b6100bd61059d565b61011d6004803603608081101561010457600080fd5b50803590602081013590604081013590606001356105c1565b60408051921515835260208301919091528051918290030190f35b851580159061014657508415155b6101b157604080517f08c379a000000000000000000000000000000000000000000000000000000000815260206004820152601e60248201527f4578616d706c6553776170546f50726963653a205a45524f5f50524943450000604482015290519081900360640190fd5b831515806101be57508215155b61022957604080517f08c379a000000000000000000000000000000000000000000000000000000000815260206004820152601e60248201527f4578616d706c6553776170546f50726963653a205a45524f5f5350454e440000604482015290519081900360640190fd5b60008060008061025a7f00000000000000000000000000000000000000000000000000000000000000008d8d61067c565b9150915061026a8a8a84846105c1565b9094509250600091508390506102805785610282565b865b905080821115610290578091505b60008361029d578a61029f565b8b5b90506000846102ae578c6102b0565b8b5b90506102be82333087610764565b6102e9827f000000000000000000000000000000000000000000000000000000000000000086610934565b6040805160028082526060808301845292602083019080368337019050509050828160008151811061031757fe5b602002602001019073ffffffffffffffffffffffffffffffffffffffff16908173ffffffffffffffffffffffffffffffffffffffff1681525050818160018151811061035f57fe5b602002602001019073ffffffffffffffffffffffffffffffffffffffff16908173ffffffffffffffffffffffffffffffffffffffff16815250507f000000000000000000000000000000000000000000000000000000000000000073ffffffffffffffffffffffffffffffffffffffff166338ed1739866000848c8c6040518663ffffffff1660e01b815260040180868152602001858152602001806020018473ffffffffffffffffffffffffffffffffffffffff168152602001838152602001828103825285818151815260200191508051906020019060200280838360005b83811015610458578181015183820152602001610440565b505050509050019650505050505050600060405180830381600087803b15801561048157600080fd5b505af1158015610495573d6000803e3d6000fd5b505050506040513d6000823e601f3d9081017fffffffffffffffffffffffffffffffffffffffffffffffffffffffffffffffe016820160405260208110156104dc57600080fd5b81019080805160405193929190846401000000008211156104fc57600080fd5b90830190602082018581111561051157600080fd5b825186602082028301116401000000008211171561052e57600080fd5b82525081516020918201928201910280838360005b8381101561055b578181015183820152602001610543565b50505050905001604052505050505050505050505050505050505050565b7f000000000000000000000000000000000000000000000000000000000000000081565b7f000000000000000000000000000000000000000000000000000000000000000081565b60008085836105d08688610b11565b816105d757fe5b0410915060006105e78585610b11565b905060006106316106076103e5866105ff578a610601565b895b90610b11565b6106246103e86106018861061b578b61061d565b8c5b8790610b11565b8161062b57fe5b04610b8d565b905060006103e58561064e57610649876103e8610b11565b61065a565b61065a886103e8610b11565b8161066157fe5b04905061066e8282610bdf565b935050505094509492505050565b600080600061068b8585610c21565b50905060008061069c888888610d74565b73ffffffffffffffffffffffffffffffffffffffff16630902f1ac6040518163ffffffff1660e01b815260040160606040518083038186803b1580156106e157600080fd5b505afa1580156106f5573d6000803e3d6000fd5b505050506040513d606081101561070b57600080fd5b5080516020909101516dffffffffffffffffffffffffffff918216935016905073ffffffffffffffffffffffffffffffffffffffff87811690841614610752578082610755565b81815b90999098509650505050505050565b6040805173ffffffffffffffffffffffffffffffffffffffff85811660248301528481166044830152606480830185905283518084039091018152608490920183526020820180517bffffffffffffffffffffffffffffffffffffffffffffffffffffffff167f23b872dd0000000000000000000000000000000000000000000000000000000017815292518251600094606094938a169392918291908083835b6020831061084257805182527fffffffffffffffffffffffffffffffffffffffffffffffffffffffffffffffe09092019160209182019101610805565b6001836020036101000a0380198251168184511680821785525050505050509050019150506000604051808303816000865af19150503d80600081146108a4576040519150601f19603f3d011682016040523d82523d6000602084013e6108a9565b606091505b50915091508180156108d75750805115806108d757508080602001905160208110156108d457600080fd5b50515b61092c576040517f08c379a0000000000000000000000000000000000000000000000000000000008152600401808060200182810382526024815260200180610f3a6024913960400191505060405180910390fd5b505050505050565b6040805173ffffffffffffffffffffffffffffffffffffffff8481166024830152604480830185905283518084039091018152606490920183526020820180517bffffffffffffffffffffffffffffffffffffffffffffffffffffffff167f095ea7b300000000000000000000000000000000000000000000000000000000178152925182516000946060949389169392918291908083835b60208310610a0a57805182527fffffffffffffffffffffffffffffffffffffffffffffffffffffffffffffffe090920191602091820191016109cd565b6001836020036101000a0380198251168184511680821785525050505050509050019150506000604051808303816000865af19150503d8060008114610a6c576040519150601f19603f3d011682016040523d82523d6000602084013e610a71565b606091505b5091509150818015610a9f575080511580610a9f5750808060200190516020811015610a9c57600080fd5b50515b610b0a57604080517f08c379a000000000000000000000000000000000000000000000000000000000815260206004820152601e60248201527f5472616e7366657248656c7065723a20415050524f56455f4641494c45440000604482015290519081900360640190fd5b5050505050565b600082610b2057506000610b87565b82820282848281610b2d57fe5b0414610b84576040517f08c379a0000000000000000000000000000000000000000000000000000000008152600401808060200182810382526021815260200180610f196021913960400191505060405180910390fd5b90505b92915050565b60006003821115610bd0575080600160028204015b81811015610bca57809150600281828581610bb957fe5b040181610bc257fe5b049050610ba2565b50610bda565b8115610bda575060015b919050565b6000610b8483836040518060400160405280601e81526020017f536166654d6174683a207375627472616374696f6e206f766572666c6f770000815250610e42565b6000808273ffffffffffffffffffffffffffffffffffffffff168473ffffffffffffffffffffffffffffffffffffffff161415610ca9576040517f08c379a0000000000000000000000000000000000000000000000000000000008152600401808060200182810382526025815260200180610ef46025913960400191505060405180910390fd5b8273ffffffffffffffffffffffffffffffffffffffff168473ffffffffffffffffffffffffffffffffffffffff1610610ce3578284610ce6565b83835b909250905073ffffffffffffffffffffffffffffffffffffffff8216610d6d57604080517f08c379a000000000000000000000000000000000000000000000000000000000815260206004820152601e60248201527f556e697377617056324c6962726172793a205a45524f5f414444524553530000604482015290519081900360640190fd5b9250929050565b6000806000610d838585610c21565b915091508573ffffffffffffffffffffffffffffffffffffffff1663e6a4390583836040518363ffffffff1660e01b8152600401808373ffffffffffffffffffffffffffffffffffffffff1681526020018273ffffffffffffffffffffffffffffffffffffffff1681526020019250505060206040518083038186803b158015610e0c57600080fd5b505afa158015610e20573d6000803e3d6000fd5b505050506040513d6020811015610e3657600080fd5b50519695505050505050565b60008184841115610eeb576040517f08c379a00000000000000000000000000000000000000000000000000000000081526004018080602001828103825283818151815260200191508051906020019080838360005b83811015610eb0578181015183820152602001610e98565b50505050905090810190601f168015610edd5780820380516001836020036101000a031916815260200191505b509250505060405180910390fd5b50505090039056fe556e697377617056324c6962726172793a204944454e544943414c5f414444524553534553536166654d6174683a206d756c7469706c69636174696f6e206f766572666c6f775472616e7366657248656c7065723a205452414e534645525f46524f4d5f4641494c4544a2646970667358221220451f698a21fc762dfae0d51305f89fa0a1c096171ef51ebb824f2423b4fd945d64736f6c634300060c0033",
  "immutableReferences": {
    "19240": [
      {
        "length": 32,
        "start": 708
      },
      {
        "length": 32,
        "start": 923
      },
      {
        "length": 32,
        "start": 1439
      }
    ],
    "19242": [
      {
        "length": 32,
        "start": 564
      },
      {
        "length": 32,
        "start": 1403
      }
    ]
  },
  "source": "// SPDX-License-Identifier: MIT\npragma solidity 0.6.12;\n\nimport './Interfaces/IUniswapV2Pair.sol';\nimport '../Math/Babylonian.sol';\nimport '../Math/SafeMath.sol';\nimport './TransferHelper.sol';\nimport '../ERC20/IERC20.sol';\nimport './Interfaces/IUniswapV2Router01.sol';\nimport './UniswapV2Library.sol';\n\ncontract SwapToPrice {\n    using SafeMath for uint256;\n\n    IUniswapV2Router01 public immutable router;\n    address public immutable factory;\n\n    constructor(address factory_, IUniswapV2Router01 router_) public {\n        factory = factory_;\n        router = router_;\n    }\n\n    // computes the direction and magnitude of the profit-maximizing trade\n    function computeProfitMaximizingTrade(\n        uint256 truePriceTokenA,\n        uint256 truePriceTokenB,\n        uint256 reserveA,\n        uint256 reserveB\n    ) pure public returns (bool aToB, uint256 amountIn) {\n        aToB = reserveA.mul(truePriceTokenB) / reserveB < truePriceTokenA;\n\n        uint256 invariant = reserveA.mul(reserveB);\n\n        uint256 leftSide = Babylonian.sqrt(\n            invariant.mul(aToB ? truePriceTokenA : truePriceTokenB).mul(1000) /\n            uint256(aToB ? truePriceTokenB : truePriceTokenA).mul(997)\n        );\n        uint256 rightSide = (aToB ? reserveA.mul(1000) : reserveB.mul(1000)) / 997;\n\n        // compute the amount that must be sent to move the price to the profit-maximizing price\n        amountIn = leftSide.sub(rightSide);\n    }\n\n    // swaps an amount of either token such that the trade is profit-maximizing, given an external true price\n    // true price is expressed in the ratio of token A to token B\n    // caller must approve this contract to spend whichever token is intended to be swapped\n    function swapToPrice(\n        address tokenA,\n        address tokenB,\n        uint256 truePriceTokenA,\n        uint256 truePriceTokenB,\n        uint256 maxSpendTokenA,\n        uint256 maxSpendTokenB,\n        address to,\n        uint256 deadline\n    ) public {\n        // true price is expressed as a ratio, so both values must be non-zero\n        require(truePriceTokenA != 0 && truePriceTokenB != 0, \"ExampleSwapToPrice: ZERO_PRICE\");\n        // caller can specify 0 for either if they wish to swap in only one direction, but not both\n        require(maxSpendTokenA != 0 || maxSpendTokenB != 0, \"ExampleSwapToPrice: ZERO_SPEND\");\n\n        bool aToB;\n        uint256 amountIn;\n        {\n            (uint256 reserveA, uint256 reserveB) = UniswapV2Library.getReserves(factory, tokenA, tokenB);\n            (aToB, amountIn) = computeProfitMaximizingTrade(\n                truePriceTokenA, truePriceTokenB,\n                reserveA, reserveB\n            );\n        }\n\n        // spend up to the allowance of the token in\n        uint256 maxSpend = aToB ? maxSpendTokenA : maxSpendTokenB;\n        if (amountIn > maxSpend) {\n            amountIn = maxSpend;\n        }\n\n        address tokenIn = aToB ? tokenA : tokenB;\n        address tokenOut = aToB ? tokenB : tokenA;\n        TransferHelper.safeTransferFrom(tokenIn, msg.sender, address(this), amountIn);\n        TransferHelper.safeApprove(tokenIn, address(router), amountIn);\n\n        address[] memory path = new address[](2);\n        path[0] = tokenIn;\n        path[1] = tokenOut;\n\n        router.swapExactTokensForTokens(\n            amountIn,\n            0, // amountOutMin: we can skip computing this number because the math is tested\n            path,\n            to,\n            deadline\n        );\n    }\n}",
  "sourcePath": "/Users/cooper/GitHub/Prigogine/Ceres-Protocol/contracts/Uniswap/SwapToPrice.sol",
  "compiler": {
    "name": "solc",
    "version": "0.6.12+commit.27d51765.Emscripten.clang"
  },
  "schemaVersion": "3.4.1",
  "updatedAt": "2021-07-29T08:29:13.138Z",
  "devdoc": {
    "kind": "dev",
    "methods": {},
    "version": 1
  },
  "userdoc": {
    "kind": "user",
    "methods": {},
    "version": 1
  }
}