{
  "contractName": "Treasury",
  "abi": [
    {
      "inputs": [
        {
          "internalType": "address",
          "name": "_cash",
          "type": "address"
        },
        {
          "internalType": "address",
          "name": "_bond",
          "type": "address"
        },
        {
          "internalType": "address",
          "name": "_share",
          "type": "address"
        },
        {
          "internalType": "address",
          "name": "_bondOracle",
          "type": "address"
        },
        {
          "internalType": "address",
          "name": "_seigniorageOracle",
          "type": "address"
        },
        {
          "internalType": "address",
          "name": "_c_lpBoardroom",
          "type": "address"
        },
        {
          "internalType": "address",
          "name": "_s_lpBoardroom",
          "type": "address"
        },
        {
          "internalType": "address",
          "name": "_fund",
          "type": "address"
        },
        {
          "internalType": "uint256",
          "name": "_startTime",
          "type": "uint256"
        }
      ],
      "stateMutability": "nonpayable",
      "type": "constructor"
    },
    {
      "anonymous": false,
      "inputs": [
        {
          "indexed": false,
          "internalType": "uint256",
          "name": "timestamp",
          "type": "uint256"
        },
        {
          "indexed": false,
          "internalType": "uint256",
          "name": "seigniorage",
          "type": "uint256"
        }
      ],
      "name": "BoardroomFunded",
      "type": "event"
    },
    {
      "anonymous": false,
      "inputs": [
        {
          "indexed": true,
          "internalType": "address",
          "name": "from",
          "type": "address"
        },
        {
          "indexed": false,
          "internalType": "uint256",
          "name": "amount",
          "type": "uint256"
        }
      ],
      "name": "BoughtBonds",
      "type": "event"
    },
    {
      "anonymous": false,
      "inputs": [
        {
          "indexed": true,
          "internalType": "address",
          "name": "operator",
          "type": "address"
        },
        {
          "indexed": false,
          "internalType": "address",
          "name": "newFund",
          "type": "address"
        }
      ],
      "name": "ContributionPoolChanged",
      "type": "event"
    },
    {
      "anonymous": false,
      "inputs": [
        {
          "indexed": false,
          "internalType": "uint256",
          "name": "timestamp",
          "type": "uint256"
        },
        {
          "indexed": false,
          "internalType": "uint256",
          "name": "seigniorage",
          "type": "uint256"
        }
      ],
      "name": "ContributionPoolFunded",
      "type": "event"
    },
    {
      "anonymous": false,
      "inputs": [
        {
          "indexed": true,
          "internalType": "address",
          "name": "operator",
          "type": "address"
        },
        {
          "indexed": false,
          "internalType": "uint256",
          "name": "newRate",
          "type": "uint256"
        }
      ],
      "name": "ContributionPoolRateChanged",
      "type": "event"
    },
    {
      "anonymous": false,
      "inputs": [
        {
          "indexed": true,
          "internalType": "address",
          "name": "executor",
          "type": "address"
        },
        {
          "indexed": false,
          "internalType": "uint256",
          "name": "at",
          "type": "uint256"
        }
      ],
      "name": "Initialized",
      "type": "event"
    },
    {
      "anonymous": false,
      "inputs": [
        {
          "indexed": true,
          "internalType": "address",
          "name": "target",
          "type": "address"
        }
      ],
      "name": "Migration",
      "type": "event"
    },
    {
      "anonymous": false,
      "inputs": [
        {
          "indexed": true,
          "internalType": "address",
          "name": "previousOperator",
          "type": "address"
        },
        {
          "indexed": true,
          "internalType": "address",
          "name": "newOperator",
          "type": "address"
        }
      ],
      "name": "OperatorTransferred",
      "type": "event"
    },
    {
      "anonymous": false,
      "inputs": [
        {
          "indexed": true,
          "internalType": "address",
          "name": "previousOwner",
          "type": "address"
        },
        {
          "indexed": true,
          "internalType": "address",
          "name": "newOwner",
          "type": "address"
        }
      ],
      "name": "OwnershipTransferred",
      "type": "event"
    },
    {
      "anonymous": false,
      "inputs": [
        {
          "indexed": true,
          "internalType": "address",
          "name": "from",
          "type": "address"
        },
        {
          "indexed": false,
          "internalType": "uint256",
          "name": "amount",
          "type": "uint256"
        }
      ],
      "name": "RedeemedBonds",
      "type": "event"
    },
    {
      "anonymous": false,
      "inputs": [
        {
          "indexed": false,
          "internalType": "uint256",
          "name": "timestamp",
          "type": "uint256"
        },
        {
          "indexed": false,
          "internalType": "uint256",
          "name": "seigniorage",
          "type": "uint256"
        }
      ],
      "name": "TreasuryFunded",
      "type": "event"
    },
    {
      "inputs": [],
      "name": "accumulatedSeigniorage",
      "outputs": [
        {
          "internalType": "uint256",
          "name": "",
          "type": "uint256"
        }
      ],
      "stateMutability": "view",
      "type": "function",
      "constant": true
    },
    {
      "inputs": [],
      "name": "bond",
      "outputs": [
        {
          "internalType": "address",
          "name": "",
          "type": "address"
        }
      ],
      "stateMutability": "view",
      "type": "function",
      "constant": true
    },
    {
      "inputs": [],
      "name": "bondDepletionFloor",
      "outputs": [
        {
          "internalType": "uint256",
          "name": "",
          "type": "uint256"
        }
      ],
      "stateMutability": "view",
      "type": "function",
      "constant": true
    },
    {
      "inputs": [],
      "name": "bondOracle",
      "outputs": [
        {
          "internalType": "address",
          "name": "",
          "type": "address"
        }
      ],
      "stateMutability": "view",
      "type": "function",
      "constant": true
    },
    {
      "inputs": [],
      "name": "c_lpBoardroom",
      "outputs": [
        {
          "internalType": "address",
          "name": "",
          "type": "address"
        }
      ],
      "stateMutability": "view",
      "type": "function",
      "constant": true
    },
    {
      "inputs": [],
      "name": "c_s_percentage",
      "outputs": [
        {
          "internalType": "uint256",
          "name": "",
          "type": "uint256"
        }
      ],
      "stateMutability": "view",
      "type": "function",
      "constant": true
    },
    {
      "inputs": [],
      "name": "cash",
      "outputs": [
        {
          "internalType": "address",
          "name": "",
          "type": "address"
        }
      ],
      "stateMutability": "view",
      "type": "function",
      "constant": true
    },
    {
      "inputs": [],
      "name": "cashPriceCeiling",
      "outputs": [
        {
          "internalType": "uint256",
          "name": "",
          "type": "uint256"
        }
      ],
      "stateMutability": "view",
      "type": "function",
      "constant": true
    },
    {
      "inputs": [],
      "name": "cashPriceOne",
      "outputs": [
        {
          "internalType": "uint256",
          "name": "",
          "type": "uint256"
        }
      ],
      "stateMutability": "view",
      "type": "function",
      "constant": true
    },
    {
      "inputs": [],
      "name": "fund",
      "outputs": [
        {
          "internalType": "address",
          "name": "",
          "type": "address"
        }
      ],
      "stateMutability": "view",
      "type": "function",
      "constant": true
    },
    {
      "inputs": [],
      "name": "fundAllocationRate",
      "outputs": [
        {
          "internalType": "uint256",
          "name": "",
          "type": "uint256"
        }
      ],
      "stateMutability": "view",
      "type": "function",
      "constant": true
    },
    {
      "inputs": [],
      "name": "getCurrentEpoch",
      "outputs": [
        {
          "internalType": "uint256",
          "name": "",
          "type": "uint256"
        }
      ],
      "stateMutability": "view",
      "type": "function",
      "constant": true
    },
    {
      "inputs": [],
      "name": "getPeriod",
      "outputs": [
        {
          "internalType": "uint256",
          "name": "",
          "type": "uint256"
        }
      ],
      "stateMutability": "view",
      "type": "function",
      "constant": true
    },
    {
      "inputs": [],
      "name": "getStartTime",
      "outputs": [
        {
          "internalType": "uint256",
          "name": "",
          "type": "uint256"
        }
      ],
      "stateMutability": "view",
      "type": "function",
      "constant": true
    },
    {
      "inputs": [],
      "name": "inflationPercent",
      "outputs": [
        {
          "internalType": "uint256",
          "name": "",
          "type": "uint256"
        }
      ],
      "stateMutability": "view",
      "type": "function",
      "constant": true
    },
    {
      "inputs": [],
      "name": "inflationPercentCeil",
      "outputs": [
        {
          "internalType": "uint256",
          "name": "",
          "type": "uint256"
        }
      ],
      "stateMutability": "view",
      "type": "function",
      "constant": true
    },
    {
      "inputs": [],
      "name": "initialized",
      "outputs": [
        {
          "internalType": "bool",
          "name": "",
          "type": "bool"
        }
      ],
      "stateMutability": "view",
      "type": "function",
      "constant": true
    },
    {
      "inputs": [],
      "name": "isOperator",
      "outputs": [
        {
          "internalType": "bool",
          "name": "",
          "type": "bool"
        }
      ],
      "stateMutability": "view",
      "type": "function",
      "constant": true
    },
    {
      "inputs": [],
      "name": "migrated",
      "outputs": [
        {
          "internalType": "bool",
          "name": "",
          "type": "bool"
        }
      ],
      "stateMutability": "view",
      "type": "function",
      "constant": true
    },
    {
      "inputs": [],
      "name": "nextEpochPoint",
      "outputs": [
        {
          "internalType": "uint256",
          "name": "",
          "type": "uint256"
        }
      ],
      "stateMutability": "view",
      "type": "function",
      "constant": true
    },
    {
      "inputs": [],
      "name": "operator",
      "outputs": [
        {
          "internalType": "address",
          "name": "",
          "type": "address"
        }
      ],
      "stateMutability": "view",
      "type": "function",
      "constant": true
    },
    {
      "inputs": [],
      "name": "owner",
      "outputs": [
        {
          "internalType": "address",
          "name": "",
          "type": "address"
        }
      ],
      "stateMutability": "view",
      "type": "function",
      "constant": true
    },
    {
      "inputs": [],
      "name": "referralRate",
      "outputs": [
        {
          "internalType": "uint256",
          "name": "",
          "type": "uint256"
        }
      ],
      "stateMutability": "view",
      "type": "function",
      "constant": true
    },
    {
      "inputs": [],
      "name": "renounceOwnership",
      "outputs": [],
      "stateMutability": "nonpayable",
      "type": "function"
    },
    {
      "inputs": [],
      "name": "s_lpBoardroom",
      "outputs": [
        {
          "internalType": "address",
          "name": "",
          "type": "address"
        }
      ],
      "stateMutability": "view",
      "type": "function",
      "constant": true
    },
    {
      "inputs": [],
      "name": "seigniorageCeil",
      "outputs": [
        {
          "internalType": "uint256",
          "name": "",
          "type": "uint256"
        }
      ],
      "stateMutability": "view",
      "type": "function",
      "constant": true
    },
    {
      "inputs": [],
      "name": "seigniorageOracle",
      "outputs": [
        {
          "internalType": "address",
          "name": "",
          "type": "address"
        }
      ],
      "stateMutability": "view",
      "type": "function",
      "constant": true
    },
    {
      "inputs": [
        {
          "internalType": "uint256",
          "name": "_period",
          "type": "uint256"
        }
      ],
      "name": "setPeriod",
      "outputs": [],
      "stateMutability": "nonpayable",
      "type": "function"
    },
    {
      "inputs": [],
      "name": "share",
      "outputs": [
        {
          "internalType": "address",
          "name": "",
          "type": "address"
        }
      ],
      "stateMutability": "view",
      "type": "function",
      "constant": true
    },
    {
      "inputs": [],
      "name": "tmpValue",
      "outputs": [
        {
          "internalType": "uint256",
          "name": "",
          "type": "uint256"
        }
      ],
      "stateMutability": "view",
      "type": "function",
      "constant": true
    },
    {
      "inputs": [
        {
          "internalType": "address",
          "name": "newOperator_",
          "type": "address"
        }
      ],
      "name": "transferOperator",
      "outputs": [],
      "stateMutability": "nonpayable",
      "type": "function"
    },
    {
      "inputs": [
        {
          "internalType": "address",
          "name": "newOwner",
          "type": "address"
        }
      ],
      "name": "transferOwnership",
      "outputs": [],
      "stateMutability": "nonpayable",
      "type": "function"
    },
    {
      "inputs": [],
      "name": "getReserve",
      "outputs": [
        {
          "internalType": "uint256",
          "name": "",
          "type": "uint256"
        }
      ],
      "stateMutability": "view",
      "type": "function",
      "constant": true
    },
    {
      "inputs": [],
      "name": "getBondOraclePrice",
      "outputs": [
        {
          "internalType": "uint256",
          "name": "",
          "type": "uint256"
        }
      ],
      "stateMutability": "view",
      "type": "function",
      "constant": true
    },
    {
      "inputs": [],
      "name": "getSeigniorageOraclePrice",
      "outputs": [
        {
          "internalType": "uint256",
          "name": "",
          "type": "uint256"
        }
      ],
      "stateMutability": "view",
      "type": "function",
      "constant": true
    },
    {
      "inputs": [],
      "name": "initialize",
      "outputs": [],
      "stateMutability": "nonpayable",
      "type": "function"
    },
    {
      "inputs": [
        {
          "internalType": "address",
          "name": "target",
          "type": "address"
        }
      ],
      "name": "migrate",
      "outputs": [],
      "stateMutability": "nonpayable",
      "type": "function"
    },
    {
      "inputs": [
        {
          "internalType": "address",
          "name": "newFund",
          "type": "address"
        }
      ],
      "name": "setFund",
      "outputs": [],
      "stateMutability": "nonpayable",
      "type": "function"
    },
    {
      "inputs": [
        {
          "internalType": "uint256",
          "name": "rate",
          "type": "uint256"
        }
      ],
      "name": "setFundAllocationRate",
      "outputs": [],
      "stateMutability": "nonpayable",
      "type": "function"
    },
    {
      "inputs": [
        {
          "internalType": "uint256",
          "name": "inflationPercentCeil_",
          "type": "uint256"
        }
      ],
      "name": "setInflationPercentCeil",
      "outputs": [],
      "stateMutability": "nonpayable",
      "type": "function"
    },
    {
      "inputs": [
        {
          "internalType": "uint256",
          "name": "_seigniorageCeil",
          "type": "uint256"
        }
      ],
      "name": "setSeigniorageCeil",
      "outputs": [],
      "stateMutability": "nonpayable",
      "type": "function"
    },
    {
      "inputs": [
        {
          "internalType": "uint256",
          "name": "_c_s_percentage",
          "type": "uint256"
        }
      ],
      "name": "setC_S_percentage",
      "outputs": [],
      "stateMutability": "nonpayable",
      "type": "function"
    },
    {
      "inputs": [
        {
          "internalType": "uint256",
          "name": "amount",
          "type": "uint256"
        },
        {
          "internalType": "uint256",
          "name": "targetPrice",
          "type": "uint256"
        }
      ],
      "name": "buyBonds",
      "outputs": [],
      "stateMutability": "nonpayable",
      "type": "function"
    },
    {
      "inputs": [
        {
          "internalType": "uint256",
          "name": "amount",
          "type": "uint256"
        },
        {
          "internalType": "uint256",
          "name": "targetPrice",
          "type": "uint256"
        }
      ],
      "name": "redeemBonds",
      "outputs": [],
      "stateMutability": "nonpayable",
      "type": "function"
    },
    {
      "inputs": [],
      "name": "tmpFunc",
      "outputs": [],
      "stateMutability": "nonpayable",
      "type": "function"
    },
    {
      "inputs": [],
      "name": "allocateSeigniorage",
      "outputs": [],
      "stateMutability": "nonpayable",
      "type": "function"
    },
    {
      "inputs": [
        {
          "internalType": "uint256",
          "name": "_withdrawLockupEpochs",
          "type": "uint256"
        },
        {
          "internalType": "uint256",
          "name": "_rewardLockupEpochs",
          "type": "uint256"
        },
        {
          "internalType": "uint256",
          "name": "_epochAlignTimestamp",
          "type": "uint256"
        },
        {
          "internalType": "uint256",
          "name": "_epochPeriod",
          "type": "uint256"
        }
      ],
      "name": "setLockUp",
      "outputs": [],
      "stateMutability": "nonpayable",
      "type": "function"
    }
  ],
  "bytecode": "0x60806040526006805461ffff191690556004600c556000601255600a601355600560145560016015553480156200003557600080fd5b50604051620047693803806200476983398181016040526101208110156200005c57600080fd5b508051602082015160408301516060840151608085015160a086015160c087015160e08801516101009098015196979596949593949293919290919061a8c0816000620000b2620000ac6200026b565b6200026f565b620000bc6200026b565b600280546001600160a01b0319166001600160a01b0392831617908190556040519116906000907f74da04524d50c64947f5dd5381ef1a4dca5cba8ed1d816243f9e48aa0b5617ed908290a3600392909255600455600555600780546001600160a01b03199081166001600160a01b038c8116919091179092556008805482168b84161790556009805482168a8416179055600d80548216898416179055600e80548216888416179055600a80548216878416179055600b80549091168583161790556006805462010000600160b01b0319166201000092851692909202919091179055670de0b6b3a7640000600f819055620001e490606490620001d090606990620002c1602090811b6200359a17901c565b6200032860201b620036161790919060201c565b6010819055506200020f612710620001d0600f54601554620002c160201b6200359a1790919060201c565b60168190555062000234600f54620186a0620002c160201b6200359a1790919060201c565b60178190555062000258600f546103e8620002c160201b6200359a1790919060201c565b6011555062000419975050505050505050565b3390565b600180546001600160a01b038381166001600160a01b0319831681179093556040519116919082907f8be0079c531659141344cd1fd0a4f28419497f9722a3daafe3b4186f6b6457e090600090a35050565b600082620002d25750600062000322565b82820282848281620002e057fe5b04146200031f5760405162461bcd60e51b8152600401808060200182810382526021815260200180620047486021913960400191505060405180910390fd5b90505b92915050565b60006200031f83836040518060400160405280601a81526020017f536166654d6174683a206469766973696f6e206279207a65726f0000000000008152506200037260201b60201c565b60008183620004025760405162461bcd60e51b81526004018080602001828103825283818151815260200191508051906020019080838360005b83811015620003c6578181015183820152602001620003ac565b50505050905090810190601f168015620003f45780820380516001836020036101000a031916815260200191505b509250505060405180910390fd5b5060008385816200040f57fe5b0495945050505050565b61431f80620004296000396000f3fe608060405234801561001057600080fd5b50600436106103155760003560e01c80636b1235dc116101a7578063b8e2cf8e116100ee578063c828371e11610097578063e03047b711610071578063e03047b714610612578063f2fde38b1461061a578063fc9506861461064d57610315565b8063c828371e146105a8578063ce5494bb146105b0578063d2a6fbc1146105e357610315565b8063c1aa3900116100c8578063c1aa39001461057b578063c3abf80214610583578063c5967c26146105a057610315565b8063b8e2cf8e14610563578063b97dd9e21461056b578063c1a297721461057357610315565b8063961be39111610150578063a9cfc46e1161012a578063a9cfc46e1461054b578063b55eb2e414610553578063b60d42881461055b57610315565b8063961be39114610533578063a053ce1f1461053b578063a8d5fd651461054357610315565b80638129fc1c116101815780638129fc1c146105065780638da5cb5b1461050e57806395b1828a1461051657610315565b80636b1235dc146104ee5780636d19921d146104f6578063715018a6146104fe57610315565b80632c678c641161026b57806354f04a11116102145780635b756179116101ee5780635b756179146104d65780635ec084dd146104de57806364c9ec6f146104e657610315565b806354f04a11146104a3578063570ca735146104c657806359bf5d39146104ce57610315565b80634668314411610245578063466831441461047657806349b1172b1461047e5780635183f3f51461048657610315565b80632c678c641461045e5780632d20df65146104665780634456eda21461046e57610315565b8063132eeaa7116102cd57806323ced135116102a757806323ced1351461041b57806327aef8221461042357806329605e771461042b57610315565b8063132eeaa7146103c6578063158ef93e146103f75780631ed241951461041357610315565b80630f3a9f65116102fe5780630f3a9f651461036c578063118ebbf91461038957806312facdc8146103ac57610315565b806308b1e1e91461031a5780630e21750f14610339575b600080fd5b6103376004803603602081101561033057600080fd5b5035610655565b005b6103376004803603602081101561034f57600080fd5b503573ffffffffffffffffffffffffffffffffffffffff166106ca565b6103376004803603602081101561038257600080fd5b50356107be565b6103376004803603604081101561039f57600080fd5b5080359060200135610833565b6103b461100d565b60408051918252519081900360200190f35b6103ce611013565b6040805173ffffffffffffffffffffffffffffffffffffffff9092168252519081900360200190f35b6103ff61102f565b604080519115158252519081900360200190f35b6103b461103d565b6103b4611043565b6103b4611049565b6103376004803603602081101561044157600080fd5b503573ffffffffffffffffffffffffffffffffffffffff1661104f565b6103ff611103565b6103ce61110c565b6103ff611128565b6103b4611168565b6103b461116e565b6103376004803603602081101561049c57600080fd5b5035611174565b610337600480360360408110156104b957600080fd5b50803590602001356111e9565b6103ce611963565b6103b461197f565b610337611985565b610337611ec0565b6103ce612209565b6103b4612225565b6103ce61222b565b610337612247565b6103376122f9565b6103ce612587565b6103376004803603602081101561052c57600080fd5b50356125a3565b6103ce612651565b6103b461266d565b6103ce612673565b6103b461268f565b6103ce612695565b6103ce6126b1565b6103b46126d3565b6103b46126fd565b6103b4612703565b6103b4612728565b6103376004803603602081101561059957600080fd5b503561272e565b6103b46127a3565b6103b46127c8565b610337600480360360208110156105c657600080fd5b503573ffffffffffffffffffffffffffffffffffffffff166127ce565b610337600480360360808110156105f957600080fd5b50803590602081013590604081013590606001356132bb565b6103b4613471565b6103376004803603602081101561063057600080fd5b503573ffffffffffffffffffffffffffffffffffffffff16613477565b6103b4613594565b60025473ffffffffffffffffffffffffffffffffffffffff1633146106c5576040517f08c379a00000000000000000000000000000000000000000000000000000000081526004018080602001828103825260248152602001806142406024913960400191505060405180910390fd5b600c55565b60025473ffffffffffffffffffffffffffffffffffffffff16331461073a576040517f08c379a00000000000000000000000000000000000000000000000000000000081526004018080602001828103825260248152602001806142406024913960400191505060405180910390fd5b6006805473ffffffffffffffffffffffffffffffffffffffff83166201000081027fffffffffffffffffffff0000000000000000000000000000000000000000ffff90921691909117909155604080519182525133917f970b0c70d6e9879d19345f9dbfd8bacae71546478b8bb2d8a56ad8927d3d436e919081900360200190a250565b60025473ffffffffffffffffffffffffffffffffffffffff16331461082e576040517f08c379a00000000000000000000000000000000000000000000000000000000081526004018080602001828103825260248152602001806142406024913960400191505060405180910390fd5b600355565b61083b613658565b15610891576040517f08c379a000000000000000000000000000000000000000000000000000000000815260040180806020018281038252602681526020018061428e6026913960400191505060405180910390fd5b610899613677565b156108ef576040517f08c379a000000000000000000000000000000000000000000000000000000000815260040180806020018281038252602681526020018061428e6026913960400191505060405180910390fd5b60065460ff161561096157604080517f08c379a000000000000000000000000000000000000000000000000000000000815260206004820152601260248201527f54726561737572793a206d696772617465640000000000000000000000000000604482015290519081900360640190fd5b6004544210156109d257604080517f08c379a000000000000000000000000000000000000000000000000000000000815260206004820152601660248201527f45706f63683a206e6f7420737461727465642079657400000000000000000000604482015290519081900360640190fd5b600754604080517f570ca7350000000000000000000000000000000000000000000000000000000081529051309273ffffffffffffffffffffffffffffffffffffffff169163570ca735916004808301926020929190829003018186803b158015610a3c57600080fd5b505afa158015610a50573d6000803e3d6000fd5b505050506040513d6020811015610a6657600080fd5b505173ffffffffffffffffffffffffffffffffffffffff16148015610b345750600854604080517f570ca7350000000000000000000000000000000000000000000000000000000081529051309273ffffffffffffffffffffffffffffffffffffffff169163570ca735916004808301926020929190829003018186803b158015610af057600080fd5b505afa158015610b04573d6000803e3d6000fd5b505050506040513d6020811015610b1a57600080fd5b505173ffffffffffffffffffffffffffffffffffffffff16145b8015610be95750600954604080517f570ca7350000000000000000000000000000000000000000000000000000000081529051309273ffffffffffffffffffffffffffffffffffffffff169163570ca735916004808301926020929190829003018186803b158015610ba557600080fd5b505afa158015610bb9573d6000803e3d6000fd5b505050506040513d6020811015610bcf57600080fd5b505173ffffffffffffffffffffffffffffffffffffffff16145b610c5457604080517f08c379a000000000000000000000000000000000000000000000000000000000815260206004820152601e60248201527f54726561737572793a206e656564206d6f7265207065726d697373696f6e0000604482015290519081900360640190fd5b60008211610cad576040517f08c379a000000000000000000000000000000000000000000000000000000000815260040180806020018281038252602e815260200180614107602e913960400191505060405180910390fd5b600d54600090610cd29073ffffffffffffffffffffffffffffffffffffffff16613696565b9050818114610d4257604080517f08c379a000000000000000000000000000000000000000000000000000000000815260206004820152601a60248201527f54726561737572793a2063617368207072696365206d6f766564000000000000604482015290519081900360640190fd5b6000610d52826305f5e10061359a565b90506010548111610dae576040517f08c379a00000000000000000000000000000000000000000000000000000000081526004018080602001828103825260328152602001806141356032913960400191505060405180910390fd5b600754604080517f70a082310000000000000000000000000000000000000000000000000000000081523060048201529051869273ffffffffffffffffffffffffffffffffffffffff16916370a08231916024808301926020929190829003018186803b158015610e1e57600080fd5b505afa158015610e32573d6000803e3d6000fd5b505050506040513d6020811015610e4857600080fd5b50511015610ea1576040517f08c379a00000000000000000000000000000000000000000000000000000000081526004018080602001828103825260258152602001806141946025913960400191505060405180910390fd5b610eb9610eb060125486613792565b601254906137a8565b601255600854604080517f79cc679000000000000000000000000000000000000000000000000000000000815233600482015260248101879052905173ffffffffffffffffffffffffffffffffffffffff909216916379cc67909160448082019260009290919082900301818387803b158015610f3557600080fd5b505af1158015610f49573d6000803e3d6000fd5b5050600754610f72925073ffffffffffffffffffffffffffffffffffffffff16905033866137ea565b610f7a61387c565b60408051858152905133917f9c3478f12dce08d85673d802af16ed5b9ebab8420ffd7b145d65d3157084b2ce919081900360200190a2505043600090815260208181526040808320328452909152808220805460017fffffffffffffffffffffffffffffffffffffffffffffffffffffffffffffff00918216811790925533845291909220805490911690911790555050565b60175481565b600e5473ffffffffffffffffffffffffffffffffffffffff1681565b600654610100900460ff1681565b60035490565b60105481565b60125481565b61105761397c565b73ffffffffffffffffffffffffffffffffffffffff16611075612587565b73ffffffffffffffffffffffffffffffffffffffff16146110f757604080517f08c379a000000000000000000000000000000000000000000000000000000000815260206004820181905260248201527f4f776e61626c653a2063616c6c6572206973206e6f7420746865206f776e6572604482015290519081900360640190fd5b61110081613980565b50565b60065460ff1681565b600a5473ffffffffffffffffffffffffffffffffffffffff1681565b60025460009073ffffffffffffffffffffffffffffffffffffffff1661114c61397c565b73ffffffffffffffffffffffffffffffffffffffff1614905090565b60165481565b60155481565b60025473ffffffffffffffffffffffffffffffffffffffff1633146111e4576040517f08c379a00000000000000000000000000000000000000000000000000000000081526004018080602001828103825260248152602001806142406024913960400191505060405180910390fd5b601755565b6111f1613658565b15611247576040517f08c379a000000000000000000000000000000000000000000000000000000000815260040180806020018281038252602681526020018061428e6026913960400191505060405180910390fd5b61124f613677565b156112a5576040517f08c379a000000000000000000000000000000000000000000000000000000000815260040180806020018281038252602681526020018061428e6026913960400191505060405180910390fd5b60065460ff161561131757604080517f08c379a000000000000000000000000000000000000000000000000000000000815260206004820152601260248201527f54726561737572793a206d696772617465640000000000000000000000000000604482015290519081900360640190fd5b60045442101561138857604080517f08c379a000000000000000000000000000000000000000000000000000000000815260206004820152601660248201527f45706f63683a206e6f7420737461727465642079657400000000000000000000604482015290519081900360640190fd5b600754604080517f570ca7350000000000000000000000000000000000000000000000000000000081529051309273ffffffffffffffffffffffffffffffffffffffff169163570ca735916004808301926020929190829003018186803b1580156113f257600080fd5b505afa158015611406573d6000803e3d6000fd5b505050506040513d602081101561141c57600080fd5b505173ffffffffffffffffffffffffffffffffffffffff161480156114ea5750600854604080517f570ca7350000000000000000000000000000000000000000000000000000000081529051309273ffffffffffffffffffffffffffffffffffffffff169163570ca735916004808301926020929190829003018186803b1580156114a657600080fd5b505afa1580156114ba573d6000803e3d6000fd5b505050506040513d60208110156114d057600080fd5b505173ffffffffffffffffffffffffffffffffffffffff16145b801561159f5750600954604080517f570ca7350000000000000000000000000000000000000000000000000000000081529051309273ffffffffffffffffffffffffffffffffffffffff169163570ca735916004808301926020929190829003018186803b15801561155b57600080fd5b505afa15801561156f573d6000803e3d6000fd5b505050506040513d602081101561158557600080fd5b505173ffffffffffffffffffffffffffffffffffffffff16145b61160a57604080517f08c379a000000000000000000000000000000000000000000000000000000000815260206004820152601e60248201527f54726561737572793a206e656564206d6f7265207065726d697373696f6e0000604482015290519081900360640190fd5b60008211611663576040517f08c379a00000000000000000000000000000000000000000000000000000000081526004018080602001828103825260308152602001806142106030913960400191505060405180910390fd5b600d546000906116889073ffffffffffffffffffffffffffffffffffffffff16613696565b90508181146116f857604080517f08c379a000000000000000000000000000000000000000000000000000000000815260206004820152601a60248201527f54726561737572793a2063617368207072696365206d6f766564000000000000604482015290519081900360640190fd5b6000611708826305f5e10061359a565b9050600f548110611764576040517f08c379a00000000000000000000000000000000000000000000000000000000081526004018080602001828103825260328152602001806141356032913960400191505060405180910390fd5b816000611775826305f5e10061359a565b600754604080517f79cc6790000000000000000000000000000000000000000000000000000000008152336004820152602481018a9052905192935073ffffffffffffffffffffffffffffffffffffffff909116916379cc67909160448082019260009290919082900301818387803b1580156117f157600080fd5b505af1158015611805573d6000803e3d6000fd5b505060085473ffffffffffffffffffffffffffffffffffffffff1691506340c10f19905033611846846118408b670de0b6b3a764000061359a565b90613616565b6040518363ffffffff1660e01b8152600401808373ffffffffffffffffffffffffffffffffffffffff16815260200182815260200192505050602060405180830381600087803b15801561189957600080fd5b505af11580156118ad573d6000803e3d6000fd5b505050506040513d60208110156118c357600080fd5b506118ce905061387c565b60408051878152905133917fdbf5270c3cf4729fec4fdac76fda864aa4f3d14d657ad21772ac28f627141ed9919081900360200190a2505043600090815260208181526040808320328452909152808220805460017fffffffffffffffffffffffffffffffffffffffffffffffffffffffffffffff009182168117909255338452919092208054909116909117905550505050565b60025473ffffffffffffffffffffffffffffffffffffffff1690565b60125490565b61198d61387c565b600e546000906119b29073ffffffffffffffffffffffffffffffffffffffff16613696565b905060006119c4826305f5e10061359a565b905060105481116119d6575050611ebe565b6000611a78601254600760009054906101000a900473ffffffffffffffffffffffffffffffffffffffff1673ffffffffffffffffffffffffffffffffffffffff166318160ddd6040518163ffffffff1660e01b815260040160206040518083038186803b158015611a4657600080fd5b505afa158015611a5a573d6000803e3d6000fd5b505050506040513d6020811015611a7057600080fd5b5051906137a8565b90506000611a91601054846137a890919063ffffffff16565b9050611a9f81601654613792565b90506000611ab9670de0b6b3a7640000611840858561359a565b9050611ac781601754613792565b600754604080517f40c10f1900000000000000000000000000000000000000000000000000000000815230600482015260248101849052905192935073ffffffffffffffffffffffffffffffffffffffff909116916340c10f19916044808201926020929091908290030181600087803b158015611b4457600080fd5b505af1158015611b58573d6000803e3d6000fd5b505050506040513d6020811015611b6e57600080fd5b5050601354600090611b889060649061184090859061359a565b90508015611cce57600654600754611bc19173ffffffffffffffffffffffffffffffffffffffff91821691620100009091041683613a76565b600654600754604080517fbfe07da600000000000000000000000000000000000000000000000000000000815273ffffffffffffffffffffffffffffffffffffffff92831660048201526024810185905260606044820152602060648201527f54726561737572793a20536569676e696f7261676520416c6c6f636174696f6e60848201529051620100009093049091169163bfe07da69160a48082019260009290919082900301818387803b158015611c7a57600080fd5b505af1158015611c8e573d6000803e3d6000fd5b5050604080514281526020810185905281517f4caa64211297e9263667fef70732dc65ca7a8e8c60dc72539ed94518628212d09450908190039091019150a15b611cd882826137a8565b9150818015611eb6576000611cfd600a611840600c548561359a90919063ffffffff16565b90506000611d0b83836137a8565b600a54600754919250611d389173ffffffffffffffffffffffffffffffffffffffff908116911684613a76565b600a54604080517f97ffe1d700000000000000000000000000000000000000000000000000000000815260048101859052905173ffffffffffffffffffffffffffffffffffffffff909216916397ffe1d79160248082019260009290919082900301818387803b158015611dab57600080fd5b505af1158015611dbf573d6000803e3d6000fd5b5050600b54600754611ded935073ffffffffffffffffffffffffffffffffffffffff90811692501683613a76565b600b54604080517f97ffe1d700000000000000000000000000000000000000000000000000000000815260048101849052905173ffffffffffffffffffffffffffffffffffffffff909216916397ffe1d79160248082019260009290919082900301818387803b158015611e6057600080fd5b505af1158015611e74573d6000803e3d6000fd5b5050604080514281526020810187905281517f03ca7276ab7799bf73fb79d27ff0610cd7049574f2508ef8445162833d439aea9450908190039091019150a150505b505050505050505b565b611ec861387c565b600e54600090611eed9073ffffffffffffffffffffffffffffffffffffffff16613696565b90506000611efd826103e861359a565b90506010548111611f0f575050611ebe565b6000611f7f601254600760009054906101000a900473ffffffffffffffffffffffffffffffffffffffff1673ffffffffffffffffffffffffffffffffffffffff166318160ddd6040518163ffffffff1660e01b815260040160206040518083038186803b158015611a4657600080fd5b90506000611f98601054846137a890919063ffffffff16565b9050611fa681601654613792565b90506000611fc0670de0b6b3a7640000611840858561359a565b9050611fce81601754613792565b600754604080517f40c10f1900000000000000000000000000000000000000000000000000000000815230600482015260248101849052905192935073ffffffffffffffffffffffffffffffffffffffff909116916340c10f19916044808201926020929091908290030181600087803b15801561204b57600080fd5b505af115801561205f573d6000803e3d6000fd5b505050506040513d602081101561207557600080fd5b505060135460009061208f9060649061184090859061359a565b905080156121d5576006546007546120c89173ffffffffffffffffffffffffffffffffffffffff91821691620100009091041683613a76565b600654600754604080517fbfe07da600000000000000000000000000000000000000000000000000000000815273ffffffffffffffffffffffffffffffffffffffff92831660048201526024810185905260606044820152602060648201527f54726561737572793a20536569676e696f7261676520416c6c6f636174696f6e60848201529051620100009093049091169163bfe07da69160a48082019260009290919082900301818387803b15801561218157600080fd5b505af1158015612195573d6000803e3d6000fd5b5050604080514281526020810185905281517f4caa64211297e9263667fef70732dc65ca7a8e8c60dc72539ed94518628212d09450908190039091019150a15b6121df82826137a8565b60188190559150818015611eb6576000611cfd600a611840600c548561359a90919063ffffffff16565b60085473ffffffffffffffffffffffffffffffffffffffff1681565b60185481565b600d5473ffffffffffffffffffffffffffffffffffffffff1681565b61224f61397c565b73ffffffffffffffffffffffffffffffffffffffff1661226d612587565b73ffffffffffffffffffffffffffffffffffffffff16146122ef57604080517f08c379a000000000000000000000000000000000000000000000000000000000815260206004820181905260248201527f4f776e61626c653a2063616c6c6572206973206e6f7420746865206f776e6572604482015290519081900360640190fd5b611ebe6000613c04565b600654610100900460ff161561237057604080517f08c379a000000000000000000000000000000000000000000000000000000000815260206004820152601560248201527f54726561737572793a20696e697469616c697a65640000000000000000000000604482015290519081900360640190fd5b600754604080517f70a08231000000000000000000000000000000000000000000000000000000008152306004820152905173ffffffffffffffffffffffffffffffffffffffff909216916342966c689183916370a0823191602480820192602092909190829003018186803b1580156123e957600080fd5b505afa1580156123fd573d6000803e3d6000fd5b505050506040513d602081101561241357600080fd5b5051604080517fffffffff0000000000000000000000000000000000000000000000000000000060e085901b168152600481019290925251602480830192600092919082900301818387803b15801561246b57600080fd5b505af115801561247f573d6000803e3d6000fd5b5050600754604080517f70a08231000000000000000000000000000000000000000000000000000000008152306004820152905173ffffffffffffffffffffffffffffffffffffffff90921693506370a082319250602480820192602092909190829003018186803b1580156124f457600080fd5b505afa158015612508573d6000803e3d6000fd5b505050506040513d602081101561251e57600080fd5b5051601255600680547fffffffffffffffffffffffffffffffffffffffffffffffffffffffffffff00ff1661010017905560408051438152905133917f25ff68dd81b34665b5ba7e553ee5511bf6812e12adb4a7e2c0d9e26b3099ce79919081900360200190a2565b60015473ffffffffffffffffffffffffffffffffffffffff1690565b60025473ffffffffffffffffffffffffffffffffffffffff163314612613576040517f08c379a00000000000000000000000000000000000000000000000000000000081526004018080602001828103825260248152602001806142406024913960400191505060405180910390fd5b601381905560408051828152905133917f25ba333c9a98f8f18bb40ff507a4a1fb423614f442759c754d038a9de3f81cf3919081900360200190a250565b60075473ffffffffffffffffffffffffffffffffffffffff1681565b60145481565b60095473ffffffffffffffffffffffffffffffffffffffff1681565b600f5481565b600b5473ffffffffffffffffffffffffffffffffffffffff1681565b60065462010000900473ffffffffffffffffffffffffffffffffffffffff1681565b600e546000906126f89073ffffffffffffffffffffffffffffffffffffffff16613696565b905090565b60055490565b600d546000906126f89073ffffffffffffffffffffffffffffffffffffffff16613696565b60135481565b60025473ffffffffffffffffffffffffffffffffffffffff16331461279e576040517f08c379a00000000000000000000000000000000000000000000000000000000081526004018080602001828103825260248152602001806142406024913960400191505060405180910390fd5b601655565b60006126f86127bf60035460055461359a90919063ffffffff16565b60045490613c7b565b60045490565b60025473ffffffffffffffffffffffffffffffffffffffff16331461283e576040517f08c379a00000000000000000000000000000000000000000000000000000000081526004018080602001828103825260248152602001806142406024913960400191505060405180910390fd5b600754604080517f570ca7350000000000000000000000000000000000000000000000000000000081529051309273ffffffffffffffffffffffffffffffffffffffff169163570ca735916004808301926020929190829003018186803b1580156128a857600080fd5b505afa1580156128bc573d6000803e3d6000fd5b505050506040513d60208110156128d257600080fd5b505173ffffffffffffffffffffffffffffffffffffffff161480156129a05750600854604080517f570ca7350000000000000000000000000000000000000000000000000000000081529051309273ffffffffffffffffffffffffffffffffffffffff169163570ca735916004808301926020929190829003018186803b15801561295c57600080fd5b505afa158015612970573d6000803e3d6000fd5b505050506040513d602081101561298657600080fd5b505173ffffffffffffffffffffffffffffffffffffffff16145b8015612a555750600954604080517f570ca7350000000000000000000000000000000000000000000000000000000081529051309273ffffffffffffffffffffffffffffffffffffffff169163570ca735916004808301926020929190829003018186803b158015612a1157600080fd5b505afa158015612a25573d6000803e3d6000fd5b505050506040513d6020811015612a3b57600080fd5b505173ffffffffffffffffffffffffffffffffffffffff16145b612ac057604080517f08c379a000000000000000000000000000000000000000000000000000000000815260206004820152601e60248201527f54726561737572793a206e656564206d6f7265207065726d697373696f6e0000604482015290519081900360640190fd5b60065460ff1615612b3257604080517f08c379a000000000000000000000000000000000000000000000000000000000815260206004820152601260248201527f54726561737572793a206d696772617465640000000000000000000000000000604482015290519081900360640190fd5b600754604080517f29605e7700000000000000000000000000000000000000000000000000000000815273ffffffffffffffffffffffffffffffffffffffff8481166004830152915191909216916329605e7791602480830192600092919082900301818387803b158015612ba657600080fd5b505af1158015612bba573d6000803e3d6000fd5b5050600754604080517ff2fde38b00000000000000000000000000000000000000000000000000000000815273ffffffffffffffffffffffffffffffffffffffff8681166004830152915191909216935063f2fde38b9250602480830192600092919082900301818387803b158015612c3257600080fd5b505af1158015612c46573d6000803e3d6000fd5b5050600754604080517f70a08231000000000000000000000000000000000000000000000000000000008152306004820152905173ffffffffffffffffffffffffffffffffffffffff909216935063a9059cbb9250849184916370a08231916024808301926020929190829003018186803b158015612cc457600080fd5b505afa158015612cd8573d6000803e3d6000fd5b505050506040513d6020811015612cee57600080fd5b5051604080517fffffffff0000000000000000000000000000000000000000000000000000000060e086901b16815273ffffffffffffffffffffffffffffffffffffffff909316600484015260248301919091525160448083019260209291908290030181600087803b158015612d6457600080fd5b505af1158015612d78573d6000803e3d6000fd5b505050506040513d6020811015612d8e57600080fd5b5050600854604080517f29605e7700000000000000000000000000000000000000000000000000000000815273ffffffffffffffffffffffffffffffffffffffff8481166004830152915191909216916329605e7791602480830192600092919082900301818387803b158015612e0457600080fd5b505af1158015612e18573d6000803e3d6000fd5b5050600854604080517ff2fde38b00000000000000000000000000000000000000000000000000000000815273ffffffffffffffffffffffffffffffffffffffff8681166004830152915191909216935063f2fde38b9250602480830192600092919082900301818387803b158015612e9057600080fd5b505af1158015612ea4573d6000803e3d6000fd5b5050600854604080517f70a08231000000000000000000000000000000000000000000000000000000008152306004820152905173ffffffffffffffffffffffffffffffffffffffff909216935063a9059cbb9250849184916370a08231916024808301926020929190829003018186803b158015612f2257600080fd5b505afa158015612f36573d6000803e3d6000fd5b505050506040513d6020811015612f4c57600080fd5b5051604080517fffffffff0000000000000000000000000000000000000000000000000000000060e086901b16815273ffffffffffffffffffffffffffffffffffffffff909316600484015260248301919091525160448083019260209291908290030181600087803b158015612fc257600080fd5b505af1158015612fd6573d6000803e3d6000fd5b505050506040513d6020811015612fec57600080fd5b5050600954604080517f29605e7700000000000000000000000000000000000000000000000000000000815273ffffffffffffffffffffffffffffffffffffffff8481166004830152915191909216916329605e7791602480830192600092919082900301818387803b15801561306257600080fd5b505af1158015613076573d6000803e3d6000fd5b5050600954604080517ff2fde38b00000000000000000000000000000000000000000000000000000000815273ffffffffffffffffffffffffffffffffffffffff8681166004830152915191909216935063f2fde38b9250602480830192600092919082900301818387803b1580156130ee57600080fd5b505af1158015613102573d6000803e3d6000fd5b5050600954604080517f70a08231000000000000000000000000000000000000000000000000000000008152306004820152905173ffffffffffffffffffffffffffffffffffffffff909216935063a9059cbb9250849184916370a08231916024808301926020929190829003018186803b15801561318057600080fd5b505afa158015613194573d6000803e3d6000fd5b505050506040513d60208110156131aa57600080fd5b5051604080517fffffffff0000000000000000000000000000000000000000000000000000000060e086901b16815273ffffffffffffffffffffffffffffffffffffffff909316600484015260248301919091525160448083019260209291908290030181600087803b15801561322057600080fd5b505af1158015613234573d6000803e3d6000fd5b505050506040513d602081101561324a57600080fd5b5050600680547fffffffffffffffffffffffffffffffffffffffffffffffffffffffffffffff0016600117905560405173ffffffffffffffffffffffffffffffffffffffff8216907f0caca70b66aed56b0630989a049110023c5a3f37e0ea4b6ce96fc747663f3ebc90600090a250565b60025473ffffffffffffffffffffffffffffffffffffffff16331461332b576040517f08c379a00000000000000000000000000000000000000000000000000000000081526004018080602001828103825260248152602001806142406024913960400191505060405180910390fd5b600a54604080517fd2a6fbc100000000000000000000000000000000000000000000000000000000815260048101879052602481018690526044810185905260648101849052905173ffffffffffffffffffffffffffffffffffffffff9092169163d2a6fbc19160848082019260009290919082900301818387803b1580156133b357600080fd5b505af11580156133c7573d6000803e3d6000fd5b5050600b54604080517fd2a6fbc100000000000000000000000000000000000000000000000000000000815260048101899052602481018890526044810187905260648101869052905173ffffffffffffffffffffffffffffffffffffffff909216935063d2a6fbc1925060848082019260009290919082900301818387803b15801561345357600080fd5b505af1158015613467573d6000803e3d6000fd5b5050505050505050565b60115481565b61347f61397c565b73ffffffffffffffffffffffffffffffffffffffff1661349d612587565b73ffffffffffffffffffffffffffffffffffffffff161461351f57604080517f08c379a000000000000000000000000000000000000000000000000000000000815260206004820181905260248201527f4f776e61626c653a2063616c6c6572206973206e6f7420746865206f776e6572604482015290519081900360640190fd5b73ffffffffffffffffffffffffffffffffffffffff811661358b576040517f08c379a00000000000000000000000000000000000000000000000000000000081526004018080602001828103825260268152602001806140e16026913960400191505060405180910390fd5b61110081613c04565b600c5481565b6000826135a957506000613610565b828202828482816135b657fe5b041461360d576040517f08c379a00000000000000000000000000000000000000000000000000000000081526004018080602001828103825260218152602001806141b96021913960400191505060405180910390fd5b90505b92915050565b600061360d83836040518060400160405280601a81526020017f536166654d6174683a206469766973696f6e206279207a65726f000000000000815250613cef565b4360009081526020818152604080832032845290915290205460ff1690565b4360009081526020818152604080832033845290915290205460ff1690565b600754604080517f3ddac95300000000000000000000000000000000000000000000000000000000815273ffffffffffffffffffffffffffffffffffffffff9283166004820152670de0b6b3a764000060248201529051600092841691633ddac953916044808301926020929190829003018186803b15801561371857600080fd5b505afa92505050801561373d57506040513d602081101561373857600080fd5b505160015b613610576040517f08c379a00000000000000000000000000000000000000000000000000000000081526004018080602001828103825260368152602001806141da6036913960400191505060405180910390fd5b60008183106137a1578161360d565b5090919050565b600061360d83836040518060400160405280601e81526020017f536166654d6174683a207375627472616374696f6e206f766572666c6f770000815250613dab565b6040805173ffffffffffffffffffffffffffffffffffffffff8416602482015260448082018490528251808303909101815260649091019091526020810180517bffffffffffffffffffffffffffffffffffffffffffffffffffffffff167fa9059cbb00000000000000000000000000000000000000000000000000000000179052613877908490613e1f565b505050565b600d60009054906101000a900473ffffffffffffffffffffffffffffffffffffffff1673ffffffffffffffffffffffffffffffffffffffff1663a2e620456040518163ffffffff1660e01b8152600401600060405180830381600087803b1580156138e657600080fd5b505af19250505080156138f7575060015b50600e60009054906101000a900473ffffffffffffffffffffffffffffffffffffffff1673ffffffffffffffffffffffffffffffffffffffff1663a2e620456040518163ffffffff1660e01b8152600401600060405180830381600087803b15801561396257600080fd5b505af1925050508015613973575060015b611ebe57611ebe565b3390565b73ffffffffffffffffffffffffffffffffffffffff81166139ec576040517f08c379a000000000000000000000000000000000000000000000000000000000815260040180806020018281038252602d815260200180614167602d913960400191505060405180910390fd5b60405173ffffffffffffffffffffffffffffffffffffffff8216906000907f74da04524d50c64947f5dd5381ef1a4dca5cba8ed1d816243f9e48aa0b5617ed908290a3600280547fffffffffffffffffffffffff00000000000000000000000000000000000000001673ffffffffffffffffffffffffffffffffffffffff92909216919091179055565b801580613b225750604080517fdd62ed3e00000000000000000000000000000000000000000000000000000000815230600482015273ffffffffffffffffffffffffffffffffffffffff848116602483015291519185169163dd62ed3e91604480820192602092909190829003018186803b158015613af457600080fd5b505afa158015613b08573d6000803e3d6000fd5b505050506040513d6020811015613b1e57600080fd5b5051155b613b77576040517f08c379a00000000000000000000000000000000000000000000000000000000081526004018080602001828103825260368152602001806142b46036913960400191505060405180910390fd5b6040805173ffffffffffffffffffffffffffffffffffffffff8416602482015260448082018490528251808303909101815260649091019091526020810180517bffffffffffffffffffffffffffffffffffffffffffffffffffffffff167f095ea7b300000000000000000000000000000000000000000000000000000000179052613877908490613e1f565b6001805473ffffffffffffffffffffffffffffffffffffffff8381167fffffffffffffffffffffffff0000000000000000000000000000000000000000831681179093556040519116919082907f8be0079c531659141344cd1fd0a4f28419497f9722a3daafe3b4186f6b6457e090600090a35050565b60008282018381101561360d57604080517f08c379a000000000000000000000000000000000000000000000000000000000815260206004820152601b60248201527f536166654d6174683a206164646974696f6e206f766572666c6f770000000000604482015290519081900360640190fd5b60008183613d95576040517f08c379a00000000000000000000000000000000000000000000000000000000081526004018080602001828103825283818151815260200191508051906020019080838360005b83811015613d5a578181015183820152602001613d42565b50505050905090810190601f168015613d875780820380516001836020036101000a031916815260200191505b509250505060405180910390fd5b506000838581613da157fe5b0495945050505050565b60008184841115613e17576040517f08c379a0000000000000000000000000000000000000000000000000000000008152602060048201818152835160248401528351909283926044909101919085019080838360008315613d5a578181015183820152602001613d42565b505050900390565b6060613e81826040518060400160405280602081526020017f5361666545524332303a206c6f772d6c6576656c2063616c6c206661696c65648152508573ffffffffffffffffffffffffffffffffffffffff16613ef79092919063ffffffff16565b80519091501561387757808060200190516020811015613ea057600080fd5b5051613877576040517f08c379a000000000000000000000000000000000000000000000000000000000815260040180806020018281038252602a815260200180614264602a913960400191505060405180910390fd5b6060613f068484600085613f0e565b949350505050565b6060613f19856140da565b613f8457604080517f08c379a000000000000000000000000000000000000000000000000000000000815260206004820152601d60248201527f416464726573733a2063616c6c20746f206e6f6e2d636f6e7472616374000000604482015290519081900360640190fd5b600060608673ffffffffffffffffffffffffffffffffffffffff1685876040518082805190602001908083835b60208310613fee57805182527fffffffffffffffffffffffffffffffffffffffffffffffffffffffffffffffe09092019160209182019101613fb1565b6001836020036101000a03801982511681845116808217855250505050505090500191505060006040518083038185875af1925050503d8060008114614050576040519150601f19603f3d011682016040523d82523d6000602084013e614055565b606091505b50915091508115614069579150613f069050565b8051156140795780518082602001fd5b6040517f08c379a0000000000000000000000000000000000000000000000000000000008152602060048201818152865160248401528651879391928392604401919085019080838360008315613d5a578181015183820152602001613d42565b3b15159056fe4f776e61626c653a206e6577206f776e657220697320746865207a65726f206164647265737354726561737572793a2063616e6e6f742072656465656d20626f6e64732077697468207a65726f20616d6f756e7454726561737572793a20636173685072696365206e6f7420656c696769626c6520666f7220626f6e642070757263686173656f70657261746f723a207a65726f206164647265737320676976656e20666f72206e6577206f70657261746f7254726561737572793a20747265617375727920686173206e6f206d6f726520627564676574536166654d6174683a206d756c7469706c69636174696f6e206f766572666c6f7754726561737572793a206661696c656420746f20636f6e73756c7420636173682070726963652066726f6d20746865206f7261636c6554726561737572793a2063616e6e6f7420707572636861736520626f6e64732077697468207a65726f20616d6f756e746f70657261746f723a2063616c6c6572206973206e6f7420746865206f70657261746f725361666545524332303a204552433230206f7065726174696f6e20646964206e6f742073756363656564436f6e747261637447756172643a206f6e6520626c6f636b2c206f6e652066756e6374696f6e5361666545524332303a20617070726f76652066726f6d206e6f6e2d7a65726f20746f206e6f6e2d7a65726f20616c6c6f77616e6365a264697066735822122040317b549c333bccf6658e9d31debbc0aee77cbf5e387d264df44ce90fcc8b8464736f6c634300060c0033536166654d6174683a206d756c7469706c69636174696f6e206f766572666c6f77",
  "immutableReferences": {},
  "source": "// SPDX-License-Identifier: MIT\npragma solidity ^0.6.12;\n\nimport './Math/Math.sol';\nimport './ERC20/IERC20.sol';\nimport './ERC20/SafeERC20.sol';\nimport './Utils/ReentrancyGuard.sol';\n\nimport './interfaces/IOracle.sol';\nimport './interfaces/IBoardroom.sol';\nimport './interfaces/IBasisAsset.sol';\nimport './interfaces/ISimpleERCFund.sol';\nimport './Math/Babylonian.sol';\nimport './Math/FixedPoint.sol';\nimport './Math/Safe112.sol';\nimport './owner/Operator.sol';\nimport './Utils/Epoch.sol';\nimport './Utils/ContractGuard.sol';\nimport './interfaces/IReferral.sol';\n\n/**\n * @title Basis Cash Treasury contract\n * @notice Monetary policy logic to adjust supplies of basis cash assets\n * @author Summer Smith & Rick Sanchez\n */\ncontract Treasury is ContractGuard, Epoch {\n    using FixedPoint for *;\n    using SafeERC20 for IERC20;\n    using Address for address;\n    using SafeMath for uint256;\n    using Safe112 for uint112;\n\n    /* ========== STATE VARIABLES ========== */\n\n    // ========== FLAGS\n    bool public migrated = false; //TEST CASES DONE\n    bool public initialized = false; //TEST CASES DONE\n\n    // ========== CORE\n    address public fund; //TEST CASES DONE\n    address public cash; //TEST CASES DONE\n    address public bond; //TEST CASES DONE\n    address public share; //TEST CASES DONE\n    // address public boardroom;\n    address public c_lpBoardroom; //TEST CASES DONE\n    address public s_lpBoardroom; //TEST CASES DONE\n    // c_s_percentage means 40% belongs to c_lp and rest belongs to s_lp.\n    uint256 public c_s_percentage = 4; //TEST CASES DONE\n\n    address public bondOracle; //TEST CASES DONE\n    address public seigniorageOracle; //TEST CASES DONE\n\n    // ========== PARAMS\n    uint256 public cashPriceOne; //TEST CASES DONE\n    uint256 public cashPriceCeiling; //TEST CASES DONE\n    uint256 public bondDepletionFloor; //TEST CASES DONE\n    uint256 public accumulatedSeigniorage = 0; //TEST CASES DONE\n    // fundAllocationRate c tax in supercash = 10%\n    uint256 public fundAllocationRate = 10; // 10% //TEST CASES DONE\n    uint256 public referralRate = 5; //referral percentage is 5% //TEST CASES DONE\n    uint256 public inflationPercent = 1; //1 = 1/10000; 100 = 1%\n    uint256 public inflationPercentCeil; //DEFAULT VALUE IS 0.1E18 //TEST CASES DONE\n    uint256 public seigniorageCeil; //TEST CASES DONE\n\n    /* ========== CONSTRUCTOR ========== */\n    //TEST CASES DONE\n    constructor(\n        address _cash,\n        address _bond,\n        address _share,\n        address _bondOracle,\n        address _seigniorageOracle,\n    // address _boardroom,\n    // address _boardroom2,\n        address _c_lpBoardroom,\n        address _s_lpBoardroom,\n        address _fund,\n        uint256 _startTime\n    ) public Epoch(12 hours, _startTime, 0) {\n        cash = _cash;\n        bond = _bond;\n        share = _share;\n        bondOracle = _bondOracle;\n        seigniorageOracle = _seigniorageOracle;\n\n        // boardroom = _boardroom;\n        c_lpBoardroom = _c_lpBoardroom;\n        s_lpBoardroom = _s_lpBoardroom;\n        fund = _fund;\n\n        cashPriceOne = 10**18;\n        cashPriceCeiling = uint256(105).mul(cashPriceOne).div(10**2);\n\n        // inflation at most 10% xmancash\n        inflationPercentCeil = uint256(inflationPercent).mul(cashPriceOne).div(10**4);\n        seigniorageCeil = uint256(100000).mul(cashPriceOne);\n        bondDepletionFloor = uint256(1000).mul(cashPriceOne);\n    }\n\n    /* =================== Modifier =================== */\n\n    modifier checkMigration {\n        require(!migrated, 'Treasury: migrated');\n\n        _;\n    }\n\n    modifier checkOperator {\n        require(\n            IBasisAsset(cash).operator() == address(this) &&\n            IBasisAsset(bond).operator() == address(this) &&\n            IBasisAsset(share).operator() == address(this),\n        // Operator(c_lpBoardroom).operator() == address(this) &&\n        // Operator(s_lpBoardroom).operator() == address(this),\n        // Operator(boardroom).operator() == address(this),\n            'Treasury: need more permission'\n        );\n\n        _;\n    }\n\n    /* ========== VIEW FUNCTIONS ========== */\n\n    //TEST CASES DONE\n    function getReserve() public view returns (uint256) {\n        return accumulatedSeigniorage;\n    }\n\n    //TEST CASES DONE\n    function getBondOraclePrice() public view returns (uint256) {\n        return _getCashPrice(bondOracle);\n    }\n    //TEST CASES DONE\n    function getSeigniorageOraclePrice() public view returns (uint256) {\n        return _getCashPrice(seigniorageOracle);\n    }\n\n    // NO NEED TO TEST PRIVATE\n    function _getCashPrice(address oracle) internal view returns (uint256) {\n        try IOracle(oracle).consult(cash, 1e18) returns (uint256 price) {\n            return price;\n        } catch {\n            revert('Treasury: failed to consult cash price from the oracle');\n        }\n    }\n\n    /* ========== GOVERNANCE ========== */\n    // TEST CASES DONE\n    function initialize() public {\n        require(!initialized, 'Treasury: initialized');\n\n        // burn all of it's balance\n        IBasisAsset(cash).burn(IERC20(cash).balanceOf(address(this)));\n\n        // set accumulatedSeigniorage to it's balance\n        accumulatedSeigniorage = IERC20(cash).balanceOf(address(this));\n\n        initialized = true;\n        emit Initialized(msg.sender, block.number);\n    }\n    // TODO: [P2][LATER]\n    function migrate(address target) public onlyOperator checkOperator {\n        require(!migrated, 'Treasury: migrated');\n\n        // cash\n        Operator(cash).transferOperator(target);\n        Operator(cash).transferOwnership(target);\n        IERC20(cash).transfer(target, IERC20(cash).balanceOf(address(this)));\n\n        // bond\n        Operator(bond).transferOperator(target);\n        Operator(bond).transferOwnership(target);\n        IERC20(bond).transfer(target, IERC20(bond).balanceOf(address(this)));\n\n        // share\n        Operator(share).transferOperator(target);\n        Operator(share).transferOwnership(target);\n        IERC20(share).transfer(target, IERC20(share).balanceOf(address(this)));\n\n        migrated = true;\n        emit Migration(target);\n    }\n    // TEST CASES DONE\n    function setFund(address newFund) public onlyOperator {\n        fund = newFund;\n        emit ContributionPoolChanged(msg.sender, newFund);\n    }\n    // TEST CASES DONE\n    function setFundAllocationRate(uint256 rate) public onlyOperator {\n        fundAllocationRate = rate;\n        emit ContributionPoolRateChanged(msg.sender, rate);\n    }\n    // TEST CASES DONE\n    function setInflationPercentCeil(uint256 inflationPercentCeil_)\n    public\n    onlyOperator\n    {\n        inflationPercentCeil = inflationPercentCeil_;\n    }\n    // TEST CASES DONE\n    function setSeigniorageCeil(uint256 _seigniorageCeil)\n    public\n    onlyOperator\n    {\n        seigniorageCeil = _seigniorageCeil;\n    }\n    // TEST CASES DONE\n    function setC_S_percentage(uint256 _c_s_percentage)\n    public\n    onlyOperator\n    {\n        c_s_percentage = _c_s_percentage;\n    }\n\n\n\n    /* ========== MUTABLE FUNCTIONS ========== */\n    // NO NEED FOR INTERNAL\n    function _updateCashPrice() internal {\n        try IOracle(bondOracle).update()  {} catch {}\n        try IOracle(seigniorageOracle).update()  {} catch {}\n    }\n    // NO NEED TO DO FOR BONDS\n    function buyBonds(uint256 amount, uint256 targetPrice)\n    external\n    onlyOneBlock\n    checkMigration\n    checkStartTime\n    checkOperator\n    {\n        require(amount > 0, 'Treasury: cannot purchase bonds with zero amount');\n\n        uint256 cashPrice = _getCashPrice(bondOracle);\n        require(cashPrice == targetPrice, 'Treasury: cash price moved');\n        uint256 cashPrice_e18 = cashPrice.mul(1e8); // convert cashPrice to decimals 18\n        require(\n            cashPrice_e18 < cashPriceOne, // price < $1\n            'Treasury: cashPrice not eligible for bond purchase'\n        );\n\n        uint256 bondPrice = cashPrice;\n        uint256 bondPrice_e18 = bondPrice.mul(1e8); //convert bondPrice to decimals 18;\n\n        IBasisAsset(cash).burnFrom(msg.sender, amount);\n        IBasisAsset(bond).mint(msg.sender, amount.mul(1e18).div(bondPrice_e18));\n        _updateCashPrice();\n\n        emit BoughtBonds(msg.sender, amount);\n    }\n    // NO NEED TO DO FOR BONDS\n    function redeemBonds(uint256 amount, uint256 targetPrice)\n    external\n    onlyOneBlock\n    checkMigration\n    checkStartTime\n    checkOperator\n    {\n        require(amount > 0, 'Treasury: cannot redeem bonds with zero amount');\n\n        uint256 cashPrice = _getCashPrice(bondOracle);\n        require(cashPrice == targetPrice, 'Treasury: cash price moved');\n        uint256 cashPrice_e18 = cashPrice.mul(1e8); // convert cashPrice to decimals 18\n        require(\n            cashPrice_e18 > cashPriceCeiling, // price > $1.05\n            'Treasury: cashPrice not eligible for bond purchase'\n        );\n        require(\n            IERC20(cash).balanceOf(address(this)) >= amount,\n            'Treasury: treasury has no more budget'\n        );\n\n        accumulatedSeigniorage = accumulatedSeigniorage.sub(\n            Math.min(accumulatedSeigniorage, amount)\n        );\n\n        IBasisAsset(bond).burnFrom(msg.sender, amount);\n        IERC20(cash).safeTransfer(msg.sender, amount);\n        _updateCashPrice();\n\n        emit RedeemedBonds(msg.sender, amount);\n    }\n    uint256 public tmpValue;\n    function tmpFunc() external {\n        _updateCashPrice();\n        uint256 cashPrice = _getCashPrice(seigniorageOracle);\n        uint256 cashPrice_e18 = cashPrice.mul(1e3); // convert cashPrice to decimals 18\n\n        if (cashPrice_e18 <= cashPriceCeiling) {\n            return ; // just advance epoch instead revert\n        }\n\n        // circulating supply\n        uint256 cashSupply = IERC20(cash).totalSupply().sub(\n            accumulatedSeigniorage\n        );\n        // Note: we change cashPriceOne to cashPriceCeiling\n        uint256 percentage = cashPrice_e18.sub(cashPriceCeiling);\n\n        // add inflation\n        percentage = Math.min(percentage, inflationPercentCeil);\n        uint256 seigniorage = cashSupply.mul(percentage).div(1e18);\n        seigniorage = Math.min(seigniorage,seigniorageCeil);\n\n        IBasisAsset(cash).mint(address(this), seigniorage);\n\n        // ABOVE IS DONE\n        uint256 fundReserve = seigniorage.mul(fundAllocationRate).div(100);\n        if (fundReserve > 0) {\n            IERC20(cash).safeApprove(fund, fundReserve);\n            ISimpleERCFund(fund).deposit(\n                cash,\n                fundReserve,\n                'Treasury: Seigniorage Allocation'\n            );\n            emit ContributionPoolFunded(now, fundReserve);\n        }\n        seigniorage = seigniorage.sub(fundReserve);\n\n        uint256 boardroomReserve = seigniorage;\n        tmpValue = boardroomReserve;\n\n        if (boardroomReserve > 0) {\n            uint256 c_lpBoardroomReserve_Number = boardroomReserve.mul(c_s_percentage).div(10);\n            uint256 s_lpBoardroomReserve_Number = boardroomReserve.sub(c_lpBoardroomReserve_Number);\n\n\n            IERC20(cash).safeApprove(c_lpBoardroom, c_lpBoardroomReserve_Number);\n            IBoardroom(c_lpBoardroom).allocateSeigniorage(c_lpBoardroomReserve_Number);\n\n            IERC20(cash).safeApprove(s_lpBoardroom, s_lpBoardroomReserve_Number);\n            IBoardroom(s_lpBoardroom).allocateSeigniorage(s_lpBoardroomReserve_Number);\n\n\n            // IERC20(cash).safeApprove(boardroom, boardroomReserve);\n            // IBoardroom(boardroom).allocateSeigniorage(boardroomReserve);\n            emit BoardroomFunded(now, boardroomReserve);\n        }\n    }\n    // TEST CASES DONE\n    function allocateSeigniorage()\n    external\n    {\n\n        _updateCashPrice();\n        uint256 cashPrice = _getCashPrice(seigniorageOracle);\n        uint256 cashPrice_e18 = cashPrice.mul(1e8); // convert cashPrice to decimals 18\n\n        if (cashPrice_e18 <= cashPriceCeiling) {\n            return; // just advance epoch instead revert\n        }\n\n        // circulating supply\n        uint256 cashSupply = IERC20(cash).totalSupply().sub(\n            accumulatedSeigniorage\n        );\n        // Note: we change cashPriceOne to cashPriceCeiling\n        uint256 percentage = cashPrice_e18.sub(cashPriceCeiling);\n\n        // add inflation\n        percentage = Math.min(percentage, inflationPercentCeil);\n        uint256 seigniorage = cashSupply.mul(percentage).div(1e18);\n        seigniorage = Math.min(seigniorage,seigniorageCeil);\n\n        IBasisAsset(cash).mint(address(this), seigniorage);\n\n\n        // ======================== BIP-3\n        uint256 fundReserve = seigniorage.mul(fundAllocationRate).div(100);\n        if (fundReserve > 0) {\n            IERC20(cash).safeApprove(fund, fundReserve);\n            ISimpleERCFund(fund).deposit(\n                cash,\n                fundReserve,\n                'Treasury: Seigniorage Allocation'\n            );\n            emit ContributionPoolFunded(now, fundReserve);\n        }\n\n        seigniorage = seigniorage.sub(fundReserve);\n\n        // // ======================= REFERRAL\n        // uint256 referralReward = seigniorage.mul(referralRate).div(100);\n        // if (referralReward > 0) {\n        //     //get all referral address\n        //     address[] memory referralList = IReferral(c_lpBoardroom).getReferralList();\n        //     //get total referral referralAmount\n        //     uint256 totalReferralAmount = IReferral(c_lpBoardroom).getTotalReferralAmount();\n        //     //loop referralList to get the amount;\n        //     for (uint i = 0; i < referralList.length; i++) {\n        //         uint256 referralAmount = IReferral(c_lpBoardroom).getReferralAmount(referralList[i]);\n        //         uint256 referralRewardPerAddr = referralReward.mul(referralAmount).div(totalReferralAmount);\n        //         IERC20(cash).safeApprove(referralList[i], referralRewardPerAddr);\n        //         ISimpleERCFund(referralList[i]).deposit(cash, referralRewardPerAddr, 'Treasury: Seigniorage Allocation');\n        //         //                emit ContributionPoolFunded(now, referralRewardPerAddr);\n        //     }\n        // }\n\n        // seigniorage = seigniorage.sub(referralReward);\n\n        // ======================== BIP-4\n        // uint256 treasuryReserve = Math.min(\n        //     seigniorage,\n        //     IERC20(bond).totalSupply().sub(accumulatedSeigniorage)\n        // );\n        // if (treasuryReserve > 0) {\n        //     accumulatedSeigniorage = accumulatedSeigniorage.add(\n        //         treasuryReserve\n        //     );\n        //     emit TreasuryFunded(now, treasuryReserve);\n        // }\n\n        // // boardroom\n        uint256 boardroomReserve = seigniorage;\n        if (boardroomReserve > 0) {\n\n            uint256 c_lpBoardroomReserve_Number = boardroomReserve.mul(c_s_percentage).div(10);\n            uint256 s_lpBoardroomReserve_Number = boardroomReserve.sub(c_lpBoardroomReserve_Number);\n\n\n            IERC20(cash).safeApprove(c_lpBoardroom, c_lpBoardroomReserve_Number);\n            IBoardroom(c_lpBoardroom).allocateSeigniorage(c_lpBoardroomReserve_Number);\n\n            IERC20(cash).safeApprove(s_lpBoardroom, s_lpBoardroomReserve_Number);\n            IBoardroom(s_lpBoardroom).allocateSeigniorage(s_lpBoardroomReserve_Number);\n\n\n            // IERC20(cash).safeApprove(boardroom, boardroomReserve);\n            // IBoardroom(boardroom).allocateSeigniorage(boardroomReserve);\n            emit BoardroomFunded(now, boardroomReserve);\n        }\n    }\n    // TEST CASES DONE\n    function setLockUp(\n        uint256 _withdrawLockupEpochs,\n        uint256 _rewardLockupEpochs,\n        uint256 _epochAlignTimestamp,\n        uint256 _epochPeriod\n    // address boardroom_address\n    ) external onlyOperator {\n        // IBoardroom(boardroom_address).setLockUp(_withdrawLockupEpochs, _rewardLockupEpochs, _epochAlignTimestamp, _epochPeriod);\n        // IBoardroom(boardroom).setLockUp(_withdrawLockupEpochs, _rewardLockupEpochs, _epochAlignTimestamp, _epochPeriod);\n        IBoardroom(c_lpBoardroom).setLockUp(_withdrawLockupEpochs, _rewardLockupEpochs, _epochAlignTimestamp, _epochPeriod);\n        IBoardroom(s_lpBoardroom).setLockUp(_withdrawLockupEpochs, _rewardLockupEpochs, _epochAlignTimestamp, _epochPeriod);\n    }\n\n    // GOV\n    event Initialized(address indexed executor, uint256 at);\n    event Migration(address indexed target);\n    event ContributionPoolChanged(address indexed operator, address newFund);\n    event ContributionPoolRateChanged(\n        address indexed operator,\n        uint256 newRate\n    );\n\n    // CORE\n    event RedeemedBonds(address indexed from, uint256 amount);\n    event BoughtBonds(address indexed from, uint256 amount);\n    event TreasuryFunded(uint256 timestamp, uint256 seigniorage);\n    event BoardroomFunded(uint256 timestamp, uint256 seigniorage);\n    event ContributionPoolFunded(uint256 timestamp, uint256 seigniorage);\n}\n",
  "sourcePath": "/Users/cooper/GitHub/Prigogine/Ceres-Protocol/contracts/Treasury.sol",
  "compiler": {
    "name": "solc",
    "version": "0.6.12+commit.27d51765.Emscripten.clang"
  },
  "schemaVersion": "3.4.1",
  "updatedAt": "2021-07-29T03:47:51.304Z",
  "networkType": "ethereum",
  "devdoc": {
    "author": "Summer Smith & Rick Sanchez",
    "kind": "dev",
    "methods": {
      "owner()": {
        "details": "Returns the address of the current owner."
      },
      "renounceOwnership()": {
        "details": "Leaves the contract without owner. It will not be possible to call `onlyOwner` functions anymore. Can only be called by the current owner. NOTE: Renouncing ownership will leave the contract without an owner, thereby removing any functionality that is only available to the owner."
      },
      "transferOwnership(address)": {
        "details": "Transfers ownership of the contract to a new account (`newOwner`). Can only be called by the current owner."
      }
    },
    "title": "Basis Cash Treasury contract",
    "version": 1
  },
  "userdoc": {
    "kind": "user",
    "methods": {},
    "notice": "Monetary policy logic to adjust supplies of basis cash assets",
    "version": 1
  }
}