{
  "contractName": "UniswapPairOracle_CERES_WETH",
  "abi": [
    {
      "inputs": [
        {
          "internalType": "address",
          "name": "factory",
          "type": "address"
        },
        {
          "internalType": "address",
          "name": "tokenA",
          "type": "address"
        },
        {
          "internalType": "address",
          "name": "tokenB",
          "type": "address"
        },
        {
          "internalType": "address",
          "name": "owner_address",
          "type": "address"
        },
        {
          "internalType": "address",
          "name": "timelock_address",
          "type": "address"
        }
      ],
      "stateMutability": "nonpayable",
      "type": "constructor"
    },
    {
      "inputs": [],
      "name": "ALLOW_STALE_CONSULTS",
      "outputs": [
        {
          "internalType": "bool",
          "name": "",
          "type": "bool"
        }
      ],
      "stateMutability": "view",
      "type": "function",
      "constant": true
    },
    {
      "inputs": [],
      "name": "CONSULT_LENIENCY",
      "outputs": [
        {
          "internalType": "uint256",
          "name": "",
          "type": "uint256"
        }
      ],
      "stateMutability": "view",
      "type": "function",
      "constant": true
    },
    {
      "inputs": [],
      "name": "PERIOD",
      "outputs": [
        {
          "internalType": "uint256",
          "name": "",
          "type": "uint256"
        }
      ],
      "stateMutability": "view",
      "type": "function",
      "constant": true
    },
    {
      "inputs": [],
      "name": "blockTimestampLast",
      "outputs": [
        {
          "internalType": "uint32",
          "name": "",
          "type": "uint32"
        }
      ],
      "stateMutability": "view",
      "type": "function",
      "constant": true
    },
    {
      "inputs": [],
      "name": "canUpdate",
      "outputs": [
        {
          "internalType": "bool",
          "name": "",
          "type": "bool"
        }
      ],
      "stateMutability": "view",
      "type": "function",
      "constant": true
    },
    {
      "inputs": [
        {
          "internalType": "address",
          "name": "token",
          "type": "address"
        },
        {
          "internalType": "uint256",
          "name": "amountIn",
          "type": "uint256"
        }
      ],
      "name": "consult",
      "outputs": [
        {
          "internalType": "uint256",
          "name": "amountOut",
          "type": "uint256"
        }
      ],
      "stateMutability": "view",
      "type": "function",
      "constant": true
    },
    {
      "inputs": [],
      "name": "owner_address",
      "outputs": [
        {
          "internalType": "address",
          "name": "",
          "type": "address"
        }
      ],
      "stateMutability": "view",
      "type": "function",
      "constant": true
    },
    {
      "inputs": [],
      "name": "pair",
      "outputs": [
        {
          "internalType": "contract IUniswapV2Pair",
          "name": "",
          "type": "address"
        }
      ],
      "stateMutability": "view",
      "type": "function",
      "constant": true
    },
    {
      "inputs": [],
      "name": "pair_address",
      "outputs": [
        {
          "internalType": "address",
          "name": "",
          "type": "address"
        }
      ],
      "stateMutability": "view",
      "type": "function",
      "constant": true
    },
    {
      "inputs": [],
      "name": "price0Average",
      "outputs": [
        {
          "internalType": "uint224",
          "name": "_x",
          "type": "uint224"
        }
      ],
      "stateMutability": "view",
      "type": "function",
      "constant": true
    },
    {
      "inputs": [],
      "name": "price0CumulativeLast",
      "outputs": [
        {
          "internalType": "uint256",
          "name": "",
          "type": "uint256"
        }
      ],
      "stateMutability": "view",
      "type": "function",
      "constant": true
    },
    {
      "inputs": [],
      "name": "price1Average",
      "outputs": [
        {
          "internalType": "uint224",
          "name": "_x",
          "type": "uint224"
        }
      ],
      "stateMutability": "view",
      "type": "function",
      "constant": true
    },
    {
      "inputs": [],
      "name": "price1CumulativeLast",
      "outputs": [
        {
          "internalType": "uint256",
          "name": "",
          "type": "uint256"
        }
      ],
      "stateMutability": "view",
      "type": "function",
      "constant": true
    },
    {
      "inputs": [],
      "name": "reserve0",
      "outputs": [
        {
          "internalType": "uint112",
          "name": "",
          "type": "uint112"
        }
      ],
      "stateMutability": "view",
      "type": "function",
      "constant": true
    },
    {
      "inputs": [],
      "name": "reserve1",
      "outputs": [
        {
          "internalType": "uint112",
          "name": "",
          "type": "uint112"
        }
      ],
      "stateMutability": "view",
      "type": "function",
      "constant": true
    },
    {
      "inputs": [
        {
          "internalType": "bool",
          "name": "_allow_stale_consults",
          "type": "bool"
        }
      ],
      "name": "setAllowStaleConsults",
      "outputs": [],
      "stateMutability": "nonpayable",
      "type": "function"
    },
    {
      "inputs": [
        {
          "internalType": "uint256",
          "name": "_consult_leniency",
          "type": "uint256"
        }
      ],
      "name": "setConsultLeniency",
      "outputs": [],
      "stateMutability": "nonpayable",
      "type": "function"
    },
    {
      "inputs": [
        {
          "internalType": "address",
          "name": "_owner_address",
          "type": "address"
        }
      ],
      "name": "setOwner",
      "outputs": [],
      "stateMutability": "nonpayable",
      "type": "function"
    },
    {
      "inputs": [
        {
          "internalType": "uint256",
          "name": "_period",
          "type": "uint256"
        }
      ],
      "name": "setPeriod",
      "outputs": [],
      "stateMutability": "nonpayable",
      "type": "function"
    },
    {
      "inputs": [
        {
          "internalType": "address",
          "name": "_timelock_address",
          "type": "address"
        }
      ],
      "name": "setTimelock",
      "outputs": [],
      "stateMutability": "nonpayable",
      "type": "function"
    },
    {
      "inputs": [],
      "name": "timelock_address",
      "outputs": [
        {
          "internalType": "address",
          "name": "",
          "type": "address"
        }
      ],
      "stateMutability": "view",
      "type": "function",
      "constant": true
    },
    {
      "inputs": [],
      "name": "token0",
      "outputs": [
        {
          "internalType": "address",
          "name": "",
          "type": "address"
        }
      ],
      "stateMutability": "view",
      "type": "function",
      "constant": true
    },
    {
      "inputs": [],
      "name": "token1",
      "outputs": [
        {
          "internalType": "address",
          "name": "",
          "type": "address"
        }
      ],
      "stateMutability": "view",
      "type": "function",
      "constant": true
    },
    {
      "inputs": [],
      "name": "update",
      "outputs": [],
      "stateMutability": "nonpayable",
      "type": "function"
    }
  ],
  "bytecode": "0x60e0604052600560025560786003556004805460ff191660011790553480156200002857600080fd5b5060405162001b1f38038062001b1f833981810160405260a08110156200004e57600080fd5b5080516020808301516040840151606085015160809095015193949193909285908590859085908590600090620000949087908790879062000dbf6200040e821b17901c565b9050806001600160a01b03166080816001600160a01b031660601b81525050806001600160a01b0316630dfe16816040518163ffffffff1660e01b815260040160206040518083038186803b158015620000ed57600080fd5b505afa15801562000102573d6000803e3d6000fd5b505050506040513d60208110156200011957600080fd5b505160601b6001600160601b03191660a0526040805163d21220a760e01b815290516001600160a01b0383169163d21220a7916004808301926020929190829003018186803b1580156200016c57600080fd5b505afa15801562000181573d6000803e3d6000fd5b505050506040513d60208110156200019857600080fd5b505160601b6001600160601b03191660c05260408051635909c0d560e01b815290516001600160a01b03831691635909c0d5916004808301926020929190829003018186803b158015620001eb57600080fd5b505afa15801562000200573d6000803e3d6000fd5b505050506040513d60208110156200021757600080fd5b505160055560408051635a3d549360e01b815290516001600160a01b03831691635a3d5493916004808301926020929190829003018186803b1580156200025d57600080fd5b505afa15801562000272573d6000803e3d6000fd5b505050506040513d60208110156200028957600080fd5b505160065560408051630240bc6b60e21b815290516001600160a01b03831691630902f1ac916004808301926060929190829003018186803b158015620002cf57600080fd5b505afa158015620002e4573d6000803e3d6000fd5b505050506040513d6060811015620002fb57600080fd5b5080516020820151604090920151600980546001600160e01b0316600160e01b63ffffffff9093169290920291909117600160701b600160e01b031916600160701b6001600160701b0394851602176001600160701b03191691831691909117908190551615801590620003805750600954600160701b90046001600160701b031615155b620003d2576040805162461bcd60e51b815260206004820152601e60248201527f556e6973776170506169724f7261636c653a204e4f5f52455345525645530000604482015290519081900360640190fd5b50600080546001600160a01b039384166001600160a01b03199182161790915560018054929093169116179055506200059c9650505050505050565b600080806200041e8585620004b9565b91509150856001600160a01b031663e6a4390583836040518363ffffffff1660e01b815260040180836001600160a01b03168152602001826001600160a01b031681526020019250505060206040518083038186803b1580156200048157600080fd5b505afa15801562000496573d6000803e3d6000fd5b505050506040513d6020811015620004ad57600080fd5b50519695505050505050565b600080826001600160a01b0316846001600160a01b031614156200050f5760405162461bcd60e51b815260040180806020018281038252602581526020018062001afa6025913960400191505060405180910390fd5b826001600160a01b0316846001600160a01b0316106200053157828462000534565b83835b90925090506001600160a01b03821662000595576040805162461bcd60e51b815260206004820152601e60248201527f556e697377617056324c6962726172793a205a45524f5f414444524553530000604482015290519081900360640190fd5b9250929050565b60805160601c60a05160601c60c05160601c611514620005e6600039806106ff5280610cbe5250806103e5528061064f52508061058252806109885280610b8f52506115146000f3fe608060405234801561001057600080fd5b50600436106101985760003560e01c80635e6aaf2c116100e3578063b4d1d7951161008c578063d21220a711610066578063d21220a7146103b4578063dc6663c7146103bc578063f1551aea146103c457610198565b8063b4d1d79514610358578063bdacb30314610360578063c5700a021461039357610198565b8063a2e62045116100bd578063a2e6204514610340578063a6bb453914610348578063a8aa1b311461035057610198565b80635e6aaf2c146102f757806380edef8e14610330578063a17a26851461033857610198565b80633fcb55ca116101455780635a3d54931161011f5780635a3d5493146102ca5780635a76f25e146102d25780635cb9a714146102da57610198565b80633fcb55ca1461028f578063443cb4bc146102975780635909c0d5146102c257610198565b80631ac2c825116101765780631ac2c8251461022057806334184e261461023c5780633ddac9531461024457610198565b80630dfe16811461019d5780630f3a9f65146101ce57806313af4035146101ed575b600080fd5b6101a56103e3565b6040805173ffffffffffffffffffffffffffffffffffffffff9092168252519081900360200190f35b6101eb600480360360208110156101e457600080fd5b5035610407565b005b6101eb6004803603602081101561020357600080fd5b503573ffffffffffffffffffffffffffffffffffffffff1661049e565b610228610577565b604080519115158252519081900360200190f35b6101a5610580565b61027d6004803603604081101561025a57600080fd5b5073ffffffffffffffffffffffffffffffffffffffff81351690602001356105a4565b60408051918252519081900360200190f35b61027d610812565b61029f610818565b604080516dffffffffffffffffffffffffffff9092168252519081900360200190f35b61027d61082e565b61027d610834565b61029f61083a565b6101eb600480360360208110156102f057600080fd5b5035610862565b6102ff6108f9565b604080517bffffffffffffffffffffffffffffffffffffffffffffffffffffffff9092168252519081900360200190f35b6101a561091d565b610228610939565b6101eb61097e565b6102ff610b69565b6101a5610b8d565b61027d610bb1565b6101eb6004803603602081101561037657600080fd5b503573ffffffffffffffffffffffffffffffffffffffff16610bb7565b61039b610c90565b6040805163ffffffff9092168252519081900360200190f35b6101a5610cbc565b6101a5610ce0565b6101eb600480360360208110156103da57600080fd5b50351515610cfc565b7f000000000000000000000000000000000000000000000000000000000000000081565b60005473ffffffffffffffffffffffffffffffffffffffff16331480610444575060015473ffffffffffffffffffffffffffffffffffffffff1633145b610499576040517f08c379a000000000000000000000000000000000000000000000000000000000815260040180806020018281038252602f8152602001806114b0602f913960400191505060405180910390fd5b600255565b60005473ffffffffffffffffffffffffffffffffffffffff163314806104db575060015473ffffffffffffffffffffffffffffffffffffffff1633145b610530576040517f08c379a000000000000000000000000000000000000000000000000000000000815260040180806020018281038252602f8152602001806114b0602f913960400191505060405180910390fd5b600080547fffffffffffffffffffffffff00000000000000000000000000000000000000001673ffffffffffffffffffffffffffffffffffffffff92909216919091179055565b60045460ff1681565b7f000000000000000000000000000000000000000000000000000000000000000090565b6000806105af610e8d565b60095460035460025492935063ffffffff7c010000000000000000000000000000000000000000000000000000000090920482168403920190821610806105f8575060045460ff165b61064d576040517f08c379a000000000000000000000000000000000000000000000000000000000815260040180806020018281038252603581526020018061140e6035913960400191505060405180910390fd5b7f000000000000000000000000000000000000000000000000000000000000000073ffffffffffffffffffffffffffffffffffffffff168573ffffffffffffffffffffffffffffffffffffffff1614156106fd5760408051602081019091526007547bffffffffffffffffffffffffffffffffffffffffffffffffffffffff1681526106e2906106dd9086610e97565b610f44565b71ffffffffffffffffffffffffffffffffffff16925061080a565b7f000000000000000000000000000000000000000000000000000000000000000073ffffffffffffffffffffffffffffffffffffffff168573ffffffffffffffffffffffffffffffffffffffff16146107b757604080517f08c379a000000000000000000000000000000000000000000000000000000000815260206004820181905260248201527f556e6973776170506169724f7261636c653a20494e56414c49445f544f4b454e604482015290519081900360640190fd5b60408051602081019091526008547bffffffffffffffffffffffffffffffffffffffffffffffffffffffff1681526107f3906106dd9086610e97565b71ffffffffffffffffffffffffffffffffffff1692505b505092915050565b60035481565b6009546dffffffffffffffffffffffffffff1681565b60055481565b60065481565b6009546e01000000000000000000000000000090046dffffffffffffffffffffffffffff1681565b60005473ffffffffffffffffffffffffffffffffffffffff1633148061089f575060015473ffffffffffffffffffffffffffffffffffffffff1633145b6108f4576040517f08c379a000000000000000000000000000000000000000000000000000000000815260040180806020018281038252602f8152602001806114b0602f913960400191505060405180910390fd5b600355565b6008547bffffffffffffffffffffffffffffffffffffffffffffffffffffffff1681565b60005473ffffffffffffffffffffffffffffffffffffffff1681565b600080610944610e8d565b60095460025463ffffffff7c0100000000000000000000000000000000000000000000000000000000909204821690920316101591505090565b60008060006109ac7f0000000000000000000000000000000000000000000000000000000000000000610f4b565b600954600254939650919450925063ffffffff7c010000000000000000000000000000000000000000000000000000000090910481168303919082161015610a3f576040517f08c379a00000000000000000000000000000000000000000000000000000000081526004018080602001828103825260258152602001806114686025913960400191505060405180910390fd5b60405180602001604052808263ffffffff16600554870381610a5d57fe5b047bffffffffffffffffffffffffffffffffffffffffffffffffffffffff9081169091529051600780547fffffffff0000000000000000000000000000000000000000000000000000000016919092161790556040805160208101909152600654819063ffffffff841690860381610ad157fe5b047bffffffffffffffffffffffffffffffffffffffffffffffffffffffff9081169091529051600880547fffffffff000000000000000000000000000000000000000000000000000000001691831691909117905560059490945550600691909155600980549092167c010000000000000000000000000000000000000000000000000000000063ffffffff90921691909102179055565b6007547bffffffffffffffffffffffffffffffffffffffffffffffffffffffff1681565b7f000000000000000000000000000000000000000000000000000000000000000081565b60025481565b60005473ffffffffffffffffffffffffffffffffffffffff16331480610bf4575060015473ffffffffffffffffffffffffffffffffffffffff1633145b610c49576040517f08c379a000000000000000000000000000000000000000000000000000000000815260040180806020018281038252602f8152602001806114b0602f913960400191505060405180910390fd5b600180547fffffffffffffffffffffffff00000000000000000000000000000000000000001673ffffffffffffffffffffffffffffffffffffffff92909216919091179055565b6009547c0100000000000000000000000000000000000000000000000000000000900463ffffffff1681565b7f000000000000000000000000000000000000000000000000000000000000000081565b60015473ffffffffffffffffffffffffffffffffffffffff1681565b60005473ffffffffffffffffffffffffffffffffffffffff16331480610d39575060015473ffffffffffffffffffffffffffffffffffffffff1633145b610d8e576040517f08c379a000000000000000000000000000000000000000000000000000000000815260040180806020018281038252602f8152602001806114b0602f913960400191505060405180910390fd5b600480547fffffffffffffffffffffffffffffffffffffffffffffffffffffffffffffff0016911515919091179055565b6000806000610dce858561119d565b915091508573ffffffffffffffffffffffffffffffffffffffff1663e6a4390583836040518363ffffffff1660e01b8152600401808373ffffffffffffffffffffffffffffffffffffffff1681526020018273ffffffffffffffffffffffffffffffffffffffff1681526020019250505060206040518083038186803b158015610e5757600080fd5b505afa158015610e6b573d6000803e3d6000fd5b505050506040513d6020811015610e8157600080fd5b50519695505050505050565b63ffffffff421690565b610e9f6113e8565b6000821580610eda57505082517bffffffffffffffffffffffffffffffffffffffffffffffffffffffff1682810290838281610ed757fe5b04145b610f2f576040517f08c379a000000000000000000000000000000000000000000000000000000000815260040180806020018281038252602381526020018061148d6023913960400191505060405180910390fd5b60408051602081019091529081529392505050565b5160701c90565b6000806000610f58610e8d565b90508373ffffffffffffffffffffffffffffffffffffffff16635909c0d56040518163ffffffff1660e01b815260040160206040518083038186803b158015610fa057600080fd5b505afa158015610fb4573d6000803e3d6000fd5b505050506040513d6020811015610fca57600080fd5b5051604080517f5a3d5493000000000000000000000000000000000000000000000000000000008152905191945073ffffffffffffffffffffffffffffffffffffffff861691635a3d549391600480820192602092909190829003018186803b15801561103657600080fd5b505afa15801561104a573d6000803e3d6000fd5b505050506040513d602081101561106057600080fd5b5051604080517f0902f1ac00000000000000000000000000000000000000000000000000000000815290519193506000918291829173ffffffffffffffffffffffffffffffffffffffff891691630902f1ac916004808301926060929190829003018186803b1580156110d257600080fd5b505afa1580156110e6573d6000803e3d6000fd5b505050506040513d60608110156110fc57600080fd5b5080516020820151604090920151909450909250905063ffffffff808216908516146111935780840363ffffffff811661113684866112f0565b517bffffffffffffffffffffffffffffffffffffffffffffffffffffffff1602969096019563ffffffff811661116c85856112f0565b517bffffffffffffffffffffffffffffffffffffffffffffffffffffffff16029590950194505b5050509193909250565b6000808273ffffffffffffffffffffffffffffffffffffffff168473ffffffffffffffffffffffffffffffffffffffff161415611225576040517f08c379a00000000000000000000000000000000000000000000000000000000081526004018080602001828103825260258152602001806114436025913960400191505060405180910390fd5b8273ffffffffffffffffffffffffffffffffffffffff168473ffffffffffffffffffffffffffffffffffffffff161061125f578284611262565b83835b909250905073ffffffffffffffffffffffffffffffffffffffff82166112e957604080517f08c379a000000000000000000000000000000000000000000000000000000000815260206004820152601e60248201527f556e697377617056324c6962726172793a205a45524f5f414444524553530000604482015290519081900360640190fd5b9250929050565b6112f86113fb565b6000826dffffffffffffffffffffffffffff161161137757604080517f08c379a000000000000000000000000000000000000000000000000000000000815260206004820152601760248201527f4669786564506f696e743a204449565f42595f5a45524f000000000000000000604482015290519081900360640190fd5b6040805160208101909152806dffffffffffffffffffffffffffff84167bffffffffffffffffffffffffffff0000000000000000000000000000607087901b16816113be57fe5b047bffffffffffffffffffffffffffffffffffffffffffffffffffffffff16815250905092915050565b6040518060200160405280600081525090565b6040805160208101909152600081529056fe556e6973776170506169724f7261636c653a2050524943455f49535f5354414c455f4e4545445f544f5f43414c4c5f555044415445556e697377617056324c6962726172793a204944454e544943414c5f414444524553534553556e6973776170506169724f7261636c653a20504552494f445f4e4f545f454c41505345444669786564506f696e743a204d554c5449504c49434154494f4e5f4f564552464c4f57596f7520617265206e6f7420616e206f776e6572206f722074686520676f7665726e616e63652074696d656c6f636ba2646970667358221220d82816274b3ea93f071333f439c48d6483060047acb7ee22465e6063f6f3946764736f6c634300060c0033556e697377617056324c6962726172793a204944454e544943414c5f414444524553534553",
  "immutableReferences": {
    "12976": [
      {
        "length": 32,
        "start": 1410
      },
      {
        "length": 32,
        "start": 2440
      },
      {
        "length": 32,
        "start": 2959
      }
    ],
    "12978": [
      {
        "length": 32,
        "start": 997
      },
      {
        "length": 32,
        "start": 1615
      }
    ],
    "12980": [
      {
        "length": 32,
        "start": 1791
      },
      {
        "length": 32,
        "start": 3262
      }
    ]
  },
  "source": "// SPDX-License-Identifier: MIT\npragma solidity 0.6.12;\n\nimport '../UniswapPairOracle.sol';\n\n// Fixed window oracle that recomputes the average price for the entire period once every period\n// Note that the price average is only guaranteed to be over at least 1 period, but may be over a longer period\ncontract UniswapPairOracle_CERES_WETH is UniswapPairOracle {\n    constructor(address factory, address tokenA, address tokenB, address owner_address, address timelock_address) \n    UniswapPairOracle(factory, tokenA, tokenB, owner_address, timelock_address) \n    public {}\n}",
  "sourcePath": "/Users/cooper/GitHub/Prigogine/Ceres-Protocol/contracts/Oracle/Variants/UniswapPairOracle_CERES_WETH.sol",
  "compiler": {
    "name": "solc",
    "version": "0.6.12+commit.27d51765.Emscripten.clang"
  },
  "schemaVersion": "3.4.1",
  "updatedAt": "2021-07-29T03:47:51.394Z",
  "networkType": "ethereum",
  "devdoc": {
    "kind": "dev",
    "methods": {},
    "version": 1
  },
  "userdoc": {
    "kind": "user",
    "methods": {},
    "version": 1
  }
}